{
	"submissions/MeseretBirhanu/day15/GasSaver.sol": {
		"GasSaver": {
			"abi": [
				{
					"inputs": [
						{
							"internalType": "address",
							"name": "_addr",
							"type": "address"
						}
					],
					"stateMutability": "nonpayable",
					"type": "constructor"
				},
				{
					"inputs": [],
					"name": "NotContributor",
					"type": "error"
				},
				{
					"anonymous": false,
					"inputs": [
						{
							"indexed": true,
							"internalType": "address",
							"name": "",
							"type": "address"
						},
						{
							"indexed": false,
							"internalType": "string",
							"name": "",
							"type": "string"
						}
					],
					"name": "addContributor",
					"type": "event"
				},
				{
					"anonymous": false,
					"inputs": [
						{
							"indexed": false,
							"internalType": "string",
							"name": "",
							"type": "string"
						},
						{
							"indexed": false,
							"internalType": "uint256",
							"name": "",
							"type": "uint256"
						}
					],
					"name": "sentReward",
					"type": "event"
				},
				{
					"inputs": [],
					"name": "getContractBalance",
					"outputs": [
						{
							"internalType": "uint256",
							"name": "",
							"type": "uint256"
						}
					],
					"stateMutability": "view",
					"type": "function"
				},
				{
					"inputs": [],
					"name": "owner",
					"outputs": [
						{
							"internalType": "address",
							"name": "",
							"type": "address"
						}
					],
					"stateMutability": "view",
					"type": "function"
				},
				{
					"inputs": [
						{
							"internalType": "address",
							"name": "",
							"type": "address"
						}
					],
					"name": "records",
					"outputs": [
						{
							"internalType": "address",
							"name": "wallet",
							"type": "address"
						},
						{
							"internalType": "bool",
							"name": "isVerified",
							"type": "bool"
						},
						{
							"internalType": "uint8",
							"name": "level",
							"type": "uint8"
						},
						{
							"internalType": "string",
							"name": "name",
							"type": "string"
						}
					],
					"stateMutability": "view",
					"type": "function"
				},
				{
					"inputs": [
						{
							"internalType": "address[]",
							"name": "_wallet",
							"type": "address[]"
						},
						{
							"internalType": "string[]",
							"name": "_names",
							"type": "string[]"
						},
						{
							"internalType": "bool[]",
							"name": "_verified",
							"type": "bool[]"
						},
						{
							"internalType": "uint8[]",
							"name": "_level",
							"type": "uint8[]"
						}
					],
					"name": "register",
					"outputs": [],
					"stateMutability": "nonpayable",
					"type": "function"
				},
				{
					"inputs": [
						{
							"internalType": "address",
							"name": "_addr",
							"type": "address"
						},
						{
							"internalType": "uint256",
							"name": "_amount",
							"type": "uint256"
						}
					],
					"name": "reward",
					"outputs": [],
					"stateMutability": "nonpayable",
					"type": "function"
				},
				{
					"inputs": [],
					"name": "tokenContract",
					"outputs": [
						{
							"internalType": "contract IERC20",
							"name": "",
							"type": "address"
						}
					],
					"stateMutability": "view",
					"type": "function"
				}
			],
			"devdoc": {
				"kind": "dev",
				"methods": {},
				"version": 1
			},
			"evm": {
				"assembly": "    /* \"submissions/MeseretBirhanu/day15/GasSaver.sol\":241:1829  contract GasSaver{... */\n  mstore(0x40, 0x80)\n    /* \"submissions/MeseretBirhanu/day15/GasSaver.sol\":642:742  constructor(address _addr){... */\n  callvalue\n  dup1\n  iszero\n  tag_1\n  jumpi\n  revert(0x00, 0x00)\ntag_1:\n  pop\n  mload(0x40)\n  sub(codesize, bytecodeSize)\n  dup1\n  bytecodeSize\n  dup4\n  codecopy\n  dup2\n  dup2\n  add\n  0x40\n  mstore\n  dup2\n  add\n  swap1\n  tag_2\n  swap2\n  swap1\n  tag_3\n  jump\t// in\ntag_2:\n    /* \"submissions/MeseretBirhanu/day15/GasSaver.sol\":685:695  msg.sender */\n  caller\n    /* \"submissions/MeseretBirhanu/day15/GasSaver.sol\":677:682  owner */\n  0x01\n  0x00\n    /* \"submissions/MeseretBirhanu/day15/GasSaver.sol\":677:695  owner = msg.sender */\n  0x0100\n  exp\n  dup2\n  sload\n  dup2\n  0xffffffffffffffffffffffffffffffffffffffff\n  mul\n  not\n  and\n  swap1\n  dup4\n  0xffffffffffffffffffffffffffffffffffffffff\n  and\n  mul\n  or\n  swap1\n  sstore\n  pop\n    /* \"submissions/MeseretBirhanu/day15/GasSaver.sol\":726:731  _addr */\n  dup1\n    /* \"submissions/MeseretBirhanu/day15/GasSaver.sol\":703:716  tokenContract */\n  0x00\n  0x00\n    /* \"submissions/MeseretBirhanu/day15/GasSaver.sol\":703:732  tokenContract = IERC20(_addr) */\n  0x0100\n  exp\n  dup2\n  sload\n  dup2\n  0xffffffffffffffffffffffffffffffffffffffff\n  mul\n  not\n  and\n  swap1\n  dup4\n  0xffffffffffffffffffffffffffffffffffffffff\n  and\n  mul\n  or\n  swap1\n  sstore\n  pop\n    /* \"submissions/MeseretBirhanu/day15/GasSaver.sol\":642:742  constructor(address _addr){... */\n  pop\n    /* \"submissions/MeseretBirhanu/day15/GasSaver.sol\":241:1829  contract GasSaver{... */\n  jump(tag_6)\n    /* \"#utility.yul\":88:205   */\ntag_8:\n    /* \"#utility.yul\":197:198   */\n  0x00\n    /* \"#utility.yul\":194:195   */\n  0x00\n    /* \"#utility.yul\":187:199   */\n  revert\n    /* \"#utility.yul\":334:460   */\ntag_10:\n    /* \"#utility.yul\":371:378   */\n  0x00\n    /* \"#utility.yul\":411:453   */\n  0xffffffffffffffffffffffffffffffffffffffff\n    /* \"#utility.yul\":404:409   */\n  dup3\n    /* \"#utility.yul\":400:454   */\n  and\n    /* \"#utility.yul\":389:454   */\n  swap1\n  pop\n    /* \"#utility.yul\":334:460   */\n  swap2\n  swap1\n  pop\n  jump\t// out\n    /* \"#utility.yul\":466:562   */\ntag_11:\n    /* \"#utility.yul\":503:510   */\n  0x00\n    /* \"#utility.yul\":532:556   */\n  tag_20\n    /* \"#utility.yul\":550:555   */\n  dup3\n    /* \"#utility.yul\":532:556   */\n  tag_10\n  jump\t// in\ntag_20:\n    /* \"#utility.yul\":521:556   */\n  swap1\n  pop\n    /* \"#utility.yul\":466:562   */\n  swap2\n  swap1\n  pop\n  jump\t// out\n    /* \"#utility.yul\":568:690   */\ntag_12:\n    /* \"#utility.yul\":641:665   */\n  tag_22\n    /* \"#utility.yul\":659:664   */\n  dup2\n    /* \"#utility.yul\":641:665   */\n  tag_11\n  jump\t// in\ntag_22:\n    /* \"#utility.yul\":634:639   */\n  dup2\n    /* \"#utility.yul\":631:666   */\n  eq\n    /* \"#utility.yul\":621:684   */\n  tag_23\n  jumpi\n    /* \"#utility.yul\":680:681   */\n  0x00\n    /* \"#utility.yul\":677:678   */\n  0x00\n    /* \"#utility.yul\":670:682   */\n  revert\n    /* \"#utility.yul\":621:684   */\ntag_23:\n    /* \"#utility.yul\":568:690   */\n  pop\n  jump\t// out\n    /* \"#utility.yul\":696:839   */\ntag_13:\n    /* \"#utility.yul\":753:758   */\n  0x00\n    /* \"#utility.yul\":784:790   */\n  dup2\n    /* \"#utility.yul\":778:791   */\n  mload\n    /* \"#utility.yul\":769:791   */\n  swap1\n  pop\n    /* \"#utility.yul\":800:833   */\n  tag_25\n    /* \"#utility.yul\":827:832   */\n  dup2\n    /* \"#utility.yul\":800:833   */\n  tag_12\n  jump\t// in\ntag_25:\n    /* \"#utility.yul\":696:839   */\n  swap3\n  swap2\n  pop\n  pop\n  jump\t// out\n    /* \"#utility.yul\":845:1196   */\ntag_3:\n    /* \"#utility.yul\":915:921   */\n  0x00\n    /* \"#utility.yul\":964:966   */\n  0x20\n    /* \"#utility.yul\":952:961   */\n  dup3\n    /* \"#utility.yul\":943:950   */\n  dup5\n    /* \"#utility.yul\":939:962   */\n  sub\n    /* \"#utility.yul\":935:967   */\n  slt\n    /* \"#utility.yul\":932:1051   */\n  iszero\n  tag_27\n  jumpi\n    /* \"#utility.yul\":970:1049   */\n  tag_28\n  tag_8\n  jump\t// in\ntag_28:\n    /* \"#utility.yul\":932:1051   */\ntag_27:\n    /* \"#utility.yul\":1090:1091   */\n  0x00\n    /* \"#utility.yul\":1115:1179   */\n  tag_29\n    /* \"#utility.yul\":1171:1178   */\n  dup5\n    /* \"#utility.yul\":1162:1168   */\n  dup3\n    /* \"#utility.yul\":1151:1160   */\n  dup6\n    /* \"#utility.yul\":1147:1169   */\n  add\n    /* \"#utility.yul\":1115:1179   */\n  tag_13\n  jump\t// in\ntag_29:\n    /* \"#utility.yul\":1105:1179   */\n  swap2\n  pop\n    /* \"#utility.yul\":1061:1189   */\n  pop\n    /* \"#utility.yul\":845:1196   */\n  swap3\n  swap2\n  pop\n  pop\n  jump\t// out\n    /* \"submissions/MeseretBirhanu/day15/GasSaver.sol\":241:1829  contract GasSaver{... */\ntag_6:\n  dataSize(sub_0)\n  dup1\n  dataOffset(sub_0)\n  0x00\n  codecopy\n  0x00\n  return\nstop\n\nsub_0: assembly {\n        /* \"submissions/MeseretBirhanu/day15/GasSaver.sol\":241:1829  contract GasSaver{... */\n      mstore(0x40, 0x80)\n      callvalue\n      dup1\n      iszero\n      tag_1\n      jumpi\n      revert(0x00, 0x00)\n    tag_1:\n      pop\n      jumpi(tag_2, lt(calldatasize, 0x04))\n      shr(0xe0, calldataload(0x00))\n      dup1\n      0x21670f22\n      eq\n      tag_3\n      jumpi\n      dup1\n      0x469e9067\n      eq\n      tag_4\n      jumpi\n      dup1\n      0x55a373d6\n      eq\n      tag_5\n      jumpi\n      dup1\n      0x6aa1d2ac\n      eq\n      tag_6\n      jumpi\n      dup1\n      0x6f9fb98a\n      eq\n      tag_7\n      jumpi\n      dup1\n      0x8da5cb5b\n      eq\n      tag_8\n      jumpi\n    tag_2:\n      revert(0x00, 0x00)\n        /* \"submissions/MeseretBirhanu/day15/GasSaver.sol\":1268:1704  function reward(address _addr  ,uint256 _amount) public onlyOwner {... */\n    tag_3:\n      tag_9\n      0x04\n      dup1\n      calldatasize\n      sub\n      dup2\n      add\n      swap1\n      tag_10\n      swap2\n      swap1\n      tag_11\n      jump\t// in\n    tag_10:\n      tag_12\n      jump\t// in\n    tag_9:\n      stop\n        /* \"submissions/MeseretBirhanu/day15/GasSaver.sol\":489:535  mapping(address => Contributor) public records */\n    tag_4:\n      tag_13\n      0x04\n      dup1\n      calldatasize\n      sub\n      dup2\n      add\n      swap1\n      tag_14\n      swap2\n      swap1\n      tag_15\n      jump\t// in\n    tag_14:\n      tag_16\n      jump\t// in\n    tag_13:\n      mload(0x40)\n      tag_17\n      swap5\n      swap4\n      swap3\n      swap2\n      swap1\n      tag_18\n      jump\t// in\n    tag_17:\n      mload(0x40)\n      dup1\n      swap2\n      sub\n      swap1\n      return\n        /* \"submissions/MeseretBirhanu/day15/GasSaver.sol\":298:325  IERC20 public tokenContract */\n    tag_5:\n      tag_19\n      tag_20\n      jump\t// in\n    tag_19:\n      mload(0x40)\n      tag_21\n      swap2\n      swap1\n      tag_22\n      jump\t// in\n    tag_21:\n      mload(0x40)\n      dup1\n      swap2\n      sub\n      swap1\n      return\n        /* \"submissions/MeseretBirhanu/day15/GasSaver.sol\":866:1262  function register(address[] calldata _wallet ,string[] calldata _names, bool[] calldata _verified, uint8[] calldata _level) public {... */\n    tag_6:\n      tag_23\n      0x04\n      dup1\n      calldatasize\n      sub\n      dup2\n      add\n      swap1\n      tag_24\n      swap2\n      swap1\n      tag_25\n      jump\t// in\n    tag_24:\n      tag_26\n      jump\t// in\n    tag_23:\n      stop\n        /* \"submissions/MeseretBirhanu/day15/GasSaver.sol\":1710:1826  function getContractBalance() public view returns (uint256) {... */\n    tag_7:\n      tag_27\n      tag_28\n      jump\t// in\n    tag_27:\n      mload(0x40)\n      tag_29\n      swap2\n      swap1\n      tag_30\n      jump\t// in\n    tag_29:\n      mload(0x40)\n      dup1\n      swap2\n      sub\n      swap1\n      return\n        /* \"submissions/MeseretBirhanu/day15/GasSaver.sol\":332:352  address public owner */\n    tag_8:\n      tag_31\n      tag_32\n      jump\t// in\n    tag_31:\n      mload(0x40)\n      tag_33\n      swap2\n      swap1\n      tag_34\n      jump\t// in\n    tag_33:\n      mload(0x40)\n      dup1\n      swap2\n      sub\n      swap1\n      return\n        /* \"submissions/MeseretBirhanu/day15/GasSaver.sol\":1268:1704  function reward(address _addr  ,uint256 _amount) public onlyOwner {... */\n    tag_12:\n        /* \"submissions/MeseretBirhanu/day15/GasSaver.sol\":804:809  owner */\n      0x01\n      0x00\n      swap1\n      sload\n      swap1\n      0x0100\n      exp\n      swap1\n      div\n      0xffffffffffffffffffffffffffffffffffffffff\n      and\n        /* \"submissions/MeseretBirhanu/day15/GasSaver.sol\":790:809  msg.sender == owner */\n      0xffffffffffffffffffffffffffffffffffffffff\n      and\n        /* \"submissions/MeseretBirhanu/day15/GasSaver.sol\":790:800  msg.sender */\n      caller\n        /* \"submissions/MeseretBirhanu/day15/GasSaver.sol\":790:809  msg.sender == owner */\n      0xffffffffffffffffffffffffffffffffffffffff\n      and\n      eq\n        /* \"submissions/MeseretBirhanu/day15/GasSaver.sol\":782:830  require(msg.sender == owner, \"only for owners!\") */\n      tag_36\n      jumpi\n      mload(0x40)\n      0x08c379a000000000000000000000000000000000000000000000000000000000\n      dup2\n      mstore\n      0x04\n      add\n      tag_37\n      swap1\n      tag_38\n      jump\t// in\n    tag_37:\n      mload(0x40)\n      dup1\n      swap2\n      sub\n      swap1\n      revert\n    tag_36:\n        /* \"submissions/MeseretBirhanu/day15/GasSaver.sol\":1383:1384  0 */\n      0x00\n        /* \"submissions/MeseretBirhanu/day15/GasSaver.sol\":1350:1385  records[_addr].wallet == address(0) */\n      0xffffffffffffffffffffffffffffffffffffffff\n      and\n        /* \"submissions/MeseretBirhanu/day15/GasSaver.sol\":1350:1357  records */\n      0x02\n        /* \"submissions/MeseretBirhanu/day15/GasSaver.sol\":1350:1364  records[_addr] */\n      0x00\n        /* \"submissions/MeseretBirhanu/day15/GasSaver.sol\":1358:1363  _addr */\n      dup5\n        /* \"submissions/MeseretBirhanu/day15/GasSaver.sol\":1350:1364  records[_addr] */\n      0xffffffffffffffffffffffffffffffffffffffff\n      and\n      0xffffffffffffffffffffffffffffffffffffffff\n      and\n      dup2\n      mstore\n      0x20\n      add\n      swap1\n      dup2\n      mstore\n      0x20\n      add\n      0x00\n      keccak256\n        /* \"submissions/MeseretBirhanu/day15/GasSaver.sol\":1350:1371  records[_addr].wallet */\n      0x00\n      add\n      0x00\n      swap1\n      sload\n      swap1\n      0x0100\n      exp\n      swap1\n      div\n      0xffffffffffffffffffffffffffffffffffffffff\n      and\n        /* \"submissions/MeseretBirhanu/day15/GasSaver.sol\":1350:1385  records[_addr].wallet == address(0) */\n      0xffffffffffffffffffffffffffffffffffffffff\n      and\n      sub\n        /* \"submissions/MeseretBirhanu/day15/GasSaver.sol\":1347:1438  if(records[_addr].wallet == address(0)  ){... */\n      tag_40\n      jumpi\n        /* \"submissions/MeseretBirhanu/day15/GasSaver.sol\":1410:1426  NotContributor() */\n      mload(0x40)\n      0xd764187d00000000000000000000000000000000000000000000000000000000\n      dup2\n      mstore\n      0x04\n      add\n      mload(0x40)\n      dup1\n      swap2\n      sub\n      swap1\n      revert\n        /* \"submissions/MeseretBirhanu/day15/GasSaver.sol\":1347:1438  if(records[_addr].wallet == address(0)  ){... */\n    tag_40:\n        /* \"submissions/MeseretBirhanu/day15/GasSaver.sol\":1448:1470  Contributor memory _to */\n      0x00\n        /* \"submissions/MeseretBirhanu/day15/GasSaver.sol\":1473:1480  records */\n      0x02\n        /* \"submissions/MeseretBirhanu/day15/GasSaver.sol\":1473:1487  records[_addr] */\n      0x00\n        /* \"submissions/MeseretBirhanu/day15/GasSaver.sol\":1481:1486  _addr */\n      dup5\n        /* \"submissions/MeseretBirhanu/day15/GasSaver.sol\":1473:1487  records[_addr] */\n      0xffffffffffffffffffffffffffffffffffffffff\n      and\n      0xffffffffffffffffffffffffffffffffffffffff\n      and\n      dup2\n      mstore\n      0x20\n      add\n      swap1\n      dup2\n      mstore\n      0x20\n      add\n      0x00\n      keccak256\n        /* \"submissions/MeseretBirhanu/day15/GasSaver.sol\":1448:1487  Contributor memory _to = records[_addr] */\n      mload(0x40)\n      dup1\n      0x80\n      add\n      0x40\n      mstore\n      swap1\n      dup2\n      0x00\n      dup3\n      add\n      0x00\n      swap1\n      sload\n      swap1\n      0x0100\n      exp\n      swap1\n      div\n      0xffffffffffffffffffffffffffffffffffffffff\n      and\n      0xffffffffffffffffffffffffffffffffffffffff\n      and\n      0xffffffffffffffffffffffffffffffffffffffff\n      and\n      dup2\n      mstore\n      0x20\n      add\n      0x00\n      dup3\n      add\n      0x14\n      swap1\n      sload\n      swap1\n      0x0100\n      exp\n      swap1\n      div\n      0xff\n      and\n      iszero\n      iszero\n      iszero\n      iszero\n      dup2\n      mstore\n      0x20\n      add\n      0x00\n      dup3\n      add\n      0x15\n      swap1\n      sload\n      swap1\n      0x0100\n      exp\n      swap1\n      div\n      0xff\n      and\n      0xff\n      and\n      0xff\n      and\n      dup2\n      mstore\n      0x20\n      add\n      0x01\n      dup3\n      add\n      dup1\n      sload\n      tag_41\n      swap1\n      tag_42\n      jump\t// in\n    tag_41:\n      dup1\n      0x1f\n      add\n      0x20\n      dup1\n      swap2\n      div\n      mul\n      0x20\n      add\n      mload(0x40)\n      swap1\n      dup2\n      add\n      0x40\n      mstore\n      dup1\n      swap3\n      swap2\n      swap1\n      dup2\n      dup2\n      mstore\n      0x20\n      add\n      dup3\n      dup1\n      sload\n      tag_43\n      swap1\n      tag_42\n      jump\t// in\n    tag_43:\n      dup1\n      iszero\n      tag_44\n      jumpi\n      dup1\n      0x1f\n      lt\n      tag_45\n      jumpi\n      0x0100\n      dup1\n      dup4\n      sload\n      div\n      mul\n      dup4\n      mstore\n      swap2\n      0x20\n      add\n      swap2\n      jump(tag_44)\n    tag_45:\n      dup3\n      add\n      swap2\n      swap1\n      0x00\n      mstore\n      keccak256(0x00, 0x20)\n      swap1\n    tag_46:\n      dup2\n      sload\n      dup2\n      mstore\n      swap1\n      0x01\n      add\n      swap1\n      0x20\n      add\n      dup1\n      dup4\n      gt\n      tag_46\n      jumpi\n      dup3\n      swap1\n      sub\n      0x1f\n      and\n      dup3\n      add\n      swap2\n    tag_44:\n      pop\n      pop\n      pop\n      pop\n      pop\n      dup2\n      mstore\n      pop\n      pop\n      swap1\n      pop\n        /* \"submissions/MeseretBirhanu/day15/GasSaver.sol\":1506:1509  _to */\n      dup1\n        /* \"submissions/MeseretBirhanu/day15/GasSaver.sol\":1506:1520  _to.isVerified */\n      0x20\n      add\n      mload\n        /* \"submissions/MeseretBirhanu/day15/GasSaver.sol\":1498:1539  require(_to.isVerified , \"not verified!\") */\n      tag_47\n      jumpi\n      mload(0x40)\n      0x08c379a000000000000000000000000000000000000000000000000000000000\n      dup2\n      mstore\n      0x04\n      add\n      tag_48\n      swap1\n      tag_49\n      jump\t// in\n    tag_48:\n      mload(0x40)\n      dup1\n      swap2\n      sub\n      swap1\n      revert\n    tag_47:\n        /* \"submissions/MeseretBirhanu/day15/GasSaver.sol\":1551:1563  bool success */\n      0x00\n        /* \"submissions/MeseretBirhanu/day15/GasSaver.sol\":1566:1579  tokenContract */\n      0x00\n      0x00\n      swap1\n      sload\n      swap1\n      0x0100\n      exp\n      swap1\n      div\n      0xffffffffffffffffffffffffffffffffffffffff\n      and\n        /* \"submissions/MeseretBirhanu/day15/GasSaver.sol\":1566:1588  tokenContract.transfer */\n      0xffffffffffffffffffffffffffffffffffffffff\n      and\n      0xa9059cbb\n        /* \"submissions/MeseretBirhanu/day15/GasSaver.sol\":1589:1594  _addr */\n      dup6\n        /* \"submissions/MeseretBirhanu/day15/GasSaver.sol\":1596:1603  _amount */\n      dup6\n        /* \"submissions/MeseretBirhanu/day15/GasSaver.sol\":1566:1604  tokenContract.transfer(_addr, _amount) */\n      mload(0x40)\n      dup4\n      0xffffffff\n      and\n      0xe0\n      shl\n      dup2\n      mstore\n      0x04\n      add\n      tag_50\n      swap3\n      swap2\n      swap1\n      tag_51\n      jump\t// in\n    tag_50:\n      0x20\n      mload(0x40)\n      dup1\n      dup4\n      sub\n      dup2\n      0x00\n      dup8\n      gas\n      call\n      iszero\n      dup1\n      iszero\n      tag_53\n      jumpi\n      returndatacopy(0x00, 0x00, returndatasize)\n      revert(0x00, returndatasize)\n    tag_53:\n      pop\n      pop\n      pop\n      pop\n      mload(0x40)\n      returndatasize\n      not(0x1f)\n      0x1f\n      dup3\n      add\n      and\n      dup3\n      add\n      dup1\n      0x40\n      mstore\n      pop\n      dup2\n      add\n      swap1\n      tag_54\n      swap2\n      swap1\n      tag_55\n      jump\t// in\n    tag_54:\n        /* \"submissions/MeseretBirhanu/day15/GasSaver.sol\":1551:1604  bool success = tokenContract.transfer(_addr, _amount) */\n      swap1\n      pop\n        /* \"submissions/MeseretBirhanu/day15/GasSaver.sol\":1619:1626  success */\n      dup1\n        /* \"submissions/MeseretBirhanu/day15/GasSaver.sol\":1611:1651  require(success, \"ATH transfer failed!\") */\n      tag_56\n      jumpi\n      mload(0x40)\n      0x08c379a000000000000000000000000000000000000000000000000000000000\n      dup2\n      mstore\n      0x04\n      add\n      tag_57\n      swap1\n      tag_58\n      jump\t// in\n    tag_57:\n      mload(0x40)\n      dup1\n      swap2\n      sub\n      swap1\n      revert\n    tag_56:\n        /* \"submissions/MeseretBirhanu/day15/GasSaver.sol\":1664:1694  sentReward(_to.name ,_amount ) */\n      0xa841c12702c4cd6ea8c369f0e7e906600c667854d8c4c38a63a787d901058ff2\n        /* \"submissions/MeseretBirhanu/day15/GasSaver.sol\":1675:1678  _to */\n      dup3\n        /* \"submissions/MeseretBirhanu/day15/GasSaver.sol\":1675:1683  _to.name */\n      0x60\n      add\n      mload\n        /* \"submissions/MeseretBirhanu/day15/GasSaver.sol\":1685:1692  _amount */\n      dup5\n        /* \"submissions/MeseretBirhanu/day15/GasSaver.sol\":1664:1694  sentReward(_to.name ,_amount ) */\n      mload(0x40)\n      tag_59\n      swap3\n      swap2\n      swap1\n      tag_60\n      jump\t// in\n    tag_59:\n      mload(0x40)\n      dup1\n      swap2\n      sub\n      swap1\n      log1\n        /* \"submissions/MeseretBirhanu/day15/GasSaver.sol\":1334:1704  {... */\n      pop\n      pop\n        /* \"submissions/MeseretBirhanu/day15/GasSaver.sol\":1268:1704  function reward(address _addr  ,uint256 _amount) public onlyOwner {... */\n      pop\n      pop\n      jump\t// out\n        /* \"submissions/MeseretBirhanu/day15/GasSaver.sol\":489:535  mapping(address => Contributor) public records */\n    tag_16:\n      mstore(0x20, 0x02)\n      dup1\n      0x00\n      mstore\n      keccak256(0x00, 0x40)\n      0x00\n      swap2\n      pop\n      swap1\n      pop\n      dup1\n      0x00\n      add\n      0x00\n      swap1\n      sload\n      swap1\n      0x0100\n      exp\n      swap1\n      div\n      0xffffffffffffffffffffffffffffffffffffffff\n      and\n      swap1\n      dup1\n      0x00\n      add\n      0x14\n      swap1\n      sload\n      swap1\n      0x0100\n      exp\n      swap1\n      div\n      0xff\n      and\n      swap1\n      dup1\n      0x00\n      add\n      0x15\n      swap1\n      sload\n      swap1\n      0x0100\n      exp\n      swap1\n      div\n      0xff\n      and\n      swap1\n      dup1\n      0x01\n      add\n      dup1\n      sload\n      tag_61\n      swap1\n      tag_42\n      jump\t// in\n    tag_61:\n      dup1\n      0x1f\n      add\n      0x20\n      dup1\n      swap2\n      div\n      mul\n      0x20\n      add\n      mload(0x40)\n      swap1\n      dup2\n      add\n      0x40\n      mstore\n      dup1\n      swap3\n      swap2\n      swap1\n      dup2\n      dup2\n      mstore\n      0x20\n      add\n      dup3\n      dup1\n      sload\n      tag_62\n      swap1\n      tag_42\n      jump\t// in\n    tag_62:\n      dup1\n      iszero\n      tag_63\n      jumpi\n      dup1\n      0x1f\n      lt\n      tag_64\n      jumpi\n      0x0100\n      dup1\n      dup4\n      sload\n      div\n      mul\n      dup4\n      mstore\n      swap2\n      0x20\n      add\n      swap2\n      jump(tag_63)\n    tag_64:\n      dup3\n      add\n      swap2\n      swap1\n      0x00\n      mstore\n      keccak256(0x00, 0x20)\n      swap1\n    tag_65:\n      dup2\n      sload\n      dup2\n      mstore\n      swap1\n      0x01\n      add\n      swap1\n      0x20\n      add\n      dup1\n      dup4\n      gt\n      tag_65\n      jumpi\n      dup3\n      swap1\n      sub\n      0x1f\n      and\n      dup3\n      add\n      swap2\n    tag_63:\n      pop\n      pop\n      pop\n      pop\n      pop\n      swap1\n      pop\n      dup5\n      jump\t// out\n        /* \"submissions/MeseretBirhanu/day15/GasSaver.sol\":298:325  IERC20 public tokenContract */\n    tag_20:\n      0x00\n      0x00\n      swap1\n      sload\n      swap1\n      0x0100\n      exp\n      swap1\n      div\n      0xffffffffffffffffffffffffffffffffffffffff\n      and\n      dup2\n      jump\t// out\n        /* \"submissions/MeseretBirhanu/day15/GasSaver.sol\":866:1262  function register(address[] calldata _wallet ,string[] calldata _names, bool[] calldata _verified, uint8[] calldata _level) public {... */\n    tag_26:\n        /* \"submissions/MeseretBirhanu/day15/GasSaver.sol\":1008:1022  uint256 length */\n      0x00\n        /* \"submissions/MeseretBirhanu/day15/GasSaver.sol\":1025:1031  _names */\n      dup7\n      dup7\n        /* \"submissions/MeseretBirhanu/day15/GasSaver.sol\":1025:1038  _names.length */\n      swap1\n      pop\n        /* \"submissions/MeseretBirhanu/day15/GasSaver.sol\":1008:1038  uint256 length = _names.length */\n      swap1\n      pop\n        /* \"submissions/MeseretBirhanu/day15/GasSaver.sol\":1053:1062  uint256 i */\n      0x00\n        /* \"submissions/MeseretBirhanu/day15/GasSaver.sol\":1064:1065  0 */\n      0x00\n        /* \"submissions/MeseretBirhanu/day15/GasSaver.sol\":1053:1065  uint256 i =0 */\n      swap1\n      pop\n        /* \"submissions/MeseretBirhanu/day15/GasSaver.sol\":1049:1255  for(uint256 i =0; i< length; i++){... */\n    tag_67:\n        /* \"submissions/MeseretBirhanu/day15/GasSaver.sol\":1070:1076  length */\n      dup2\n        /* \"submissions/MeseretBirhanu/day15/GasSaver.sol\":1067:1068  i */\n      dup2\n        /* \"submissions/MeseretBirhanu/day15/GasSaver.sol\":1067:1076  i< length */\n      lt\n        /* \"submissions/MeseretBirhanu/day15/GasSaver.sol\":1049:1255  for(uint256 i =0; i< length; i++){... */\n      iszero\n      tag_68\n      jumpi\n        /* \"submissions/MeseretBirhanu/day15/GasSaver.sol\":1120:1182  Contributor(_wallet[i] , _verified[i] , _level[i] ,_names[i] ) */\n      mload(0x40)\n      dup1\n      0x80\n      add\n      0x40\n      mstore\n      dup1\n        /* \"submissions/MeseretBirhanu/day15/GasSaver.sol\":1132:1139  _wallet */\n      dup12\n      dup12\n        /* \"submissions/MeseretBirhanu/day15/GasSaver.sol\":1140:1141  i */\n      dup5\n        /* \"submissions/MeseretBirhanu/day15/GasSaver.sol\":1132:1142  _wallet[i] */\n      dup2\n      dup2\n      lt\n      tag_70\n      jumpi\n      tag_71\n      tag_72\n      jump\t// in\n    tag_71:\n    tag_70:\n      swap1\n      pop\n      0x20\n      mul\n      add\n      0x20\n      dup2\n      add\n      swap1\n      tag_73\n      swap2\n      swap1\n      tag_15\n      jump\t// in\n    tag_73:\n        /* \"submissions/MeseretBirhanu/day15/GasSaver.sol\":1120:1182  Contributor(_wallet[i] , _verified[i] , _level[i] ,_names[i] ) */\n      0xffffffffffffffffffffffffffffffffffffffff\n      and\n      dup2\n      mstore\n      0x20\n      add\n        /* \"submissions/MeseretBirhanu/day15/GasSaver.sol\":1145:1154  _verified */\n      dup8\n      dup8\n        /* \"submissions/MeseretBirhanu/day15/GasSaver.sol\":1155:1156  i */\n      dup5\n        /* \"submissions/MeseretBirhanu/day15/GasSaver.sol\":1145:1157  _verified[i] */\n      dup2\n      dup2\n      lt\n      tag_74\n      jumpi\n      tag_75\n      tag_72\n      jump\t// in\n    tag_75:\n    tag_74:\n      swap1\n      pop\n      0x20\n      mul\n      add\n      0x20\n      dup2\n      add\n      swap1\n      tag_76\n      swap2\n      swap1\n      tag_77\n      jump\t// in\n    tag_76:\n        /* \"submissions/MeseretBirhanu/day15/GasSaver.sol\":1120:1182  Contributor(_wallet[i] , _verified[i] , _level[i] ,_names[i] ) */\n      iszero\n      iszero\n      dup2\n      mstore\n      0x20\n      add\n        /* \"submissions/MeseretBirhanu/day15/GasSaver.sol\":1160:1166  _level */\n      dup6\n      dup6\n        /* \"submissions/MeseretBirhanu/day15/GasSaver.sol\":1167:1168  i */\n      dup5\n        /* \"submissions/MeseretBirhanu/day15/GasSaver.sol\":1160:1169  _level[i] */\n      dup2\n      dup2\n      lt\n      tag_78\n      jumpi\n      tag_79\n      tag_72\n      jump\t// in\n    tag_79:\n    tag_78:\n      swap1\n      pop\n      0x20\n      mul\n      add\n      0x20\n      dup2\n      add\n      swap1\n      tag_80\n      swap2\n      swap1\n      tag_81\n      jump\t// in\n    tag_80:\n        /* \"submissions/MeseretBirhanu/day15/GasSaver.sol\":1120:1182  Contributor(_wallet[i] , _verified[i] , _level[i] ,_names[i] ) */\n      0xff\n      and\n      dup2\n      mstore\n      0x20\n      add\n        /* \"submissions/MeseretBirhanu/day15/GasSaver.sol\":1171:1177  _names */\n      dup10\n      dup10\n        /* \"submissions/MeseretBirhanu/day15/GasSaver.sol\":1178:1179  i */\n      dup5\n        /* \"submissions/MeseretBirhanu/day15/GasSaver.sol\":1171:1180  _names[i] */\n      dup2\n      dup2\n      lt\n      tag_82\n      jumpi\n      tag_83\n      tag_72\n      jump\t// in\n    tag_83:\n    tag_82:\n      swap1\n      pop\n      0x20\n      mul\n      dup2\n      add\n      swap1\n      tag_84\n      swap2\n      swap1\n      tag_85\n      jump\t// in\n    tag_84:\n        /* \"submissions/MeseretBirhanu/day15/GasSaver.sol\":1120:1182  Contributor(_wallet[i] , _verified[i] , _level[i] ,_names[i] ) */\n      dup1\n      dup1\n      0x1f\n      add\n      0x20\n      dup1\n      swap2\n      div\n      mul\n      0x20\n      add\n      mload(0x40)\n      swap1\n      dup2\n      add\n      0x40\n      mstore\n      dup1\n      swap4\n      swap3\n      swap2\n      swap1\n      dup2\n      dup2\n      mstore\n      0x20\n      add\n      dup4\n      dup4\n      dup1\n      dup3\n      dup5\n      calldatacopy\n      0x00\n      dup2\n      dup5\n      add\n      mstore\n      not(0x1f)\n      0x1f\n      dup3\n      add\n      and\n      swap1\n      pop\n      dup1\n      dup4\n      add\n      swap3\n      pop\n      pop\n      pop\n      pop\n      pop\n      pop\n      pop\n      dup2\n      mstore\n      pop\n        /* \"submissions/MeseretBirhanu/day15/GasSaver.sol\":1098:1105  records */\n      0x02\n        /* \"submissions/MeseretBirhanu/day15/GasSaver.sol\":1098:1117  records[_wallet[i]] */\n      0x00\n        /* \"submissions/MeseretBirhanu/day15/GasSaver.sol\":1106:1113  _wallet */\n      dup13\n      dup13\n        /* \"submissions/MeseretBirhanu/day15/GasSaver.sol\":1114:1115  i */\n      dup6\n        /* \"submissions/MeseretBirhanu/day15/GasSaver.sol\":1106:1116  _wallet[i] */\n      dup2\n      dup2\n      lt\n      tag_86\n      jumpi\n      tag_87\n      tag_72\n      jump\t// in\n    tag_87:\n    tag_86:\n      swap1\n      pop\n      0x20\n      mul\n      add\n      0x20\n      dup2\n      add\n      swap1\n      tag_88\n      swap2\n      swap1\n      tag_15\n      jump\t// in\n    tag_88:\n        /* \"submissions/MeseretBirhanu/day15/GasSaver.sol\":1098:1117  records[_wallet[i]] */\n      0xffffffffffffffffffffffffffffffffffffffff\n      and\n      0xffffffffffffffffffffffffffffffffffffffff\n      and\n      dup2\n      mstore\n      0x20\n      add\n      swap1\n      dup2\n      mstore\n      0x20\n      add\n      0x00\n      keccak256\n        /* \"submissions/MeseretBirhanu/day15/GasSaver.sol\":1098:1182  records[_wallet[i]] = Contributor(_wallet[i] , _verified[i] , _level[i] ,_names[i] ) */\n      0x00\n      dup3\n      add\n      mload\n      dup2\n      0x00\n      add\n      exp(0x0100, 0x00)\n      dup2\n      sload\n      dup2\n      0xffffffffffffffffffffffffffffffffffffffff\n      mul\n      not\n      and\n      swap1\n      dup4\n      0xffffffffffffffffffffffffffffffffffffffff\n      and\n      mul\n      or\n      swap1\n      sstore\n      pop\n      0x20\n      dup3\n      add\n      mload\n      dup2\n      0x00\n      add\n      exp(0x0100, 0x14)\n      dup2\n      sload\n      dup2\n      0xff\n      mul\n      not\n      and\n      swap1\n      dup4\n      iszero\n      iszero\n      mul\n      or\n      swap1\n      sstore\n      pop\n      0x40\n      dup3\n      add\n      mload\n      dup2\n      0x00\n      add\n      exp(0x0100, 0x15)\n      dup2\n      sload\n      dup2\n      0xff\n      mul\n      not\n      and\n      swap1\n      dup4\n      0xff\n      and\n      mul\n      or\n      swap1\n      sstore\n      pop\n      0x60\n      dup3\n      add\n      mload\n      dup2\n      0x01\n      add\n      swap1\n      dup2\n      tag_89\n      swap2\n      swap1\n      tag_90\n      jump\t// in\n    tag_89:\n      pop\n      swap1\n      pop\n      pop\n        /* \"submissions/MeseretBirhanu/day15/GasSaver.sol\":1217:1224  _wallet */\n      dup10\n      dup10\n        /* \"submissions/MeseretBirhanu/day15/GasSaver.sol\":1225:1226  i */\n      dup3\n        /* \"submissions/MeseretBirhanu/day15/GasSaver.sol\":1217:1227  _wallet[i] */\n      dup2\n      dup2\n      lt\n      tag_91\n      jumpi\n      tag_92\n      tag_72\n      jump\t// in\n    tag_92:\n    tag_91:\n      swap1\n      pop\n      0x20\n      mul\n      add\n      0x20\n      dup2\n      add\n      swap1\n      tag_93\n      swap2\n      swap1\n      tag_15\n      jump\t// in\n    tag_93:\n        /* \"submissions/MeseretBirhanu/day15/GasSaver.sol\":1202:1241  addContributor(_wallet[i] , _names[i] ) */\n      0xffffffffffffffffffffffffffffffffffffffff\n      and\n      0x21f0ef8ecb39babd1f22ce5ea02510839dbcf939b6ba195a9f8bc7442aca5a0e\n        /* \"submissions/MeseretBirhanu/day15/GasSaver.sol\":1230:1236  _names */\n      dup10\n      dup10\n        /* \"submissions/MeseretBirhanu/day15/GasSaver.sol\":1237:1238  i */\n      dup5\n        /* \"submissions/MeseretBirhanu/day15/GasSaver.sol\":1230:1239  _names[i] */\n      dup2\n      dup2\n      lt\n      tag_94\n      jumpi\n      tag_95\n      tag_72\n      jump\t// in\n    tag_95:\n    tag_94:\n      swap1\n      pop\n      0x20\n      mul\n      dup2\n      add\n      swap1\n      tag_96\n      swap2\n      swap1\n      tag_85\n      jump\t// in\n    tag_96:\n        /* \"submissions/MeseretBirhanu/day15/GasSaver.sol\":1202:1241  addContributor(_wallet[i] , _names[i] ) */\n      mload(0x40)\n      tag_97\n      swap3\n      swap2\n      swap1\n      tag_98\n      jump\t// in\n    tag_97:\n      mload(0x40)\n      dup1\n      swap2\n      sub\n      swap1\n      log2\n        /* \"submissions/MeseretBirhanu/day15/GasSaver.sol\":1078:1081  i++ */\n      dup1\n      dup1\n      0x01\n      add\n      swap2\n      pop\n      pop\n        /* \"submissions/MeseretBirhanu/day15/GasSaver.sol\":1049:1255  for(uint256 i =0; i< length; i++){... */\n      jump(tag_67)\n    tag_68:\n      pop\n        /* \"submissions/MeseretBirhanu/day15/GasSaver.sol\":997:1262  {... */\n      pop\n        /* \"submissions/MeseretBirhanu/day15/GasSaver.sol\":866:1262  function register(address[] calldata _wallet ,string[] calldata _names, bool[] calldata _verified, uint8[] calldata _level) public {... */\n      pop\n      pop\n      pop\n      pop\n      pop\n      pop\n      pop\n      pop\n      jump\t// out\n        /* \"submissions/MeseretBirhanu/day15/GasSaver.sol\":1710:1826  function getContractBalance() public view returns (uint256) {... */\n    tag_28:\n        /* \"submissions/MeseretBirhanu/day15/GasSaver.sol\":1761:1768  uint256 */\n      0x00\n        /* \"submissions/MeseretBirhanu/day15/GasSaver.sol\":1784:1797  tokenContract */\n      0x00\n      0x00\n      swap1\n      sload\n      swap1\n      0x0100\n      exp\n      swap1\n      div\n      0xffffffffffffffffffffffffffffffffffffffff\n      and\n        /* \"submissions/MeseretBirhanu/day15/GasSaver.sol\":1784:1807  tokenContract.balanceOf */\n      0xffffffffffffffffffffffffffffffffffffffff\n      and\n      0x70a08231\n        /* \"submissions/MeseretBirhanu/day15/GasSaver.sol\":1816:1820  this */\n      address\n        /* \"submissions/MeseretBirhanu/day15/GasSaver.sol\":1784:1822  tokenContract.balanceOf(address(this)) */\n      mload(0x40)\n      dup3\n      0xffffffff\n      and\n      0xe0\n      shl\n      dup2\n      mstore\n      0x04\n      add\n      tag_100\n      swap2\n      swap1\n      tag_34\n      jump\t// in\n    tag_100:\n      0x20\n      mload(0x40)\n      dup1\n      dup4\n      sub\n      dup2\n      dup7\n      gas\n      staticcall\n      iszero\n      dup1\n      iszero\n      tag_102\n      jumpi\n      returndatacopy(0x00, 0x00, returndatasize)\n      revert(0x00, returndatasize)\n    tag_102:\n      pop\n      pop\n      pop\n      pop\n      mload(0x40)\n      returndatasize\n      not(0x1f)\n      0x1f\n      dup3\n      add\n      and\n      dup3\n      add\n      dup1\n      0x40\n      mstore\n      pop\n      dup2\n      add\n      swap1\n      tag_103\n      swap2\n      swap1\n      tag_104\n      jump\t// in\n    tag_103:\n        /* \"submissions/MeseretBirhanu/day15/GasSaver.sol\":1777:1822  return tokenContract.balanceOf(address(this)) */\n      swap1\n      pop\n        /* \"submissions/MeseretBirhanu/day15/GasSaver.sol\":1710:1826  function getContractBalance() public view returns (uint256) {... */\n      swap1\n      jump\t// out\n        /* \"submissions/MeseretBirhanu/day15/GasSaver.sol\":332:352  address public owner */\n    tag_32:\n      0x01\n      0x00\n      swap1\n      sload\n      swap1\n      0x0100\n      exp\n      swap1\n      div\n      0xffffffffffffffffffffffffffffffffffffffff\n      and\n      dup2\n      jump\t// out\n        /* \"#utility.yul\":88:205   */\n    tag_106:\n        /* \"#utility.yul\":197:198   */\n      0x00\n        /* \"#utility.yul\":194:195   */\n      0x00\n        /* \"#utility.yul\":187:199   */\n      revert\n        /* \"#utility.yul\":211:328   */\n    tag_107:\n        /* \"#utility.yul\":320:321   */\n      0x00\n        /* \"#utility.yul\":317:318   */\n      0x00\n        /* \"#utility.yul\":310:322   */\n      revert\n        /* \"#utility.yul\":334:460   */\n    tag_108:\n        /* \"#utility.yul\":371:378   */\n      0x00\n        /* \"#utility.yul\":411:453   */\n      0xffffffffffffffffffffffffffffffffffffffff\n        /* \"#utility.yul\":404:409   */\n      dup3\n        /* \"#utility.yul\":400:454   */\n      and\n        /* \"#utility.yul\":389:454   */\n      swap1\n      pop\n        /* \"#utility.yul\":334:460   */\n      swap2\n      swap1\n      pop\n      jump\t// out\n        /* \"#utility.yul\":466:562   */\n    tag_109:\n        /* \"#utility.yul\":503:510   */\n      0x00\n        /* \"#utility.yul\":532:556   */\n      tag_177\n        /* \"#utility.yul\":550:555   */\n      dup3\n        /* \"#utility.yul\":532:556   */\n      tag_108\n      jump\t// in\n    tag_177:\n        /* \"#utility.yul\":521:556   */\n      swap1\n      pop\n        /* \"#utility.yul\":466:562   */\n      swap2\n      swap1\n      pop\n      jump\t// out\n        /* \"#utility.yul\":568:690   */\n    tag_110:\n        /* \"#utility.yul\":641:665   */\n      tag_179\n        /* \"#utility.yul\":659:664   */\n      dup2\n        /* \"#utility.yul\":641:665   */\n      tag_109\n      jump\t// in\n    tag_179:\n        /* \"#utility.yul\":634:639   */\n      dup2\n        /* \"#utility.yul\":631:666   */\n      eq\n        /* \"#utility.yul\":621:684   */\n      tag_180\n      jumpi\n        /* \"#utility.yul\":680:681   */\n      0x00\n        /* \"#utility.yul\":677:678   */\n      0x00\n        /* \"#utility.yul\":670:682   */\n      revert\n        /* \"#utility.yul\":621:684   */\n    tag_180:\n        /* \"#utility.yul\":568:690   */\n      pop\n      jump\t// out\n        /* \"#utility.yul\":696:835   */\n    tag_111:\n        /* \"#utility.yul\":742:747   */\n      0x00\n        /* \"#utility.yul\":780:786   */\n      dup2\n        /* \"#utility.yul\":767:787   */\n      calldataload\n        /* \"#utility.yul\":758:787   */\n      swap1\n      pop\n        /* \"#utility.yul\":796:829   */\n      tag_182\n        /* \"#utility.yul\":823:828   */\n      dup2\n        /* \"#utility.yul\":796:829   */\n      tag_110\n      jump\t// in\n    tag_182:\n        /* \"#utility.yul\":696:835   */\n      swap3\n      swap2\n      pop\n      pop\n      jump\t// out\n        /* \"#utility.yul\":841:918   */\n    tag_112:\n        /* \"#utility.yul\":878:885   */\n      0x00\n        /* \"#utility.yul\":907:912   */\n      dup2\n        /* \"#utility.yul\":896:912   */\n      swap1\n      pop\n        /* \"#utility.yul\":841:918   */\n      swap2\n      swap1\n      pop\n      jump\t// out\n        /* \"#utility.yul\":924:1046   */\n    tag_113:\n        /* \"#utility.yul\":997:1021   */\n      tag_185\n        /* \"#utility.yul\":1015:1020   */\n      dup2\n        /* \"#utility.yul\":997:1021   */\n      tag_112\n      jump\t// in\n    tag_185:\n        /* \"#utility.yul\":990:995   */\n      dup2\n        /* \"#utility.yul\":987:1022   */\n      eq\n        /* \"#utility.yul\":977:1040   */\n      tag_186\n      jumpi\n        /* \"#utility.yul\":1036:1037   */\n      0x00\n        /* \"#utility.yul\":1033:1034   */\n      0x00\n        /* \"#utility.yul\":1026:1038   */\n      revert\n        /* \"#utility.yul\":977:1040   */\n    tag_186:\n        /* \"#utility.yul\":924:1046   */\n      pop\n      jump\t// out\n        /* \"#utility.yul\":1052:1191   */\n    tag_114:\n        /* \"#utility.yul\":1098:1103   */\n      0x00\n        /* \"#utility.yul\":1136:1142   */\n      dup2\n        /* \"#utility.yul\":1123:1143   */\n      calldataload\n        /* \"#utility.yul\":1114:1143   */\n      swap1\n      pop\n        /* \"#utility.yul\":1152:1185   */\n      tag_188\n        /* \"#utility.yul\":1179:1184   */\n      dup2\n        /* \"#utility.yul\":1152:1185   */\n      tag_113\n      jump\t// in\n    tag_188:\n        /* \"#utility.yul\":1052:1191   */\n      swap3\n      swap2\n      pop\n      pop\n      jump\t// out\n        /* \"#utility.yul\":1197:1671   */\n    tag_11:\n        /* \"#utility.yul\":1265:1271   */\n      0x00\n        /* \"#utility.yul\":1273:1279   */\n      0x00\n        /* \"#utility.yul\":1322:1324   */\n      0x40\n        /* \"#utility.yul\":1310:1319   */\n      dup4\n        /* \"#utility.yul\":1301:1308   */\n      dup6\n        /* \"#utility.yul\":1297:1320   */\n      sub\n        /* \"#utility.yul\":1293:1325   */\n      slt\n        /* \"#utility.yul\":1290:1409   */\n      iszero\n      tag_190\n      jumpi\n        /* \"#utility.yul\":1328:1407   */\n      tag_191\n      tag_106\n      jump\t// in\n    tag_191:\n        /* \"#utility.yul\":1290:1409   */\n    tag_190:\n        /* \"#utility.yul\":1448:1449   */\n      0x00\n        /* \"#utility.yul\":1473:1526   */\n      tag_192\n        /* \"#utility.yul\":1518:1525   */\n      dup6\n        /* \"#utility.yul\":1509:1515   */\n      dup3\n        /* \"#utility.yul\":1498:1507   */\n      dup7\n        /* \"#utility.yul\":1494:1516   */\n      add\n        /* \"#utility.yul\":1473:1526   */\n      tag_111\n      jump\t// in\n    tag_192:\n        /* \"#utility.yul\":1463:1526   */\n      swap3\n      pop\n        /* \"#utility.yul\":1419:1536   */\n      pop\n        /* \"#utility.yul\":1575:1577   */\n      0x20\n        /* \"#utility.yul\":1601:1654   */\n      tag_193\n        /* \"#utility.yul\":1646:1653   */\n      dup6\n        /* \"#utility.yul\":1637:1643   */\n      dup3\n        /* \"#utility.yul\":1626:1635   */\n      dup7\n        /* \"#utility.yul\":1622:1644   */\n      add\n        /* \"#utility.yul\":1601:1654   */\n      tag_114\n      jump\t// in\n    tag_193:\n        /* \"#utility.yul\":1591:1654   */\n      swap2\n      pop\n        /* \"#utility.yul\":1546:1664   */\n      pop\n        /* \"#utility.yul\":1197:1671   */\n      swap3\n      pop\n      swap3\n      swap1\n      pop\n      jump\t// out\n        /* \"#utility.yul\":1677:2006   */\n    tag_15:\n        /* \"#utility.yul\":1736:1742   */\n      0x00\n        /* \"#utility.yul\":1785:1787   */\n      0x20\n        /* \"#utility.yul\":1773:1782   */\n      dup3\n        /* \"#utility.yul\":1764:1771   */\n      dup5\n        /* \"#utility.yul\":1760:1783   */\n      sub\n        /* \"#utility.yul\":1756:1788   */\n      slt\n        /* \"#utility.yul\":1753:1872   */\n      iszero\n      tag_195\n      jumpi\n        /* \"#utility.yul\":1791:1870   */\n      tag_196\n      tag_106\n      jump\t// in\n    tag_196:\n        /* \"#utility.yul\":1753:1872   */\n    tag_195:\n        /* \"#utility.yul\":1911:1912   */\n      0x00\n        /* \"#utility.yul\":1936:1989   */\n      tag_197\n        /* \"#utility.yul\":1981:1988   */\n      dup5\n        /* \"#utility.yul\":1972:1978   */\n      dup3\n        /* \"#utility.yul\":1961:1970   */\n      dup6\n        /* \"#utility.yul\":1957:1979   */\n      add\n        /* \"#utility.yul\":1936:1989   */\n      tag_111\n      jump\t// in\n    tag_197:\n        /* \"#utility.yul\":1926:1989   */\n      swap2\n      pop\n        /* \"#utility.yul\":1882:1999   */\n      pop\n        /* \"#utility.yul\":1677:2006   */\n      swap3\n      swap2\n      pop\n      pop\n      jump\t// out\n        /* \"#utility.yul\":2012:2130   */\n    tag_115:\n        /* \"#utility.yul\":2099:2123   */\n      tag_199\n        /* \"#utility.yul\":2117:2122   */\n      dup2\n        /* \"#utility.yul\":2099:2123   */\n      tag_109\n      jump\t// in\n    tag_199:\n        /* \"#utility.yul\":2094:2097   */\n      dup3\n        /* \"#utility.yul\":2087:2124   */\n      mstore\n        /* \"#utility.yul\":2012:2130   */\n      pop\n      pop\n      jump\t// out\n        /* \"#utility.yul\":2136:2226   */\n    tag_116:\n        /* \"#utility.yul\":2170:2177   */\n      0x00\n        /* \"#utility.yul\":2213:2218   */\n      dup2\n        /* \"#utility.yul\":2206:2219   */\n      iszero\n        /* \"#utility.yul\":2199:2220   */\n      iszero\n        /* \"#utility.yul\":2188:2220   */\n      swap1\n      pop\n        /* \"#utility.yul\":2136:2226   */\n      swap2\n      swap1\n      pop\n      jump\t// out\n        /* \"#utility.yul\":2232:2341   */\n    tag_117:\n        /* \"#utility.yul\":2313:2334   */\n      tag_202\n        /* \"#utility.yul\":2328:2333   */\n      dup2\n        /* \"#utility.yul\":2313:2334   */\n      tag_116\n      jump\t// in\n    tag_202:\n        /* \"#utility.yul\":2308:2311   */\n      dup3\n        /* \"#utility.yul\":2301:2335   */\n      mstore\n        /* \"#utility.yul\":2232:2341   */\n      pop\n      pop\n      jump\t// out\n        /* \"#utility.yul\":2347:2433   */\n    tag_118:\n        /* \"#utility.yul\":2382:2389   */\n      0x00\n        /* \"#utility.yul\":2422:2426   */\n      0xff\n        /* \"#utility.yul\":2415:2420   */\n      dup3\n        /* \"#utility.yul\":2411:2427   */\n      and\n        /* \"#utility.yul\":2400:2427   */\n      swap1\n      pop\n        /* \"#utility.yul\":2347:2433   */\n      swap2\n      swap1\n      pop\n      jump\t// out\n        /* \"#utility.yul\":2439:2551   */\n    tag_119:\n        /* \"#utility.yul\":2522:2544   */\n      tag_205\n        /* \"#utility.yul\":2538:2543   */\n      dup2\n        /* \"#utility.yul\":2522:2544   */\n      tag_118\n      jump\t// in\n    tag_205:\n        /* \"#utility.yul\":2517:2520   */\n      dup3\n        /* \"#utility.yul\":2510:2545   */\n      mstore\n        /* \"#utility.yul\":2439:2551   */\n      pop\n      pop\n      jump\t// out\n        /* \"#utility.yul\":2557:2656   */\n    tag_120:\n        /* \"#utility.yul\":2609:2615   */\n      0x00\n        /* \"#utility.yul\":2643:2648   */\n      dup2\n        /* \"#utility.yul\":2637:2649   */\n      mload\n        /* \"#utility.yul\":2627:2649   */\n      swap1\n      pop\n        /* \"#utility.yul\":2557:2656   */\n      swap2\n      swap1\n      pop\n      jump\t// out\n        /* \"#utility.yul\":2662:2831   */\n    tag_121:\n        /* \"#utility.yul\":2746:2757   */\n      0x00\n        /* \"#utility.yul\":2780:2786   */\n      dup3\n        /* \"#utility.yul\":2775:2778   */\n      dup3\n        /* \"#utility.yul\":2768:2787   */\n      mstore\n        /* \"#utility.yul\":2820:2824   */\n      0x20\n        /* \"#utility.yul\":2815:2818   */\n      dup3\n        /* \"#utility.yul\":2811:2825   */\n      add\n        /* \"#utility.yul\":2796:2825   */\n      swap1\n      pop\n        /* \"#utility.yul\":2662:2831   */\n      swap3\n      swap2\n      pop\n      pop\n      jump\t// out\n        /* \"#utility.yul\":2837:2976   */\n    tag_122:\n        /* \"#utility.yul\":2926:2932   */\n      dup3\n        /* \"#utility.yul\":2921:2924   */\n      dup2\n        /* \"#utility.yul\":2916:2919   */\n      dup4\n        /* \"#utility.yul\":2910:2933   */\n      mcopy\n        /* \"#utility.yul\":2967:2968   */\n      0x00\n        /* \"#utility.yul\":2958:2964   */\n      dup4\n        /* \"#utility.yul\":2953:2956   */\n      dup4\n        /* \"#utility.yul\":2949:2965   */\n      add\n        /* \"#utility.yul\":2942:2969   */\n      mstore\n        /* \"#utility.yul\":2837:2976   */\n      pop\n      pop\n      pop\n      jump\t// out\n        /* \"#utility.yul\":2982:3084   */\n    tag_123:\n        /* \"#utility.yul\":3023:3029   */\n      0x00\n        /* \"#utility.yul\":3074:3076   */\n      0x1f\n        /* \"#utility.yul\":3070:3077   */\n      not\n        /* \"#utility.yul\":3065:3067   */\n      0x1f\n        /* \"#utility.yul\":3058:3063   */\n      dup4\n        /* \"#utility.yul\":3054:3068   */\n      add\n        /* \"#utility.yul\":3050:3078   */\n      and\n        /* \"#utility.yul\":3040:3078   */\n      swap1\n      pop\n        /* \"#utility.yul\":2982:3084   */\n      swap2\n      swap1\n      pop\n      jump\t// out\n        /* \"#utility.yul\":3090:3467   */\n    tag_124:\n        /* \"#utility.yul\":3178:3181   */\n      0x00\n        /* \"#utility.yul\":3206:3245   */\n      tag_211\n        /* \"#utility.yul\":3239:3244   */\n      dup3\n        /* \"#utility.yul\":3206:3245   */\n      tag_120\n      jump\t// in\n    tag_211:\n        /* \"#utility.yul\":3261:3332   */\n      tag_212\n        /* \"#utility.yul\":3325:3331   */\n      dup2\n        /* \"#utility.yul\":3320:3323   */\n      dup6\n        /* \"#utility.yul\":3261:3332   */\n      tag_121\n      jump\t// in\n    tag_212:\n        /* \"#utility.yul\":3254:3332   */\n      swap4\n      pop\n        /* \"#utility.yul\":3341:3406   */\n      tag_213\n        /* \"#utility.yul\":3399:3405   */\n      dup2\n        /* \"#utility.yul\":3394:3397   */\n      dup6\n        /* \"#utility.yul\":3387:3391   */\n      0x20\n        /* \"#utility.yul\":3380:3385   */\n      dup7\n        /* \"#utility.yul\":3376:3392   */\n      add\n        /* \"#utility.yul\":3341:3406   */\n      tag_122\n      jump\t// in\n    tag_213:\n        /* \"#utility.yul\":3431:3460   */\n      tag_214\n        /* \"#utility.yul\":3453:3459   */\n      dup2\n        /* \"#utility.yul\":3431:3460   */\n      tag_123\n      jump\t// in\n    tag_214:\n        /* \"#utility.yul\":3426:3429   */\n      dup5\n        /* \"#utility.yul\":3422:3461   */\n      add\n        /* \"#utility.yul\":3415:3461   */\n      swap2\n      pop\n        /* \"#utility.yul\":3182:3467   */\n      pop\n        /* \"#utility.yul\":3090:3467   */\n      swap3\n      swap2\n      pop\n      pop\n      jump\t// out\n        /* \"#utility.yul\":3473:4097   */\n    tag_18:\n        /* \"#utility.yul\":3660:3664   */\n      0x00\n        /* \"#utility.yul\":3698:3701   */\n      0x80\n        /* \"#utility.yul\":3687:3696   */\n      dup3\n        /* \"#utility.yul\":3683:3702   */\n      add\n        /* \"#utility.yul\":3675:3702   */\n      swap1\n      pop\n        /* \"#utility.yul\":3712:3783   */\n      tag_216\n        /* \"#utility.yul\":3780:3781   */\n      0x00\n        /* \"#utility.yul\":3769:3778   */\n      dup4\n        /* \"#utility.yul\":3765:3782   */\n      add\n        /* \"#utility.yul\":3756:3762   */\n      dup8\n        /* \"#utility.yul\":3712:3783   */\n      tag_115\n      jump\t// in\n    tag_216:\n        /* \"#utility.yul\":3793:3859   */\n      tag_217\n        /* \"#utility.yul\":3855:3857   */\n      0x20\n        /* \"#utility.yul\":3844:3853   */\n      dup4\n        /* \"#utility.yul\":3840:3858   */\n      add\n        /* \"#utility.yul\":3831:3837   */\n      dup7\n        /* \"#utility.yul\":3793:3859   */\n      tag_117\n      jump\t// in\n    tag_217:\n        /* \"#utility.yul\":3869:3937   */\n      tag_218\n        /* \"#utility.yul\":3933:3935   */\n      0x40\n        /* \"#utility.yul\":3922:3931   */\n      dup4\n        /* \"#utility.yul\":3918:3936   */\n      add\n        /* \"#utility.yul\":3909:3915   */\n      dup6\n        /* \"#utility.yul\":3869:3937   */\n      tag_119\n      jump\t// in\n    tag_218:\n        /* \"#utility.yul\":3984:3993   */\n      dup2\n        /* \"#utility.yul\":3978:3982   */\n      dup2\n        /* \"#utility.yul\":3974:3994   */\n      sub\n        /* \"#utility.yul\":3969:3971   */\n      0x60\n        /* \"#utility.yul\":3958:3967   */\n      dup4\n        /* \"#utility.yul\":3954:3972   */\n      add\n        /* \"#utility.yul\":3947:3995   */\n      mstore\n        /* \"#utility.yul\":4012:4090   */\n      tag_219\n        /* \"#utility.yul\":4085:4089   */\n      dup2\n        /* \"#utility.yul\":4076:4082   */\n      dup5\n        /* \"#utility.yul\":4012:4090   */\n      tag_124\n      jump\t// in\n    tag_219:\n        /* \"#utility.yul\":4004:4090   */\n      swap1\n      pop\n        /* \"#utility.yul\":3473:4097   */\n      swap6\n      swap5\n      pop\n      pop\n      pop\n      pop\n      pop\n      jump\t// out\n        /* \"#utility.yul\":4103:4163   */\n    tag_125:\n        /* \"#utility.yul\":4131:4134   */\n      0x00\n        /* \"#utility.yul\":4152:4157   */\n      dup2\n        /* \"#utility.yul\":4145:4157   */\n      swap1\n      pop\n        /* \"#utility.yul\":4103:4163   */\n      swap2\n      swap1\n      pop\n      jump\t// out\n        /* \"#utility.yul\":4169:4311   */\n    tag_126:\n        /* \"#utility.yul\":4219:4228   */\n      0x00\n        /* \"#utility.yul\":4252:4305   */\n      tag_222\n        /* \"#utility.yul\":4270:4304   */\n      tag_223\n        /* \"#utility.yul\":4279:4303   */\n      tag_224\n        /* \"#utility.yul\":4297:4302   */\n      dup5\n        /* \"#utility.yul\":4279:4303   */\n      tag_108\n      jump\t// in\n    tag_224:\n        /* \"#utility.yul\":4270:4304   */\n      tag_125\n      jump\t// in\n    tag_223:\n        /* \"#utility.yul\":4252:4305   */\n      tag_108\n      jump\t// in\n    tag_222:\n        /* \"#utility.yul\":4239:4305   */\n      swap1\n      pop\n        /* \"#utility.yul\":4169:4311   */\n      swap2\n      swap1\n      pop\n      jump\t// out\n        /* \"#utility.yul\":4317:4443   */\n    tag_127:\n        /* \"#utility.yul\":4367:4376   */\n      0x00\n        /* \"#utility.yul\":4400:4437   */\n      tag_226\n        /* \"#utility.yul\":4431:4436   */\n      dup3\n        /* \"#utility.yul\":4400:4437   */\n      tag_126\n      jump\t// in\n    tag_226:\n        /* \"#utility.yul\":4387:4437   */\n      swap1\n      pop\n        /* \"#utility.yul\":4317:4443   */\n      swap2\n      swap1\n      pop\n      jump\t// out\n        /* \"#utility.yul\":4449:4588   */\n    tag_128:\n        /* \"#utility.yul\":4512:4521   */\n      0x00\n        /* \"#utility.yul\":4545:4582   */\n      tag_228\n        /* \"#utility.yul\":4576:4581   */\n      dup3\n        /* \"#utility.yul\":4545:4582   */\n      tag_127\n      jump\t// in\n    tag_228:\n        /* \"#utility.yul\":4532:4582   */\n      swap1\n      pop\n        /* \"#utility.yul\":4449:4588   */\n      swap2\n      swap1\n      pop\n      jump\t// out\n        /* \"#utility.yul\":4594:4751   */\n    tag_129:\n        /* \"#utility.yul\":4694:4744   */\n      tag_230\n        /* \"#utility.yul\":4738:4743   */\n      dup2\n        /* \"#utility.yul\":4694:4744   */\n      tag_128\n      jump\t// in\n    tag_230:\n        /* \"#utility.yul\":4689:4692   */\n      dup3\n        /* \"#utility.yul\":4682:4745   */\n      mstore\n        /* \"#utility.yul\":4594:4751   */\n      pop\n      pop\n      jump\t// out\n        /* \"#utility.yul\":4757:5005   */\n    tag_22:\n        /* \"#utility.yul\":4863:4867   */\n      0x00\n        /* \"#utility.yul\":4901:4903   */\n      0x20\n        /* \"#utility.yul\":4890:4899   */\n      dup3\n        /* \"#utility.yul\":4886:4904   */\n      add\n        /* \"#utility.yul\":4878:4904   */\n      swap1\n      pop\n        /* \"#utility.yul\":4914:4998   */\n      tag_232\n        /* \"#utility.yul\":4995:4996   */\n      0x00\n        /* \"#utility.yul\":4984:4993   */\n      dup4\n        /* \"#utility.yul\":4980:4997   */\n      add\n        /* \"#utility.yul\":4971:4977   */\n      dup5\n        /* \"#utility.yul\":4914:4998   */\n      tag_129\n      jump\t// in\n    tag_232:\n        /* \"#utility.yul\":4757:5005   */\n      swap3\n      swap2\n      pop\n      pop\n      jump\t// out\n        /* \"#utility.yul\":5011:5128   */\n    tag_130:\n        /* \"#utility.yul\":5120:5121   */\n      0x00\n        /* \"#utility.yul\":5117:5118   */\n      0x00\n        /* \"#utility.yul\":5110:5122   */\n      revert\n        /* \"#utility.yul\":5134:5251   */\n    tag_131:\n        /* \"#utility.yul\":5243:5244   */\n      0x00\n        /* \"#utility.yul\":5240:5241   */\n      0x00\n        /* \"#utility.yul\":5233:5245   */\n      revert\n        /* \"#utility.yul\":5257:5374   */\n    tag_132:\n        /* \"#utility.yul\":5366:5367   */\n      0x00\n        /* \"#utility.yul\":5363:5364   */\n      0x00\n        /* \"#utility.yul\":5356:5368   */\n      revert\n        /* \"#utility.yul\":5397:5965   */\n    tag_133:\n        /* \"#utility.yul\":5470:5478   */\n      0x00\n        /* \"#utility.yul\":5480:5486   */\n      0x00\n        /* \"#utility.yul\":5530:5533   */\n      dup4\n        /* \"#utility.yul\":5523:5527   */\n      0x1f\n        /* \"#utility.yul\":5515:5521   */\n      dup5\n        /* \"#utility.yul\":5511:5528   */\n      add\n        /* \"#utility.yul\":5507:5534   */\n      slt\n        /* \"#utility.yul\":5497:5619   */\n      tag_237\n      jumpi\n        /* \"#utility.yul\":5538:5617   */\n      tag_238\n      tag_130\n      jump\t// in\n    tag_238:\n        /* \"#utility.yul\":5497:5619   */\n    tag_237:\n        /* \"#utility.yul\":5651:5657   */\n      dup3\n        /* \"#utility.yul\":5638:5658   */\n      calldataload\n        /* \"#utility.yul\":5628:5658   */\n      swap1\n      pop\n        /* \"#utility.yul\":5681:5699   */\n      0xffffffffffffffff\n        /* \"#utility.yul\":5673:5679   */\n      dup2\n        /* \"#utility.yul\":5670:5700   */\n      gt\n        /* \"#utility.yul\":5667:5784   */\n      iszero\n      tag_239\n      jumpi\n        /* \"#utility.yul\":5703:5782   */\n      tag_240\n      tag_131\n      jump\t// in\n    tag_240:\n        /* \"#utility.yul\":5667:5784   */\n    tag_239:\n        /* \"#utility.yul\":5817:5821   */\n      0x20\n        /* \"#utility.yul\":5809:5815   */\n      dup4\n        /* \"#utility.yul\":5805:5822   */\n      add\n        /* \"#utility.yul\":5793:5822   */\n      swap2\n      pop\n        /* \"#utility.yul\":5871:5874   */\n      dup4\n        /* \"#utility.yul\":5863:5867   */\n      0x20\n        /* \"#utility.yul\":5855:5861   */\n      dup3\n        /* \"#utility.yul\":5851:5868   */\n      mul\n        /* \"#utility.yul\":5841:5849   */\n      dup4\n        /* \"#utility.yul\":5837:5869   */\n      add\n        /* \"#utility.yul\":5834:5875   */\n      gt\n        /* \"#utility.yul\":5831:5959   */\n      iszero\n      tag_241\n      jumpi\n        /* \"#utility.yul\":5878:5957   */\n      tag_242\n      tag_132\n      jump\t// in\n    tag_242:\n        /* \"#utility.yul\":5831:5959   */\n    tag_241:\n        /* \"#utility.yul\":5397:5965   */\n      swap3\n      pop\n      swap3\n      swap1\n      pop\n      jump\t// out\n        /* \"#utility.yul\":5987:6567   */\n    tag_134:\n        /* \"#utility.yul\":6072:6080   */\n      0x00\n        /* \"#utility.yul\":6082:6088   */\n      0x00\n        /* \"#utility.yul\":6132:6135   */\n      dup4\n        /* \"#utility.yul\":6125:6129   */\n      0x1f\n        /* \"#utility.yul\":6117:6123   */\n      dup5\n        /* \"#utility.yul\":6113:6130   */\n      add\n        /* \"#utility.yul\":6109:6136   */\n      slt\n        /* \"#utility.yul\":6099:6221   */\n      tag_244\n      jumpi\n        /* \"#utility.yul\":6140:6219   */\n      tag_245\n      tag_130\n      jump\t// in\n    tag_245:\n        /* \"#utility.yul\":6099:6221   */\n    tag_244:\n        /* \"#utility.yul\":6253:6259   */\n      dup3\n        /* \"#utility.yul\":6240:6260   */\n      calldataload\n        /* \"#utility.yul\":6230:6260   */\n      swap1\n      pop\n        /* \"#utility.yul\":6283:6301   */\n      0xffffffffffffffff\n        /* \"#utility.yul\":6275:6281   */\n      dup2\n        /* \"#utility.yul\":6272:6302   */\n      gt\n        /* \"#utility.yul\":6269:6386   */\n      iszero\n      tag_246\n      jumpi\n        /* \"#utility.yul\":6305:6384   */\n      tag_247\n      tag_131\n      jump\t// in\n    tag_247:\n        /* \"#utility.yul\":6269:6386   */\n    tag_246:\n        /* \"#utility.yul\":6419:6423   */\n      0x20\n        /* \"#utility.yul\":6411:6417   */\n      dup4\n        /* \"#utility.yul\":6407:6424   */\n      add\n        /* \"#utility.yul\":6395:6424   */\n      swap2\n      pop\n        /* \"#utility.yul\":6473:6476   */\n      dup4\n        /* \"#utility.yul\":6465:6469   */\n      0x20\n        /* \"#utility.yul\":6457:6463   */\n      dup3\n        /* \"#utility.yul\":6453:6470   */\n      mul\n        /* \"#utility.yul\":6443:6451   */\n      dup4\n        /* \"#utility.yul\":6439:6471   */\n      add\n        /* \"#utility.yul\":6436:6477   */\n      gt\n        /* \"#utility.yul\":6433:6561   */\n      iszero\n      tag_248\n      jumpi\n        /* \"#utility.yul\":6480:6559   */\n      tag_249\n      tag_132\n      jump\t// in\n    tag_249:\n        /* \"#utility.yul\":6433:6561   */\n    tag_248:\n        /* \"#utility.yul\":5987:6567   */\n      swap3\n      pop\n      swap3\n      swap1\n      pop\n      jump\t// out\n        /* \"#utility.yul\":6587:7152   */\n    tag_135:\n        /* \"#utility.yul\":6657:6665   */\n      0x00\n        /* \"#utility.yul\":6667:6673   */\n      0x00\n        /* \"#utility.yul\":6717:6720   */\n      dup4\n        /* \"#utility.yul\":6710:6714   */\n      0x1f\n        /* \"#utility.yul\":6702:6708   */\n      dup5\n        /* \"#utility.yul\":6698:6715   */\n      add\n        /* \"#utility.yul\":6694:6721   */\n      slt\n        /* \"#utility.yul\":6684:6806   */\n      tag_251\n      jumpi\n        /* \"#utility.yul\":6725:6804   */\n      tag_252\n      tag_130\n      jump\t// in\n    tag_252:\n        /* \"#utility.yul\":6684:6806   */\n    tag_251:\n        /* \"#utility.yul\":6838:6844   */\n      dup3\n        /* \"#utility.yul\":6825:6845   */\n      calldataload\n        /* \"#utility.yul\":6815:6845   */\n      swap1\n      pop\n        /* \"#utility.yul\":6868:6886   */\n      0xffffffffffffffff\n        /* \"#utility.yul\":6860:6866   */\n      dup2\n        /* \"#utility.yul\":6857:6887   */\n      gt\n        /* \"#utility.yul\":6854:6971   */\n      iszero\n      tag_253\n      jumpi\n        /* \"#utility.yul\":6890:6969   */\n      tag_254\n      tag_131\n      jump\t// in\n    tag_254:\n        /* \"#utility.yul\":6854:6971   */\n    tag_253:\n        /* \"#utility.yul\":7004:7008   */\n      0x20\n        /* \"#utility.yul\":6996:7002   */\n      dup4\n        /* \"#utility.yul\":6992:7009   */\n      add\n        /* \"#utility.yul\":6980:7009   */\n      swap2\n      pop\n        /* \"#utility.yul\":7058:7061   */\n      dup4\n        /* \"#utility.yul\":7050:7054   */\n      0x20\n        /* \"#utility.yul\":7042:7048   */\n      dup3\n        /* \"#utility.yul\":7038:7055   */\n      mul\n        /* \"#utility.yul\":7028:7036   */\n      dup4\n        /* \"#utility.yul\":7024:7056   */\n      add\n        /* \"#utility.yul\":7021:7062   */\n      gt\n        /* \"#utility.yul\":7018:7146   */\n      iszero\n      tag_255\n      jumpi\n        /* \"#utility.yul\":7065:7144   */\n      tag_256\n      tag_132\n      jump\t// in\n    tag_256:\n        /* \"#utility.yul\":7018:7146   */\n    tag_255:\n        /* \"#utility.yul\":6587:7152   */\n      swap3\n      pop\n      swap3\n      swap1\n      pop\n      jump\t// out\n        /* \"#utility.yul\":7173:7739   */\n    tag_136:\n        /* \"#utility.yul\":7244:7252   */\n      0x00\n        /* \"#utility.yul\":7254:7260   */\n      0x00\n        /* \"#utility.yul\":7304:7307   */\n      dup4\n        /* \"#utility.yul\":7297:7301   */\n      0x1f\n        /* \"#utility.yul\":7289:7295   */\n      dup5\n        /* \"#utility.yul\":7285:7302   */\n      add\n        /* \"#utility.yul\":7281:7308   */\n      slt\n        /* \"#utility.yul\":7271:7393   */\n      tag_258\n      jumpi\n        /* \"#utility.yul\":7312:7391   */\n      tag_259\n      tag_130\n      jump\t// in\n    tag_259:\n        /* \"#utility.yul\":7271:7393   */\n    tag_258:\n        /* \"#utility.yul\":7425:7431   */\n      dup3\n        /* \"#utility.yul\":7412:7432   */\n      calldataload\n        /* \"#utility.yul\":7402:7432   */\n      swap1\n      pop\n        /* \"#utility.yul\":7455:7473   */\n      0xffffffffffffffff\n        /* \"#utility.yul\":7447:7453   */\n      dup2\n        /* \"#utility.yul\":7444:7474   */\n      gt\n        /* \"#utility.yul\":7441:7558   */\n      iszero\n      tag_260\n      jumpi\n        /* \"#utility.yul\":7477:7556   */\n      tag_261\n      tag_131\n      jump\t// in\n    tag_261:\n        /* \"#utility.yul\":7441:7558   */\n    tag_260:\n        /* \"#utility.yul\":7591:7595   */\n      0x20\n        /* \"#utility.yul\":7583:7589   */\n      dup4\n        /* \"#utility.yul\":7579:7596   */\n      add\n        /* \"#utility.yul\":7567:7596   */\n      swap2\n      pop\n        /* \"#utility.yul\":7645:7648   */\n      dup4\n        /* \"#utility.yul\":7637:7641   */\n      0x20\n        /* \"#utility.yul\":7629:7635   */\n      dup3\n        /* \"#utility.yul\":7625:7642   */\n      mul\n        /* \"#utility.yul\":7615:7623   */\n      dup4\n        /* \"#utility.yul\":7611:7643   */\n      add\n        /* \"#utility.yul\":7608:7649   */\n      gt\n        /* \"#utility.yul\":7605:7733   */\n      iszero\n      tag_262\n      jumpi\n        /* \"#utility.yul\":7652:7731   */\n      tag_263\n      tag_132\n      jump\t// in\n    tag_263:\n        /* \"#utility.yul\":7605:7733   */\n    tag_262:\n        /* \"#utility.yul\":7173:7739   */\n      swap3\n      pop\n      swap3\n      swap1\n      pop\n      jump\t// out\n        /* \"#utility.yul\":7745:9444   */\n    tag_25:\n        /* \"#utility.yul\":7946:7952   */\n      0x00\n        /* \"#utility.yul\":7954:7960   */\n      0x00\n        /* \"#utility.yul\":7962:7968   */\n      0x00\n        /* \"#utility.yul\":7970:7976   */\n      0x00\n        /* \"#utility.yul\":7978:7984   */\n      0x00\n        /* \"#utility.yul\":7986:7992   */\n      0x00\n        /* \"#utility.yul\":7994:8000   */\n      0x00\n        /* \"#utility.yul\":8002:8008   */\n      0x00\n        /* \"#utility.yul\":8051:8054   */\n      0x80\n        /* \"#utility.yul\":8039:8048   */\n      dup10\n        /* \"#utility.yul\":8030:8037   */\n      dup12\n        /* \"#utility.yul\":8026:8049   */\n      sub\n        /* \"#utility.yul\":8022:8055   */\n      slt\n        /* \"#utility.yul\":8019:8139   */\n      iszero\n      tag_265\n      jumpi\n        /* \"#utility.yul\":8058:8137   */\n      tag_266\n      tag_106\n      jump\t// in\n    tag_266:\n        /* \"#utility.yul\":8019:8139   */\n    tag_265:\n        /* \"#utility.yul\":8206:8207   */\n      0x00\n        /* \"#utility.yul\":8195:8204   */\n      dup10\n        /* \"#utility.yul\":8191:8208   */\n      add\n        /* \"#utility.yul\":8178:8209   */\n      calldataload\n        /* \"#utility.yul\":8236:8254   */\n      0xffffffffffffffff\n        /* \"#utility.yul\":8228:8234   */\n      dup2\n        /* \"#utility.yul\":8225:8255   */\n      gt\n        /* \"#utility.yul\":8222:8339   */\n      iszero\n      tag_267\n      jumpi\n        /* \"#utility.yul\":8258:8337   */\n      tag_268\n      tag_107\n      jump\t// in\n    tag_268:\n        /* \"#utility.yul\":8222:8339   */\n    tag_267:\n        /* \"#utility.yul\":8371:8451   */\n      tag_269\n        /* \"#utility.yul\":8443:8450   */\n      dup12\n        /* \"#utility.yul\":8434:8440   */\n      dup3\n        /* \"#utility.yul\":8423:8432   */\n      dup13\n        /* \"#utility.yul\":8419:8441   */\n      add\n        /* \"#utility.yul\":8371:8451   */\n      tag_133\n      jump\t// in\n    tag_269:\n        /* \"#utility.yul\":8353:8451   */\n      swap9\n      pop\n      swap9\n      pop\n        /* \"#utility.yul\":8149:8461   */\n      pop\n        /* \"#utility.yul\":8528:8530   */\n      0x20\n        /* \"#utility.yul\":8517:8526   */\n      dup10\n        /* \"#utility.yul\":8513:8531   */\n      add\n        /* \"#utility.yul\":8500:8532   */\n      calldataload\n        /* \"#utility.yul\":8559:8577   */\n      0xffffffffffffffff\n        /* \"#utility.yul\":8551:8557   */\n      dup2\n        /* \"#utility.yul\":8548:8578   */\n      gt\n        /* \"#utility.yul\":8545:8662   */\n      iszero\n      tag_270\n      jumpi\n        /* \"#utility.yul\":8581:8660   */\n      tag_271\n      tag_107\n      jump\t// in\n    tag_271:\n        /* \"#utility.yul\":8545:8662   */\n    tag_270:\n        /* \"#utility.yul\":8694:8786   */\n      tag_272\n        /* \"#utility.yul\":8778:8785   */\n      dup12\n        /* \"#utility.yul\":8769:8775   */\n      dup3\n        /* \"#utility.yul\":8758:8767   */\n      dup13\n        /* \"#utility.yul\":8754:8776   */\n      add\n        /* \"#utility.yul\":8694:8786   */\n      tag_134\n      jump\t// in\n    tag_272:\n        /* \"#utility.yul\":8676:8786   */\n      swap7\n      pop\n      swap7\n      pop\n        /* \"#utility.yul\":8471:8796   */\n      pop\n        /* \"#utility.yul\":8863:8865   */\n      0x40\n        /* \"#utility.yul\":8852:8861   */\n      dup10\n        /* \"#utility.yul\":8848:8866   */\n      add\n        /* \"#utility.yul\":8835:8867   */\n      calldataload\n        /* \"#utility.yul\":8894:8912   */\n      0xffffffffffffffff\n        /* \"#utility.yul\":8886:8892   */\n      dup2\n        /* \"#utility.yul\":8883:8913   */\n      gt\n        /* \"#utility.yul\":8880:8997   */\n      iszero\n      tag_273\n      jumpi\n        /* \"#utility.yul\":8916:8995   */\n      tag_274\n      tag_107\n      jump\t// in\n    tag_274:\n        /* \"#utility.yul\":8880:8997   */\n    tag_273:\n        /* \"#utility.yul\":9029:9106   */\n      tag_275\n        /* \"#utility.yul\":9098:9105   */\n      dup12\n        /* \"#utility.yul\":9089:9095   */\n      dup3\n        /* \"#utility.yul\":9078:9087   */\n      dup13\n        /* \"#utility.yul\":9074:9096   */\n      add\n        /* \"#utility.yul\":9029:9106   */\n      tag_135\n      jump\t// in\n    tag_275:\n        /* \"#utility.yul\":9011:9106   */\n      swap5\n      pop\n      swap5\n      pop\n        /* \"#utility.yul\":8806:9116   */\n      pop\n        /* \"#utility.yul\":9183:9185   */\n      0x60\n        /* \"#utility.yul\":9172:9181   */\n      dup10\n        /* \"#utility.yul\":9168:9186   */\n      add\n        /* \"#utility.yul\":9155:9187   */\n      calldataload\n        /* \"#utility.yul\":9214:9232   */\n      0xffffffffffffffff\n        /* \"#utility.yul\":9206:9212   */\n      dup2\n        /* \"#utility.yul\":9203:9233   */\n      gt\n        /* \"#utility.yul\":9200:9317   */\n      iszero\n      tag_276\n      jumpi\n        /* \"#utility.yul\":9236:9315   */\n      tag_277\n      tag_107\n      jump\t// in\n    tag_277:\n        /* \"#utility.yul\":9200:9317   */\n    tag_276:\n        /* \"#utility.yul\":9349:9427   */\n      tag_278\n        /* \"#utility.yul\":9419:9426   */\n      dup12\n        /* \"#utility.yul\":9410:9416   */\n      dup3\n        /* \"#utility.yul\":9399:9408   */\n      dup13\n        /* \"#utility.yul\":9395:9417   */\n      add\n        /* \"#utility.yul\":9349:9427   */\n      tag_136\n      jump\t// in\n    tag_278:\n        /* \"#utility.yul\":9331:9427   */\n      swap3\n      pop\n      swap3\n      pop\n        /* \"#utility.yul\":9126:9437   */\n      pop\n        /* \"#utility.yul\":7745:9444   */\n      swap3\n      swap6\n      swap9\n      pop\n      swap3\n      swap6\n      swap9\n      swap1\n      swap4\n      swap7\n      pop\n      jump\t// out\n        /* \"#utility.yul\":9450:9568   */\n    tag_137:\n        /* \"#utility.yul\":9537:9561   */\n      tag_280\n        /* \"#utility.yul\":9555:9560   */\n      dup2\n        /* \"#utility.yul\":9537:9561   */\n      tag_112\n      jump\t// in\n    tag_280:\n        /* \"#utility.yul\":9532:9535   */\n      dup3\n        /* \"#utility.yul\":9525:9562   */\n      mstore\n        /* \"#utility.yul\":9450:9568   */\n      pop\n      pop\n      jump\t// out\n        /* \"#utility.yul\":9574:9796   */\n    tag_30:\n        /* \"#utility.yul\":9667:9671   */\n      0x00\n        /* \"#utility.yul\":9705:9707   */\n      0x20\n        /* \"#utility.yul\":9694:9703   */\n      dup3\n        /* \"#utility.yul\":9690:9708   */\n      add\n        /* \"#utility.yul\":9682:9708   */\n      swap1\n      pop\n        /* \"#utility.yul\":9718:9789   */\n      tag_282\n        /* \"#utility.yul\":9786:9787   */\n      0x00\n        /* \"#utility.yul\":9775:9784   */\n      dup4\n        /* \"#utility.yul\":9771:9788   */\n      add\n        /* \"#utility.yul\":9762:9768   */\n      dup5\n        /* \"#utility.yul\":9718:9789   */\n      tag_137\n      jump\t// in\n    tag_282:\n        /* \"#utility.yul\":9574:9796   */\n      swap3\n      swap2\n      pop\n      pop\n      jump\t// out\n        /* \"#utility.yul\":9802:10024   */\n    tag_34:\n        /* \"#utility.yul\":9895:9899   */\n      0x00\n        /* \"#utility.yul\":9933:9935   */\n      0x20\n        /* \"#utility.yul\":9922:9931   */\n      dup3\n        /* \"#utility.yul\":9918:9936   */\n      add\n        /* \"#utility.yul\":9910:9936   */\n      swap1\n      pop\n        /* \"#utility.yul\":9946:10017   */\n      tag_284\n        /* \"#utility.yul\":10014:10015   */\n      0x00\n        /* \"#utility.yul\":10003:10012   */\n      dup4\n        /* \"#utility.yul\":9999:10016   */\n      add\n        /* \"#utility.yul\":9990:9996   */\n      dup5\n        /* \"#utility.yul\":9946:10017   */\n      tag_115\n      jump\t// in\n    tag_284:\n        /* \"#utility.yul\":9802:10024   */\n      swap3\n      swap2\n      pop\n      pop\n      jump\t// out\n        /* \"#utility.yul\":10030:10196   */\n    tag_138:\n        /* \"#utility.yul\":10170:10188   */\n      0x6f6e6c7920666f72206f776e6572732100000000000000000000000000000000\n        /* \"#utility.yul\":10166:10167   */\n      0x00\n        /* \"#utility.yul\":10158:10164   */\n      dup3\n        /* \"#utility.yul\":10154:10168   */\n      add\n        /* \"#utility.yul\":10147:10189   */\n      mstore\n        /* \"#utility.yul\":10030:10196   */\n      pop\n      jump\t// out\n        /* \"#utility.yul\":10202:10568   */\n    tag_139:\n        /* \"#utility.yul\":10344:10347   */\n      0x00\n        /* \"#utility.yul\":10365:10432   */\n      tag_287\n        /* \"#utility.yul\":10429:10431   */\n      0x10\n        /* \"#utility.yul\":10424:10427   */\n      dup4\n        /* \"#utility.yul\":10365:10432   */\n      tag_121\n      jump\t// in\n    tag_287:\n        /* \"#utility.yul\":10358:10432   */\n      swap2\n      pop\n        /* \"#utility.yul\":10441:10534   */\n      tag_288\n        /* \"#utility.yul\":10530:10533   */\n      dup3\n        /* \"#utility.yul\":10441:10534   */\n      tag_138\n      jump\t// in\n    tag_288:\n        /* \"#utility.yul\":10559:10561   */\n      0x20\n        /* \"#utility.yul\":10554:10557   */\n      dup3\n        /* \"#utility.yul\":10550:10562   */\n      add\n        /* \"#utility.yul\":10543:10562   */\n      swap1\n      pop\n        /* \"#utility.yul\":10202:10568   */\n      swap2\n      swap1\n      pop\n      jump\t// out\n        /* \"#utility.yul\":10574:10993   */\n    tag_38:\n        /* \"#utility.yul\":10740:10744   */\n      0x00\n        /* \"#utility.yul\":10778:10780   */\n      0x20\n        /* \"#utility.yul\":10767:10776   */\n      dup3\n        /* \"#utility.yul\":10763:10781   */\n      add\n        /* \"#utility.yul\":10755:10781   */\n      swap1\n      pop\n        /* \"#utility.yul\":10827:10836   */\n      dup2\n        /* \"#utility.yul\":10821:10825   */\n      dup2\n        /* \"#utility.yul\":10817:10837   */\n      sub\n        /* \"#utility.yul\":10813:10814   */\n      0x00\n        /* \"#utility.yul\":10802:10811   */\n      dup4\n        /* \"#utility.yul\":10798:10815   */\n      add\n        /* \"#utility.yul\":10791:10838   */\n      mstore\n        /* \"#utility.yul\":10855:10986   */\n      tag_290\n        /* \"#utility.yul\":10981:10985   */\n      dup2\n        /* \"#utility.yul\":10855:10986   */\n      tag_139\n      jump\t// in\n    tag_290:\n        /* \"#utility.yul\":10847:10986   */\n      swap1\n      pop\n        /* \"#utility.yul\":10574:10993   */\n      swap2\n      swap1\n      pop\n      jump\t// out\n        /* \"#utility.yul\":10999:11179   */\n    tag_140:\n        /* \"#utility.yul\":11047:11124   */\n      0x4e487b7100000000000000000000000000000000000000000000000000000000\n        /* \"#utility.yul\":11044:11045   */\n      0x00\n        /* \"#utility.yul\":11037:11125   */\n      mstore\n        /* \"#utility.yul\":11144:11148   */\n      0x22\n        /* \"#utility.yul\":11141:11142   */\n      0x04\n        /* \"#utility.yul\":11134:11149   */\n      mstore\n        /* \"#utility.yul\":11168:11172   */\n      0x24\n        /* \"#utility.yul\":11165:11166   */\n      0x00\n        /* \"#utility.yul\":11158:11173   */\n      revert\n        /* \"#utility.yul\":11185:11505   */\n    tag_42:\n        /* \"#utility.yul\":11229:11235   */\n      0x00\n        /* \"#utility.yul\":11266:11267   */\n      0x02\n        /* \"#utility.yul\":11260:11264   */\n      dup3\n        /* \"#utility.yul\":11256:11268   */\n      div\n        /* \"#utility.yul\":11246:11268   */\n      swap1\n      pop\n        /* \"#utility.yul\":11313:11314   */\n      0x01\n        /* \"#utility.yul\":11307:11311   */\n      dup3\n        /* \"#utility.yul\":11303:11315   */\n      and\n        /* \"#utility.yul\":11334:11352   */\n      dup1\n        /* \"#utility.yul\":11324:11405   */\n      tag_293\n      jumpi\n        /* \"#utility.yul\":11390:11394   */\n      0x7f\n        /* \"#utility.yul\":11382:11388   */\n      dup3\n        /* \"#utility.yul\":11378:11395   */\n      and\n        /* \"#utility.yul\":11368:11395   */\n      swap2\n      pop\n        /* \"#utility.yul\":11324:11405   */\n    tag_293:\n        /* \"#utility.yul\":11452:11454   */\n      0x20\n        /* \"#utility.yul\":11444:11450   */\n      dup3\n        /* \"#utility.yul\":11441:11455   */\n      lt\n        /* \"#utility.yul\":11421:11439   */\n      dup2\n        /* \"#utility.yul\":11418:11456   */\n      sub\n        /* \"#utility.yul\":11415:11499   */\n      tag_294\n      jumpi\n        /* \"#utility.yul\":11471:11489   */\n      tag_295\n      tag_140\n      jump\t// in\n    tag_295:\n        /* \"#utility.yul\":11415:11499   */\n    tag_294:\n        /* \"#utility.yul\":11236:11505   */\n      pop\n        /* \"#utility.yul\":11185:11505   */\n      swap2\n      swap1\n      pop\n      jump\t// out\n        /* \"#utility.yul\":11511:11674   */\n    tag_141:\n        /* \"#utility.yul\":11651:11666   */\n      0x6e6f742076657269666965642100000000000000000000000000000000000000\n        /* \"#utility.yul\":11647:11648   */\n      0x00\n        /* \"#utility.yul\":11639:11645   */\n      dup3\n        /* \"#utility.yul\":11635:11649   */\n      add\n        /* \"#utility.yul\":11628:11667   */\n      mstore\n        /* \"#utility.yul\":11511:11674   */\n      pop\n      jump\t// out\n        /* \"#utility.yul\":11680:12046   */\n    tag_142:\n        /* \"#utility.yul\":11822:11825   */\n      0x00\n        /* \"#utility.yul\":11843:11910   */\n      tag_298\n        /* \"#utility.yul\":11907:11909   */\n      0x0d\n        /* \"#utility.yul\":11902:11905   */\n      dup4\n        /* \"#utility.yul\":11843:11910   */\n      tag_121\n      jump\t// in\n    tag_298:\n        /* \"#utility.yul\":11836:11910   */\n      swap2\n      pop\n        /* \"#utility.yul\":11919:12012   */\n      tag_299\n        /* \"#utility.yul\":12008:12011   */\n      dup3\n        /* \"#utility.yul\":11919:12012   */\n      tag_141\n      jump\t// in\n    tag_299:\n        /* \"#utility.yul\":12037:12039   */\n      0x20\n        /* \"#utility.yul\":12032:12035   */\n      dup3\n        /* \"#utility.yul\":12028:12040   */\n      add\n        /* \"#utility.yul\":12021:12040   */\n      swap1\n      pop\n        /* \"#utility.yul\":11680:12046   */\n      swap2\n      swap1\n      pop\n      jump\t// out\n        /* \"#utility.yul\":12052:12471   */\n    tag_49:\n        /* \"#utility.yul\":12218:12222   */\n      0x00\n        /* \"#utility.yul\":12256:12258   */\n      0x20\n        /* \"#utility.yul\":12245:12254   */\n      dup3\n        /* \"#utility.yul\":12241:12259   */\n      add\n        /* \"#utility.yul\":12233:12259   */\n      swap1\n      pop\n        /* \"#utility.yul\":12305:12314   */\n      dup2\n        /* \"#utility.yul\":12299:12303   */\n      dup2\n        /* \"#utility.yul\":12295:12315   */\n      sub\n        /* \"#utility.yul\":12291:12292   */\n      0x00\n        /* \"#utility.yul\":12280:12289   */\n      dup4\n        /* \"#utility.yul\":12276:12293   */\n      add\n        /* \"#utility.yul\":12269:12316   */\n      mstore\n        /* \"#utility.yul\":12333:12464   */\n      tag_301\n        /* \"#utility.yul\":12459:12463   */\n      dup2\n        /* \"#utility.yul\":12333:12464   */\n      tag_142\n      jump\t// in\n    tag_301:\n        /* \"#utility.yul\":12325:12464   */\n      swap1\n      pop\n        /* \"#utility.yul\":12052:12471   */\n      swap2\n      swap1\n      pop\n      jump\t// out\n        /* \"#utility.yul\":12477:12809   */\n    tag_51:\n        /* \"#utility.yul\":12598:12602   */\n      0x00\n        /* \"#utility.yul\":12636:12638   */\n      0x40\n        /* \"#utility.yul\":12625:12634   */\n      dup3\n        /* \"#utility.yul\":12621:12639   */\n      add\n        /* \"#utility.yul\":12613:12639   */\n      swap1\n      pop\n        /* \"#utility.yul\":12649:12720   */\n      tag_303\n        /* \"#utility.yul\":12717:12718   */\n      0x00\n        /* \"#utility.yul\":12706:12715   */\n      dup4\n        /* \"#utility.yul\":12702:12719   */\n      add\n        /* \"#utility.yul\":12693:12699   */\n      dup6\n        /* \"#utility.yul\":12649:12720   */\n      tag_115\n      jump\t// in\n    tag_303:\n        /* \"#utility.yul\":12730:12802   */\n      tag_304\n        /* \"#utility.yul\":12798:12800   */\n      0x20\n        /* \"#utility.yul\":12787:12796   */\n      dup4\n        /* \"#utility.yul\":12783:12801   */\n      add\n        /* \"#utility.yul\":12774:12780   */\n      dup5\n        /* \"#utility.yul\":12730:12802   */\n      tag_137\n      jump\t// in\n    tag_304:\n        /* \"#utility.yul\":12477:12809   */\n      swap4\n      swap3\n      pop\n      pop\n      pop\n      jump\t// out\n        /* \"#utility.yul\":12815:12931   */\n    tag_143:\n        /* \"#utility.yul\":12885:12906   */\n      tag_306\n        /* \"#utility.yul\":12900:12905   */\n      dup2\n        /* \"#utility.yul\":12885:12906   */\n      tag_116\n      jump\t// in\n    tag_306:\n        /* \"#utility.yul\":12878:12883   */\n      dup2\n        /* \"#utility.yul\":12875:12907   */\n      eq\n        /* \"#utility.yul\":12865:12925   */\n      tag_307\n      jumpi\n        /* \"#utility.yul\":12921:12922   */\n      0x00\n        /* \"#utility.yul\":12918:12919   */\n      0x00\n        /* \"#utility.yul\":12911:12923   */\n      revert\n        /* \"#utility.yul\":12865:12925   */\n    tag_307:\n        /* \"#utility.yul\":12815:12931   */\n      pop\n      jump\t// out\n        /* \"#utility.yul\":12937:13074   */\n    tag_144:\n        /* \"#utility.yul\":12991:12996   */\n      0x00\n        /* \"#utility.yul\":13022:13028   */\n      dup2\n        /* \"#utility.yul\":13016:13029   */\n      mload\n        /* \"#utility.yul\":13007:13029   */\n      swap1\n      pop\n        /* \"#utility.yul\":13038:13068   */\n      tag_309\n        /* \"#utility.yul\":13062:13067   */\n      dup2\n        /* \"#utility.yul\":13038:13068   */\n      tag_143\n      jump\t// in\n    tag_309:\n        /* \"#utility.yul\":12937:13074   */\n      swap3\n      swap2\n      pop\n      pop\n      jump\t// out\n        /* \"#utility.yul\":13080:13425   */\n    tag_55:\n        /* \"#utility.yul\":13147:13153   */\n      0x00\n        /* \"#utility.yul\":13196:13198   */\n      0x20\n        /* \"#utility.yul\":13184:13193   */\n      dup3\n        /* \"#utility.yul\":13175:13182   */\n      dup5\n        /* \"#utility.yul\":13171:13194   */\n      sub\n        /* \"#utility.yul\":13167:13199   */\n      slt\n        /* \"#utility.yul\":13164:13283   */\n      iszero\n      tag_311\n      jumpi\n        /* \"#utility.yul\":13202:13281   */\n      tag_312\n      tag_106\n      jump\t// in\n    tag_312:\n        /* \"#utility.yul\":13164:13283   */\n    tag_311:\n        /* \"#utility.yul\":13322:13323   */\n      0x00\n        /* \"#utility.yul\":13347:13408   */\n      tag_313\n        /* \"#utility.yul\":13400:13407   */\n      dup5\n        /* \"#utility.yul\":13391:13397   */\n      dup3\n        /* \"#utility.yul\":13380:13389   */\n      dup6\n        /* \"#utility.yul\":13376:13398   */\n      add\n        /* \"#utility.yul\":13347:13408   */\n      tag_144\n      jump\t// in\n    tag_313:\n        /* \"#utility.yul\":13337:13408   */\n      swap2\n      pop\n        /* \"#utility.yul\":13293:13418   */\n      pop\n        /* \"#utility.yul\":13080:13425   */\n      swap3\n      swap2\n      pop\n      pop\n      jump\t// out\n        /* \"#utility.yul\":13431:13601   */\n    tag_145:\n        /* \"#utility.yul\":13571:13593   */\n      0x415448207472616e73666572206661696c656421000000000000000000000000\n        /* \"#utility.yul\":13567:13568   */\n      0x00\n        /* \"#utility.yul\":13559:13565   */\n      dup3\n        /* \"#utility.yul\":13555:13569   */\n      add\n        /* \"#utility.yul\":13548:13594   */\n      mstore\n        /* \"#utility.yul\":13431:13601   */\n      pop\n      jump\t// out\n        /* \"#utility.yul\":13607:13973   */\n    tag_146:\n        /* \"#utility.yul\":13749:13752   */\n      0x00\n        /* \"#utility.yul\":13770:13837   */\n      tag_316\n        /* \"#utility.yul\":13834:13836   */\n      0x14\n        /* \"#utility.yul\":13829:13832   */\n      dup4\n        /* \"#utility.yul\":13770:13837   */\n      tag_121\n      jump\t// in\n    tag_316:\n        /* \"#utility.yul\":13763:13837   */\n      swap2\n      pop\n        /* \"#utility.yul\":13846:13939   */\n      tag_317\n        /* \"#utility.yul\":13935:13938   */\n      dup3\n        /* \"#utility.yul\":13846:13939   */\n      tag_145\n      jump\t// in\n    tag_317:\n        /* \"#utility.yul\":13964:13966   */\n      0x20\n        /* \"#utility.yul\":13959:13962   */\n      dup3\n        /* \"#utility.yul\":13955:13967   */\n      add\n        /* \"#utility.yul\":13948:13967   */\n      swap1\n      pop\n        /* \"#utility.yul\":13607:13973   */\n      swap2\n      swap1\n      pop\n      jump\t// out\n        /* \"#utility.yul\":13979:14398   */\n    tag_58:\n        /* \"#utility.yul\":14145:14149   */\n      0x00\n        /* \"#utility.yul\":14183:14185   */\n      0x20\n        /* \"#utility.yul\":14172:14181   */\n      dup3\n        /* \"#utility.yul\":14168:14186   */\n      add\n        /* \"#utility.yul\":14160:14186   */\n      swap1\n      pop\n        /* \"#utility.yul\":14232:14241   */\n      dup2\n        /* \"#utility.yul\":14226:14230   */\n      dup2\n        /* \"#utility.yul\":14222:14242   */\n      sub\n        /* \"#utility.yul\":14218:14219   */\n      0x00\n        /* \"#utility.yul\":14207:14216   */\n      dup4\n        /* \"#utility.yul\":14203:14220   */\n      add\n        /* \"#utility.yul\":14196:14243   */\n      mstore\n        /* \"#utility.yul\":14260:14391   */\n      tag_319\n        /* \"#utility.yul\":14386:14390   */\n      dup2\n        /* \"#utility.yul\":14260:14391   */\n      tag_146\n      jump\t// in\n    tag_319:\n        /* \"#utility.yul\":14252:14391   */\n      swap1\n      pop\n        /* \"#utility.yul\":13979:14398   */\n      swap2\n      swap1\n      pop\n      jump\t// out\n        /* \"#utility.yul\":14404:14827   */\n    tag_60:\n        /* \"#utility.yul\":14545:14549   */\n      0x00\n        /* \"#utility.yul\":14583:14585   */\n      0x40\n        /* \"#utility.yul\":14572:14581   */\n      dup3\n        /* \"#utility.yul\":14568:14586   */\n      add\n        /* \"#utility.yul\":14560:14586   */\n      swap1\n      pop\n        /* \"#utility.yul\":14632:14641   */\n      dup2\n        /* \"#utility.yul\":14626:14630   */\n      dup2\n        /* \"#utility.yul\":14622:14642   */\n      sub\n        /* \"#utility.yul\":14618:14619   */\n      0x00\n        /* \"#utility.yul\":14607:14616   */\n      dup4\n        /* \"#utility.yul\":14603:14620   */\n      add\n        /* \"#utility.yul\":14596:14643   */\n      mstore\n        /* \"#utility.yul\":14660:14738   */\n      tag_321\n        /* \"#utility.yul\":14733:14737   */\n      dup2\n        /* \"#utility.yul\":14724:14730   */\n      dup6\n        /* \"#utility.yul\":14660:14738   */\n      tag_124\n      jump\t// in\n    tag_321:\n        /* \"#utility.yul\":14652:14738   */\n      swap1\n      pop\n        /* \"#utility.yul\":14748:14820   */\n      tag_322\n        /* \"#utility.yul\":14816:14818   */\n      0x20\n        /* \"#utility.yul\":14805:14814   */\n      dup4\n        /* \"#utility.yul\":14801:14819   */\n      add\n        /* \"#utility.yul\":14792:14798   */\n      dup5\n        /* \"#utility.yul\":14748:14820   */\n      tag_137\n      jump\t// in\n    tag_322:\n        /* \"#utility.yul\":14404:14827   */\n      swap4\n      swap3\n      pop\n      pop\n      pop\n      jump\t// out\n        /* \"#utility.yul\":14833:15013   */\n    tag_72:\n        /* \"#utility.yul\":14881:14958   */\n      0x4e487b7100000000000000000000000000000000000000000000000000000000\n        /* \"#utility.yul\":14878:14879   */\n      0x00\n        /* \"#utility.yul\":14871:14959   */\n      mstore\n        /* \"#utility.yul\":14978:14982   */\n      0x32\n        /* \"#utility.yul\":14975:14976   */\n      0x04\n        /* \"#utility.yul\":14968:14983   */\n      mstore\n        /* \"#utility.yul\":15002:15006   */\n      0x24\n        /* \"#utility.yul\":14999:15000   */\n      0x00\n        /* \"#utility.yul\":14992:15007   */\n      revert\n        /* \"#utility.yul\":15019:15152   */\n    tag_147:\n        /* \"#utility.yul\":15062:15067   */\n      0x00\n        /* \"#utility.yul\":15100:15106   */\n      dup2\n        /* \"#utility.yul\":15087:15107   */\n      calldataload\n        /* \"#utility.yul\":15078:15107   */\n      swap1\n      pop\n        /* \"#utility.yul\":15116:15146   */\n      tag_325\n        /* \"#utility.yul\":15140:15145   */\n      dup2\n        /* \"#utility.yul\":15116:15146   */\n      tag_143\n      jump\t// in\n    tag_325:\n        /* \"#utility.yul\":15019:15152   */\n      swap3\n      swap2\n      pop\n      pop\n      jump\t// out\n        /* \"#utility.yul\":15158:15481   */\n    tag_77:\n        /* \"#utility.yul\":15214:15220   */\n      0x00\n        /* \"#utility.yul\":15263:15265   */\n      0x20\n        /* \"#utility.yul\":15251:15260   */\n      dup3\n        /* \"#utility.yul\":15242:15249   */\n      dup5\n        /* \"#utility.yul\":15238:15261   */\n      sub\n        /* \"#utility.yul\":15234:15266   */\n      slt\n        /* \"#utility.yul\":15231:15350   */\n      iszero\n      tag_327\n      jumpi\n        /* \"#utility.yul\":15269:15348   */\n      tag_328\n      tag_106\n      jump\t// in\n    tag_328:\n        /* \"#utility.yul\":15231:15350   */\n    tag_327:\n        /* \"#utility.yul\":15389:15390   */\n      0x00\n        /* \"#utility.yul\":15414:15464   */\n      tag_329\n        /* \"#utility.yul\":15456:15463   */\n      dup5\n        /* \"#utility.yul\":15447:15453   */\n      dup3\n        /* \"#utility.yul\":15436:15445   */\n      dup6\n        /* \"#utility.yul\":15432:15454   */\n      add\n        /* \"#utility.yul\":15414:15464   */\n      tag_147\n      jump\t// in\n    tag_329:\n        /* \"#utility.yul\":15404:15464   */\n      swap2\n      pop\n        /* \"#utility.yul\":15360:15474   */\n      pop\n        /* \"#utility.yul\":15158:15481   */\n      swap3\n      swap2\n      pop\n      pop\n      jump\t// out\n        /* \"#utility.yul\":15487:15605   */\n    tag_148:\n        /* \"#utility.yul\":15558:15580   */\n      tag_331\n        /* \"#utility.yul\":15574:15579   */\n      dup2\n        /* \"#utility.yul\":15558:15580   */\n      tag_118\n      jump\t// in\n    tag_331:\n        /* \"#utility.yul\":15551:15556   */\n      dup2\n        /* \"#utility.yul\":15548:15581   */\n      eq\n        /* \"#utility.yul\":15538:15599   */\n      tag_332\n      jumpi\n        /* \"#utility.yul\":15595:15596   */\n      0x00\n        /* \"#utility.yul\":15592:15593   */\n      0x00\n        /* \"#utility.yul\":15585:15597   */\n      revert\n        /* \"#utility.yul\":15538:15599   */\n    tag_332:\n        /* \"#utility.yul\":15487:15605   */\n      pop\n      jump\t// out\n        /* \"#utility.yul\":15611:15746   */\n    tag_149:\n        /* \"#utility.yul\":15655:15660   */\n      0x00\n        /* \"#utility.yul\":15693:15699   */\n      dup2\n        /* \"#utility.yul\":15680:15700   */\n      calldataload\n        /* \"#utility.yul\":15671:15700   */\n      swap1\n      pop\n        /* \"#utility.yul\":15709:15740   */\n      tag_334\n        /* \"#utility.yul\":15734:15739   */\n      dup2\n        /* \"#utility.yul\":15709:15740   */\n      tag_148\n      jump\t// in\n    tag_334:\n        /* \"#utility.yul\":15611:15746   */\n      swap3\n      swap2\n      pop\n      pop\n      jump\t// out\n        /* \"#utility.yul\":15752:16077   */\n    tag_81:\n        /* \"#utility.yul\":15809:15815   */\n      0x00\n        /* \"#utility.yul\":15858:15860   */\n      0x20\n        /* \"#utility.yul\":15846:15855   */\n      dup3\n        /* \"#utility.yul\":15837:15844   */\n      dup5\n        /* \"#utility.yul\":15833:15856   */\n      sub\n        /* \"#utility.yul\":15829:15861   */\n      slt\n        /* \"#utility.yul\":15826:15945   */\n      iszero\n      tag_336\n      jumpi\n        /* \"#utility.yul\":15864:15943   */\n      tag_337\n      tag_106\n      jump\t// in\n    tag_337:\n        /* \"#utility.yul\":15826:15945   */\n    tag_336:\n        /* \"#utility.yul\":15984:15985   */\n      0x00\n        /* \"#utility.yul\":16009:16060   */\n      tag_338\n        /* \"#utility.yul\":16052:16059   */\n      dup5\n        /* \"#utility.yul\":16043:16049   */\n      dup3\n        /* \"#utility.yul\":16032:16041   */\n      dup6\n        /* \"#utility.yul\":16028:16050   */\n      add\n        /* \"#utility.yul\":16009:16060   */\n      tag_149\n      jump\t// in\n    tag_338:\n        /* \"#utility.yul\":15999:16060   */\n      swap2\n      pop\n        /* \"#utility.yul\":15955:16070   */\n      pop\n        /* \"#utility.yul\":15752:16077   */\n      swap3\n      swap2\n      pop\n      pop\n      jump\t// out\n        /* \"#utility.yul\":16083:16200   */\n    tag_150:\n        /* \"#utility.yul\":16192:16193   */\n      0x00\n        /* \"#utility.yul\":16189:16190   */\n      0x00\n        /* \"#utility.yul\":16182:16194   */\n      revert\n        /* \"#utility.yul\":16206:16323   */\n    tag_151:\n        /* \"#utility.yul\":16315:16316   */\n      0x00\n        /* \"#utility.yul\":16312:16313   */\n      0x00\n        /* \"#utility.yul\":16305:16317   */\n      revert\n        /* \"#utility.yul\":16329:16446   */\n    tag_152:\n        /* \"#utility.yul\":16438:16439   */\n      0x00\n        /* \"#utility.yul\":16435:16436   */\n      0x00\n        /* \"#utility.yul\":16428:16440   */\n      revert\n        /* \"#utility.yul\":16452:17177   */\n    tag_85:\n        /* \"#utility.yul\":16530:16534   */\n      0x00\n        /* \"#utility.yul\":16536:16542   */\n      0x00\n        /* \"#utility.yul\":16592:16603   */\n      dup4\n        /* \"#utility.yul\":16579:16604   */\n      calldataload\n        /* \"#utility.yul\":16692:16693   */\n      0x01\n        /* \"#utility.yul\":16686:16690   */\n      0x20\n        /* \"#utility.yul\":16682:16694   */\n      sub\n        /* \"#utility.yul\":16671:16679   */\n      dup5\n        /* \"#utility.yul\":16655:16669   */\n      calldatasize\n        /* \"#utility.yul\":16651:16680   */\n      sub\n        /* \"#utility.yul\":16647:16695   */\n      sub\n        /* \"#utility.yul\":16627:16645   */\n      dup2\n        /* \"#utility.yul\":16623:16696   */\n      slt\n        /* \"#utility.yul\":16613:16781   */\n      tag_343\n      jumpi\n        /* \"#utility.yul\":16700:16779   */\n      tag_344\n      tag_150\n      jump\t// in\n    tag_344:\n        /* \"#utility.yul\":16613:16781   */\n    tag_343:\n        /* \"#utility.yul\":16812:16830   */\n      dup1\n        /* \"#utility.yul\":16802:16810   */\n      dup5\n        /* \"#utility.yul\":16798:16831   */\n      add\n        /* \"#utility.yul\":16790:16831   */\n      swap3\n      pop\n        /* \"#utility.yul\":16864:16868   */\n      dup3\n        /* \"#utility.yul\":16851:16869   */\n      calldataload\n        /* \"#utility.yul\":16841:16869   */\n      swap2\n      pop\n        /* \"#utility.yul\":16892:16910   */\n      0xffffffffffffffff\n        /* \"#utility.yul\":16884:16890   */\n      dup3\n        /* \"#utility.yul\":16881:16911   */\n      gt\n        /* \"#utility.yul\":16878:16995   */\n      iszero\n      tag_345\n      jumpi\n        /* \"#utility.yul\":16914:16993   */\n      tag_346\n      tag_151\n      jump\t// in\n    tag_346:\n        /* \"#utility.yul\":16878:16995   */\n    tag_345:\n        /* \"#utility.yul\":17022:17024   */\n      0x20\n        /* \"#utility.yul\":17016:17020   */\n      dup4\n        /* \"#utility.yul\":17012:17025   */\n      add\n        /* \"#utility.yul\":17004:17025   */\n      swap3\n      pop\n        /* \"#utility.yul\":17079:17083   */\n      0x01\n        /* \"#utility.yul\":17071:17077   */\n      dup3\n        /* \"#utility.yul\":17067:17084   */\n      mul\n        /* \"#utility.yul\":17051:17065   */\n      calldatasize\n        /* \"#utility.yul\":17047:17085   */\n      sub\n        /* \"#utility.yul\":17041:17045   */\n      dup4\n        /* \"#utility.yul\":17037:17086   */\n      sgt\n        /* \"#utility.yul\":17034:17170   */\n      iszero\n      tag_347\n      jumpi\n        /* \"#utility.yul\":17089:17168   */\n      tag_348\n      tag_152\n      jump\t// in\n    tag_348:\n        /* \"#utility.yul\":17034:17170   */\n    tag_347:\n        /* \"#utility.yul\":16543:17177   */\n      pop\n        /* \"#utility.yul\":16452:17177   */\n      swap3\n      pop\n      swap3\n      swap1\n      pop\n      jump\t// out\n        /* \"#utility.yul\":17183:17363   */\n    tag_153:\n        /* \"#utility.yul\":17231:17308   */\n      0x4e487b7100000000000000000000000000000000000000000000000000000000\n        /* \"#utility.yul\":17228:17229   */\n      0x00\n        /* \"#utility.yul\":17221:17309   */\n      mstore\n        /* \"#utility.yul\":17328:17332   */\n      0x41\n        /* \"#utility.yul\":17325:17326   */\n      0x04\n        /* \"#utility.yul\":17318:17333   */\n      mstore\n        /* \"#utility.yul\":17352:17356   */\n      0x24\n        /* \"#utility.yul\":17349:17350   */\n      0x00\n        /* \"#utility.yul\":17342:17357   */\n      revert\n        /* \"#utility.yul\":17369:17510   */\n    tag_154:\n        /* \"#utility.yul\":17418:17422   */\n      0x00\n        /* \"#utility.yul\":17441:17444   */\n      dup2\n        /* \"#utility.yul\":17433:17444   */\n      swap1\n      pop\n        /* \"#utility.yul\":17464:17467   */\n      dup2\n        /* \"#utility.yul\":17461:17462   */\n      0x00\n        /* \"#utility.yul\":17454:17468   */\n      mstore\n        /* \"#utility.yul\":17498:17502   */\n      0x20\n        /* \"#utility.yul\":17495:17496   */\n      0x00\n        /* \"#utility.yul\":17485:17503   */\n      keccak256\n        /* \"#utility.yul\":17477:17503   */\n      swap1\n      pop\n        /* \"#utility.yul\":17369:17510   */\n      swap2\n      swap1\n      pop\n      jump\t// out\n        /* \"#utility.yul\":17516:17609   */\n    tag_155:\n        /* \"#utility.yul\":17553:17559   */\n      0x00\n        /* \"#utility.yul\":17600:17602   */\n      0x20\n        /* \"#utility.yul\":17595:17597   */\n      0x1f\n        /* \"#utility.yul\":17588:17593   */\n      dup4\n        /* \"#utility.yul\":17584:17598   */\n      add\n        /* \"#utility.yul\":17580:17603   */\n      div\n        /* \"#utility.yul\":17570:17603   */\n      swap1\n      pop\n        /* \"#utility.yul\":17516:17609   */\n      swap2\n      swap1\n      pop\n      jump\t// out\n        /* \"#utility.yul\":17615:17722   */\n    tag_156:\n        /* \"#utility.yul\":17659:17667   */\n      0x00\n        /* \"#utility.yul\":17709:17714   */\n      dup3\n        /* \"#utility.yul\":17703:17707   */\n      dup3\n        /* \"#utility.yul\":17699:17715   */\n      shl\n        /* \"#utility.yul\":17678:17715   */\n      swap1\n      pop\n        /* \"#utility.yul\":17615:17722   */\n      swap3\n      swap2\n      pop\n      pop\n      jump\t// out\n        /* \"#utility.yul\":17728:18121   */\n    tag_157:\n        /* \"#utility.yul\":17797:17803   */\n      0x00\n        /* \"#utility.yul\":17847:17848   */\n      0x08\n        /* \"#utility.yul\":17835:17845   */\n      dup4\n        /* \"#utility.yul\":17831:17849   */\n      mul\n        /* \"#utility.yul\":17870:17967   */\n      tag_354\n        /* \"#utility.yul\":17900:17966   */\n      0xffffffffffffffffffffffffffffffffffffffffffffffffffffffffffffffff\n        /* \"#utility.yul\":17889:17898   */\n      dup3\n        /* \"#utility.yul\":17870:17967   */\n      tag_156\n      jump\t// in\n    tag_354:\n        /* \"#utility.yul\":17988:18027   */\n      tag_355\n        /* \"#utility.yul\":18018:18026   */\n      dup7\n        /* \"#utility.yul\":18007:18016   */\n      dup4\n        /* \"#utility.yul\":17988:18027   */\n      tag_156\n      jump\t// in\n    tag_355:\n        /* \"#utility.yul\":17976:18027   */\n      swap6\n      pop\n        /* \"#utility.yul\":18060:18064   */\n      dup1\n        /* \"#utility.yul\":18056:18065   */\n      not\n        /* \"#utility.yul\":18049:18054   */\n      dup5\n        /* \"#utility.yul\":18045:18066   */\n      and\n        /* \"#utility.yul\":18036:18066   */\n      swap4\n      pop\n        /* \"#utility.yul\":18109:18113   */\n      dup1\n        /* \"#utility.yul\":18099:18107   */\n      dup7\n        /* \"#utility.yul\":18095:18114   */\n      and\n        /* \"#utility.yul\":18088:18093   */\n      dup5\n        /* \"#utility.yul\":18085:18115   */\n      or\n        /* \"#utility.yul\":18075:18115   */\n      swap3\n      pop\n        /* \"#utility.yul\":17804:18121   */\n      pop\n      pop\n        /* \"#utility.yul\":17728:18121   */\n      swap4\n      swap3\n      pop\n      pop\n      pop\n      jump\t// out\n        /* \"#utility.yul\":18127:18269   */\n    tag_158:\n        /* \"#utility.yul\":18177:18186   */\n      0x00\n        /* \"#utility.yul\":18210:18263   */\n      tag_357\n        /* \"#utility.yul\":18228:18262   */\n      tag_358\n        /* \"#utility.yul\":18237:18261   */\n      tag_359\n        /* \"#utility.yul\":18255:18260   */\n      dup5\n        /* \"#utility.yul\":18237:18261   */\n      tag_112\n      jump\t// in\n    tag_359:\n        /* \"#utility.yul\":18228:18262   */\n      tag_125\n      jump\t// in\n    tag_358:\n        /* \"#utility.yul\":18210:18263   */\n      tag_112\n      jump\t// in\n    tag_357:\n        /* \"#utility.yul\":18197:18263   */\n      swap1\n      pop\n        /* \"#utility.yul\":18127:18269   */\n      swap2\n      swap1\n      pop\n      jump\t// out\n        /* \"#utility.yul\":18275:18350   */\n    tag_159:\n        /* \"#utility.yul\":18318:18321   */\n      0x00\n        /* \"#utility.yul\":18339:18344   */\n      dup2\n        /* \"#utility.yul\":18332:18344   */\n      swap1\n      pop\n        /* \"#utility.yul\":18275:18350   */\n      swap2\n      swap1\n      pop\n      jump\t// out\n        /* \"#utility.yul\":18356:18625   */\n    tag_160:\n        /* \"#utility.yul\":18466:18505   */\n      tag_362\n        /* \"#utility.yul\":18497:18504   */\n      dup4\n        /* \"#utility.yul\":18466:18505   */\n      tag_158\n      jump\t// in\n    tag_362:\n        /* \"#utility.yul\":18527:18618   */\n      tag_363\n        /* \"#utility.yul\":18576:18617   */\n      tag_364\n        /* \"#utility.yul\":18600:18616   */\n      dup3\n        /* \"#utility.yul\":18576:18617   */\n      tag_159\n      jump\t// in\n    tag_364:\n        /* \"#utility.yul\":18568:18574   */\n      dup5\n        /* \"#utility.yul\":18561:18565   */\n      dup5\n        /* \"#utility.yul\":18555:18566   */\n      sload\n        /* \"#utility.yul\":18527:18618   */\n      tag_157\n      jump\t// in\n    tag_363:\n        /* \"#utility.yul\":18521:18525   */\n      dup3\n        /* \"#utility.yul\":18514:18619   */\n      sstore\n        /* \"#utility.yul\":18432:18625   */\n      pop\n        /* \"#utility.yul\":18356:18625   */\n      pop\n      pop\n      pop\n      jump\t// out\n        /* \"#utility.yul\":18631:18704   */\n    tag_161:\n        /* \"#utility.yul\":18676:18679   */\n      0x00\n        /* \"#utility.yul\":18697:18698   */\n      0x00\n        /* \"#utility.yul\":18690:18698   */\n      swap1\n      pop\n        /* \"#utility.yul\":18631:18704   */\n      swap1\n      jump\t// out\n        /* \"#utility.yul\":18710:18899   */\n    tag_162:\n        /* \"#utility.yul\":18787:18819   */\n      tag_367\n      tag_161\n      jump\t// in\n    tag_367:\n        /* \"#utility.yul\":18828:18893   */\n      tag_368\n        /* \"#utility.yul\":18886:18892   */\n      dup2\n        /* \"#utility.yul\":18878:18884   */\n      dup5\n        /* \"#utility.yul\":18872:18876   */\n      dup5\n        /* \"#utility.yul\":18828:18893   */\n      tag_160\n      jump\t// in\n    tag_368:\n        /* \"#utility.yul\":18763:18899   */\n      pop\n        /* \"#utility.yul\":18710:18899   */\n      pop\n      pop\n      jump\t// out\n        /* \"#utility.yul\":18905:19119   */\n    tag_163:\n        /* \"#utility.yul\":18990:18991   */\n      0x00\n        /* \"#utility.yul\":18975:19113   */\n    tag_370:\n        /* \"#utility.yul\":19000:19009   */\n      dup3\n        /* \"#utility.yul\":18997:18998   */\n      dup2\n        /* \"#utility.yul\":18994:19010   */\n      lt\n        /* \"#utility.yul\":18975:19113   */\n      iszero\n      tag_372\n      jumpi\n        /* \"#utility.yul\":19052:19103   */\n      tag_373\n        /* \"#utility.yul\":19101:19102   */\n      0x00\n        /* \"#utility.yul\":19097:19098   */\n      dup3\n        /* \"#utility.yul\":19086:19095   */\n      dup5\n        /* \"#utility.yul\":19082:19099   */\n      add\n        /* \"#utility.yul\":19052:19103   */\n      tag_162\n      jump\t// in\n    tag_373:\n        /* \"#utility.yul\":19025:19026   */\n      0x01\n        /* \"#utility.yul\":19022:19023   */\n      dup2\n        /* \"#utility.yul\":19018:19027   */\n      add\n        /* \"#utility.yul\":19013:19027   */\n      swap1\n      pop\n        /* \"#utility.yul\":18975:19113   */\n      jump(tag_370)\n    tag_372:\n        /* \"#utility.yul\":18979:18993   */\n      pop\n        /* \"#utility.yul\":18905:19119   */\n      pop\n      pop\n      jump\t// out\n        /* \"#utility.yul\":19125:19871   */\n    tag_164:\n        /* \"#utility.yul\":19226:19228   */\n      0x1f\n        /* \"#utility.yul\":19221:19224   */\n      dup3\n        /* \"#utility.yul\":19218:19229   */\n      gt\n        /* \"#utility.yul\":19215:19864   */\n      iszero\n      tag_375\n      jumpi\n        /* \"#utility.yul\":19255:19265   */\n      dup3\n        /* \"#utility.yul\":19250:19253   */\n      dup3\n        /* \"#utility.yul\":19247:19266   */\n      gt\n        /* \"#utility.yul\":19244:19854   */\n      iszero\n      tag_376\n      jumpi\n        /* \"#utility.yul\":19301:19339   */\n      tag_377\n        /* \"#utility.yul\":19333:19338   */\n      dup2\n        /* \"#utility.yul\":19301:19339   */\n      tag_154\n      jump\t// in\n    tag_377:\n        /* \"#utility.yul\":19376:19398   */\n      tag_378\n        /* \"#utility.yul\":19394:19397   */\n      dup4\n        /* \"#utility.yul\":19376:19398   */\n      tag_155\n      jump\t// in\n    tag_378:\n        /* \"#utility.yul\":19435:19464   */\n      tag_379\n        /* \"#utility.yul\":19453:19463   */\n      dup6\n        /* \"#utility.yul\":19435:19464   */\n      tag_155\n      jump\t// in\n    tag_379:\n        /* \"#utility.yul\":19625:19627   */\n      0x20\n        /* \"#utility.yul\":19613:19623   */\n      dup7\n        /* \"#utility.yul\":19610:19628   */\n      lt\n        /* \"#utility.yul\":19607:19686   */\n      iszero\n      tag_380\n      jumpi\n        /* \"#utility.yul\":19667:19668   */\n      0x00\n        /* \"#utility.yul\":19651:19668   */\n      swap1\n      pop\n        /* \"#utility.yul\":19607:19686   */\n    tag_380:\n        /* \"#utility.yul\":19736:19748   */\n      dup1\n        /* \"#utility.yul\":19726:19734   */\n      dup4\n        /* \"#utility.yul\":19722:19749   */\n      add\n        /* \"#utility.yul\":19766:19840   */\n      tag_381\n        /* \"#utility.yul\":19826:19838   */\n      dup3\n        /* \"#utility.yul\":19812:19824   */\n      dup5\n        /* \"#utility.yul\":19808:19839   */\n      sub\n        /* \"#utility.yul\":19795:19806   */\n      dup3\n        /* \"#utility.yul\":19766:19840   */\n      tag_163\n      jump\t// in\n    tag_381:\n        /* \"#utility.yul\":19267:19854   */\n      pop\n      pop\n      pop\n      pop\n        /* \"#utility.yul\":19244:19854   */\n    tag_376:\n        /* \"#utility.yul\":19215:19864   */\n    tag_375:\n        /* \"#utility.yul\":19125:19871   */\n      pop\n      pop\n      pop\n      jump\t// out\n        /* \"#utility.yul\":19877:19994   */\n    tag_165:\n        /* \"#utility.yul\":19931:19939   */\n      0x00\n        /* \"#utility.yul\":19981:19986   */\n      dup3\n        /* \"#utility.yul\":19975:19979   */\n      dup3\n        /* \"#utility.yul\":19971:19987   */\n      shr\n        /* \"#utility.yul\":19950:19987   */\n      swap1\n      pop\n        /* \"#utility.yul\":19877:19994   */\n      swap3\n      swap2\n      pop\n      pop\n      jump\t// out\n        /* \"#utility.yul\":20000:20169   */\n    tag_166:\n        /* \"#utility.yul\":20044:20050   */\n      0x00\n        /* \"#utility.yul\":20077:20128   */\n      tag_384\n        /* \"#utility.yul\":20125:20126   */\n      0x00\n        /* \"#utility.yul\":20121:20127   */\n      not\n        /* \"#utility.yul\":20113:20118   */\n      dup5\n        /* \"#utility.yul\":20110:20111   */\n      0x08\n        /* \"#utility.yul\":20106:20119   */\n      mul\n        /* \"#utility.yul\":20077:20128   */\n      tag_165\n      jump\t// in\n    tag_384:\n        /* \"#utility.yul\":20073:20129   */\n      not\n        /* \"#utility.yul\":20158:20162   */\n      dup1\n        /* \"#utility.yul\":20152:20156   */\n      dup4\n        /* \"#utility.yul\":20148:20163   */\n      and\n        /* \"#utility.yul\":20138:20163   */\n      swap2\n      pop\n        /* \"#utility.yul\":20051:20169   */\n      pop\n        /* \"#utility.yul\":20000:20169   */\n      swap3\n      swap2\n      pop\n      pop\n      jump\t// out\n        /* \"#utility.yul\":20174:20469   */\n    tag_167:\n        /* \"#utility.yul\":20250:20254   */\n      0x00\n        /* \"#utility.yul\":20396:20425   */\n      tag_386\n        /* \"#utility.yul\":20421:20424   */\n      dup4\n        /* \"#utility.yul\":20415:20419   */\n      dup4\n        /* \"#utility.yul\":20396:20425   */\n      tag_166\n      jump\t// in\n    tag_386:\n        /* \"#utility.yul\":20388:20425   */\n      swap2\n      pop\n        /* \"#utility.yul\":20458:20461   */\n      dup3\n        /* \"#utility.yul\":20455:20456   */\n      0x02\n        /* \"#utility.yul\":20451:20462   */\n      mul\n        /* \"#utility.yul\":20445:20449   */\n      dup3\n        /* \"#utility.yul\":20442:20463   */\n      or\n        /* \"#utility.yul\":20434:20463   */\n      swap1\n      pop\n        /* \"#utility.yul\":20174:20469   */\n      swap3\n      swap2\n      pop\n      pop\n      jump\t// out\n        /* \"#utility.yul\":20474:21869   */\n    tag_90:\n        /* \"#utility.yul\":20591:20628   */\n      tag_388\n        /* \"#utility.yul\":20624:20627   */\n      dup3\n        /* \"#utility.yul\":20591:20628   */\n      tag_120\n      jump\t// in\n    tag_388:\n        /* \"#utility.yul\":20693:20711   */\n      0xffffffffffffffff\n        /* \"#utility.yul\":20685:20691   */\n      dup2\n        /* \"#utility.yul\":20682:20712   */\n      gt\n        /* \"#utility.yul\":20679:20735   */\n      iszero\n      tag_389\n      jumpi\n        /* \"#utility.yul\":20715:20733   */\n      tag_390\n      tag_153\n      jump\t// in\n    tag_390:\n        /* \"#utility.yul\":20679:20735   */\n    tag_389:\n        /* \"#utility.yul\":20759:20797   */\n      tag_391\n        /* \"#utility.yul\":20791:20795   */\n      dup3\n        /* \"#utility.yul\":20785:20796   */\n      sload\n        /* \"#utility.yul\":20759:20797   */\n      tag_42\n      jump\t// in\n    tag_391:\n        /* \"#utility.yul\":20844:20911   */\n      tag_392\n        /* \"#utility.yul\":20904:20910   */\n      dup3\n        /* \"#utility.yul\":20896:20902   */\n      dup3\n        /* \"#utility.yul\":20890:20894   */\n      dup6\n        /* \"#utility.yul\":20844:20911   */\n      tag_164\n      jump\t// in\n    tag_392:\n        /* \"#utility.yul\":20938:20939   */\n      0x00\n        /* \"#utility.yul\":20962:20966   */\n      0x20\n        /* \"#utility.yul\":20949:20966   */\n      swap1\n      pop\n        /* \"#utility.yul\":20994:20996   */\n      0x1f\n        /* \"#utility.yul\":20986:20992   */\n      dup4\n        /* \"#utility.yul\":20983:20997   */\n      gt\n        /* \"#utility.yul\":21011:21012   */\n      0x01\n        /* \"#utility.yul\":21006:21624   */\n      dup2\n      eq\n      tag_394\n      jumpi\n        /* \"#utility.yul\":21668:21669   */\n      0x00\n        /* \"#utility.yul\":21685:21691   */\n      dup5\n        /* \"#utility.yul\":21682:21759   */\n      iszero\n      tag_395\n      jumpi\n        /* \"#utility.yul\":21734:21743   */\n      dup3\n        /* \"#utility.yul\":21729:21732   */\n      dup8\n        /* \"#utility.yul\":21725:21744   */\n      add\n        /* \"#utility.yul\":21719:21745   */\n      mload\n        /* \"#utility.yul\":21710:21745   */\n      swap1\n      pop\n        /* \"#utility.yul\":21682:21759   */\n    tag_395:\n        /* \"#utility.yul\":21785:21852   */\n      tag_396\n        /* \"#utility.yul\":21845:21851   */\n      dup6\n        /* \"#utility.yul\":21838:21843   */\n      dup3\n        /* \"#utility.yul\":21785:21852   */\n      tag_167\n      jump\t// in\n    tag_396:\n        /* \"#utility.yul\":21779:21783   */\n      dup7\n        /* \"#utility.yul\":21772:21853   */\n      sstore\n        /* \"#utility.yul\":21641:21863   */\n      pop\n        /* \"#utility.yul\":20976:21863   */\n      jump(tag_393)\n        /* \"#utility.yul\":21006:21624   */\n    tag_394:\n        /* \"#utility.yul\":21058:21062   */\n      0x1f\n        /* \"#utility.yul\":21054:21063   */\n      not\n        /* \"#utility.yul\":21046:21052   */\n      dup5\n        /* \"#utility.yul\":21042:21064   */\n      and\n        /* \"#utility.yul\":21092:21129   */\n      tag_397\n        /* \"#utility.yul\":21124:21128   */\n      dup7\n        /* \"#utility.yul\":21092:21129   */\n      tag_154\n      jump\t// in\n    tag_397:\n        /* \"#utility.yul\":21151:21152   */\n      0x00\n        /* \"#utility.yul\":21165:21373   */\n    tag_398:\n        /* \"#utility.yul\":21179:21186   */\n      dup3\n        /* \"#utility.yul\":21176:21177   */\n      dup2\n        /* \"#utility.yul\":21173:21187   */\n      lt\n        /* \"#utility.yul\":21165:21373   */\n      iszero\n      tag_400\n      jumpi\n        /* \"#utility.yul\":21258:21267   */\n      dup5\n        /* \"#utility.yul\":21253:21256   */\n      dup10\n        /* \"#utility.yul\":21249:21268   */\n      add\n        /* \"#utility.yul\":21243:21269   */\n      mload\n        /* \"#utility.yul\":21235:21241   */\n      dup3\n        /* \"#utility.yul\":21228:21270   */\n      sstore\n        /* \"#utility.yul\":21309:21310   */\n      0x01\n        /* \"#utility.yul\":21301:21307   */\n      dup3\n        /* \"#utility.yul\":21297:21311   */\n      add\n        /* \"#utility.yul\":21287:21311   */\n      swap2\n      pop\n        /* \"#utility.yul\":21356:21358   */\n      0x20\n        /* \"#utility.yul\":21345:21354   */\n      dup6\n        /* \"#utility.yul\":21341:21359   */\n      add\n        /* \"#utility.yul\":21328:21359   */\n      swap5\n      pop\n        /* \"#utility.yul\":21202:21206   */\n      0x20\n        /* \"#utility.yul\":21199:21200   */\n      dup2\n        /* \"#utility.yul\":21195:21207   */\n      add\n        /* \"#utility.yul\":21190:21207   */\n      swap1\n      pop\n        /* \"#utility.yul\":21165:21373   */\n      jump(tag_398)\n    tag_400:\n        /* \"#utility.yul\":21401:21407   */\n      dup7\n        /* \"#utility.yul\":21392:21399   */\n      dup4\n        /* \"#utility.yul\":21389:21408   */\n      lt\n        /* \"#utility.yul\":21386:21565   */\n      iszero\n      tag_401\n      jumpi\n        /* \"#utility.yul\":21459:21468   */\n      dup5\n        /* \"#utility.yul\":21454:21457   */\n      dup10\n        /* \"#utility.yul\":21450:21469   */\n      add\n        /* \"#utility.yul\":21444:21470   */\n      mload\n        /* \"#utility.yul\":21502:21550   */\n      tag_402\n        /* \"#utility.yul\":21544:21548   */\n      0x1f\n        /* \"#utility.yul\":21536:21542   */\n      dup10\n        /* \"#utility.yul\":21532:21549   */\n      and\n        /* \"#utility.yul\":21521:21530   */\n      dup3\n        /* \"#utility.yul\":21502:21550   */\n      tag_166\n      jump\t// in\n    tag_402:\n        /* \"#utility.yul\":21494:21500   */\n      dup4\n        /* \"#utility.yul\":21487:21551   */\n      sstore\n        /* \"#utility.yul\":21409:21565   */\n      pop\n        /* \"#utility.yul\":21386:21565   */\n    tag_401:\n        /* \"#utility.yul\":21611:21612   */\n      0x01\n        /* \"#utility.yul\":21607:21608   */\n      0x02\n        /* \"#utility.yul\":21599:21605   */\n      dup9\n        /* \"#utility.yul\":21595:21609   */\n      mul\n        /* \"#utility.yul\":21591:21613   */\n      add\n        /* \"#utility.yul\":21585:21589   */\n      dup9\n        /* \"#utility.yul\":21578:21614   */\n      sstore\n        /* \"#utility.yul\":21013:21624   */\n      pop\n      pop\n      pop\n        /* \"#utility.yul\":20976:21863   */\n    tag_393:\n      pop\n        /* \"#utility.yul\":20566:21869   */\n      pop\n      pop\n      pop\n        /* \"#utility.yul\":20474:21869   */\n      pop\n      pop\n      jump\t// out\n        /* \"#utility.yul\":21875:22023   */\n    tag_168:\n        /* \"#utility.yul\":21973:21979   */\n      dup3\n        /* \"#utility.yul\":21968:21971   */\n      dup2\n        /* \"#utility.yul\":21963:21966   */\n      dup4\n        /* \"#utility.yul\":21950:21980   */\n      calldatacopy\n        /* \"#utility.yul\":22014:22015   */\n      0x00\n        /* \"#utility.yul\":22005:22011   */\n      dup4\n        /* \"#utility.yul\":22000:22003   */\n      dup4\n        /* \"#utility.yul\":21996:22012   */\n      add\n        /* \"#utility.yul\":21989:22016   */\n      mstore\n        /* \"#utility.yul\":21875:22023   */\n      pop\n      pop\n      pop\n      jump\t// out\n        /* \"#utility.yul\":22053:22370   */\n    tag_169:\n        /* \"#utility.yul\":22151:22154   */\n      0x00\n        /* \"#utility.yul\":22172:22243   */\n      tag_405\n        /* \"#utility.yul\":22236:22242   */\n      dup4\n        /* \"#utility.yul\":22231:22234   */\n      dup6\n        /* \"#utility.yul\":22172:22243   */\n      tag_121\n      jump\t// in\n    tag_405:\n        /* \"#utility.yul\":22165:22243   */\n      swap4\n      pop\n        /* \"#utility.yul\":22253:22309   */\n      tag_406\n        /* \"#utility.yul\":22302:22308   */\n      dup4\n        /* \"#utility.yul\":22297:22300   */\n      dup6\n        /* \"#utility.yul\":22290:22295   */\n      dup5\n        /* \"#utility.yul\":22253:22309   */\n      tag_168\n      jump\t// in\n    tag_406:\n        /* \"#utility.yul\":22334:22363   */\n      tag_407\n        /* \"#utility.yul\":22356:22362   */\n      dup4\n        /* \"#utility.yul\":22334:22363   */\n      tag_123\n      jump\t// in\n    tag_407:\n        /* \"#utility.yul\":22329:22332   */\n      dup5\n        /* \"#utility.yul\":22325:22364   */\n      add\n        /* \"#utility.yul\":22318:22364   */\n      swap1\n      pop\n        /* \"#utility.yul\":22053:22370   */\n      swap4\n      swap3\n      pop\n      pop\n      pop\n      jump\t// out\n        /* \"#utility.yul\":22376:22709   */\n    tag_98:\n        /* \"#utility.yul\":22499:22503   */\n      0x00\n        /* \"#utility.yul\":22537:22539   */\n      0x20\n        /* \"#utility.yul\":22526:22535   */\n      dup3\n        /* \"#utility.yul\":22522:22540   */\n      add\n        /* \"#utility.yul\":22514:22540   */\n      swap1\n      pop\n        /* \"#utility.yul\":22586:22595   */\n      dup2\n        /* \"#utility.yul\":22580:22584   */\n      dup2\n        /* \"#utility.yul\":22576:22596   */\n      sub\n        /* \"#utility.yul\":22572:22573   */\n      0x00\n        /* \"#utility.yul\":22561:22570   */\n      dup4\n        /* \"#utility.yul\":22557:22574   */\n      add\n        /* \"#utility.yul\":22550:22597   */\n      mstore\n        /* \"#utility.yul\":22614:22702   */\n      tag_409\n        /* \"#utility.yul\":22697:22701   */\n      dup2\n        /* \"#utility.yul\":22688:22694   */\n      dup5\n        /* \"#utility.yul\":22680:22686   */\n      dup7\n        /* \"#utility.yul\":22614:22702   */\n      tag_169\n      jump\t// in\n    tag_409:\n        /* \"#utility.yul\":22606:22702   */\n      swap1\n      pop\n        /* \"#utility.yul\":22376:22709   */\n      swap4\n      swap3\n      pop\n      pop\n      pop\n      jump\t// out\n        /* \"#utility.yul\":22715:22858   */\n    tag_170:\n        /* \"#utility.yul\":22772:22777   */\n      0x00\n        /* \"#utility.yul\":22803:22809   */\n      dup2\n        /* \"#utility.yul\":22797:22810   */\n      mload\n        /* \"#utility.yul\":22788:22810   */\n      swap1\n      pop\n        /* \"#utility.yul\":22819:22852   */\n      tag_411\n        /* \"#utility.yul\":22846:22851   */\n      dup2\n        /* \"#utility.yul\":22819:22852   */\n      tag_113\n      jump\t// in\n    tag_411:\n        /* \"#utility.yul\":22715:22858   */\n      swap3\n      swap2\n      pop\n      pop\n      jump\t// out\n        /* \"#utility.yul\":22864:23215   */\n    tag_104:\n        /* \"#utility.yul\":22934:22940   */\n      0x00\n        /* \"#utility.yul\":22983:22985   */\n      0x20\n        /* \"#utility.yul\":22971:22980   */\n      dup3\n        /* \"#utility.yul\":22962:22969   */\n      dup5\n        /* \"#utility.yul\":22958:22981   */\n      sub\n        /* \"#utility.yul\":22954:22986   */\n      slt\n        /* \"#utility.yul\":22951:23070   */\n      iszero\n      tag_413\n      jumpi\n        /* \"#utility.yul\":22989:23068   */\n      tag_414\n      tag_106\n      jump\t// in\n    tag_414:\n        /* \"#utility.yul\":22951:23070   */\n    tag_413:\n        /* \"#utility.yul\":23109:23110   */\n      0x00\n        /* \"#utility.yul\":23134:23198   */\n      tag_415\n        /* \"#utility.yul\":23190:23197   */\n      dup5\n        /* \"#utility.yul\":23181:23187   */\n      dup3\n        /* \"#utility.yul\":23170:23179   */\n      dup6\n        /* \"#utility.yul\":23166:23188   */\n      add\n        /* \"#utility.yul\":23134:23198   */\n      tag_170\n      jump\t// in\n    tag_415:\n        /* \"#utility.yul\":23124:23198   */\n      swap2\n      pop\n        /* \"#utility.yul\":23080:23208   */\n      pop\n        /* \"#utility.yul\":22864:23215   */\n      swap3\n      swap2\n      pop\n      pop\n      jump\t// out\n\n    auxdata: 0xa2646970667358221220ce8622383a79afbe8bda872e70dff31f2837f90c4cc497de51bc557eb112a75f64736f6c63430008220033\n}\n",
				"bytecode": {
					"linkReferences": {},
					"object": "608060405234801561000f575f5ffd5b5060405161171738038061171783398181016040528101906100319190610114565b3360015f6101000a81548173ffffffffffffffffffffffffffffffffffffffff021916908373ffffffffffffffffffffffffffffffffffffffff160217905550805f5f6101000a81548173ffffffffffffffffffffffffffffffffffffffff021916908373ffffffffffffffffffffffffffffffffffffffff1602179055505061013f565b5f5ffd5b5f73ffffffffffffffffffffffffffffffffffffffff82169050919050565b5f6100e3826100ba565b9050919050565b6100f3816100d9565b81146100fd575f5ffd5b50565b5f8151905061010e816100ea565b92915050565b5f60208284031215610129576101286100b6565b5b5f61013684828501610100565b91505092915050565b6115cb8061014c5f395ff3fe608060405234801561000f575f5ffd5b5060043610610060575f3560e01c806321670f2214610064578063469e90671461008057806355a373d6146100b35780636aa1d2ac146100d15780636f9fb98a146100ed5780638da5cb5b1461010b575b5f5ffd5b61007e60048036038101906100799190610a88565b610129565b005b61009a60048036038101906100959190610ac6565b610545565b6040516100aa9493929190610ba5565b60405180910390f35b6100bb61062e565b6040516100c89190610c4a565b60405180910390f35b6100eb60048036038101906100e69190610dc3565b610652565b005b6100f5610930565b6040516101029190610eb6565b60405180910390f35b6101136109ce565b6040516101209190610ecf565b60405180910390f35b60015f9054906101000a900473ffffffffffffffffffffffffffffffffffffffff1673ffffffffffffffffffffffffffffffffffffffff163373ffffffffffffffffffffffffffffffffffffffff16146101b8576040517f08c379a00000000000000000000000000000000000000000000000000000000081526004016101af90610f32565b60405180910390fd5b5f73ffffffffffffffffffffffffffffffffffffffff1660025f8473ffffffffffffffffffffffffffffffffffffffff1673ffffffffffffffffffffffffffffffffffffffff1681526020019081526020015f205f015f9054906101000a900473ffffffffffffffffffffffffffffffffffffffff1673ffffffffffffffffffffffffffffffffffffffff160361027b576040517fd764187d00000000000000000000000000000000000000000000000000000000815260040160405180910390fd5b5f60025f8473ffffffffffffffffffffffffffffffffffffffff1673ffffffffffffffffffffffffffffffffffffffff1681526020019081526020015f206040518060800160405290815f82015f9054906101000a900473ffffffffffffffffffffffffffffffffffffffff1673ffffffffffffffffffffffffffffffffffffffff1673ffffffffffffffffffffffffffffffffffffffff1681526020015f820160149054906101000a900460ff161515151581526020015f820160159054906101000a900460ff1660ff1660ff16815260200160018201805461035e90610f7d565b80601f016020809104026020016040519081016040528092919081815260200182805461038a90610f7d565b80156103d55780601f106103ac576101008083540402835291602001916103d5565b820191905f5260205f20905b8154815290600101906020018083116103b857829003601f168201915b50505050508152505090508060200151610424576040517f08c379a000000000000000000000000000000000000000000000000000000000815260040161041b90610ff7565b60405180910390fd5b5f5f5f9054906101000a900473ffffffffffffffffffffffffffffffffffffffff1673ffffffffffffffffffffffffffffffffffffffff1663a9059cbb85856040518363ffffffff1660e01b8152600401610480929190611015565b6020604051808303815f875af115801561049c573d5f5f3e3d5ffd5b505050506040513d601f19601f820116820180604052508101906104c09190611066565b905080610502576040517f08c379a00000000000000000000000000000000000000000000000000000000081526004016104f9906110db565b60405180910390fd5b7fa841c12702c4cd6ea8c369f0e7e906600c667854d8c4c38a63a787d901058ff28260600151846040516105379291906110f9565b60405180910390a150505050565b6002602052805f5260405f205f91509050805f015f9054906101000a900473ffffffffffffffffffffffffffffffffffffffff1690805f0160149054906101000a900460ff1690805f0160159054906101000a900460ff16908060010180546105ad90610f7d565b80601f01602080910402602001604051908101604052809291908181526020018280546105d990610f7d565b80156106245780601f106105fb57610100808354040283529160200191610624565b820191905f5260205f20905b81548152906001019060200180831161060757829003601f168201915b5050505050905084565b5f5f9054906101000a900473ffffffffffffffffffffffffffffffffffffffff1681565b5f8686905090505f5f90505b818110156109245760405180608001604052808b8b8481811061068457610683611127565b5b90506020020160208101906106999190610ac6565b73ffffffffffffffffffffffffffffffffffffffff1681526020018787848181106106c7576106c6611127565b5b90506020020160208101906106dc9190611168565b151581526020018585848181106106f6576106f5611127565b5b905060200201602081019061070b91906111bd565b60ff16815260200189898481811061072657610725611127565b5b905060200281019061073891906111f4565b8080601f0160208091040260200160405190810160405280939291908181526020018383808284375f81840152601f19601f8201169050808301925050505050505081525060025f8c8c8581811061079357610792611127565b5b90506020020160208101906107a89190610ac6565b73ffffffffffffffffffffffffffffffffffffffff1673ffffffffffffffffffffffffffffffffffffffff1681526020019081526020015f205f820151815f015f6101000a81548173ffffffffffffffffffffffffffffffffffffffff021916908373ffffffffffffffffffffffffffffffffffffffff1602179055506020820151815f0160146101000a81548160ff0219169083151502179055506040820151815f0160156101000a81548160ff021916908360ff1602179055506060820151816001019081610879919061142b565b509050508989828181106108905761088f611127565b5b90506020020160208101906108a59190610ac6565b73ffffffffffffffffffffffffffffffffffffffff167f21f0ef8ecb39babd1f22ce5ea02510839dbcf939b6ba195a9f8bc7442aca5a0e8989848181106108ef576108ee611127565b5b905060200281019061090191906111f4565b60405161090f929190611534565b60405180910390a2808060010191505061065e565b50505050505050505050565b5f5f5f9054906101000a900473ffffffffffffffffffffffffffffffffffffffff1673ffffffffffffffffffffffffffffffffffffffff166370a08231306040518263ffffffff1660e01b815260040161098a9190610ecf565b602060405180830381865afa1580156109a5573d5f5f3e3d5ffd5b505050506040513d601f19601f820116820180604052508101906109c9919061156a565b905090565b60015f9054906101000a900473ffffffffffffffffffffffffffffffffffffffff1681565b5f5ffd5b5f5ffd5b5f73ffffffffffffffffffffffffffffffffffffffff82169050919050565b5f610a24826109fb565b9050919050565b610a3481610a1a565b8114610a3e575f5ffd5b50565b5f81359050610a4f81610a2b565b92915050565b5f819050919050565b610a6781610a55565b8114610a71575f5ffd5b50565b5f81359050610a8281610a5e565b92915050565b5f5f60408385031215610a9e57610a9d6109f3565b5b5f610aab85828601610a41565b9250506020610abc85828601610a74565b9150509250929050565b5f60208284031215610adb57610ada6109f3565b5b5f610ae884828501610a41565b91505092915050565b610afa81610a1a565b82525050565b5f8115159050919050565b610b1481610b00565b82525050565b5f60ff82169050919050565b610b2f81610b1a565b82525050565b5f81519050919050565b5f82825260208201905092915050565b8281835e5f83830152505050565b5f601f19601f8301169050919050565b5f610b7782610b35565b610b818185610b3f565b9350610b91818560208601610b4f565b610b9a81610b5d565b840191505092915050565b5f608082019050610bb85f830187610af1565b610bc56020830186610b0b565b610bd26040830185610b26565b8181036060830152610be48184610b6d565b905095945050505050565b5f819050919050565b5f610c12610c0d610c08846109fb565b610bef565b6109fb565b9050919050565b5f610c2382610bf8565b9050919050565b5f610c3482610c19565b9050919050565b610c4481610c2a565b82525050565b5f602082019050610c5d5f830184610c3b565b92915050565b5f5ffd5b5f5ffd5b5f5ffd5b5f5f83601f840112610c8457610c83610c63565b5b8235905067ffffffffffffffff811115610ca157610ca0610c67565b5b602083019150836020820283011115610cbd57610cbc610c6b565b5b9250929050565b5f5f83601f840112610cd957610cd8610c63565b5b8235905067ffffffffffffffff811115610cf657610cf5610c67565b5b602083019150836020820283011115610d1257610d11610c6b565b5b9250929050565b5f5f83601f840112610d2e57610d2d610c63565b5b8235905067ffffffffffffffff811115610d4b57610d4a610c67565b5b602083019150836020820283011115610d6757610d66610c6b565b5b9250929050565b5f5f83601f840112610d8357610d82610c63565b5b8235905067ffffffffffffffff811115610da057610d9f610c67565b5b602083019150836020820283011115610dbc57610dbb610c6b565b5b9250929050565b5f5f5f5f5f5f5f5f6080898b031215610ddf57610dde6109f3565b5b5f89013567ffffffffffffffff811115610dfc57610dfb6109f7565b5b610e088b828c01610c6f565b9850985050602089013567ffffffffffffffff811115610e2b57610e2a6109f7565b5b610e378b828c01610cc4565b9650965050604089013567ffffffffffffffff811115610e5a57610e596109f7565b5b610e668b828c01610d19565b9450945050606089013567ffffffffffffffff811115610e8957610e886109f7565b5b610e958b828c01610d6e565b92509250509295985092959890939650565b610eb081610a55565b82525050565b5f602082019050610ec95f830184610ea7565b92915050565b5f602082019050610ee25f830184610af1565b92915050565b7f6f6e6c7920666f72206f776e65727321000000000000000000000000000000005f82015250565b5f610f1c601083610b3f565b9150610f2782610ee8565b602082019050919050565b5f6020820190508181035f830152610f4981610f10565b9050919050565b7f4e487b71000000000000000000000000000000000000000000000000000000005f52602260045260245ffd5b5f6002820490506001821680610f9457607f821691505b602082108103610fa757610fa6610f50565b5b50919050565b7f6e6f7420766572696669656421000000000000000000000000000000000000005f82015250565b5f610fe1600d83610b3f565b9150610fec82610fad565b602082019050919050565b5f6020820190508181035f83015261100e81610fd5565b9050919050565b5f6040820190506110285f830185610af1565b6110356020830184610ea7565b9392505050565b61104581610b00565b811461104f575f5ffd5b50565b5f815190506110608161103c565b92915050565b5f6020828403121561107b5761107a6109f3565b5b5f61108884828501611052565b91505092915050565b7f415448207472616e73666572206661696c6564210000000000000000000000005f82015250565b5f6110c5601483610b3f565b91506110d082611091565b602082019050919050565b5f6020820190508181035f8301526110f2816110b9565b9050919050565b5f6040820190508181035f8301526111118185610b6d565b90506111206020830184610ea7565b9392505050565b7f4e487b71000000000000000000000000000000000000000000000000000000005f52603260045260245ffd5b5f813590506111628161103c565b92915050565b5f6020828403121561117d5761117c6109f3565b5b5f61118a84828501611154565b91505092915050565b61119c81610b1a565b81146111a6575f5ffd5b50565b5f813590506111b781611193565b92915050565b5f602082840312156111d2576111d16109f3565b5b5f6111df848285016111a9565b91505092915050565b5f5ffd5b5f5ffd5b5f5ffd5b5f5f833560016020038436030381126112105761120f6111e8565b5b80840192508235915067ffffffffffffffff821115611232576112316111ec565b5b60208301925060018202360383131561124e5761124d6111f0565b5b509250929050565b7f4e487b71000000000000000000000000000000000000000000000000000000005f52604160045260245ffd5b5f819050815f5260205f209050919050565b5f6020601f8301049050919050565b5f82821b905092915050565b5f600883026112df7fffffffffffffffffffffffffffffffffffffffffffffffffffffffffffffffff826112a4565b6112e986836112a4565b95508019841693508086168417925050509392505050565b5f61131b61131661131184610a55565b610bef565b610a55565b9050919050565b5f819050919050565b61133483611301565b61134861134082611322565b8484546112b0565b825550505050565b5f5f905090565b61135f611350565b61136a81848461132b565b505050565b5f5b82811015611390576113855f828401611357565b600181019050611371565b505050565b601f8211156113e357828211156113e2576113af81611283565b6113b883611295565b6113c185611295565b60208610156113ce575f90505b8083016113dd8284038261136f565b505050505b5b505050565b5f82821c905092915050565b5f6114035f19846008026113e8565b1980831691505092915050565b5f61141b83836113f4565b9150826002028217905092915050565b61143482610b35565b67ffffffffffffffff81111561144d5761144c611256565b5b6114578254610f7d565b611462828285611395565b5f60209050601f831160018114611493575f8415611481578287015190505b61148b8582611410565b8655506114f2565b601f1984166114a186611283565b5f5b828110156114c8578489015182556001820191506020850194506020810190506114a3565b868310156114e557848901516114e1601f8916826113f4565b8355505b6001600288020188555050505b505050505050565b828183375f83830152505050565b5f6115138385610b3f565b93506115208385846114fa565b61152983610b5d565b840190509392505050565b5f6020820190508181035f83015261154d818486611508565b90509392505050565b5f8151905061156481610a5e565b92915050565b5f6020828403121561157f5761157e6109f3565b5b5f61158c84828501611556565b9150509291505056fea2646970667358221220ce8622383a79afbe8bda872e70dff31f2837f90c4cc497de51bc557eb112a75f64736f6c63430008220033",
					"opcodes": "PUSH1 0x80 PUSH1 0x40 MSTORE CALLVALUE DUP1 ISZERO PUSH2 0xF JUMPI PUSH0 PUSH0 REVERT JUMPDEST POP PUSH1 0x40 MLOAD PUSH2 0x1717 CODESIZE SUB DUP1 PUSH2 0x1717 DUP4 CODECOPY DUP2 DUP2 ADD PUSH1 0x40 MSTORE DUP2 ADD SWAP1 PUSH2 0x31 SWAP2 SWAP1 PUSH2 0x114 JUMP JUMPDEST CALLER PUSH1 0x1 PUSH0 PUSH2 0x100 EXP DUP2 SLOAD DUP2 PUSH20 0xFFFFFFFFFFFFFFFFFFFFFFFFFFFFFFFFFFFFFFFF MUL NOT AND SWAP1 DUP4 PUSH20 0xFFFFFFFFFFFFFFFFFFFFFFFFFFFFFFFFFFFFFFFF AND MUL OR SWAP1 SSTORE POP DUP1 PUSH0 PUSH0 PUSH2 0x100 EXP DUP2 SLOAD DUP2 PUSH20 0xFFFFFFFFFFFFFFFFFFFFFFFFFFFFFFFFFFFFFFFF MUL NOT AND SWAP1 DUP4 PUSH20 0xFFFFFFFFFFFFFFFFFFFFFFFFFFFFFFFFFFFFFFFF AND MUL OR SWAP1 SSTORE POP POP PUSH2 0x13F JUMP JUMPDEST PUSH0 PUSH0 REVERT JUMPDEST PUSH0 PUSH20 0xFFFFFFFFFFFFFFFFFFFFFFFFFFFFFFFFFFFFFFFF DUP3 AND SWAP1 POP SWAP2 SWAP1 POP JUMP JUMPDEST PUSH0 PUSH2 0xE3 DUP3 PUSH2 0xBA JUMP JUMPDEST SWAP1 POP SWAP2 SWAP1 POP JUMP JUMPDEST PUSH2 0xF3 DUP2 PUSH2 0xD9 JUMP JUMPDEST DUP2 EQ PUSH2 0xFD JUMPI PUSH0 PUSH0 REVERT JUMPDEST POP JUMP JUMPDEST PUSH0 DUP2 MLOAD SWAP1 POP PUSH2 0x10E DUP2 PUSH2 0xEA JUMP JUMPDEST SWAP3 SWAP2 POP POP JUMP JUMPDEST PUSH0 PUSH1 0x20 DUP3 DUP5 SUB SLT ISZERO PUSH2 0x129 JUMPI PUSH2 0x128 PUSH2 0xB6 JUMP JUMPDEST JUMPDEST PUSH0 PUSH2 0x136 DUP5 DUP3 DUP6 ADD PUSH2 0x100 JUMP JUMPDEST SWAP2 POP POP SWAP3 SWAP2 POP POP JUMP JUMPDEST PUSH2 0x15CB DUP1 PUSH2 0x14C PUSH0 CODECOPY PUSH0 RETURN INVALID PUSH1 0x80 PUSH1 0x40 MSTORE CALLVALUE DUP1 ISZERO PUSH2 0xF JUMPI PUSH0 PUSH0 REVERT JUMPDEST POP PUSH1 0x4 CALLDATASIZE LT PUSH2 0x60 JUMPI PUSH0 CALLDATALOAD PUSH1 0xE0 SHR DUP1 PUSH4 0x21670F22 EQ PUSH2 0x64 JUMPI DUP1 PUSH4 0x469E9067 EQ PUSH2 0x80 JUMPI DUP1 PUSH4 0x55A373D6 EQ PUSH2 0xB3 JUMPI DUP1 PUSH4 0x6AA1D2AC EQ PUSH2 0xD1 JUMPI DUP1 PUSH4 0x6F9FB98A EQ PUSH2 0xED JUMPI DUP1 PUSH4 0x8DA5CB5B EQ PUSH2 0x10B JUMPI JUMPDEST PUSH0 PUSH0 REVERT JUMPDEST PUSH2 0x7E PUSH1 0x4 DUP1 CALLDATASIZE SUB DUP2 ADD SWAP1 PUSH2 0x79 SWAP2 SWAP1 PUSH2 0xA88 JUMP JUMPDEST PUSH2 0x129 JUMP JUMPDEST STOP JUMPDEST PUSH2 0x9A PUSH1 0x4 DUP1 CALLDATASIZE SUB DUP2 ADD SWAP1 PUSH2 0x95 SWAP2 SWAP1 PUSH2 0xAC6 JUMP JUMPDEST PUSH2 0x545 JUMP JUMPDEST PUSH1 0x40 MLOAD PUSH2 0xAA SWAP5 SWAP4 SWAP3 SWAP2 SWAP1 PUSH2 0xBA5 JUMP JUMPDEST PUSH1 0x40 MLOAD DUP1 SWAP2 SUB SWAP1 RETURN JUMPDEST PUSH2 0xBB PUSH2 0x62E JUMP JUMPDEST PUSH1 0x40 MLOAD PUSH2 0xC8 SWAP2 SWAP1 PUSH2 0xC4A JUMP JUMPDEST PUSH1 0x40 MLOAD DUP1 SWAP2 SUB SWAP1 RETURN JUMPDEST PUSH2 0xEB PUSH1 0x4 DUP1 CALLDATASIZE SUB DUP2 ADD SWAP1 PUSH2 0xE6 SWAP2 SWAP1 PUSH2 0xDC3 JUMP JUMPDEST PUSH2 0x652 JUMP JUMPDEST STOP JUMPDEST PUSH2 0xF5 PUSH2 0x930 JUMP JUMPDEST PUSH1 0x40 MLOAD PUSH2 0x102 SWAP2 SWAP1 PUSH2 0xEB6 JUMP JUMPDEST PUSH1 0x40 MLOAD DUP1 SWAP2 SUB SWAP1 RETURN JUMPDEST PUSH2 0x113 PUSH2 0x9CE JUMP JUMPDEST PUSH1 0x40 MLOAD PUSH2 0x120 SWAP2 SWAP1 PUSH2 0xECF JUMP JUMPDEST PUSH1 0x40 MLOAD DUP1 SWAP2 SUB SWAP1 RETURN JUMPDEST PUSH1 0x1 PUSH0 SWAP1 SLOAD SWAP1 PUSH2 0x100 EXP SWAP1 DIV PUSH20 0xFFFFFFFFFFFFFFFFFFFFFFFFFFFFFFFFFFFFFFFF AND PUSH20 0xFFFFFFFFFFFFFFFFFFFFFFFFFFFFFFFFFFFFFFFF AND CALLER PUSH20 0xFFFFFFFFFFFFFFFFFFFFFFFFFFFFFFFFFFFFFFFF AND EQ PUSH2 0x1B8 JUMPI PUSH1 0x40 MLOAD PUSH32 0x8C379A000000000000000000000000000000000000000000000000000000000 DUP2 MSTORE PUSH1 0x4 ADD PUSH2 0x1AF SWAP1 PUSH2 0xF32 JUMP JUMPDEST PUSH1 0x40 MLOAD DUP1 SWAP2 SUB SWAP1 REVERT JUMPDEST PUSH0 PUSH20 0xFFFFFFFFFFFFFFFFFFFFFFFFFFFFFFFFFFFFFFFF AND PUSH1 0x2 PUSH0 DUP5 PUSH20 0xFFFFFFFFFFFFFFFFFFFFFFFFFFFFFFFFFFFFFFFF AND PUSH20 0xFFFFFFFFFFFFFFFFFFFFFFFFFFFFFFFFFFFFFFFF AND DUP2 MSTORE PUSH1 0x20 ADD SWAP1 DUP2 MSTORE PUSH1 0x20 ADD PUSH0 KECCAK256 PUSH0 ADD PUSH0 SWAP1 SLOAD SWAP1 PUSH2 0x100 EXP SWAP1 DIV PUSH20 0xFFFFFFFFFFFFFFFFFFFFFFFFFFFFFFFFFFFFFFFF AND PUSH20 0xFFFFFFFFFFFFFFFFFFFFFFFFFFFFFFFFFFFFFFFF AND SUB PUSH2 0x27B JUMPI PUSH1 0x40 MLOAD PUSH32 0xD764187D00000000000000000000000000000000000000000000000000000000 DUP2 MSTORE PUSH1 0x4 ADD PUSH1 0x40 MLOAD DUP1 SWAP2 SUB SWAP1 REVERT JUMPDEST PUSH0 PUSH1 0x2 PUSH0 DUP5 PUSH20 0xFFFFFFFFFFFFFFFFFFFFFFFFFFFFFFFFFFFFFFFF AND PUSH20 0xFFFFFFFFFFFFFFFFFFFFFFFFFFFFFFFFFFFFFFFF AND DUP2 MSTORE PUSH1 0x20 ADD SWAP1 DUP2 MSTORE PUSH1 0x20 ADD PUSH0 KECCAK256 PUSH1 0x40 MLOAD DUP1 PUSH1 0x80 ADD PUSH1 0x40 MSTORE SWAP1 DUP2 PUSH0 DUP3 ADD PUSH0 SWAP1 SLOAD SWAP1 PUSH2 0x100 EXP SWAP1 DIV PUSH20 0xFFFFFFFFFFFFFFFFFFFFFFFFFFFFFFFFFFFFFFFF AND PUSH20 0xFFFFFFFFFFFFFFFFFFFFFFFFFFFFFFFFFFFFFFFF AND PUSH20 0xFFFFFFFFFFFFFFFFFFFFFFFFFFFFFFFFFFFFFFFF AND DUP2 MSTORE PUSH1 0x20 ADD PUSH0 DUP3 ADD PUSH1 0x14 SWAP1 SLOAD SWAP1 PUSH2 0x100 EXP SWAP1 DIV PUSH1 0xFF AND ISZERO ISZERO ISZERO ISZERO DUP2 MSTORE PUSH1 0x20 ADD PUSH0 DUP3 ADD PUSH1 0x15 SWAP1 SLOAD SWAP1 PUSH2 0x100 EXP SWAP1 DIV PUSH1 0xFF AND PUSH1 0xFF AND PUSH1 0xFF AND DUP2 MSTORE PUSH1 0x20 ADD PUSH1 0x1 DUP3 ADD DUP1 SLOAD PUSH2 0x35E SWAP1 PUSH2 0xF7D JUMP JUMPDEST DUP1 PUSH1 0x1F ADD PUSH1 0x20 DUP1 SWAP2 DIV MUL PUSH1 0x20 ADD PUSH1 0x40 MLOAD SWAP1 DUP2 ADD PUSH1 0x40 MSTORE DUP1 SWAP3 SWAP2 SWAP1 DUP2 DUP2 MSTORE PUSH1 0x20 ADD DUP3 DUP1 SLOAD PUSH2 0x38A SWAP1 PUSH2 0xF7D JUMP JUMPDEST DUP1 ISZERO PUSH2 0x3D5 JUMPI DUP1 PUSH1 0x1F LT PUSH2 0x3AC JUMPI PUSH2 0x100 DUP1 DUP4 SLOAD DIV MUL DUP4 MSTORE SWAP2 PUSH1 0x20 ADD SWAP2 PUSH2 0x3D5 JUMP JUMPDEST DUP3 ADD SWAP2 SWAP1 PUSH0 MSTORE PUSH1 0x20 PUSH0 KECCAK256 SWAP1 JUMPDEST DUP2 SLOAD DUP2 MSTORE SWAP1 PUSH1 0x1 ADD SWAP1 PUSH1 0x20 ADD DUP1 DUP4 GT PUSH2 0x3B8 JUMPI DUP3 SWAP1 SUB PUSH1 0x1F AND DUP3 ADD SWAP2 JUMPDEST POP POP POP POP POP DUP2 MSTORE POP POP SWAP1 POP DUP1 PUSH1 0x20 ADD MLOAD PUSH2 0x424 JUMPI PUSH1 0x40 MLOAD PUSH32 0x8C379A000000000000000000000000000000000000000000000000000000000 DUP2 MSTORE PUSH1 0x4 ADD PUSH2 0x41B SWAP1 PUSH2 0xFF7 JUMP JUMPDEST PUSH1 0x40 MLOAD DUP1 SWAP2 SUB SWAP1 REVERT JUMPDEST PUSH0 PUSH0 PUSH0 SWAP1 SLOAD SWAP1 PUSH2 0x100 EXP SWAP1 DIV PUSH20 0xFFFFFFFFFFFFFFFFFFFFFFFFFFFFFFFFFFFFFFFF AND PUSH20 0xFFFFFFFFFFFFFFFFFFFFFFFFFFFFFFFFFFFFFFFF AND PUSH4 0xA9059CBB DUP6 DUP6 PUSH1 0x40 MLOAD DUP4 PUSH4 0xFFFFFFFF AND PUSH1 0xE0 SHL DUP2 MSTORE PUSH1 0x4 ADD PUSH2 0x480 SWAP3 SWAP2 SWAP1 PUSH2 0x1015 JUMP JUMPDEST PUSH1 0x20 PUSH1 0x40 MLOAD DUP1 DUP4 SUB DUP2 PUSH0 DUP8 GAS CALL ISZERO DUP1 ISZERO PUSH2 0x49C JUMPI RETURNDATASIZE PUSH0 PUSH0 RETURNDATACOPY RETURNDATASIZE PUSH0 REVERT JUMPDEST POP POP POP POP PUSH1 0x40 MLOAD RETURNDATASIZE PUSH1 0x1F NOT PUSH1 0x1F DUP3 ADD AND DUP3 ADD DUP1 PUSH1 0x40 MSTORE POP DUP2 ADD SWAP1 PUSH2 0x4C0 SWAP2 SWAP1 PUSH2 0x1066 JUMP JUMPDEST SWAP1 POP DUP1 PUSH2 0x502 JUMPI PUSH1 0x40 MLOAD PUSH32 0x8C379A000000000000000000000000000000000000000000000000000000000 DUP2 MSTORE PUSH1 0x4 ADD PUSH2 0x4F9 SWAP1 PUSH2 0x10DB JUMP JUMPDEST PUSH1 0x40 MLOAD DUP1 SWAP2 SUB SWAP1 REVERT JUMPDEST PUSH32 0xA841C12702C4CD6EA8C369F0E7E906600C667854D8C4C38A63A787D901058FF2 DUP3 PUSH1 0x60 ADD MLOAD DUP5 PUSH1 0x40 MLOAD PUSH2 0x537 SWAP3 SWAP2 SWAP1 PUSH2 0x10F9 JUMP JUMPDEST PUSH1 0x40 MLOAD DUP1 SWAP2 SUB SWAP1 LOG1 POP POP POP POP JUMP JUMPDEST PUSH1 0x2 PUSH1 0x20 MSTORE DUP1 PUSH0 MSTORE PUSH1 0x40 PUSH0 KECCAK256 PUSH0 SWAP2 POP SWAP1 POP DUP1 PUSH0 ADD PUSH0 SWAP1 SLOAD SWAP1 PUSH2 0x100 EXP SWAP1 DIV PUSH20 0xFFFFFFFFFFFFFFFFFFFFFFFFFFFFFFFFFFFFFFFF AND SWAP1 DUP1 PUSH0 ADD PUSH1 0x14 SWAP1 SLOAD SWAP1 PUSH2 0x100 EXP SWAP1 DIV PUSH1 0xFF AND SWAP1 DUP1 PUSH0 ADD PUSH1 0x15 SWAP1 SLOAD SWAP1 PUSH2 0x100 EXP SWAP1 DIV PUSH1 0xFF AND SWAP1 DUP1 PUSH1 0x1 ADD DUP1 SLOAD PUSH2 0x5AD SWAP1 PUSH2 0xF7D JUMP JUMPDEST DUP1 PUSH1 0x1F ADD PUSH1 0x20 DUP1 SWAP2 DIV MUL PUSH1 0x20 ADD PUSH1 0x40 MLOAD SWAP1 DUP2 ADD PUSH1 0x40 MSTORE DUP1 SWAP3 SWAP2 SWAP1 DUP2 DUP2 MSTORE PUSH1 0x20 ADD DUP3 DUP1 SLOAD PUSH2 0x5D9 SWAP1 PUSH2 0xF7D JUMP JUMPDEST DUP1 ISZERO PUSH2 0x624 JUMPI DUP1 PUSH1 0x1F LT PUSH2 0x5FB JUMPI PUSH2 0x100 DUP1 DUP4 SLOAD DIV MUL DUP4 MSTORE SWAP2 PUSH1 0x20 ADD SWAP2 PUSH2 0x624 JUMP JUMPDEST DUP3 ADD SWAP2 SWAP1 PUSH0 MSTORE PUSH1 0x20 PUSH0 KECCAK256 SWAP1 JUMPDEST DUP2 SLOAD DUP2 MSTORE SWAP1 PUSH1 0x1 ADD SWAP1 PUSH1 0x20 ADD DUP1 DUP4 GT PUSH2 0x607 JUMPI DUP3 SWAP1 SUB PUSH1 0x1F AND DUP3 ADD SWAP2 JUMPDEST POP POP POP POP POP SWAP1 POP DUP5 JUMP JUMPDEST PUSH0 PUSH0 SWAP1 SLOAD SWAP1 PUSH2 0x100 EXP SWAP1 DIV PUSH20 0xFFFFFFFFFFFFFFFFFFFFFFFFFFFFFFFFFFFFFFFF AND DUP2 JUMP JUMPDEST PUSH0 DUP7 DUP7 SWAP1 POP SWAP1 POP PUSH0 PUSH0 SWAP1 POP JUMPDEST DUP2 DUP2 LT ISZERO PUSH2 0x924 JUMPI PUSH1 0x40 MLOAD DUP1 PUSH1 0x80 ADD PUSH1 0x40 MSTORE DUP1 DUP12 DUP12 DUP5 DUP2 DUP2 LT PUSH2 0x684 JUMPI PUSH2 0x683 PUSH2 0x1127 JUMP JUMPDEST JUMPDEST SWAP1 POP PUSH1 0x20 MUL ADD PUSH1 0x20 DUP2 ADD SWAP1 PUSH2 0x699 SWAP2 SWAP1 PUSH2 0xAC6 JUMP JUMPDEST PUSH20 0xFFFFFFFFFFFFFFFFFFFFFFFFFFFFFFFFFFFFFFFF AND DUP2 MSTORE PUSH1 0x20 ADD DUP8 DUP8 DUP5 DUP2 DUP2 LT PUSH2 0x6C7 JUMPI PUSH2 0x6C6 PUSH2 0x1127 JUMP JUMPDEST JUMPDEST SWAP1 POP PUSH1 0x20 MUL ADD PUSH1 0x20 DUP2 ADD SWAP1 PUSH2 0x6DC SWAP2 SWAP1 PUSH2 0x1168 JUMP JUMPDEST ISZERO ISZERO DUP2 MSTORE PUSH1 0x20 ADD DUP6 DUP6 DUP5 DUP2 DUP2 LT PUSH2 0x6F6 JUMPI PUSH2 0x6F5 PUSH2 0x1127 JUMP JUMPDEST JUMPDEST SWAP1 POP PUSH1 0x20 MUL ADD PUSH1 0x20 DUP2 ADD SWAP1 PUSH2 0x70B SWAP2 SWAP1 PUSH2 0x11BD JUMP JUMPDEST PUSH1 0xFF AND DUP2 MSTORE PUSH1 0x20 ADD DUP10 DUP10 DUP5 DUP2 DUP2 LT PUSH2 0x726 JUMPI PUSH2 0x725 PUSH2 0x1127 JUMP JUMPDEST JUMPDEST SWAP1 POP PUSH1 0x20 MUL DUP2 ADD SWAP1 PUSH2 0x738 SWAP2 SWAP1 PUSH2 0x11F4 JUMP JUMPDEST DUP1 DUP1 PUSH1 0x1F ADD PUSH1 0x20 DUP1 SWAP2 DIV MUL PUSH1 0x20 ADD PUSH1 0x40 MLOAD SWAP1 DUP2 ADD PUSH1 0x40 MSTORE DUP1 SWAP4 SWAP3 SWAP2 SWAP1 DUP2 DUP2 MSTORE PUSH1 0x20 ADD DUP4 DUP4 DUP1 DUP3 DUP5 CALLDATACOPY PUSH0 DUP2 DUP5 ADD MSTORE PUSH1 0x1F NOT PUSH1 0x1F DUP3 ADD AND SWAP1 POP DUP1 DUP4 ADD SWAP3 POP POP POP POP POP POP POP DUP2 MSTORE POP PUSH1 0x2 PUSH0 DUP13 DUP13 DUP6 DUP2 DUP2 LT PUSH2 0x793 JUMPI PUSH2 0x792 PUSH2 0x1127 JUMP JUMPDEST JUMPDEST SWAP1 POP PUSH1 0x20 MUL ADD PUSH1 0x20 DUP2 ADD SWAP1 PUSH2 0x7A8 SWAP2 SWAP1 PUSH2 0xAC6 JUMP JUMPDEST PUSH20 0xFFFFFFFFFFFFFFFFFFFFFFFFFFFFFFFFFFFFFFFF AND PUSH20 0xFFFFFFFFFFFFFFFFFFFFFFFFFFFFFFFFFFFFFFFF AND DUP2 MSTORE PUSH1 0x20 ADD SWAP1 DUP2 MSTORE PUSH1 0x20 ADD PUSH0 KECCAK256 PUSH0 DUP3 ADD MLOAD DUP2 PUSH0 ADD PUSH0 PUSH2 0x100 EXP DUP2 SLOAD DUP2 PUSH20 0xFFFFFFFFFFFFFFFFFFFFFFFFFFFFFFFFFFFFFFFF MUL NOT AND SWAP1 DUP4 PUSH20 0xFFFFFFFFFFFFFFFFFFFFFFFFFFFFFFFFFFFFFFFF AND MUL OR SWAP1 SSTORE POP PUSH1 0x20 DUP3 ADD MLOAD DUP2 PUSH0 ADD PUSH1 0x14 PUSH2 0x100 EXP DUP2 SLOAD DUP2 PUSH1 0xFF MUL NOT AND SWAP1 DUP4 ISZERO ISZERO MUL OR SWAP1 SSTORE POP PUSH1 0x40 DUP3 ADD MLOAD DUP2 PUSH0 ADD PUSH1 0x15 PUSH2 0x100 EXP DUP2 SLOAD DUP2 PUSH1 0xFF MUL NOT AND SWAP1 DUP4 PUSH1 0xFF AND MUL OR SWAP1 SSTORE POP PUSH1 0x60 DUP3 ADD MLOAD DUP2 PUSH1 0x1 ADD SWAP1 DUP2 PUSH2 0x879 SWAP2 SWAP1 PUSH2 0x142B JUMP JUMPDEST POP SWAP1 POP POP DUP10 DUP10 DUP3 DUP2 DUP2 LT PUSH2 0x890 JUMPI PUSH2 0x88F PUSH2 0x1127 JUMP JUMPDEST JUMPDEST SWAP1 POP PUSH1 0x20 MUL ADD PUSH1 0x20 DUP2 ADD SWAP1 PUSH2 0x8A5 SWAP2 SWAP1 PUSH2 0xAC6 JUMP JUMPDEST PUSH20 0xFFFFFFFFFFFFFFFFFFFFFFFFFFFFFFFFFFFFFFFF AND PUSH32 0x21F0EF8ECB39BABD1F22CE5EA02510839DBCF939B6BA195A9F8BC7442ACA5A0E DUP10 DUP10 DUP5 DUP2 DUP2 LT PUSH2 0x8EF JUMPI PUSH2 0x8EE PUSH2 0x1127 JUMP JUMPDEST JUMPDEST SWAP1 POP PUSH1 0x20 MUL DUP2 ADD SWAP1 PUSH2 0x901 SWAP2 SWAP1 PUSH2 0x11F4 JUMP JUMPDEST PUSH1 0x40 MLOAD PUSH2 0x90F SWAP3 SWAP2 SWAP1 PUSH2 0x1534 JUMP JUMPDEST PUSH1 0x40 MLOAD DUP1 SWAP2 SUB SWAP1 LOG2 DUP1 DUP1 PUSH1 0x1 ADD SWAP2 POP POP PUSH2 0x65E JUMP JUMPDEST POP POP POP POP POP POP POP POP POP POP JUMP JUMPDEST PUSH0 PUSH0 PUSH0 SWAP1 SLOAD SWAP1 PUSH2 0x100 EXP SWAP1 DIV PUSH20 0xFFFFFFFFFFFFFFFFFFFFFFFFFFFFFFFFFFFFFFFF AND PUSH20 0xFFFFFFFFFFFFFFFFFFFFFFFFFFFFFFFFFFFFFFFF AND PUSH4 0x70A08231 ADDRESS PUSH1 0x40 MLOAD DUP3 PUSH4 0xFFFFFFFF AND PUSH1 0xE0 SHL DUP2 MSTORE PUSH1 0x4 ADD PUSH2 0x98A SWAP2 SWAP1 PUSH2 0xECF JUMP JUMPDEST PUSH1 0x20 PUSH1 0x40 MLOAD DUP1 DUP4 SUB DUP2 DUP7 GAS STATICCALL ISZERO DUP1 ISZERO PUSH2 0x9A5 JUMPI RETURNDATASIZE PUSH0 PUSH0 RETURNDATACOPY RETURNDATASIZE PUSH0 REVERT JUMPDEST POP POP POP POP PUSH1 0x40 MLOAD RETURNDATASIZE PUSH1 0x1F NOT PUSH1 0x1F DUP3 ADD AND DUP3 ADD DUP1 PUSH1 0x40 MSTORE POP DUP2 ADD SWAP1 PUSH2 0x9C9 SWAP2 SWAP1 PUSH2 0x156A JUMP JUMPDEST SWAP1 POP SWAP1 JUMP JUMPDEST PUSH1 0x1 PUSH0 SWAP1 SLOAD SWAP1 PUSH2 0x100 EXP SWAP1 DIV PUSH20 0xFFFFFFFFFFFFFFFFFFFFFFFFFFFFFFFFFFFFFFFF AND DUP2 JUMP JUMPDEST PUSH0 PUSH0 REVERT JUMPDEST PUSH0 PUSH0 REVERT JUMPDEST PUSH0 PUSH20 0xFFFFFFFFFFFFFFFFFFFFFFFFFFFFFFFFFFFFFFFF DUP3 AND SWAP1 POP SWAP2 SWAP1 POP JUMP JUMPDEST PUSH0 PUSH2 0xA24 DUP3 PUSH2 0x9FB JUMP JUMPDEST SWAP1 POP SWAP2 SWAP1 POP JUMP JUMPDEST PUSH2 0xA34 DUP2 PUSH2 0xA1A JUMP JUMPDEST DUP2 EQ PUSH2 0xA3E JUMPI PUSH0 PUSH0 REVERT JUMPDEST POP JUMP JUMPDEST PUSH0 DUP2 CALLDATALOAD SWAP1 POP PUSH2 0xA4F DUP2 PUSH2 0xA2B JUMP JUMPDEST SWAP3 SWAP2 POP POP JUMP JUMPDEST PUSH0 DUP2 SWAP1 POP SWAP2 SWAP1 POP JUMP JUMPDEST PUSH2 0xA67 DUP2 PUSH2 0xA55 JUMP JUMPDEST DUP2 EQ PUSH2 0xA71 JUMPI PUSH0 PUSH0 REVERT JUMPDEST POP JUMP JUMPDEST PUSH0 DUP2 CALLDATALOAD SWAP1 POP PUSH2 0xA82 DUP2 PUSH2 0xA5E JUMP JUMPDEST SWAP3 SWAP2 POP POP JUMP JUMPDEST PUSH0 PUSH0 PUSH1 0x40 DUP4 DUP6 SUB SLT ISZERO PUSH2 0xA9E JUMPI PUSH2 0xA9D PUSH2 0x9F3 JUMP JUMPDEST JUMPDEST PUSH0 PUSH2 0xAAB DUP6 DUP3 DUP7 ADD PUSH2 0xA41 JUMP JUMPDEST SWAP3 POP POP PUSH1 0x20 PUSH2 0xABC DUP6 DUP3 DUP7 ADD PUSH2 0xA74 JUMP JUMPDEST SWAP2 POP POP SWAP3 POP SWAP3 SWAP1 POP JUMP JUMPDEST PUSH0 PUSH1 0x20 DUP3 DUP5 SUB SLT ISZERO PUSH2 0xADB JUMPI PUSH2 0xADA PUSH2 0x9F3 JUMP JUMPDEST JUMPDEST PUSH0 PUSH2 0xAE8 DUP5 DUP3 DUP6 ADD PUSH2 0xA41 JUMP JUMPDEST SWAP2 POP POP SWAP3 SWAP2 POP POP JUMP JUMPDEST PUSH2 0xAFA DUP2 PUSH2 0xA1A JUMP JUMPDEST DUP3 MSTORE POP POP JUMP JUMPDEST PUSH0 DUP2 ISZERO ISZERO SWAP1 POP SWAP2 SWAP1 POP JUMP JUMPDEST PUSH2 0xB14 DUP2 PUSH2 0xB00 JUMP JUMPDEST DUP3 MSTORE POP POP JUMP JUMPDEST PUSH0 PUSH1 0xFF DUP3 AND SWAP1 POP SWAP2 SWAP1 POP JUMP JUMPDEST PUSH2 0xB2F DUP2 PUSH2 0xB1A JUMP JUMPDEST DUP3 MSTORE POP POP JUMP JUMPDEST PUSH0 DUP2 MLOAD SWAP1 POP SWAP2 SWAP1 POP JUMP JUMPDEST PUSH0 DUP3 DUP3 MSTORE PUSH1 0x20 DUP3 ADD SWAP1 POP SWAP3 SWAP2 POP POP JUMP JUMPDEST DUP3 DUP2 DUP4 MCOPY PUSH0 DUP4 DUP4 ADD MSTORE POP POP POP JUMP JUMPDEST PUSH0 PUSH1 0x1F NOT PUSH1 0x1F DUP4 ADD AND SWAP1 POP SWAP2 SWAP1 POP JUMP JUMPDEST PUSH0 PUSH2 0xB77 DUP3 PUSH2 0xB35 JUMP JUMPDEST PUSH2 0xB81 DUP2 DUP6 PUSH2 0xB3F JUMP JUMPDEST SWAP4 POP PUSH2 0xB91 DUP2 DUP6 PUSH1 0x20 DUP7 ADD PUSH2 0xB4F JUMP JUMPDEST PUSH2 0xB9A DUP2 PUSH2 0xB5D JUMP JUMPDEST DUP5 ADD SWAP2 POP POP SWAP3 SWAP2 POP POP JUMP JUMPDEST PUSH0 PUSH1 0x80 DUP3 ADD SWAP1 POP PUSH2 0xBB8 PUSH0 DUP4 ADD DUP8 PUSH2 0xAF1 JUMP JUMPDEST PUSH2 0xBC5 PUSH1 0x20 DUP4 ADD DUP7 PUSH2 0xB0B JUMP JUMPDEST PUSH2 0xBD2 PUSH1 0x40 DUP4 ADD DUP6 PUSH2 0xB26 JUMP JUMPDEST DUP2 DUP2 SUB PUSH1 0x60 DUP4 ADD MSTORE PUSH2 0xBE4 DUP2 DUP5 PUSH2 0xB6D JUMP JUMPDEST SWAP1 POP SWAP6 SWAP5 POP POP POP POP POP JUMP JUMPDEST PUSH0 DUP2 SWAP1 POP SWAP2 SWAP1 POP JUMP JUMPDEST PUSH0 PUSH2 0xC12 PUSH2 0xC0D PUSH2 0xC08 DUP5 PUSH2 0x9FB JUMP JUMPDEST PUSH2 0xBEF JUMP JUMPDEST PUSH2 0x9FB JUMP JUMPDEST SWAP1 POP SWAP2 SWAP1 POP JUMP JUMPDEST PUSH0 PUSH2 0xC23 DUP3 PUSH2 0xBF8 JUMP JUMPDEST SWAP1 POP SWAP2 SWAP1 POP JUMP JUMPDEST PUSH0 PUSH2 0xC34 DUP3 PUSH2 0xC19 JUMP JUMPDEST SWAP1 POP SWAP2 SWAP1 POP JUMP JUMPDEST PUSH2 0xC44 DUP2 PUSH2 0xC2A JUMP JUMPDEST DUP3 MSTORE POP POP JUMP JUMPDEST PUSH0 PUSH1 0x20 DUP3 ADD SWAP1 POP PUSH2 0xC5D PUSH0 DUP4 ADD DUP5 PUSH2 0xC3B JUMP JUMPDEST SWAP3 SWAP2 POP POP JUMP JUMPDEST PUSH0 PUSH0 REVERT JUMPDEST PUSH0 PUSH0 REVERT JUMPDEST PUSH0 PUSH0 REVERT JUMPDEST PUSH0 PUSH0 DUP4 PUSH1 0x1F DUP5 ADD SLT PUSH2 0xC84 JUMPI PUSH2 0xC83 PUSH2 0xC63 JUMP JUMPDEST JUMPDEST DUP3 CALLDATALOAD SWAP1 POP PUSH8 0xFFFFFFFFFFFFFFFF DUP2 GT ISZERO PUSH2 0xCA1 JUMPI PUSH2 0xCA0 PUSH2 0xC67 JUMP JUMPDEST JUMPDEST PUSH1 0x20 DUP4 ADD SWAP2 POP DUP4 PUSH1 0x20 DUP3 MUL DUP4 ADD GT ISZERO PUSH2 0xCBD JUMPI PUSH2 0xCBC PUSH2 0xC6B JUMP JUMPDEST JUMPDEST SWAP3 POP SWAP3 SWAP1 POP JUMP JUMPDEST PUSH0 PUSH0 DUP4 PUSH1 0x1F DUP5 ADD SLT PUSH2 0xCD9 JUMPI PUSH2 0xCD8 PUSH2 0xC63 JUMP JUMPDEST JUMPDEST DUP3 CALLDATALOAD SWAP1 POP PUSH8 0xFFFFFFFFFFFFFFFF DUP2 GT ISZERO PUSH2 0xCF6 JUMPI PUSH2 0xCF5 PUSH2 0xC67 JUMP JUMPDEST JUMPDEST PUSH1 0x20 DUP4 ADD SWAP2 POP DUP4 PUSH1 0x20 DUP3 MUL DUP4 ADD GT ISZERO PUSH2 0xD12 JUMPI PUSH2 0xD11 PUSH2 0xC6B JUMP JUMPDEST JUMPDEST SWAP3 POP SWAP3 SWAP1 POP JUMP JUMPDEST PUSH0 PUSH0 DUP4 PUSH1 0x1F DUP5 ADD SLT PUSH2 0xD2E JUMPI PUSH2 0xD2D PUSH2 0xC63 JUMP JUMPDEST JUMPDEST DUP3 CALLDATALOAD SWAP1 POP PUSH8 0xFFFFFFFFFFFFFFFF DUP2 GT ISZERO PUSH2 0xD4B JUMPI PUSH2 0xD4A PUSH2 0xC67 JUMP JUMPDEST JUMPDEST PUSH1 0x20 DUP4 ADD SWAP2 POP DUP4 PUSH1 0x20 DUP3 MUL DUP4 ADD GT ISZERO PUSH2 0xD67 JUMPI PUSH2 0xD66 PUSH2 0xC6B JUMP JUMPDEST JUMPDEST SWAP3 POP SWAP3 SWAP1 POP JUMP JUMPDEST PUSH0 PUSH0 DUP4 PUSH1 0x1F DUP5 ADD SLT PUSH2 0xD83 JUMPI PUSH2 0xD82 PUSH2 0xC63 JUMP JUMPDEST JUMPDEST DUP3 CALLDATALOAD SWAP1 POP PUSH8 0xFFFFFFFFFFFFFFFF DUP2 GT ISZERO PUSH2 0xDA0 JUMPI PUSH2 0xD9F PUSH2 0xC67 JUMP JUMPDEST JUMPDEST PUSH1 0x20 DUP4 ADD SWAP2 POP DUP4 PUSH1 0x20 DUP3 MUL DUP4 ADD GT ISZERO PUSH2 0xDBC JUMPI PUSH2 0xDBB PUSH2 0xC6B JUMP JUMPDEST JUMPDEST SWAP3 POP SWAP3 SWAP1 POP JUMP JUMPDEST PUSH0 PUSH0 PUSH0 PUSH0 PUSH0 PUSH0 PUSH0 PUSH0 PUSH1 0x80 DUP10 DUP12 SUB SLT ISZERO PUSH2 0xDDF JUMPI PUSH2 0xDDE PUSH2 0x9F3 JUMP JUMPDEST JUMPDEST PUSH0 DUP10 ADD CALLDATALOAD PUSH8 0xFFFFFFFFFFFFFFFF DUP2 GT ISZERO PUSH2 0xDFC JUMPI PUSH2 0xDFB PUSH2 0x9F7 JUMP JUMPDEST JUMPDEST PUSH2 0xE08 DUP12 DUP3 DUP13 ADD PUSH2 0xC6F JUMP JUMPDEST SWAP9 POP SWAP9 POP POP PUSH1 0x20 DUP10 ADD CALLDATALOAD PUSH8 0xFFFFFFFFFFFFFFFF DUP2 GT ISZERO PUSH2 0xE2B JUMPI PUSH2 0xE2A PUSH2 0x9F7 JUMP JUMPDEST JUMPDEST PUSH2 0xE37 DUP12 DUP3 DUP13 ADD PUSH2 0xCC4 JUMP JUMPDEST SWAP7 POP SWAP7 POP POP PUSH1 0x40 DUP10 ADD CALLDATALOAD PUSH8 0xFFFFFFFFFFFFFFFF DUP2 GT ISZERO PUSH2 0xE5A JUMPI PUSH2 0xE59 PUSH2 0x9F7 JUMP JUMPDEST JUMPDEST PUSH2 0xE66 DUP12 DUP3 DUP13 ADD PUSH2 0xD19 JUMP JUMPDEST SWAP5 POP SWAP5 POP POP PUSH1 0x60 DUP10 ADD CALLDATALOAD PUSH8 0xFFFFFFFFFFFFFFFF DUP2 GT ISZERO PUSH2 0xE89 JUMPI PUSH2 0xE88 PUSH2 0x9F7 JUMP JUMPDEST JUMPDEST PUSH2 0xE95 DUP12 DUP3 DUP13 ADD PUSH2 0xD6E JUMP JUMPDEST SWAP3 POP SWAP3 POP POP SWAP3 SWAP6 SWAP9 POP SWAP3 SWAP6 SWAP9 SWAP1 SWAP4 SWAP7 POP JUMP JUMPDEST PUSH2 0xEB0 DUP2 PUSH2 0xA55 JUMP JUMPDEST DUP3 MSTORE POP POP JUMP JUMPDEST PUSH0 PUSH1 0x20 DUP3 ADD SWAP1 POP PUSH2 0xEC9 PUSH0 DUP4 ADD DUP5 PUSH2 0xEA7 JUMP JUMPDEST SWAP3 SWAP2 POP POP JUMP JUMPDEST PUSH0 PUSH1 0x20 DUP3 ADD SWAP1 POP PUSH2 0xEE2 PUSH0 DUP4 ADD DUP5 PUSH2 0xAF1 JUMP JUMPDEST SWAP3 SWAP2 POP POP JUMP JUMPDEST PUSH32 0x6F6E6C7920666F72206F776E6572732100000000000000000000000000000000 PUSH0 DUP3 ADD MSTORE POP JUMP JUMPDEST PUSH0 PUSH2 0xF1C PUSH1 0x10 DUP4 PUSH2 0xB3F JUMP JUMPDEST SWAP2 POP PUSH2 0xF27 DUP3 PUSH2 0xEE8 JUMP JUMPDEST PUSH1 0x20 DUP3 ADD SWAP1 POP SWAP2 SWAP1 POP JUMP JUMPDEST PUSH0 PUSH1 0x20 DUP3 ADD SWAP1 POP DUP2 DUP2 SUB PUSH0 DUP4 ADD MSTORE PUSH2 0xF49 DUP2 PUSH2 0xF10 JUMP JUMPDEST SWAP1 POP SWAP2 SWAP1 POP JUMP JUMPDEST PUSH32 0x4E487B7100000000000000000000000000000000000000000000000000000000 PUSH0 MSTORE PUSH1 0x22 PUSH1 0x4 MSTORE PUSH1 0x24 PUSH0 REVERT JUMPDEST PUSH0 PUSH1 0x2 DUP3 DIV SWAP1 POP PUSH1 0x1 DUP3 AND DUP1 PUSH2 0xF94 JUMPI PUSH1 0x7F DUP3 AND SWAP2 POP JUMPDEST PUSH1 0x20 DUP3 LT DUP2 SUB PUSH2 0xFA7 JUMPI PUSH2 0xFA6 PUSH2 0xF50 JUMP JUMPDEST JUMPDEST POP SWAP2 SWAP1 POP JUMP JUMPDEST PUSH32 0x6E6F742076657269666965642100000000000000000000000000000000000000 PUSH0 DUP3 ADD MSTORE POP JUMP JUMPDEST PUSH0 PUSH2 0xFE1 PUSH1 0xD DUP4 PUSH2 0xB3F JUMP JUMPDEST SWAP2 POP PUSH2 0xFEC DUP3 PUSH2 0xFAD JUMP JUMPDEST PUSH1 0x20 DUP3 ADD SWAP1 POP SWAP2 SWAP1 POP JUMP JUMPDEST PUSH0 PUSH1 0x20 DUP3 ADD SWAP1 POP DUP2 DUP2 SUB PUSH0 DUP4 ADD MSTORE PUSH2 0x100E DUP2 PUSH2 0xFD5 JUMP JUMPDEST SWAP1 POP SWAP2 SWAP1 POP JUMP JUMPDEST PUSH0 PUSH1 0x40 DUP3 ADD SWAP1 POP PUSH2 0x1028 PUSH0 DUP4 ADD DUP6 PUSH2 0xAF1 JUMP JUMPDEST PUSH2 0x1035 PUSH1 0x20 DUP4 ADD DUP5 PUSH2 0xEA7 JUMP JUMPDEST SWAP4 SWAP3 POP POP POP JUMP JUMPDEST PUSH2 0x1045 DUP2 PUSH2 0xB00 JUMP JUMPDEST DUP2 EQ PUSH2 0x104F JUMPI PUSH0 PUSH0 REVERT JUMPDEST POP JUMP JUMPDEST PUSH0 DUP2 MLOAD SWAP1 POP PUSH2 0x1060 DUP2 PUSH2 0x103C JUMP JUMPDEST SWAP3 SWAP2 POP POP JUMP JUMPDEST PUSH0 PUSH1 0x20 DUP3 DUP5 SUB SLT ISZERO PUSH2 0x107B JUMPI PUSH2 0x107A PUSH2 0x9F3 JUMP JUMPDEST JUMPDEST PUSH0 PUSH2 0x1088 DUP5 DUP3 DUP6 ADD PUSH2 0x1052 JUMP JUMPDEST SWAP2 POP POP SWAP3 SWAP2 POP POP JUMP JUMPDEST PUSH32 0x415448207472616E73666572206661696C656421000000000000000000000000 PUSH0 DUP3 ADD MSTORE POP JUMP JUMPDEST PUSH0 PUSH2 0x10C5 PUSH1 0x14 DUP4 PUSH2 0xB3F JUMP JUMPDEST SWAP2 POP PUSH2 0x10D0 DUP3 PUSH2 0x1091 JUMP JUMPDEST PUSH1 0x20 DUP3 ADD SWAP1 POP SWAP2 SWAP1 POP JUMP JUMPDEST PUSH0 PUSH1 0x20 DUP3 ADD SWAP1 POP DUP2 DUP2 SUB PUSH0 DUP4 ADD MSTORE PUSH2 0x10F2 DUP2 PUSH2 0x10B9 JUMP JUMPDEST SWAP1 POP SWAP2 SWAP1 POP JUMP JUMPDEST PUSH0 PUSH1 0x40 DUP3 ADD SWAP1 POP DUP2 DUP2 SUB PUSH0 DUP4 ADD MSTORE PUSH2 0x1111 DUP2 DUP6 PUSH2 0xB6D JUMP JUMPDEST SWAP1 POP PUSH2 0x1120 PUSH1 0x20 DUP4 ADD DUP5 PUSH2 0xEA7 JUMP JUMPDEST SWAP4 SWAP3 POP POP POP JUMP JUMPDEST PUSH32 0x4E487B7100000000000000000000000000000000000000000000000000000000 PUSH0 MSTORE PUSH1 0x32 PUSH1 0x4 MSTORE PUSH1 0x24 PUSH0 REVERT JUMPDEST PUSH0 DUP2 CALLDATALOAD SWAP1 POP PUSH2 0x1162 DUP2 PUSH2 0x103C JUMP JUMPDEST SWAP3 SWAP2 POP POP JUMP JUMPDEST PUSH0 PUSH1 0x20 DUP3 DUP5 SUB SLT ISZERO PUSH2 0x117D JUMPI PUSH2 0x117C PUSH2 0x9F3 JUMP JUMPDEST JUMPDEST PUSH0 PUSH2 0x118A DUP5 DUP3 DUP6 ADD PUSH2 0x1154 JUMP JUMPDEST SWAP2 POP POP SWAP3 SWAP2 POP POP JUMP JUMPDEST PUSH2 0x119C DUP2 PUSH2 0xB1A JUMP JUMPDEST DUP2 EQ PUSH2 0x11A6 JUMPI PUSH0 PUSH0 REVERT JUMPDEST POP JUMP JUMPDEST PUSH0 DUP2 CALLDATALOAD SWAP1 POP PUSH2 0x11B7 DUP2 PUSH2 0x1193 JUMP JUMPDEST SWAP3 SWAP2 POP POP JUMP JUMPDEST PUSH0 PUSH1 0x20 DUP3 DUP5 SUB SLT ISZERO PUSH2 0x11D2 JUMPI PUSH2 0x11D1 PUSH2 0x9F3 JUMP JUMPDEST JUMPDEST PUSH0 PUSH2 0x11DF DUP5 DUP3 DUP6 ADD PUSH2 0x11A9 JUMP JUMPDEST SWAP2 POP POP SWAP3 SWAP2 POP POP JUMP JUMPDEST PUSH0 PUSH0 REVERT JUMPDEST PUSH0 PUSH0 REVERT JUMPDEST PUSH0 PUSH0 REVERT JUMPDEST PUSH0 PUSH0 DUP4 CALLDATALOAD PUSH1 0x1 PUSH1 0x20 SUB DUP5 CALLDATASIZE SUB SUB DUP2 SLT PUSH2 0x1210 JUMPI PUSH2 0x120F PUSH2 0x11E8 JUMP JUMPDEST JUMPDEST DUP1 DUP5 ADD SWAP3 POP DUP3 CALLDATALOAD SWAP2 POP PUSH8 0xFFFFFFFFFFFFFFFF DUP3 GT ISZERO PUSH2 0x1232 JUMPI PUSH2 0x1231 PUSH2 0x11EC JUMP JUMPDEST JUMPDEST PUSH1 0x20 DUP4 ADD SWAP3 POP PUSH1 0x1 DUP3 MUL CALLDATASIZE SUB DUP4 SGT ISZERO PUSH2 0x124E JUMPI PUSH2 0x124D PUSH2 0x11F0 JUMP JUMPDEST JUMPDEST POP SWAP3 POP SWAP3 SWAP1 POP JUMP JUMPDEST PUSH32 0x4E487B7100000000000000000000000000000000000000000000000000000000 PUSH0 MSTORE PUSH1 0x41 PUSH1 0x4 MSTORE PUSH1 0x24 PUSH0 REVERT JUMPDEST PUSH0 DUP2 SWAP1 POP DUP2 PUSH0 MSTORE PUSH1 0x20 PUSH0 KECCAK256 SWAP1 POP SWAP2 SWAP1 POP JUMP JUMPDEST PUSH0 PUSH1 0x20 PUSH1 0x1F DUP4 ADD DIV SWAP1 POP SWAP2 SWAP1 POP JUMP JUMPDEST PUSH0 DUP3 DUP3 SHL SWAP1 POP SWAP3 SWAP2 POP POP JUMP JUMPDEST PUSH0 PUSH1 0x8 DUP4 MUL PUSH2 0x12DF PUSH32 0xFFFFFFFFFFFFFFFFFFFFFFFFFFFFFFFFFFFFFFFFFFFFFFFFFFFFFFFFFFFFFFFF DUP3 PUSH2 0x12A4 JUMP JUMPDEST PUSH2 0x12E9 DUP7 DUP4 PUSH2 0x12A4 JUMP JUMPDEST SWAP6 POP DUP1 NOT DUP5 AND SWAP4 POP DUP1 DUP7 AND DUP5 OR SWAP3 POP POP POP SWAP4 SWAP3 POP POP POP JUMP JUMPDEST PUSH0 PUSH2 0x131B PUSH2 0x1316 PUSH2 0x1311 DUP5 PUSH2 0xA55 JUMP JUMPDEST PUSH2 0xBEF JUMP JUMPDEST PUSH2 0xA55 JUMP JUMPDEST SWAP1 POP SWAP2 SWAP1 POP JUMP JUMPDEST PUSH0 DUP2 SWAP1 POP SWAP2 SWAP1 POP JUMP JUMPDEST PUSH2 0x1334 DUP4 PUSH2 0x1301 JUMP JUMPDEST PUSH2 0x1348 PUSH2 0x1340 DUP3 PUSH2 0x1322 JUMP JUMPDEST DUP5 DUP5 SLOAD PUSH2 0x12B0 JUMP JUMPDEST DUP3 SSTORE POP POP POP POP JUMP JUMPDEST PUSH0 PUSH0 SWAP1 POP SWAP1 JUMP JUMPDEST PUSH2 0x135F PUSH2 0x1350 JUMP JUMPDEST PUSH2 0x136A DUP2 DUP5 DUP5 PUSH2 0x132B JUMP JUMPDEST POP POP POP JUMP JUMPDEST PUSH0 JUMPDEST DUP3 DUP2 LT ISZERO PUSH2 0x1390 JUMPI PUSH2 0x1385 PUSH0 DUP3 DUP5 ADD PUSH2 0x1357 JUMP JUMPDEST PUSH1 0x1 DUP2 ADD SWAP1 POP PUSH2 0x1371 JUMP JUMPDEST POP POP POP JUMP JUMPDEST PUSH1 0x1F DUP3 GT ISZERO PUSH2 0x13E3 JUMPI DUP3 DUP3 GT ISZERO PUSH2 0x13E2 JUMPI PUSH2 0x13AF DUP2 PUSH2 0x1283 JUMP JUMPDEST PUSH2 0x13B8 DUP4 PUSH2 0x1295 JUMP JUMPDEST PUSH2 0x13C1 DUP6 PUSH2 0x1295 JUMP JUMPDEST PUSH1 0x20 DUP7 LT ISZERO PUSH2 0x13CE JUMPI PUSH0 SWAP1 POP JUMPDEST DUP1 DUP4 ADD PUSH2 0x13DD DUP3 DUP5 SUB DUP3 PUSH2 0x136F JUMP JUMPDEST POP POP POP POP JUMPDEST JUMPDEST POP POP POP JUMP JUMPDEST PUSH0 DUP3 DUP3 SHR SWAP1 POP SWAP3 SWAP2 POP POP JUMP JUMPDEST PUSH0 PUSH2 0x1403 PUSH0 NOT DUP5 PUSH1 0x8 MUL PUSH2 0x13E8 JUMP JUMPDEST NOT DUP1 DUP4 AND SWAP2 POP POP SWAP3 SWAP2 POP POP JUMP JUMPDEST PUSH0 PUSH2 0x141B DUP4 DUP4 PUSH2 0x13F4 JUMP JUMPDEST SWAP2 POP DUP3 PUSH1 0x2 MUL DUP3 OR SWAP1 POP SWAP3 SWAP2 POP POP JUMP JUMPDEST PUSH2 0x1434 DUP3 PUSH2 0xB35 JUMP JUMPDEST PUSH8 0xFFFFFFFFFFFFFFFF DUP2 GT ISZERO PUSH2 0x144D JUMPI PUSH2 0x144C PUSH2 0x1256 JUMP JUMPDEST JUMPDEST PUSH2 0x1457 DUP3 SLOAD PUSH2 0xF7D JUMP JUMPDEST PUSH2 0x1462 DUP3 DUP3 DUP6 PUSH2 0x1395 JUMP JUMPDEST PUSH0 PUSH1 0x20 SWAP1 POP PUSH1 0x1F DUP4 GT PUSH1 0x1 DUP2 EQ PUSH2 0x1493 JUMPI PUSH0 DUP5 ISZERO PUSH2 0x1481 JUMPI DUP3 DUP8 ADD MLOAD SWAP1 POP JUMPDEST PUSH2 0x148B DUP6 DUP3 PUSH2 0x1410 JUMP JUMPDEST DUP7 SSTORE POP PUSH2 0x14F2 JUMP JUMPDEST PUSH1 0x1F NOT DUP5 AND PUSH2 0x14A1 DUP7 PUSH2 0x1283 JUMP JUMPDEST PUSH0 JUMPDEST DUP3 DUP2 LT ISZERO PUSH2 0x14C8 JUMPI DUP5 DUP10 ADD MLOAD DUP3 SSTORE PUSH1 0x1 DUP3 ADD SWAP2 POP PUSH1 0x20 DUP6 ADD SWAP5 POP PUSH1 0x20 DUP2 ADD SWAP1 POP PUSH2 0x14A3 JUMP JUMPDEST DUP7 DUP4 LT ISZERO PUSH2 0x14E5 JUMPI DUP5 DUP10 ADD MLOAD PUSH2 0x14E1 PUSH1 0x1F DUP10 AND DUP3 PUSH2 0x13F4 JUMP JUMPDEST DUP4 SSTORE POP JUMPDEST PUSH1 0x1 PUSH1 0x2 DUP9 MUL ADD DUP9 SSTORE POP POP POP JUMPDEST POP POP POP POP POP POP JUMP JUMPDEST DUP3 DUP2 DUP4 CALLDATACOPY PUSH0 DUP4 DUP4 ADD MSTORE POP POP POP JUMP JUMPDEST PUSH0 PUSH2 0x1513 DUP4 DUP6 PUSH2 0xB3F JUMP JUMPDEST SWAP4 POP PUSH2 0x1520 DUP4 DUP6 DUP5 PUSH2 0x14FA JUMP JUMPDEST PUSH2 0x1529 DUP4 PUSH2 0xB5D JUMP JUMPDEST DUP5 ADD SWAP1 POP SWAP4 SWAP3 POP POP POP JUMP JUMPDEST PUSH0 PUSH1 0x20 DUP3 ADD SWAP1 POP DUP2 DUP2 SUB PUSH0 DUP4 ADD MSTORE PUSH2 0x154D DUP2 DUP5 DUP7 PUSH2 0x1508 JUMP JUMPDEST SWAP1 POP SWAP4 SWAP3 POP POP POP JUMP JUMPDEST PUSH0 DUP2 MLOAD SWAP1 POP PUSH2 0x1564 DUP2 PUSH2 0xA5E JUMP JUMPDEST SWAP3 SWAP2 POP POP JUMP JUMPDEST PUSH0 PUSH1 0x20 DUP3 DUP5 SUB SLT ISZERO PUSH2 0x157F JUMPI PUSH2 0x157E PUSH2 0x9F3 JUMP JUMPDEST JUMPDEST PUSH0 PUSH2 0x158C DUP5 DUP3 DUP6 ADD PUSH2 0x1556 JUMP JUMPDEST SWAP2 POP POP SWAP3 SWAP2 POP POP JUMP INVALID LOG2 PUSH5 0x6970667358 0x22 SLT KECCAK256 0xCE DUP7 0x22 CODESIZE GASPRICE PUSH26 0xAFBE8BDA872E70DFF31F2837F90C4CC497DE51BC557EB112A75F PUSH5 0x736F6C6343 STOP ADDMOD 0x22 STOP CALLER "
				},
				"gasEstimates": {
					"creation": {
						"codeDepositCost": "1115800",
						"executionCost": "infinite",
						"totalCost": "infinite"
					},
					"external": {
						"getContractBalance()": "infinite",
						"owner()": "2596",
						"records(address)": "infinite",
						"register(address[],string[],bool[],uint8[])": "infinite",
						"reward(address,uint256)": "infinite",
						"tokenContract()": "infinite"
					}
				},
				"methodIdentifiers": {
					"getContractBalance()": "6f9fb98a",
					"owner()": "8da5cb5b",
					"records(address)": "469e9067",
					"register(address[],string[],bool[],uint8[])": "6aa1d2ac",
					"reward(address,uint256)": "21670f22",
					"tokenContract()": "55a373d6"
				}
			},
			"storageLayout": {
				"storage": [
					{
						"astId": 23,
						"contract": "submissions/MeseretBirhanu/day15/GasSaver.sol:GasSaver",
						"label": "tokenContract",
						"offset": 0,
						"slot": "0",
						"type": "t_contract(IERC20)18"
					},
					{
						"astId": 25,
						"contract": "submissions/MeseretBirhanu/day15/GasSaver.sol:GasSaver",
						"label": "owner",
						"offset": 0,
						"slot": "1",
						"type": "t_address"
					},
					{
						"astId": 39,
						"contract": "submissions/MeseretBirhanu/day15/GasSaver.sol:GasSaver",
						"label": "records",
						"offset": 0,
						"slot": "2",
						"type": "t_mapping(t_address,t_struct(Contributor)34_storage)"
					}
				],
				"types": {
					"t_address": {
						"encoding": "inplace",
						"label": "address",
						"numberOfBytes": "20"
					},
					"t_bool": {
						"encoding": "inplace",
						"label": "bool",
						"numberOfBytes": "1"
					},
					"t_contract(IERC20)18": {
						"encoding": "inplace",
						"label": "contract IERC20",
						"numberOfBytes": "20"
					},
					"t_mapping(t_address,t_struct(Contributor)34_storage)": {
						"encoding": "mapping",
						"key": "t_address",
						"label": "mapping(address => struct GasSaver.Contributor)",
						"numberOfBytes": "32",
						"value": "t_struct(Contributor)34_storage"
					},
					"t_string_storage": {
						"encoding": "bytes",
						"label": "string",
						"numberOfBytes": "32"
					},
					"t_struct(Contributor)34_storage": {
						"encoding": "inplace",
						"label": "struct GasSaver.Contributor",
						"members": [
							{
								"astId": 27,
								"contract": "submissions/MeseretBirhanu/day15/GasSaver.sol:GasSaver",
								"label": "wallet",
								"offset": 0,
								"slot": "0",
								"type": "t_address"
							},
							{
								"astId": 29,
								"contract": "submissions/MeseretBirhanu/day15/GasSaver.sol:GasSaver",
								"label": "isVerified",
								"offset": 20,
								"slot": "0",
								"type": "t_bool"
							},
							{
								"astId": 31,
								"contract": "submissions/MeseretBirhanu/day15/GasSaver.sol:GasSaver",
								"label": "level",
								"offset": 21,
								"slot": "0",
								"type": "t_uint8"
							},
							{
								"astId": 33,
								"contract": "submissions/MeseretBirhanu/day15/GasSaver.sol:GasSaver",
								"label": "name",
								"offset": 0,
								"slot": "1",
								"type": "t_string_storage"
							}
						],
						"numberOfBytes": "64"
					},
					"t_uint8": {
						"encoding": "inplace",
						"label": "uint8",
						"numberOfBytes": "1"
					}
				}
			},
			"userdoc": {
				"kind": "user",
				"methods": {},
				"version": 1
			}
		}
	}
}