{
	"submissions/MeseretBirhanu/day7/SendSomeTokens.sol": {
		"SendSomeTokens": {
			"abi": [
				{
					"inputs": [],
					"stateMutability": "nonpayable",
					"type": "constructor"
				},
				{
					"inputs": [
						{
							"internalType": "address",
							"name": "_addr",
							"type": "address"
						}
					],
					"name": "banAddress",
					"outputs": [],
					"stateMutability": "nonpayable",
					"type": "function"
				},
				{
					"inputs": [
						{
							"internalType": "address",
							"name": "",
							"type": "address"
						}
					],
					"name": "bannedAddresses",
					"outputs": [
						{
							"internalType": "bool",
							"name": "",
							"type": "bool"
						}
					],
					"stateMutability": "view",
					"type": "function"
				},
				{
					"inputs": [],
					"name": "owner",
					"outputs": [
						{
							"internalType": "address",
							"name": "",
							"type": "address"
						}
					],
					"stateMutability": "view",
					"type": "function"
				},
				{
					"inputs": [],
					"name": "platformfee",
					"outputs": [
						{
							"internalType": "uint256",
							"name": "",
							"type": "uint256"
						}
					],
					"stateMutability": "view",
					"type": "function"
				},
				{
					"inputs": [
						{
							"internalType": "address",
							"name": "_to",
							"type": "address"
						}
					],
					"name": "transfer",
					"outputs": [],
					"stateMutability": "payable",
					"type": "function"
				}
			],
			"devdoc": {
				"kind": "dev",
				"methods": {},
				"version": 1
			},
			"evm": {
				"assembly": "    /* \"submissions/MeseretBirhanu/day7/SendSomeTokens.sol\":61:975  contract SendSomeTokens {... */\n  mstore(0x40, 0x80)\n    /* \"submissions/MeseretBirhanu/day7/SendSomeTokens.sol\":154:155  2 */\n  0x02\n    /* \"submissions/MeseretBirhanu/day7/SendSomeTokens.sol\":125:155  uint256 public platformfee = 2 */\n  0x01\n  sstore\n    /* \"submissions/MeseretBirhanu/day7/SendSomeTokens.sol\":217:267  constructor(){... */\n  callvalue\n  dup1\n  iszero\n  tag_1\n  jumpi\n  revert(0x00, 0x00)\ntag_1:\n  pop\n    /* \"submissions/MeseretBirhanu/day7/SendSomeTokens.sol\":249:259  msg.sender */\n  caller\n    /* \"submissions/MeseretBirhanu/day7/SendSomeTokens.sol\":241:246  owner */\n  0x00\n  0x00\n    /* \"submissions/MeseretBirhanu/day7/SendSomeTokens.sol\":241:259  owner = msg.sender */\n  0x0100\n  exp\n  dup2\n  sload\n  dup2\n  0xffffffffffffffffffffffffffffffffffffffff\n  mul\n  not\n  and\n  swap1\n  dup4\n  0xffffffffffffffffffffffffffffffffffffffff\n  and\n  mul\n  or\n  swap1\n  sstore\n  pop\n    /* \"submissions/MeseretBirhanu/day7/SendSomeTokens.sol\":61:975  contract SendSomeTokens {... */\n  dataSize(sub_0)\n  dup1\n  dataOffset(sub_0)\n  0x00\n  codecopy\n  0x00\n  return\nstop\n\nsub_0: assembly {\n        /* \"submissions/MeseretBirhanu/day7/SendSomeTokens.sol\":61:975  contract SendSomeTokens {... */\n      mstore(0x40, 0x80)\n      jumpi(tag_1, lt(calldatasize, 0x04))\n      shr(0xe0, calldataload(0x00))\n      dup1\n      0x1a695230\n      eq\n      tag_2\n      jumpi\n      dup1\n      0x55bc8725\n      eq\n      tag_3\n      jumpi\n      dup1\n      0x7f49f709\n      eq\n      tag_4\n      jumpi\n      dup1\n      0x8da5cb5b\n      eq\n      tag_5\n      jumpi\n      dup1\n      0xf4488f46\n      eq\n      tag_6\n      jumpi\n    tag_1:\n      revert(0x00, 0x00)\n        /* \"submissions/MeseretBirhanu/day7/SendSomeTokens.sol\":430:972  function transfer(address _to) public payable {... */\n    tag_2:\n      tag_7\n      0x04\n      dup1\n      calldatasize\n      sub\n      dup2\n      add\n      swap1\n      tag_8\n      swap2\n      swap1\n      tag_9\n      jump\t// in\n    tag_8:\n      tag_10\n      jump\t// in\n    tag_7:\n      stop\n        /* \"submissions/MeseretBirhanu/day7/SendSomeTokens.sol\":162:208  mapping(address=> bool) public bannedAddresses */\n    tag_3:\n      callvalue\n      dup1\n      iszero\n      tag_11\n      jumpi\n      revert(0x00, 0x00)\n    tag_11:\n      pop\n      tag_12\n      0x04\n      dup1\n      calldatasize\n      sub\n      dup2\n      add\n      swap1\n      tag_13\n      swap2\n      swap1\n      tag_9\n      jump\t// in\n    tag_13:\n      tag_14\n      jump\t// in\n    tag_12:\n      mload(0x40)\n      tag_15\n      swap2\n      swap1\n      tag_16\n      jump\t// in\n    tag_15:\n      mload(0x40)\n      dup1\n      swap2\n      sub\n      swap1\n      return\n        /* \"submissions/MeseretBirhanu/day7/SendSomeTokens.sol\":275:424  function banAddress(address _addr) public {... */\n    tag_4:\n      callvalue\n      dup1\n      iszero\n      tag_17\n      jumpi\n      revert(0x00, 0x00)\n    tag_17:\n      pop\n      tag_18\n      0x04\n      dup1\n      calldatasize\n      sub\n      dup2\n      add\n      swap1\n      tag_19\n      swap2\n      swap1\n      tag_9\n      jump\t// in\n    tag_19:\n      tag_20\n      jump\t// in\n    tag_18:\n      stop\n        /* \"submissions/MeseretBirhanu/day7/SendSomeTokens.sol\":98:118  address public owner */\n    tag_5:\n      callvalue\n      dup1\n      iszero\n      tag_21\n      jumpi\n      revert(0x00, 0x00)\n    tag_21:\n      pop\n      tag_22\n      tag_23\n      jump\t// in\n    tag_22:\n      mload(0x40)\n      tag_24\n      swap2\n      swap1\n      tag_25\n      jump\t// in\n    tag_24:\n      mload(0x40)\n      dup1\n      swap2\n      sub\n      swap1\n      return\n        /* \"submissions/MeseretBirhanu/day7/SendSomeTokens.sol\":125:155  uint256 public platformfee = 2 */\n    tag_6:\n      callvalue\n      dup1\n      iszero\n      tag_26\n      jumpi\n      revert(0x00, 0x00)\n    tag_26:\n      pop\n      tag_27\n      tag_28\n      jump\t// in\n    tag_27:\n      mload(0x40)\n      tag_29\n      swap2\n      swap1\n      tag_30\n      jump\t// in\n    tag_29:\n      mload(0x40)\n      dup1\n      swap2\n      sub\n      swap1\n      return\n        /* \"submissions/MeseretBirhanu/day7/SendSomeTokens.sol\":430:972  function transfer(address _to) public payable {... */\n    tag_10:\n        /* \"submissions/MeseretBirhanu/day7/SendSomeTokens.sol\":510:511  0 */\n      0x00\n        /* \"submissions/MeseretBirhanu/day7/SendSomeTokens.sol\":495:512  _to != address(0) */\n      0xffffffffffffffffffffffffffffffffffffffff\n      and\n        /* \"submissions/MeseretBirhanu/day7/SendSomeTokens.sol\":495:498  _to */\n      dup2\n        /* \"submissions/MeseretBirhanu/day7/SendSomeTokens.sol\":495:512  _to != address(0) */\n      0xffffffffffffffffffffffffffffffffffffffff\n      and\n      sub\n        /* \"submissions/MeseretBirhanu/day7/SendSomeTokens.sol\":487:533  require(_to != address(0) , \"invalid address\") */\n      tag_32\n      jumpi\n      mload(0x40)\n      0x08c379a000000000000000000000000000000000000000000000000000000000\n      dup2\n      mstore\n      0x04\n      add\n      tag_33\n      swap1\n      tag_34\n      jump\t// in\n    tag_33:\n      mload(0x40)\n      dup1\n      swap2\n      sub\n      swap1\n      revert\n    tag_32:\n        /* \"submissions/MeseretBirhanu/day7/SendSomeTokens.sol\":553:568  bannedAddresses */\n      0x02\n        /* \"submissions/MeseretBirhanu/day7/SendSomeTokens.sol\":553:580  bannedAddresses[msg.sender] */\n      0x00\n        /* \"submissions/MeseretBirhanu/day7/SendSomeTokens.sol\":569:579  msg.sender */\n      caller\n        /* \"submissions/MeseretBirhanu/day7/SendSomeTokens.sol\":553:580  bannedAddresses[msg.sender] */\n      0xffffffffffffffffffffffffffffffffffffffff\n      and\n      0xffffffffffffffffffffffffffffffffffffffff\n      and\n      dup2\n      mstore\n      0x20\n      add\n      swap1\n      dup2\n      mstore\n      0x20\n      add\n      0x00\n      keccak256\n      0x00\n      swap1\n      sload\n      swap1\n      0x0100\n      exp\n      swap1\n      div\n      0xff\n      and\n        /* \"submissions/MeseretBirhanu/day7/SendSomeTokens.sol\":552:580  !bannedAddresses[msg.sender] */\n      iszero\n        /* \"submissions/MeseretBirhanu/day7/SendSomeTokens.sol\":544:581  require(!bannedAddresses[msg.sender]) */\n      tag_35\n      jumpi\n      revert(0x00, 0x00)\n    tag_35:\n        /* \"submissions/MeseretBirhanu/day7/SendSomeTokens.sol\":592:609  address recipient */\n      0x00\n        /* \"submissions/MeseretBirhanu/day7/SendSomeTokens.sol\":612:615  _to */\n      dup2\n        /* \"submissions/MeseretBirhanu/day7/SendSomeTokens.sol\":592:615  address recipient = _to */\n      swap1\n      pop\n        /* \"submissions/MeseretBirhanu/day7/SendSomeTokens.sol\":626:637  uint256 fee */\n      0x00\n        /* \"submissions/MeseretBirhanu/day7/SendSomeTokens.sol\":668:671  100 */\n      0x64\n        /* \"submissions/MeseretBirhanu/day7/SendSomeTokens.sol\":654:665  platformfee */\n      sload(0x01)\n        /* \"submissions/MeseretBirhanu/day7/SendSomeTokens.sol\":642:651  msg.value */\n      callvalue\n        /* \"submissions/MeseretBirhanu/day7/SendSomeTokens.sol\":642:665  msg.value * platformfee */\n      tag_36\n      swap2\n      swap1\n      tag_37\n      jump\t// in\n    tag_36:\n        /* \"submissions/MeseretBirhanu/day7/SendSomeTokens.sol\":640:671  ( msg.value * platformfee )/100 */\n      tag_38\n      swap2\n      swap1\n      tag_39\n      jump\t// in\n    tag_38:\n        /* \"submissions/MeseretBirhanu/day7/SendSomeTokens.sol\":626:671  uint256 fee = ( msg.value * platformfee )/100 */\n      swap1\n      pop\n        /* \"submissions/MeseretBirhanu/day7/SendSomeTokens.sol\":682:703  uint256 finalTransfer */\n      0x00\n        /* \"submissions/MeseretBirhanu/day7/SendSomeTokens.sol\":718:721  fee */\n      dup2\n        /* \"submissions/MeseretBirhanu/day7/SendSomeTokens.sol\":706:715  msg.value */\n      callvalue\n        /* \"submissions/MeseretBirhanu/day7/SendSomeTokens.sol\":706:721  msg.value - fee */\n      tag_40\n      swap2\n      swap1\n      tag_41\n      jump\t// in\n    tag_40:\n        /* \"submissions/MeseretBirhanu/day7/SendSomeTokens.sol\":682:721  uint256 finalTransfer = msg.value - fee */\n      swap1\n      pop\n        /* \"submissions/MeseretBirhanu/day7/SendSomeTokens.sol\":734:746  bool success */\n      0x00\n        /* \"submissions/MeseretBirhanu/day7/SendSomeTokens.sol\":752:761  recipient */\n      dup4\n        /* \"submissions/MeseretBirhanu/day7/SendSomeTokens.sol\":752:766  recipient.call */\n      0xffffffffffffffffffffffffffffffffffffffff\n      and\n        /* \"submissions/MeseretBirhanu/day7/SendSomeTokens.sol\":774:787  finalTransfer */\n      dup3\n        /* \"submissions/MeseretBirhanu/day7/SendSomeTokens.sol\":752:792  recipient.call{value: finalTransfer}(\"\") */\n      mload(0x40)\n      tag_42\n      swap1\n      tag_43\n      jump\t// in\n    tag_42:\n      0x00\n      mload(0x40)\n      dup1\n      dup4\n      sub\n      dup2\n      dup6\n      dup8\n      gas\n      call\n      swap3\n      pop\n      pop\n      pop\n      returndatasize\n      dup1\n      0x00\n      dup2\n      eq\n      tag_46\n      jumpi\n      mload(0x40)\n      swap2\n      pop\n      and(add(returndatasize, 0x3f), not(0x1f))\n      dup3\n      add\n      0x40\n      mstore\n      returndatasize\n      dup3\n      mstore\n      returndatasize\n      0x00\n      0x20\n      dup5\n      add\n      returndatacopy\n      jump(tag_45)\n    tag_46:\n      0x60\n      swap2\n      pop\n    tag_45:\n      pop\n        /* \"submissions/MeseretBirhanu/day7/SendSomeTokens.sol\":733:792  (bool success, ) = recipient.call{value: finalTransfer}(\"\") */\n      pop\n      swap1\n      pop\n        /* \"submissions/MeseretBirhanu/day7/SendSomeTokens.sol\":811:818  success */\n      dup1\n        /* \"submissions/MeseretBirhanu/day7/SendSomeTokens.sol\":803:848  require(success , \"sending to person failed\") */\n      tag_47\n      jumpi\n      mload(0x40)\n      0x08c379a000000000000000000000000000000000000000000000000000000000\n      dup2\n      mstore\n      0x04\n      add\n      tag_48\n      swap1\n      tag_49\n      jump\t// in\n    tag_48:\n      mload(0x40)\n      dup1\n      swap2\n      sub\n      swap1\n      revert\n    tag_47:\n        /* \"submissions/MeseretBirhanu/day7/SendSomeTokens.sol\":860:876  bool successfull */\n      0x00\n        /* \"submissions/MeseretBirhanu/day7/SendSomeTokens.sol\":882:887  owner */\n      0x00\n      0x00\n      swap1\n      sload\n      swap1\n      0x0100\n      exp\n      swap1\n      div\n      0xffffffffffffffffffffffffffffffffffffffff\n      and\n        /* \"submissions/MeseretBirhanu/day7/SendSomeTokens.sol\":882:892  owner.call */\n      0xffffffffffffffffffffffffffffffffffffffff\n      and\n        /* \"submissions/MeseretBirhanu/day7/SendSomeTokens.sol\":900:903  fee */\n      dup5\n        /* \"submissions/MeseretBirhanu/day7/SendSomeTokens.sol\":882:908  owner.call{value: fee}(\"\") */\n      mload(0x40)\n      tag_50\n      swap1\n      tag_43\n      jump\t// in\n    tag_50:\n      0x00\n      mload(0x40)\n      dup1\n      dup4\n      sub\n      dup2\n      dup6\n      dup8\n      gas\n      call\n      swap3\n      pop\n      pop\n      pop\n      returndatasize\n      dup1\n      0x00\n      dup2\n      eq\n      tag_53\n      jumpi\n      mload(0x40)\n      swap2\n      pop\n      and(add(returndatasize, 0x3f), not(0x1f))\n      dup3\n      add\n      0x40\n      mstore\n      returndatasize\n      dup3\n      mstore\n      returndatasize\n      0x00\n      0x20\n      dup5\n      add\n      returndatacopy\n      jump(tag_52)\n    tag_53:\n      0x60\n      swap2\n      pop\n    tag_52:\n      pop\n        /* \"submissions/MeseretBirhanu/day7/SendSomeTokens.sol\":859:908  (bool successfull, ) = owner.call{value: fee}(\"\") */\n      pop\n      swap1\n      pop\n        /* \"submissions/MeseretBirhanu/day7/SendSomeTokens.sol\":927:938  successfull */\n      dup1\n        /* \"submissions/MeseretBirhanu/day7/SendSomeTokens.sol\":919:962  require(successfull , \"sending fee failed\") */\n      tag_54\n      jumpi\n      mload(0x40)\n      0x08c379a000000000000000000000000000000000000000000000000000000000\n      dup2\n      mstore\n      0x04\n      add\n      tag_55\n      swap1\n      tag_56\n      jump\t// in\n    tag_55:\n      mload(0x40)\n      dup1\n      swap2\n      sub\n      swap1\n      revert\n    tag_54:\n        /* \"submissions/MeseretBirhanu/day7/SendSomeTokens.sol\":476:972  {... */\n      pop\n      pop\n      pop\n      pop\n      pop\n        /* \"submissions/MeseretBirhanu/day7/SendSomeTokens.sol\":430:972  function transfer(address _to) public payable {... */\n      pop\n      jump\t// out\n        /* \"submissions/MeseretBirhanu/day7/SendSomeTokens.sol\":162:208  mapping(address=> bool) public bannedAddresses */\n    tag_14:\n      mstore(0x20, 0x02)\n      dup1\n      0x00\n      mstore\n      keccak256(0x00, 0x40)\n      0x00\n      swap2\n      pop\n      sload\n      swap1\n      0x0100\n      exp\n      swap1\n      div\n      0xff\n      and\n      dup2\n      jump\t// out\n        /* \"submissions/MeseretBirhanu/day7/SendSomeTokens.sol\":275:424  function banAddress(address _addr) public {... */\n    tag_20:\n        /* \"submissions/MeseretBirhanu/day7/SendSomeTokens.sol\":350:355  owner */\n      0x00\n      0x00\n      swap1\n      sload\n      swap1\n      0x0100\n      exp\n      swap1\n      div\n      0xffffffffffffffffffffffffffffffffffffffff\n      and\n        /* \"submissions/MeseretBirhanu/day7/SendSomeTokens.sol\":336:355  msg.sender == owner */\n      0xffffffffffffffffffffffffffffffffffffffff\n      and\n        /* \"submissions/MeseretBirhanu/day7/SendSomeTokens.sol\":336:346  msg.sender */\n      caller\n        /* \"submissions/MeseretBirhanu/day7/SendSomeTokens.sol\":336:355  msg.sender == owner */\n      0xffffffffffffffffffffffffffffffffffffffff\n      and\n      eq\n        /* \"submissions/MeseretBirhanu/day7/SendSomeTokens.sol\":328:376  require(msg.sender == owner , \"not authorized!\") */\n      tag_58\n      jumpi\n      mload(0x40)\n      0x08c379a000000000000000000000000000000000000000000000000000000000\n      dup2\n      mstore\n      0x04\n      add\n      tag_59\n      swap1\n      tag_60\n      jump\t// in\n    tag_59:\n      mload(0x40)\n      dup1\n      swap2\n      sub\n      swap1\n      revert\n    tag_58:\n        /* \"submissions/MeseretBirhanu/day7/SendSomeTokens.sol\":412:416  true */\n      0x01\n        /* \"submissions/MeseretBirhanu/day7/SendSomeTokens.sol\":387:402  bannedAddresses */\n      0x02\n        /* \"submissions/MeseretBirhanu/day7/SendSomeTokens.sol\":387:409  bannedAddresses[_addr] */\n      0x00\n        /* \"submissions/MeseretBirhanu/day7/SendSomeTokens.sol\":403:408  _addr */\n      dup4\n        /* \"submissions/MeseretBirhanu/day7/SendSomeTokens.sol\":387:409  bannedAddresses[_addr] */\n      0xffffffffffffffffffffffffffffffffffffffff\n      and\n      0xffffffffffffffffffffffffffffffffffffffff\n      and\n      dup2\n      mstore\n      0x20\n      add\n      swap1\n      dup2\n      mstore\n      0x20\n      add\n      0x00\n      keccak256\n      0x00\n        /* \"submissions/MeseretBirhanu/day7/SendSomeTokens.sol\":387:416  bannedAddresses[_addr] = true */\n      0x0100\n      exp\n      dup2\n      sload\n      dup2\n      0xff\n      mul\n      not\n      and\n      swap1\n      dup4\n      iszero\n      iszero\n      mul\n      or\n      swap1\n      sstore\n      pop\n        /* \"submissions/MeseretBirhanu/day7/SendSomeTokens.sol\":275:424  function banAddress(address _addr) public {... */\n      pop\n      jump\t// out\n        /* \"submissions/MeseretBirhanu/day7/SendSomeTokens.sol\":98:118  address public owner */\n    tag_23:\n      0x00\n      0x00\n      swap1\n      sload\n      swap1\n      0x0100\n      exp\n      swap1\n      div\n      0xffffffffffffffffffffffffffffffffffffffff\n      and\n      dup2\n      jump\t// out\n        /* \"submissions/MeseretBirhanu/day7/SendSomeTokens.sol\":125:155  uint256 public platformfee = 2 */\n    tag_28:\n      sload(0x01)\n      dup2\n      jump\t// out\n        /* \"#utility.yul\":88:205   */\n    tag_62:\n        /* \"#utility.yul\":197:198   */\n      0x00\n        /* \"#utility.yul\":194:195   */\n      0x00\n        /* \"#utility.yul\":187:199   */\n      revert\n        /* \"#utility.yul\":334:460   */\n    tag_64:\n        /* \"#utility.yul\":371:378   */\n      0x00\n        /* \"#utility.yul\":411:453   */\n      0xffffffffffffffffffffffffffffffffffffffff\n        /* \"#utility.yul\":404:409   */\n      dup3\n        /* \"#utility.yul\":400:454   */\n      and\n        /* \"#utility.yul\":389:454   */\n      swap1\n      pop\n        /* \"#utility.yul\":334:460   */\n      swap2\n      swap1\n      pop\n      jump\t// out\n        /* \"#utility.yul\":466:562   */\n    tag_65:\n        /* \"#utility.yul\":503:510   */\n      0x00\n        /* \"#utility.yul\":532:556   */\n      tag_93\n        /* \"#utility.yul\":550:555   */\n      dup3\n        /* \"#utility.yul\":532:556   */\n      tag_64\n      jump\t// in\n    tag_93:\n        /* \"#utility.yul\":521:556   */\n      swap1\n      pop\n        /* \"#utility.yul\":466:562   */\n      swap2\n      swap1\n      pop\n      jump\t// out\n        /* \"#utility.yul\":568:690   */\n    tag_66:\n        /* \"#utility.yul\":641:665   */\n      tag_95\n        /* \"#utility.yul\":659:664   */\n      dup2\n        /* \"#utility.yul\":641:665   */\n      tag_65\n      jump\t// in\n    tag_95:\n        /* \"#utility.yul\":634:639   */\n      dup2\n        /* \"#utility.yul\":631:666   */\n      eq\n        /* \"#utility.yul\":621:684   */\n      tag_96\n      jumpi\n        /* \"#utility.yul\":680:681   */\n      0x00\n        /* \"#utility.yul\":677:678   */\n      0x00\n        /* \"#utility.yul\":670:682   */\n      revert\n        /* \"#utility.yul\":621:684   */\n    tag_96:\n        /* \"#utility.yul\":568:690   */\n      pop\n      jump\t// out\n        /* \"#utility.yul\":696:835   */\n    tag_67:\n        /* \"#utility.yul\":742:747   */\n      0x00\n        /* \"#utility.yul\":780:786   */\n      dup2\n        /* \"#utility.yul\":767:787   */\n      calldataload\n        /* \"#utility.yul\":758:787   */\n      swap1\n      pop\n        /* \"#utility.yul\":796:829   */\n      tag_98\n        /* \"#utility.yul\":823:828   */\n      dup2\n        /* \"#utility.yul\":796:829   */\n      tag_66\n      jump\t// in\n    tag_98:\n        /* \"#utility.yul\":696:835   */\n      swap3\n      swap2\n      pop\n      pop\n      jump\t// out\n        /* \"#utility.yul\":841:1170   */\n    tag_9:\n        /* \"#utility.yul\":900:906   */\n      0x00\n        /* \"#utility.yul\":949:951   */\n      0x20\n        /* \"#utility.yul\":937:946   */\n      dup3\n        /* \"#utility.yul\":928:935   */\n      dup5\n        /* \"#utility.yul\":924:947   */\n      sub\n        /* \"#utility.yul\":920:952   */\n      slt\n        /* \"#utility.yul\":917:1036   */\n      iszero\n      tag_100\n      jumpi\n        /* \"#utility.yul\":955:1034   */\n      tag_101\n      tag_62\n      jump\t// in\n    tag_101:\n        /* \"#utility.yul\":917:1036   */\n    tag_100:\n        /* \"#utility.yul\":1075:1076   */\n      0x00\n        /* \"#utility.yul\":1100:1153   */\n      tag_102\n        /* \"#utility.yul\":1145:1152   */\n      dup5\n        /* \"#utility.yul\":1136:1142   */\n      dup3\n        /* \"#utility.yul\":1125:1134   */\n      dup6\n        /* \"#utility.yul\":1121:1143   */\n      add\n        /* \"#utility.yul\":1100:1153   */\n      tag_67\n      jump\t// in\n    tag_102:\n        /* \"#utility.yul\":1090:1153   */\n      swap2\n      pop\n        /* \"#utility.yul\":1046:1163   */\n      pop\n        /* \"#utility.yul\":841:1170   */\n      swap3\n      swap2\n      pop\n      pop\n      jump\t// out\n        /* \"#utility.yul\":1176:1266   */\n    tag_68:\n        /* \"#utility.yul\":1210:1217   */\n      0x00\n        /* \"#utility.yul\":1253:1258   */\n      dup2\n        /* \"#utility.yul\":1246:1259   */\n      iszero\n        /* \"#utility.yul\":1239:1260   */\n      iszero\n        /* \"#utility.yul\":1228:1260   */\n      swap1\n      pop\n        /* \"#utility.yul\":1176:1266   */\n      swap2\n      swap1\n      pop\n      jump\t// out\n        /* \"#utility.yul\":1272:1381   */\n    tag_69:\n        /* \"#utility.yul\":1353:1374   */\n      tag_105\n        /* \"#utility.yul\":1368:1373   */\n      dup2\n        /* \"#utility.yul\":1353:1374   */\n      tag_68\n      jump\t// in\n    tag_105:\n        /* \"#utility.yul\":1348:1351   */\n      dup3\n        /* \"#utility.yul\":1341:1375   */\n      mstore\n        /* \"#utility.yul\":1272:1381   */\n      pop\n      pop\n      jump\t// out\n        /* \"#utility.yul\":1387:1597   */\n    tag_16:\n        /* \"#utility.yul\":1474:1478   */\n      0x00\n        /* \"#utility.yul\":1512:1514   */\n      0x20\n        /* \"#utility.yul\":1501:1510   */\n      dup3\n        /* \"#utility.yul\":1497:1515   */\n      add\n        /* \"#utility.yul\":1489:1515   */\n      swap1\n      pop\n        /* \"#utility.yul\":1525:1590   */\n      tag_107\n        /* \"#utility.yul\":1587:1588   */\n      0x00\n        /* \"#utility.yul\":1576:1585   */\n      dup4\n        /* \"#utility.yul\":1572:1589   */\n      add\n        /* \"#utility.yul\":1563:1569   */\n      dup5\n        /* \"#utility.yul\":1525:1590   */\n      tag_69\n      jump\t// in\n    tag_107:\n        /* \"#utility.yul\":1387:1597   */\n      swap3\n      swap2\n      pop\n      pop\n      jump\t// out\n        /* \"#utility.yul\":1603:1721   */\n    tag_70:\n        /* \"#utility.yul\":1690:1714   */\n      tag_109\n        /* \"#utility.yul\":1708:1713   */\n      dup2\n        /* \"#utility.yul\":1690:1714   */\n      tag_65\n      jump\t// in\n    tag_109:\n        /* \"#utility.yul\":1685:1688   */\n      dup3\n        /* \"#utility.yul\":1678:1715   */\n      mstore\n        /* \"#utility.yul\":1603:1721   */\n      pop\n      pop\n      jump\t// out\n        /* \"#utility.yul\":1727:1949   */\n    tag_25:\n        /* \"#utility.yul\":1820:1824   */\n      0x00\n        /* \"#utility.yul\":1858:1860   */\n      0x20\n        /* \"#utility.yul\":1847:1856   */\n      dup3\n        /* \"#utility.yul\":1843:1861   */\n      add\n        /* \"#utility.yul\":1835:1861   */\n      swap1\n      pop\n        /* \"#utility.yul\":1871:1942   */\n      tag_111\n        /* \"#utility.yul\":1939:1940   */\n      0x00\n        /* \"#utility.yul\":1928:1937   */\n      dup4\n        /* \"#utility.yul\":1924:1941   */\n      add\n        /* \"#utility.yul\":1915:1921   */\n      dup5\n        /* \"#utility.yul\":1871:1942   */\n      tag_70\n      jump\t// in\n    tag_111:\n        /* \"#utility.yul\":1727:1949   */\n      swap3\n      swap2\n      pop\n      pop\n      jump\t// out\n        /* \"#utility.yul\":1955:2032   */\n    tag_71:\n        /* \"#utility.yul\":1992:1999   */\n      0x00\n        /* \"#utility.yul\":2021:2026   */\n      dup2\n        /* \"#utility.yul\":2010:2026   */\n      swap1\n      pop\n        /* \"#utility.yul\":1955:2032   */\n      swap2\n      swap1\n      pop\n      jump\t// out\n        /* \"#utility.yul\":2038:2156   */\n    tag_72:\n        /* \"#utility.yul\":2125:2149   */\n      tag_114\n        /* \"#utility.yul\":2143:2148   */\n      dup2\n        /* \"#utility.yul\":2125:2149   */\n      tag_71\n      jump\t// in\n    tag_114:\n        /* \"#utility.yul\":2120:2123   */\n      dup3\n        /* \"#utility.yul\":2113:2150   */\n      mstore\n        /* \"#utility.yul\":2038:2156   */\n      pop\n      pop\n      jump\t// out\n        /* \"#utility.yul\":2162:2384   */\n    tag_30:\n        /* \"#utility.yul\":2255:2259   */\n      0x00\n        /* \"#utility.yul\":2293:2295   */\n      0x20\n        /* \"#utility.yul\":2282:2291   */\n      dup3\n        /* \"#utility.yul\":2278:2296   */\n      add\n        /* \"#utility.yul\":2270:2296   */\n      swap1\n      pop\n        /* \"#utility.yul\":2306:2377   */\n      tag_116\n        /* \"#utility.yul\":2374:2375   */\n      0x00\n        /* \"#utility.yul\":2363:2372   */\n      dup4\n        /* \"#utility.yul\":2359:2376   */\n      add\n        /* \"#utility.yul\":2350:2356   */\n      dup5\n        /* \"#utility.yul\":2306:2377   */\n      tag_72\n      jump\t// in\n    tag_116:\n        /* \"#utility.yul\":2162:2384   */\n      swap3\n      swap2\n      pop\n      pop\n      jump\t// out\n        /* \"#utility.yul\":2390:2559   */\n    tag_73:\n        /* \"#utility.yul\":2474:2485   */\n      0x00\n        /* \"#utility.yul\":2508:2514   */\n      dup3\n        /* \"#utility.yul\":2503:2506   */\n      dup3\n        /* \"#utility.yul\":2496:2515   */\n      mstore\n        /* \"#utility.yul\":2548:2552   */\n      0x20\n        /* \"#utility.yul\":2543:2546   */\n      dup3\n        /* \"#utility.yul\":2539:2553   */\n      add\n        /* \"#utility.yul\":2524:2553   */\n      swap1\n      pop\n        /* \"#utility.yul\":2390:2559   */\n      swap3\n      swap2\n      pop\n      pop\n      jump\t// out\n        /* \"#utility.yul\":2565:2730   */\n    tag_74:\n        /* \"#utility.yul\":2705:2722   */\n      0x696e76616c696420616464726573730000000000000000000000000000000000\n        /* \"#utility.yul\":2701:2702   */\n      0x00\n        /* \"#utility.yul\":2693:2699   */\n      dup3\n        /* \"#utility.yul\":2689:2703   */\n      add\n        /* \"#utility.yul\":2682:2723   */\n      mstore\n        /* \"#utility.yul\":2565:2730   */\n      pop\n      jump\t// out\n        /* \"#utility.yul\":2736:3102   */\n    tag_75:\n        /* \"#utility.yul\":2878:2881   */\n      0x00\n        /* \"#utility.yul\":2899:2966   */\n      tag_120\n        /* \"#utility.yul\":2963:2965   */\n      0x0f\n        /* \"#utility.yul\":2958:2961   */\n      dup4\n        /* \"#utility.yul\":2899:2966   */\n      tag_73\n      jump\t// in\n    tag_120:\n        /* \"#utility.yul\":2892:2966   */\n      swap2\n      pop\n        /* \"#utility.yul\":2975:3068   */\n      tag_121\n        /* \"#utility.yul\":3064:3067   */\n      dup3\n        /* \"#utility.yul\":2975:3068   */\n      tag_74\n      jump\t// in\n    tag_121:\n        /* \"#utility.yul\":3093:3095   */\n      0x20\n        /* \"#utility.yul\":3088:3091   */\n      dup3\n        /* \"#utility.yul\":3084:3096   */\n      add\n        /* \"#utility.yul\":3077:3096   */\n      swap1\n      pop\n        /* \"#utility.yul\":2736:3102   */\n      swap2\n      swap1\n      pop\n      jump\t// out\n        /* \"#utility.yul\":3108:3527   */\n    tag_34:\n        /* \"#utility.yul\":3274:3278   */\n      0x00\n        /* \"#utility.yul\":3312:3314   */\n      0x20\n        /* \"#utility.yul\":3301:3310   */\n      dup3\n        /* \"#utility.yul\":3297:3315   */\n      add\n        /* \"#utility.yul\":3289:3315   */\n      swap1\n      pop\n        /* \"#utility.yul\":3361:3370   */\n      dup2\n        /* \"#utility.yul\":3355:3359   */\n      dup2\n        /* \"#utility.yul\":3351:3371   */\n      sub\n        /* \"#utility.yul\":3347:3348   */\n      0x00\n        /* \"#utility.yul\":3336:3345   */\n      dup4\n        /* \"#utility.yul\":3332:3349   */\n      add\n        /* \"#utility.yul\":3325:3372   */\n      mstore\n        /* \"#utility.yul\":3389:3520   */\n      tag_123\n        /* \"#utility.yul\":3515:3519   */\n      dup2\n        /* \"#utility.yul\":3389:3520   */\n      tag_75\n      jump\t// in\n    tag_123:\n        /* \"#utility.yul\":3381:3520   */\n      swap1\n      pop\n        /* \"#utility.yul\":3108:3527   */\n      swap2\n      swap1\n      pop\n      jump\t// out\n        /* \"#utility.yul\":3533:3713   */\n    tag_76:\n        /* \"#utility.yul\":3581:3658   */\n      0x4e487b7100000000000000000000000000000000000000000000000000000000\n        /* \"#utility.yul\":3578:3579   */\n      0x00\n        /* \"#utility.yul\":3571:3659   */\n      mstore\n        /* \"#utility.yul\":3678:3682   */\n      0x11\n        /* \"#utility.yul\":3675:3676   */\n      0x04\n        /* \"#utility.yul\":3668:3683   */\n      mstore\n        /* \"#utility.yul\":3702:3706   */\n      0x24\n        /* \"#utility.yul\":3699:3700   */\n      0x00\n        /* \"#utility.yul\":3692:3707   */\n      revert\n        /* \"#utility.yul\":3719:4129   */\n    tag_37:\n        /* \"#utility.yul\":3759:3766   */\n      0x00\n        /* \"#utility.yul\":3782:3802   */\n      tag_126\n        /* \"#utility.yul\":3800:3801   */\n      dup3\n        /* \"#utility.yul\":3782:3802   */\n      tag_71\n      jump\t// in\n    tag_126:\n        /* \"#utility.yul\":3777:3802   */\n      swap2\n      pop\n        /* \"#utility.yul\":3816:3836   */\n      tag_127\n        /* \"#utility.yul\":3834:3835   */\n      dup4\n        /* \"#utility.yul\":3816:3836   */\n      tag_71\n      jump\t// in\n    tag_127:\n        /* \"#utility.yul\":3811:3836   */\n      swap3\n      pop\n        /* \"#utility.yul\":3871:3872   */\n      dup3\n        /* \"#utility.yul\":3868:3869   */\n      dup3\n        /* \"#utility.yul\":3864:3873   */\n      mul\n        /* \"#utility.yul\":3893:3923   */\n      tag_128\n        /* \"#utility.yul\":3911:3922   */\n      dup2\n        /* \"#utility.yul\":3893:3923   */\n      tag_71\n      jump\t// in\n    tag_128:\n        /* \"#utility.yul\":3882:3923   */\n      swap2\n      pop\n        /* \"#utility.yul\":4072:4073   */\n      dup3\n        /* \"#utility.yul\":4063:4070   */\n      dup3\n        /* \"#utility.yul\":4059:4074   */\n      div\n        /* \"#utility.yul\":4056:4057   */\n      dup5\n        /* \"#utility.yul\":4053:4075   */\n      eq\n        /* \"#utility.yul\":4033:4034   */\n      dup4\n        /* \"#utility.yul\":4026:4035   */\n      iszero\n        /* \"#utility.yul\":4006:4089   */\n      or\n        /* \"#utility.yul\":3983:4122   */\n      tag_129\n      jumpi\n        /* \"#utility.yul\":4102:4120   */\n      tag_130\n      tag_76\n      jump\t// in\n    tag_130:\n        /* \"#utility.yul\":3983:4122   */\n    tag_129:\n        /* \"#utility.yul\":3767:4129   */\n      pop\n        /* \"#utility.yul\":3719:4129   */\n      swap3\n      swap2\n      pop\n      pop\n      jump\t// out\n        /* \"#utility.yul\":4135:4315   */\n    tag_77:\n        /* \"#utility.yul\":4183:4260   */\n      0x4e487b7100000000000000000000000000000000000000000000000000000000\n        /* \"#utility.yul\":4180:4181   */\n      0x00\n        /* \"#utility.yul\":4173:4261   */\n      mstore\n        /* \"#utility.yul\":4280:4284   */\n      0x12\n        /* \"#utility.yul\":4277:4278   */\n      0x04\n        /* \"#utility.yul\":4270:4285   */\n      mstore\n        /* \"#utility.yul\":4304:4308   */\n      0x24\n        /* \"#utility.yul\":4301:4302   */\n      0x00\n        /* \"#utility.yul\":4294:4309   */\n      revert\n        /* \"#utility.yul\":4321:4506   */\n    tag_39:\n        /* \"#utility.yul\":4361:4362   */\n      0x00\n        /* \"#utility.yul\":4378:4398   */\n      tag_133\n        /* \"#utility.yul\":4396:4397   */\n      dup3\n        /* \"#utility.yul\":4378:4398   */\n      tag_71\n      jump\t// in\n    tag_133:\n        /* \"#utility.yul\":4373:4398   */\n      swap2\n      pop\n        /* \"#utility.yul\":4412:4432   */\n      tag_134\n        /* \"#utility.yul\":4430:4431   */\n      dup4\n        /* \"#utility.yul\":4412:4432   */\n      tag_71\n      jump\t// in\n    tag_134:\n        /* \"#utility.yul\":4407:4432   */\n      swap3\n      pop\n        /* \"#utility.yul\":4451:4452   */\n      dup3\n        /* \"#utility.yul\":4441:4476   */\n      tag_135\n      jumpi\n        /* \"#utility.yul\":4456:4474   */\n      tag_136\n      tag_77\n      jump\t// in\n    tag_136:\n        /* \"#utility.yul\":4441:4476   */\n    tag_135:\n        /* \"#utility.yul\":4498:4499   */\n      dup3\n        /* \"#utility.yul\":4495:4496   */\n      dup3\n        /* \"#utility.yul\":4491:4500   */\n      div\n        /* \"#utility.yul\":4486:4500   */\n      swap1\n      pop\n        /* \"#utility.yul\":4321:4506   */\n      swap3\n      swap2\n      pop\n      pop\n      jump\t// out\n        /* \"#utility.yul\":4512:4706   */\n    tag_41:\n        /* \"#utility.yul\":4552:4556   */\n      0x00\n        /* \"#utility.yul\":4572:4592   */\n      tag_138\n        /* \"#utility.yul\":4590:4591   */\n      dup3\n        /* \"#utility.yul\":4572:4592   */\n      tag_71\n      jump\t// in\n    tag_138:\n        /* \"#utility.yul\":4567:4592   */\n      swap2\n      pop\n        /* \"#utility.yul\":4606:4626   */\n      tag_139\n        /* \"#utility.yul\":4624:4625   */\n      dup4\n        /* \"#utility.yul\":4606:4626   */\n      tag_71\n      jump\t// in\n    tag_139:\n        /* \"#utility.yul\":4601:4626   */\n      swap3\n      pop\n        /* \"#utility.yul\":4650:4651   */\n      dup3\n        /* \"#utility.yul\":4647:4648   */\n      dup3\n        /* \"#utility.yul\":4643:4652   */\n      sub\n        /* \"#utility.yul\":4635:4652   */\n      swap1\n      pop\n        /* \"#utility.yul\":4674:4675   */\n      dup2\n        /* \"#utility.yul\":4668:4672   */\n      dup2\n        /* \"#utility.yul\":4665:4676   */\n      gt\n        /* \"#utility.yul\":4662:4699   */\n      iszero\n      tag_140\n      jumpi\n        /* \"#utility.yul\":4679:4697   */\n      tag_141\n      tag_76\n      jump\t// in\n    tag_141:\n        /* \"#utility.yul\":4662:4699   */\n    tag_140:\n        /* \"#utility.yul\":4512:4706   */\n      swap3\n      swap2\n      pop\n      pop\n      jump\t// out\n        /* \"#utility.yul\":4712:4859   */\n    tag_78:\n        /* \"#utility.yul\":4813:4824   */\n      0x00\n        /* \"#utility.yul\":4850:4853   */\n      dup2\n        /* \"#utility.yul\":4835:4853   */\n      swap1\n      pop\n        /* \"#utility.yul\":4712:4859   */\n      swap3\n      swap2\n      pop\n      pop\n      jump\t// out\n        /* \"#utility.yul\":4865:4979   */\n    tag_79:\n      pop\n      jump\t// out\n        /* \"#utility.yul\":4985:5383   */\n    tag_80:\n        /* \"#utility.yul\":5144:5147   */\n      0x00\n        /* \"#utility.yul\":5165:5248   */\n      tag_145\n        /* \"#utility.yul\":5246:5247   */\n      0x00\n        /* \"#utility.yul\":5241:5244   */\n      dup4\n        /* \"#utility.yul\":5165:5248   */\n      tag_78\n      jump\t// in\n    tag_145:\n        /* \"#utility.yul\":5158:5248   */\n      swap2\n      pop\n        /* \"#utility.yul\":5257:5350   */\n      tag_146\n        /* \"#utility.yul\":5346:5349   */\n      dup3\n        /* \"#utility.yul\":5257:5350   */\n      tag_79\n      jump\t// in\n    tag_146:\n        /* \"#utility.yul\":5375:5376   */\n      0x00\n        /* \"#utility.yul\":5370:5373   */\n      dup3\n        /* \"#utility.yul\":5366:5377   */\n      add\n        /* \"#utility.yul\":5359:5377   */\n      swap1\n      pop\n        /* \"#utility.yul\":4985:5383   */\n      swap2\n      swap1\n      pop\n      jump\t// out\n        /* \"#utility.yul\":5389:5768   */\n    tag_43:\n        /* \"#utility.yul\":5573:5576   */\n      0x00\n        /* \"#utility.yul\":5595:5742   */\n      tag_148\n        /* \"#utility.yul\":5738:5741   */\n      dup3\n        /* \"#utility.yul\":5595:5742   */\n      tag_80\n      jump\t// in\n    tag_148:\n        /* \"#utility.yul\":5588:5742   */\n      swap2\n      pop\n        /* \"#utility.yul\":5759:5762   */\n      dup2\n        /* \"#utility.yul\":5752:5762   */\n      swap1\n      pop\n        /* \"#utility.yul\":5389:5768   */\n      swap2\n      swap1\n      pop\n      jump\t// out\n        /* \"#utility.yul\":5774:5948   */\n    tag_81:\n        /* \"#utility.yul\":5914:5940   */\n      0x73656e64696e6720746f20706572736f6e206661696c65640000000000000000\n        /* \"#utility.yul\":5910:5911   */\n      0x00\n        /* \"#utility.yul\":5902:5908   */\n      dup3\n        /* \"#utility.yul\":5898:5912   */\n      add\n        /* \"#utility.yul\":5891:5941   */\n      mstore\n        /* \"#utility.yul\":5774:5948   */\n      pop\n      jump\t// out\n        /* \"#utility.yul\":5954:6320   */\n    tag_82:\n        /* \"#utility.yul\":6096:6099   */\n      0x00\n        /* \"#utility.yul\":6117:6184   */\n      tag_151\n        /* \"#utility.yul\":6181:6183   */\n      0x18\n        /* \"#utility.yul\":6176:6179   */\n      dup4\n        /* \"#utility.yul\":6117:6184   */\n      tag_73\n      jump\t// in\n    tag_151:\n        /* \"#utility.yul\":6110:6184   */\n      swap2\n      pop\n        /* \"#utility.yul\":6193:6286   */\n      tag_152\n        /* \"#utility.yul\":6282:6285   */\n      dup3\n        /* \"#utility.yul\":6193:6286   */\n      tag_81\n      jump\t// in\n    tag_152:\n        /* \"#utility.yul\":6311:6313   */\n      0x20\n        /* \"#utility.yul\":6306:6309   */\n      dup3\n        /* \"#utility.yul\":6302:6314   */\n      add\n        /* \"#utility.yul\":6295:6314   */\n      swap1\n      pop\n        /* \"#utility.yul\":5954:6320   */\n      swap2\n      swap1\n      pop\n      jump\t// out\n        /* \"#utility.yul\":6326:6745   */\n    tag_49:\n        /* \"#utility.yul\":6492:6496   */\n      0x00\n        /* \"#utility.yul\":6530:6532   */\n      0x20\n        /* \"#utility.yul\":6519:6528   */\n      dup3\n        /* \"#utility.yul\":6515:6533   */\n      add\n        /* \"#utility.yul\":6507:6533   */\n      swap1\n      pop\n        /* \"#utility.yul\":6579:6588   */\n      dup2\n        /* \"#utility.yul\":6573:6577   */\n      dup2\n        /* \"#utility.yul\":6569:6589   */\n      sub\n        /* \"#utility.yul\":6565:6566   */\n      0x00\n        /* \"#utility.yul\":6554:6563   */\n      dup4\n        /* \"#utility.yul\":6550:6567   */\n      add\n        /* \"#utility.yul\":6543:6590   */\n      mstore\n        /* \"#utility.yul\":6607:6738   */\n      tag_154\n        /* \"#utility.yul\":6733:6737   */\n      dup2\n        /* \"#utility.yul\":6607:6738   */\n      tag_82\n      jump\t// in\n    tag_154:\n        /* \"#utility.yul\":6599:6738   */\n      swap1\n      pop\n        /* \"#utility.yul\":6326:6745   */\n      swap2\n      swap1\n      pop\n      jump\t// out\n        /* \"#utility.yul\":6751:6919   */\n    tag_83:\n        /* \"#utility.yul\":6891:6911   */\n      0x73656e64696e6720666565206661696c65640000000000000000000000000000\n        /* \"#utility.yul\":6887:6888   */\n      0x00\n        /* \"#utility.yul\":6879:6885   */\n      dup3\n        /* \"#utility.yul\":6875:6889   */\n      add\n        /* \"#utility.yul\":6868:6912   */\n      mstore\n        /* \"#utility.yul\":6751:6919   */\n      pop\n      jump\t// out\n        /* \"#utility.yul\":6925:7291   */\n    tag_84:\n        /* \"#utility.yul\":7067:7070   */\n      0x00\n        /* \"#utility.yul\":7088:7155   */\n      tag_157\n        /* \"#utility.yul\":7152:7154   */\n      0x12\n        /* \"#utility.yul\":7147:7150   */\n      dup4\n        /* \"#utility.yul\":7088:7155   */\n      tag_73\n      jump\t// in\n    tag_157:\n        /* \"#utility.yul\":7081:7155   */\n      swap2\n      pop\n        /* \"#utility.yul\":7164:7257   */\n      tag_158\n        /* \"#utility.yul\":7253:7256   */\n      dup3\n        /* \"#utility.yul\":7164:7257   */\n      tag_83\n      jump\t// in\n    tag_158:\n        /* \"#utility.yul\":7282:7284   */\n      0x20\n        /* \"#utility.yul\":7277:7280   */\n      dup3\n        /* \"#utility.yul\":7273:7285   */\n      add\n        /* \"#utility.yul\":7266:7285   */\n      swap1\n      pop\n        /* \"#utility.yul\":6925:7291   */\n      swap2\n      swap1\n      pop\n      jump\t// out\n        /* \"#utility.yul\":7297:7716   */\n    tag_56:\n        /* \"#utility.yul\":7463:7467   */\n      0x00\n        /* \"#utility.yul\":7501:7503   */\n      0x20\n        /* \"#utility.yul\":7490:7499   */\n      dup3\n        /* \"#utility.yul\":7486:7504   */\n      add\n        /* \"#utility.yul\":7478:7504   */\n      swap1\n      pop\n        /* \"#utility.yul\":7550:7559   */\n      dup2\n        /* \"#utility.yul\":7544:7548   */\n      dup2\n        /* \"#utility.yul\":7540:7560   */\n      sub\n        /* \"#utility.yul\":7536:7537   */\n      0x00\n        /* \"#utility.yul\":7525:7534   */\n      dup4\n        /* \"#utility.yul\":7521:7538   */\n      add\n        /* \"#utility.yul\":7514:7561   */\n      mstore\n        /* \"#utility.yul\":7578:7709   */\n      tag_160\n        /* \"#utility.yul\":7704:7708   */\n      dup2\n        /* \"#utility.yul\":7578:7709   */\n      tag_84\n      jump\t// in\n    tag_160:\n        /* \"#utility.yul\":7570:7709   */\n      swap1\n      pop\n        /* \"#utility.yul\":7297:7716   */\n      swap2\n      swap1\n      pop\n      jump\t// out\n        /* \"#utility.yul\":7722:7887   */\n    tag_85:\n        /* \"#utility.yul\":7862:7879   */\n      0x6e6f7420617574686f72697a6564210000000000000000000000000000000000\n        /* \"#utility.yul\":7858:7859   */\n      0x00\n        /* \"#utility.yul\":7850:7856   */\n      dup3\n        /* \"#utility.yul\":7846:7860   */\n      add\n        /* \"#utility.yul\":7839:7880   */\n      mstore\n        /* \"#utility.yul\":7722:7887   */\n      pop\n      jump\t// out\n        /* \"#utility.yul\":7893:8259   */\n    tag_86:\n        /* \"#utility.yul\":8035:8038   */\n      0x00\n        /* \"#utility.yul\":8056:8123   */\n      tag_163\n        /* \"#utility.yul\":8120:8122   */\n      0x0f\n        /* \"#utility.yul\":8115:8118   */\n      dup4\n        /* \"#utility.yul\":8056:8123   */\n      tag_73\n      jump\t// in\n    tag_163:\n        /* \"#utility.yul\":8049:8123   */\n      swap2\n      pop\n        /* \"#utility.yul\":8132:8225   */\n      tag_164\n        /* \"#utility.yul\":8221:8224   */\n      dup3\n        /* \"#utility.yul\":8132:8225   */\n      tag_85\n      jump\t// in\n    tag_164:\n        /* \"#utility.yul\":8250:8252   */\n      0x20\n        /* \"#utility.yul\":8245:8248   */\n      dup3\n        /* \"#utility.yul\":8241:8253   */\n      add\n        /* \"#utility.yul\":8234:8253   */\n      swap1\n      pop\n        /* \"#utility.yul\":7893:8259   */\n      swap2\n      swap1\n      pop\n      jump\t// out\n        /* \"#utility.yul\":8265:8684   */\n    tag_60:\n        /* \"#utility.yul\":8431:8435   */\n      0x00\n        /* \"#utility.yul\":8469:8471   */\n      0x20\n        /* \"#utility.yul\":8458:8467   */\n      dup3\n        /* \"#utility.yul\":8454:8472   */\n      add\n        /* \"#utility.yul\":8446:8472   */\n      swap1\n      pop\n        /* \"#utility.yul\":8518:8527   */\n      dup2\n        /* \"#utility.yul\":8512:8516   */\n      dup2\n        /* \"#utility.yul\":8508:8528   */\n      sub\n        /* \"#utility.yul\":8504:8505   */\n      0x00\n        /* \"#utility.yul\":8493:8502   */\n      dup4\n        /* \"#utility.yul\":8489:8506   */\n      add\n        /* \"#utility.yul\":8482:8529   */\n      mstore\n        /* \"#utility.yul\":8546:8677   */\n      tag_166\n        /* \"#utility.yul\":8672:8676   */\n      dup2\n        /* \"#utility.yul\":8546:8677   */\n      tag_86\n      jump\t// in\n    tag_166:\n        /* \"#utility.yul\":8538:8677   */\n      swap1\n      pop\n        /* \"#utility.yul\":8265:8684   */\n      swap2\n      swap1\n      pop\n      jump\t// out\n\n    auxdata: 0xa26469706673582212207147d072721ad407bb76f212215cf0a5a79d480b19c0aea0c64a4092b1a8abb164736f6c634300081f0033\n}\n",
				"bytecode": {
					"linkReferences": {},
					"object": "608060405260026001553480156013575f5ffd5b50335f5f6101000a81548173ffffffffffffffffffffffffffffffffffffffff021916908373ffffffffffffffffffffffffffffffffffffffff1602179055506108f1806100605f395ff3fe608060405260043610610049575f3560e01c80631a6952301461004d57806355bc8725146100695780637f49f709146100a55780638da5cb5b146100cd578063f4488f46146100f7575b5f5ffd5b61006760048036038101906100629190610515565b610121565b005b348015610074575f5ffd5b5061008f600480360381019061008a9190610515565b61038a565b60405161009c919061055a565b60405180910390f35b3480156100b0575f5ffd5b506100cb60048036038101906100c69190610515565b6103a7565b005b3480156100d8575f5ffd5b506100e161048d565b6040516100ee9190610582565b60405180910390f35b348015610102575f5ffd5b5061010b6104b1565b60405161011891906105b3565b60405180910390f35b5f73ffffffffffffffffffffffffffffffffffffffff168173ffffffffffffffffffffffffffffffffffffffff160361018f576040517f08c379a000000000000000000000000000000000000000000000000000000000815260040161018690610626565b60405180910390fd5b60025f3373ffffffffffffffffffffffffffffffffffffffff1673ffffffffffffffffffffffffffffffffffffffff1681526020019081526020015f205f9054906101000a900460ff16156101e2575f5ffd5b5f8190505f6064600154346101f79190610671565b61020191906106df565b90505f8134610210919061070f565b90505f8373ffffffffffffffffffffffffffffffffffffffff16826040516102379061076f565b5f6040518083038185875af1925050503d805f8114610271576040519150601f19603f3d011682016040523d82523d5f602084013e610276565b606091505b50509050806102ba576040517f08c379a00000000000000000000000000000000000000000000000000000000081526004016102b1906107cd565b60405180910390fd5b5f5f5f9054906101000a900473ffffffffffffffffffffffffffffffffffffffff1673ffffffffffffffffffffffffffffffffffffffff16846040516102ff9061076f565b5f6040518083038185875af1925050503d805f8114610339576040519150601f19603f3d011682016040523d82523d5f602084013e61033e565b606091505b5050905080610382576040517f08c379a000000000000000000000000000000000000000000000000000000000815260040161037990610835565b60405180910390fd5b505050505050565b6002602052805f5260405f205f915054906101000a900460ff1681565b5f5f9054906101000a900473ffffffffffffffffffffffffffffffffffffffff1673ffffffffffffffffffffffffffffffffffffffff163373ffffffffffffffffffffffffffffffffffffffff1614610435576040517f08c379a000000000000000000000000000000000000000000000000000000000815260040161042c9061089d565b60405180910390fd5b600160025f8373ffffffffffffffffffffffffffffffffffffffff1673ffffffffffffffffffffffffffffffffffffffff1681526020019081526020015f205f6101000a81548160ff02191690831515021790555050565b5f5f9054906101000a900473ffffffffffffffffffffffffffffffffffffffff1681565b60015481565b5f5ffd5b5f73ffffffffffffffffffffffffffffffffffffffff82169050919050565b5f6104e4826104bb565b9050919050565b6104f4816104da565b81146104fe575f5ffd5b50565b5f8135905061050f816104eb565b92915050565b5f6020828403121561052a576105296104b7565b5b5f61053784828501610501565b91505092915050565b5f8115159050919050565b61055481610540565b82525050565b5f60208201905061056d5f83018461054b565b92915050565b61057c816104da565b82525050565b5f6020820190506105955f830184610573565b92915050565b5f819050919050565b6105ad8161059b565b82525050565b5f6020820190506105c65f8301846105a4565b92915050565b5f82825260208201905092915050565b7f696e76616c6964206164647265737300000000000000000000000000000000005f82015250565b5f610610600f836105cc565b915061061b826105dc565b602082019050919050565b5f6020820190508181035f83015261063d81610604565b9050919050565b7f4e487b71000000000000000000000000000000000000000000000000000000005f52601160045260245ffd5b5f61067b8261059b565b91506106868361059b565b92508282026106948161059b565b915082820484148315176106ab576106aa610644565b5b5092915050565b7f4e487b71000000000000000000000000000000000000000000000000000000005f52601260045260245ffd5b5f6106e98261059b565b91506106f48361059b565b925082610704576107036106b2565b5b828204905092915050565b5f6107198261059b565b91506107248361059b565b925082820390508181111561073c5761073b610644565b5b92915050565b5f81905092915050565b50565b5f61075a5f83610742565b91506107658261074c565b5f82019050919050565b5f6107798261074f565b9150819050919050565b7f73656e64696e6720746f20706572736f6e206661696c656400000000000000005f82015250565b5f6107b76018836105cc565b91506107c282610783565b602082019050919050565b5f6020820190508181035f8301526107e4816107ab565b9050919050565b7f73656e64696e6720666565206661696c656400000000000000000000000000005f82015250565b5f61081f6012836105cc565b915061082a826107eb565b602082019050919050565b5f6020820190508181035f83015261084c81610813565b9050919050565b7f6e6f7420617574686f72697a65642100000000000000000000000000000000005f82015250565b5f610887600f836105cc565b915061089282610853565b602082019050919050565b5f6020820190508181035f8301526108b48161087b565b905091905056fea26469706673582212207147d072721ad407bb76f212215cf0a5a79d480b19c0aea0c64a4092b1a8abb164736f6c634300081f0033",
					"opcodes": "PUSH1 0x80 PUSH1 0x40 MSTORE PUSH1 0x2 PUSH1 0x1 SSTORE CALLVALUE DUP1 ISZERO PUSH1 0x13 JUMPI PUSH0 PUSH0 REVERT JUMPDEST POP CALLER PUSH0 PUSH0 PUSH2 0x100 EXP DUP2 SLOAD DUP2 PUSH20 0xFFFFFFFFFFFFFFFFFFFFFFFFFFFFFFFFFFFFFFFF MUL NOT AND SWAP1 DUP4 PUSH20 0xFFFFFFFFFFFFFFFFFFFFFFFFFFFFFFFFFFFFFFFF AND MUL OR SWAP1 SSTORE POP PUSH2 0x8F1 DUP1 PUSH2 0x60 PUSH0 CODECOPY PUSH0 RETURN INVALID PUSH1 0x80 PUSH1 0x40 MSTORE PUSH1 0x4 CALLDATASIZE LT PUSH2 0x49 JUMPI PUSH0 CALLDATALOAD PUSH1 0xE0 SHR DUP1 PUSH4 0x1A695230 EQ PUSH2 0x4D JUMPI DUP1 PUSH4 0x55BC8725 EQ PUSH2 0x69 JUMPI DUP1 PUSH4 0x7F49F709 EQ PUSH2 0xA5 JUMPI DUP1 PUSH4 0x8DA5CB5B EQ PUSH2 0xCD JUMPI DUP1 PUSH4 0xF4488F46 EQ PUSH2 0xF7 JUMPI JUMPDEST PUSH0 PUSH0 REVERT JUMPDEST PUSH2 0x67 PUSH1 0x4 DUP1 CALLDATASIZE SUB DUP2 ADD SWAP1 PUSH2 0x62 SWAP2 SWAP1 PUSH2 0x515 JUMP JUMPDEST PUSH2 0x121 JUMP JUMPDEST STOP JUMPDEST CALLVALUE DUP1 ISZERO PUSH2 0x74 JUMPI PUSH0 PUSH0 REVERT JUMPDEST POP PUSH2 0x8F PUSH1 0x4 DUP1 CALLDATASIZE SUB DUP2 ADD SWAP1 PUSH2 0x8A SWAP2 SWAP1 PUSH2 0x515 JUMP JUMPDEST PUSH2 0x38A JUMP JUMPDEST PUSH1 0x40 MLOAD PUSH2 0x9C SWAP2 SWAP1 PUSH2 0x55A JUMP JUMPDEST PUSH1 0x40 MLOAD DUP1 SWAP2 SUB SWAP1 RETURN JUMPDEST CALLVALUE DUP1 ISZERO PUSH2 0xB0 JUMPI PUSH0 PUSH0 REVERT JUMPDEST POP PUSH2 0xCB PUSH1 0x4 DUP1 CALLDATASIZE SUB DUP2 ADD SWAP1 PUSH2 0xC6 SWAP2 SWAP1 PUSH2 0x515 JUMP JUMPDEST PUSH2 0x3A7 JUMP JUMPDEST STOP JUMPDEST CALLVALUE DUP1 ISZERO PUSH2 0xD8 JUMPI PUSH0 PUSH0 REVERT JUMPDEST POP PUSH2 0xE1 PUSH2 0x48D JUMP JUMPDEST PUSH1 0x40 MLOAD PUSH2 0xEE SWAP2 SWAP1 PUSH2 0x582 JUMP JUMPDEST PUSH1 0x40 MLOAD DUP1 SWAP2 SUB SWAP1 RETURN JUMPDEST CALLVALUE DUP1 ISZERO PUSH2 0x102 JUMPI PUSH0 PUSH0 REVERT JUMPDEST POP PUSH2 0x10B PUSH2 0x4B1 JUMP JUMPDEST PUSH1 0x40 MLOAD PUSH2 0x118 SWAP2 SWAP1 PUSH2 0x5B3 JUMP JUMPDEST PUSH1 0x40 MLOAD DUP1 SWAP2 SUB SWAP1 RETURN JUMPDEST PUSH0 PUSH20 0xFFFFFFFFFFFFFFFFFFFFFFFFFFFFFFFFFFFFFFFF AND DUP2 PUSH20 0xFFFFFFFFFFFFFFFFFFFFFFFFFFFFFFFFFFFFFFFF AND SUB PUSH2 0x18F JUMPI PUSH1 0x40 MLOAD PUSH32 0x8C379A000000000000000000000000000000000000000000000000000000000 DUP2 MSTORE PUSH1 0x4 ADD PUSH2 0x186 SWAP1 PUSH2 0x626 JUMP JUMPDEST PUSH1 0x40 MLOAD DUP1 SWAP2 SUB SWAP1 REVERT JUMPDEST PUSH1 0x2 PUSH0 CALLER PUSH20 0xFFFFFFFFFFFFFFFFFFFFFFFFFFFFFFFFFFFFFFFF AND PUSH20 0xFFFFFFFFFFFFFFFFFFFFFFFFFFFFFFFFFFFFFFFF AND DUP2 MSTORE PUSH1 0x20 ADD SWAP1 DUP2 MSTORE PUSH1 0x20 ADD PUSH0 KECCAK256 PUSH0 SWAP1 SLOAD SWAP1 PUSH2 0x100 EXP SWAP1 DIV PUSH1 0xFF AND ISZERO PUSH2 0x1E2 JUMPI PUSH0 PUSH0 REVERT JUMPDEST PUSH0 DUP2 SWAP1 POP PUSH0 PUSH1 0x64 PUSH1 0x1 SLOAD CALLVALUE PUSH2 0x1F7 SWAP2 SWAP1 PUSH2 0x671 JUMP JUMPDEST PUSH2 0x201 SWAP2 SWAP1 PUSH2 0x6DF JUMP JUMPDEST SWAP1 POP PUSH0 DUP2 CALLVALUE PUSH2 0x210 SWAP2 SWAP1 PUSH2 0x70F JUMP JUMPDEST SWAP1 POP PUSH0 DUP4 PUSH20 0xFFFFFFFFFFFFFFFFFFFFFFFFFFFFFFFFFFFFFFFF AND DUP3 PUSH1 0x40 MLOAD PUSH2 0x237 SWAP1 PUSH2 0x76F JUMP JUMPDEST PUSH0 PUSH1 0x40 MLOAD DUP1 DUP4 SUB DUP2 DUP6 DUP8 GAS CALL SWAP3 POP POP POP RETURNDATASIZE DUP1 PUSH0 DUP2 EQ PUSH2 0x271 JUMPI PUSH1 0x40 MLOAD SWAP2 POP PUSH1 0x1F NOT PUSH1 0x3F RETURNDATASIZE ADD AND DUP3 ADD PUSH1 0x40 MSTORE RETURNDATASIZE DUP3 MSTORE RETURNDATASIZE PUSH0 PUSH1 0x20 DUP5 ADD RETURNDATACOPY PUSH2 0x276 JUMP JUMPDEST PUSH1 0x60 SWAP2 POP JUMPDEST POP POP SWAP1 POP DUP1 PUSH2 0x2BA JUMPI PUSH1 0x40 MLOAD PUSH32 0x8C379A000000000000000000000000000000000000000000000000000000000 DUP2 MSTORE PUSH1 0x4 ADD PUSH2 0x2B1 SWAP1 PUSH2 0x7CD JUMP JUMPDEST PUSH1 0x40 MLOAD DUP1 SWAP2 SUB SWAP1 REVERT JUMPDEST PUSH0 PUSH0 PUSH0 SWAP1 SLOAD SWAP1 PUSH2 0x100 EXP SWAP1 DIV PUSH20 0xFFFFFFFFFFFFFFFFFFFFFFFFFFFFFFFFFFFFFFFF AND PUSH20 0xFFFFFFFFFFFFFFFFFFFFFFFFFFFFFFFFFFFFFFFF AND DUP5 PUSH1 0x40 MLOAD PUSH2 0x2FF SWAP1 PUSH2 0x76F JUMP JUMPDEST PUSH0 PUSH1 0x40 MLOAD DUP1 DUP4 SUB DUP2 DUP6 DUP8 GAS CALL SWAP3 POP POP POP RETURNDATASIZE DUP1 PUSH0 DUP2 EQ PUSH2 0x339 JUMPI PUSH1 0x40 MLOAD SWAP2 POP PUSH1 0x1F NOT PUSH1 0x3F RETURNDATASIZE ADD AND DUP3 ADD PUSH1 0x40 MSTORE RETURNDATASIZE DUP3 MSTORE RETURNDATASIZE PUSH0 PUSH1 0x20 DUP5 ADD RETURNDATACOPY PUSH2 0x33E JUMP JUMPDEST PUSH1 0x60 SWAP2 POP JUMPDEST POP POP SWAP1 POP DUP1 PUSH2 0x382 JUMPI PUSH1 0x40 MLOAD PUSH32 0x8C379A000000000000000000000000000000000000000000000000000000000 DUP2 MSTORE PUSH1 0x4 ADD PUSH2 0x379 SWAP1 PUSH2 0x835 JUMP JUMPDEST PUSH1 0x40 MLOAD DUP1 SWAP2 SUB SWAP1 REVERT JUMPDEST POP POP POP POP POP POP JUMP JUMPDEST PUSH1 0x2 PUSH1 0x20 MSTORE DUP1 PUSH0 MSTORE PUSH1 0x40 PUSH0 KECCAK256 PUSH0 SWAP2 POP SLOAD SWAP1 PUSH2 0x100 EXP SWAP1 DIV PUSH1 0xFF AND DUP2 JUMP JUMPDEST PUSH0 PUSH0 SWAP1 SLOAD SWAP1 PUSH2 0x100 EXP SWAP1 DIV PUSH20 0xFFFFFFFFFFFFFFFFFFFFFFFFFFFFFFFFFFFFFFFF AND PUSH20 0xFFFFFFFFFFFFFFFFFFFFFFFFFFFFFFFFFFFFFFFF AND CALLER PUSH20 0xFFFFFFFFFFFFFFFFFFFFFFFFFFFFFFFFFFFFFFFF AND EQ PUSH2 0x435 JUMPI PUSH1 0x40 MLOAD PUSH32 0x8C379A000000000000000000000000000000000000000000000000000000000 DUP2 MSTORE PUSH1 0x4 ADD PUSH2 0x42C SWAP1 PUSH2 0x89D JUMP JUMPDEST PUSH1 0x40 MLOAD DUP1 SWAP2 SUB SWAP1 REVERT JUMPDEST PUSH1 0x1 PUSH1 0x2 PUSH0 DUP4 PUSH20 0xFFFFFFFFFFFFFFFFFFFFFFFFFFFFFFFFFFFFFFFF AND PUSH20 0xFFFFFFFFFFFFFFFFFFFFFFFFFFFFFFFFFFFFFFFF AND DUP2 MSTORE PUSH1 0x20 ADD SWAP1 DUP2 MSTORE PUSH1 0x20 ADD PUSH0 KECCAK256 PUSH0 PUSH2 0x100 EXP DUP2 SLOAD DUP2 PUSH1 0xFF MUL NOT AND SWAP1 DUP4 ISZERO ISZERO MUL OR SWAP1 SSTORE POP POP JUMP JUMPDEST PUSH0 PUSH0 SWAP1 SLOAD SWAP1 PUSH2 0x100 EXP SWAP1 DIV PUSH20 0xFFFFFFFFFFFFFFFFFFFFFFFFFFFFFFFFFFFFFFFF AND DUP2 JUMP JUMPDEST PUSH1 0x1 SLOAD DUP2 JUMP JUMPDEST PUSH0 PUSH0 REVERT JUMPDEST PUSH0 PUSH20 0xFFFFFFFFFFFFFFFFFFFFFFFFFFFFFFFFFFFFFFFF DUP3 AND SWAP1 POP SWAP2 SWAP1 POP JUMP JUMPDEST PUSH0 PUSH2 0x4E4 DUP3 PUSH2 0x4BB JUMP JUMPDEST SWAP1 POP SWAP2 SWAP1 POP JUMP JUMPDEST PUSH2 0x4F4 DUP2 PUSH2 0x4DA JUMP JUMPDEST DUP2 EQ PUSH2 0x4FE JUMPI PUSH0 PUSH0 REVERT JUMPDEST POP JUMP JUMPDEST PUSH0 DUP2 CALLDATALOAD SWAP1 POP PUSH2 0x50F DUP2 PUSH2 0x4EB JUMP JUMPDEST SWAP3 SWAP2 POP POP JUMP JUMPDEST PUSH0 PUSH1 0x20 DUP3 DUP5 SUB SLT ISZERO PUSH2 0x52A JUMPI PUSH2 0x529 PUSH2 0x4B7 JUMP JUMPDEST JUMPDEST PUSH0 PUSH2 0x537 DUP5 DUP3 DUP6 ADD PUSH2 0x501 JUMP JUMPDEST SWAP2 POP POP SWAP3 SWAP2 POP POP JUMP JUMPDEST PUSH0 DUP2 ISZERO ISZERO SWAP1 POP SWAP2 SWAP1 POP JUMP JUMPDEST PUSH2 0x554 DUP2 PUSH2 0x540 JUMP JUMPDEST DUP3 MSTORE POP POP JUMP JUMPDEST PUSH0 PUSH1 0x20 DUP3 ADD SWAP1 POP PUSH2 0x56D PUSH0 DUP4 ADD DUP5 PUSH2 0x54B JUMP JUMPDEST SWAP3 SWAP2 POP POP JUMP JUMPDEST PUSH2 0x57C DUP2 PUSH2 0x4DA JUMP JUMPDEST DUP3 MSTORE POP POP JUMP JUMPDEST PUSH0 PUSH1 0x20 DUP3 ADD SWAP1 POP PUSH2 0x595 PUSH0 DUP4 ADD DUP5 PUSH2 0x573 JUMP JUMPDEST SWAP3 SWAP2 POP POP JUMP JUMPDEST PUSH0 DUP2 SWAP1 POP SWAP2 SWAP1 POP JUMP JUMPDEST PUSH2 0x5AD DUP2 PUSH2 0x59B JUMP JUMPDEST DUP3 MSTORE POP POP JUMP JUMPDEST PUSH0 PUSH1 0x20 DUP3 ADD SWAP1 POP PUSH2 0x5C6 PUSH0 DUP4 ADD DUP5 PUSH2 0x5A4 JUMP JUMPDEST SWAP3 SWAP2 POP POP JUMP JUMPDEST PUSH0 DUP3 DUP3 MSTORE PUSH1 0x20 DUP3 ADD SWAP1 POP SWAP3 SWAP2 POP POP JUMP JUMPDEST PUSH32 0x696E76616C696420616464726573730000000000000000000000000000000000 PUSH0 DUP3 ADD MSTORE POP JUMP JUMPDEST PUSH0 PUSH2 0x610 PUSH1 0xF DUP4 PUSH2 0x5CC JUMP JUMPDEST SWAP2 POP PUSH2 0x61B DUP3 PUSH2 0x5DC JUMP JUMPDEST PUSH1 0x20 DUP3 ADD SWAP1 POP SWAP2 SWAP1 POP JUMP JUMPDEST PUSH0 PUSH1 0x20 DUP3 ADD SWAP1 POP DUP2 DUP2 SUB PUSH0 DUP4 ADD MSTORE PUSH2 0x63D DUP2 PUSH2 0x604 JUMP JUMPDEST SWAP1 POP SWAP2 SWAP1 POP JUMP JUMPDEST PUSH32 0x4E487B7100000000000000000000000000000000000000000000000000000000 PUSH0 MSTORE PUSH1 0x11 PUSH1 0x4 MSTORE PUSH1 0x24 PUSH0 REVERT JUMPDEST PUSH0 PUSH2 0x67B DUP3 PUSH2 0x59B JUMP JUMPDEST SWAP2 POP PUSH2 0x686 DUP4 PUSH2 0x59B JUMP JUMPDEST SWAP3 POP DUP3 DUP3 MUL PUSH2 0x694 DUP2 PUSH2 0x59B JUMP JUMPDEST SWAP2 POP DUP3 DUP3 DIV DUP5 EQ DUP4 ISZERO OR PUSH2 0x6AB JUMPI PUSH2 0x6AA PUSH2 0x644 JUMP JUMPDEST JUMPDEST POP SWAP3 SWAP2 POP POP JUMP JUMPDEST PUSH32 0x4E487B7100000000000000000000000000000000000000000000000000000000 PUSH0 MSTORE PUSH1 0x12 PUSH1 0x4 MSTORE PUSH1 0x24 PUSH0 REVERT JUMPDEST PUSH0 PUSH2 0x6E9 DUP3 PUSH2 0x59B JUMP JUMPDEST SWAP2 POP PUSH2 0x6F4 DUP4 PUSH2 0x59B JUMP JUMPDEST SWAP3 POP DUP3 PUSH2 0x704 JUMPI PUSH2 0x703 PUSH2 0x6B2 JUMP JUMPDEST JUMPDEST DUP3 DUP3 DIV SWAP1 POP SWAP3 SWAP2 POP POP JUMP JUMPDEST PUSH0 PUSH2 0x719 DUP3 PUSH2 0x59B JUMP JUMPDEST SWAP2 POP PUSH2 0x724 DUP4 PUSH2 0x59B JUMP JUMPDEST SWAP3 POP DUP3 DUP3 SUB SWAP1 POP DUP2 DUP2 GT ISZERO PUSH2 0x73C JUMPI PUSH2 0x73B PUSH2 0x644 JUMP JUMPDEST JUMPDEST SWAP3 SWAP2 POP POP JUMP JUMPDEST PUSH0 DUP2 SWAP1 POP SWAP3 SWAP2 POP POP JUMP JUMPDEST POP JUMP JUMPDEST PUSH0 PUSH2 0x75A PUSH0 DUP4 PUSH2 0x742 JUMP JUMPDEST SWAP2 POP PUSH2 0x765 DUP3 PUSH2 0x74C JUMP JUMPDEST PUSH0 DUP3 ADD SWAP1 POP SWAP2 SWAP1 POP JUMP JUMPDEST PUSH0 PUSH2 0x779 DUP3 PUSH2 0x74F JUMP JUMPDEST SWAP2 POP DUP2 SWAP1 POP SWAP2 SWAP1 POP JUMP JUMPDEST PUSH32 0x73656E64696E6720746F20706572736F6E206661696C65640000000000000000 PUSH0 DUP3 ADD MSTORE POP JUMP JUMPDEST PUSH0 PUSH2 0x7B7 PUSH1 0x18 DUP4 PUSH2 0x5CC JUMP JUMPDEST SWAP2 POP PUSH2 0x7C2 DUP3 PUSH2 0x783 JUMP JUMPDEST PUSH1 0x20 DUP3 ADD SWAP1 POP SWAP2 SWAP1 POP JUMP JUMPDEST PUSH0 PUSH1 0x20 DUP3 ADD SWAP1 POP DUP2 DUP2 SUB PUSH0 DUP4 ADD MSTORE PUSH2 0x7E4 DUP2 PUSH2 0x7AB JUMP JUMPDEST SWAP1 POP SWAP2 SWAP1 POP JUMP JUMPDEST PUSH32 0x73656E64696E6720666565206661696C65640000000000000000000000000000 PUSH0 DUP3 ADD MSTORE POP JUMP JUMPDEST PUSH0 PUSH2 0x81F PUSH1 0x12 DUP4 PUSH2 0x5CC JUMP JUMPDEST SWAP2 POP PUSH2 0x82A DUP3 PUSH2 0x7EB JUMP JUMPDEST PUSH1 0x20 DUP3 ADD SWAP1 POP SWAP2 SWAP1 POP JUMP JUMPDEST PUSH0 PUSH1 0x20 DUP3 ADD SWAP1 POP DUP2 DUP2 SUB PUSH0 DUP4 ADD MSTORE PUSH2 0x84C DUP2 PUSH2 0x813 JUMP JUMPDEST SWAP1 POP SWAP2 SWAP1 POP JUMP JUMPDEST PUSH32 0x6E6F7420617574686F72697A6564210000000000000000000000000000000000 PUSH0 DUP3 ADD MSTORE POP JUMP JUMPDEST PUSH0 PUSH2 0x887 PUSH1 0xF DUP4 PUSH2 0x5CC JUMP JUMPDEST SWAP2 POP PUSH2 0x892 DUP3 PUSH2 0x853 JUMP JUMPDEST PUSH1 0x20 DUP3 ADD SWAP1 POP SWAP2 SWAP1 POP JUMP JUMPDEST PUSH0 PUSH1 0x20 DUP3 ADD SWAP1 POP DUP2 DUP2 SUB PUSH0 DUP4 ADD MSTORE PUSH2 0x8B4 DUP2 PUSH2 0x87B JUMP JUMPDEST SWAP1 POP SWAP2 SWAP1 POP JUMP INVALID LOG2 PUSH5 0x6970667358 0x22 SLT KECCAK256 PUSH18 0x47D072721AD407BB76F212215CF0A5A79D48 SIGNEXTEND NOT 0xC0 0xAE LOG0 0xC6 BLOBBASEFEE BLOCKHASH SWAP3 0xB1 0xA8 0xAB 0xB1 PUSH5 0x736F6C6343 STOP ADDMOD 0x1F STOP CALLER "
				},
				"gasEstimates": {
					"creation": {
						"codeDepositCost": "457800",
						"executionCost": "46861",
						"totalCost": "504661"
					},
					"external": {
						"banAddress(address)": "26993",
						"bannedAddresses(address)": "2833",
						"owner()": "2551",
						"platformfee()": "2491",
						"transfer(address)": "infinite"
					}
				},
				"methodIdentifiers": {
					"banAddress(address)": "7f49f709",
					"bannedAddresses(address)": "55bc8725",
					"owner()": "8da5cb5b",
					"platformfee()": "f4488f46",
					"transfer(address)": "1a695230"
				}
			},
			"storageLayout": {
				"storage": [
					{
						"astId": 3,
						"contract": "submissions/MeseretBirhanu/day7/SendSomeTokens.sol:SendSomeTokens",
						"label": "owner",
						"offset": 0,
						"slot": "0",
						"type": "t_address"
					},
					{
						"astId": 6,
						"contract": "submissions/MeseretBirhanu/day7/SendSomeTokens.sol:SendSomeTokens",
						"label": "platformfee",
						"offset": 0,
						"slot": "1",
						"type": "t_uint256"
					},
					{
						"astId": 10,
						"contract": "submissions/MeseretBirhanu/day7/SendSomeTokens.sol:SendSomeTokens",
						"label": "bannedAddresses",
						"offset": 0,
						"slot": "2",
						"type": "t_mapping(t_address,t_bool)"
					}
				],
				"types": {
					"t_address": {
						"encoding": "inplace",
						"label": "address",
						"numberOfBytes": "20"
					},
					"t_bool": {
						"encoding": "inplace",
						"label": "bool",
						"numberOfBytes": "1"
					},
					"t_mapping(t_address,t_bool)": {
						"encoding": "mapping",
						"key": "t_address",
						"label": "mapping(address => bool)",
						"numberOfBytes": "32",
						"value": "t_bool"
					},
					"t_uint256": {
						"encoding": "inplace",
						"label": "uint256",
						"numberOfBytes": "32"
					}
				}
			},
			"userdoc": {
				"kind": "user",
				"methods": {},
				"version": 1
			}
		}
	}
}