{
	"submissions/MeseretBirhanu/day15/GasSaver.sol": {
		"GasSaver": {
			"abi": [
				{
					"inputs": [
						{
							"internalType": "address",
							"name": "_addr",
							"type": "address"
						}
					],
					"stateMutability": "nonpayable",
					"type": "constructor"
				},
				{
					"inputs": [],
					"name": "NotContributor",
					"type": "error"
				},
				{
					"anonymous": false,
					"inputs": [
						{
							"indexed": true,
							"internalType": "address",
							"name": "",
							"type": "address"
						},
						{
							"indexed": false,
							"internalType": "string",
							"name": "",
							"type": "string"
						}
					],
					"name": "addContributor",
					"type": "event"
				},
				{
					"anonymous": false,
					"inputs": [
						{
							"indexed": false,
							"internalType": "string",
							"name": "",
							"type": "string"
						},
						{
							"indexed": false,
							"internalType": "uint256",
							"name": "",
							"type": "uint256"
						}
					],
					"name": "sentReward",
					"type": "event"
				},
				{
					"inputs": [],
					"name": "owner",
					"outputs": [
						{
							"internalType": "address",
							"name": "",
							"type": "address"
						}
					],
					"stateMutability": "view",
					"type": "function"
				},
				{
					"inputs": [
						{
							"internalType": "address",
							"name": "",
							"type": "address"
						}
					],
					"name": "records",
					"outputs": [
						{
							"internalType": "address",
							"name": "wallet",
							"type": "address"
						},
						{
							"internalType": "bool",
							"name": "isVerified",
							"type": "bool"
						},
						{
							"internalType": "uint8",
							"name": "level",
							"type": "uint8"
						},
						{
							"internalType": "string",
							"name": "name",
							"type": "string"
						}
					],
					"stateMutability": "view",
					"type": "function"
				},
				{
					"inputs": [
						{
							"internalType": "address[]",
							"name": "_wallet",
							"type": "address[]"
						},
						{
							"internalType": "string[]",
							"name": "_names",
							"type": "string[]"
						},
						{
							"internalType": "bool[]",
							"name": "_verified",
							"type": "bool[]"
						},
						{
							"internalType": "uint8[]",
							"name": "_level",
							"type": "uint8[]"
						}
					],
					"name": "register",
					"outputs": [],
					"stateMutability": "nonpayable",
					"type": "function"
				},
				{
					"inputs": [
						{
							"internalType": "address",
							"name": "_addr",
							"type": "address"
						},
						{
							"internalType": "uint256",
							"name": "_amount",
							"type": "uint256"
						}
					],
					"name": "reward",
					"outputs": [],
					"stateMutability": "payable",
					"type": "function"
				},
				{
					"inputs": [],
					"name": "tokenContract",
					"outputs": [
						{
							"internalType": "contract AthenaToken",
							"name": "",
							"type": "address"
						}
					],
					"stateMutability": "view",
					"type": "function"
				}
			],
			"devdoc": {
				"kind": "dev",
				"methods": {},
				"version": 1
			},
			"evm": {
				"assembly": "    /* \"submissions/MeseretBirhanu/day15/GasSaver.sol\":99:1584  contract GasSaver{... */\n  mstore(0x40, 0x80)\n    /* \"submissions/MeseretBirhanu/day15/GasSaver.sol\":505:610  constructor(address _addr){... */\n  callvalue\n  dup1\n  iszero\n  tag_1\n  jumpi\n  revert(0x00, 0x00)\ntag_1:\n  pop\n  mload(0x40)\n  sub(codesize, bytecodeSize)\n  dup1\n  bytecodeSize\n  dup4\n  codecopy\n  dup2\n  dup2\n  add\n  0x40\n  mstore\n  dup2\n  add\n  swap1\n  tag_2\n  swap2\n  swap1\n  tag_3\n  jump\t// in\ntag_2:\n    /* \"submissions/MeseretBirhanu/day15/GasSaver.sol\":548:558  msg.sender */\n  caller\n    /* \"submissions/MeseretBirhanu/day15/GasSaver.sol\":540:545  owner */\n  0x01\n  0x00\n    /* \"submissions/MeseretBirhanu/day15/GasSaver.sol\":540:558  owner = msg.sender */\n  0x0100\n  exp\n  dup2\n  sload\n  dup2\n  0xffffffffffffffffffffffffffffffffffffffff\n  mul\n  not\n  and\n  swap1\n  dup4\n  0xffffffffffffffffffffffffffffffffffffffff\n  and\n  mul\n  or\n  swap1\n  sstore\n  pop\n    /* \"submissions/MeseretBirhanu/day15/GasSaver.sol\":594:599  _addr */\n  dup1\n    /* \"submissions/MeseretBirhanu/day15/GasSaver.sol\":566:579  tokenContract */\n  0x00\n  0x00\n    /* \"submissions/MeseretBirhanu/day15/GasSaver.sol\":566:600  tokenContract = AthenaToken(_addr) */\n  0x0100\n  exp\n  dup2\n  sload\n  dup2\n  0xffffffffffffffffffffffffffffffffffffffff\n  mul\n  not\n  and\n  swap1\n  dup4\n  0xffffffffffffffffffffffffffffffffffffffff\n  and\n  mul\n  or\n  swap1\n  sstore\n  pop\n    /* \"submissions/MeseretBirhanu/day15/GasSaver.sol\":505:610  constructor(address _addr){... */\n  pop\n    /* \"submissions/MeseretBirhanu/day15/GasSaver.sol\":99:1584  contract GasSaver{... */\n  jump(tag_6)\n    /* \"#utility.yul\":88:205   */\ntag_8:\n    /* \"#utility.yul\":197:198   */\n  0x00\n    /* \"#utility.yul\":194:195   */\n  0x00\n    /* \"#utility.yul\":187:199   */\n  revert\n    /* \"#utility.yul\":334:460   */\ntag_10:\n    /* \"#utility.yul\":371:378   */\n  0x00\n    /* \"#utility.yul\":411:453   */\n  0xffffffffffffffffffffffffffffffffffffffff\n    /* \"#utility.yul\":404:409   */\n  dup3\n    /* \"#utility.yul\":400:454   */\n  and\n    /* \"#utility.yul\":389:454   */\n  swap1\n  pop\n    /* \"#utility.yul\":334:460   */\n  swap2\n  swap1\n  pop\n  jump\t// out\n    /* \"#utility.yul\":466:562   */\ntag_11:\n    /* \"#utility.yul\":503:510   */\n  0x00\n    /* \"#utility.yul\":532:556   */\n  tag_20\n    /* \"#utility.yul\":550:555   */\n  dup3\n    /* \"#utility.yul\":532:556   */\n  tag_10\n  jump\t// in\ntag_20:\n    /* \"#utility.yul\":521:556   */\n  swap1\n  pop\n    /* \"#utility.yul\":466:562   */\n  swap2\n  swap1\n  pop\n  jump\t// out\n    /* \"#utility.yul\":568:690   */\ntag_12:\n    /* \"#utility.yul\":641:665   */\n  tag_22\n    /* \"#utility.yul\":659:664   */\n  dup2\n    /* \"#utility.yul\":641:665   */\n  tag_11\n  jump\t// in\ntag_22:\n    /* \"#utility.yul\":634:639   */\n  dup2\n    /* \"#utility.yul\":631:666   */\n  eq\n    /* \"#utility.yul\":621:684   */\n  tag_23\n  jumpi\n    /* \"#utility.yul\":680:681   */\n  0x00\n    /* \"#utility.yul\":677:678   */\n  0x00\n    /* \"#utility.yul\":670:682   */\n  revert\n    /* \"#utility.yul\":621:684   */\ntag_23:\n    /* \"#utility.yul\":568:690   */\n  pop\n  jump\t// out\n    /* \"#utility.yul\":696:839   */\ntag_13:\n    /* \"#utility.yul\":753:758   */\n  0x00\n    /* \"#utility.yul\":784:790   */\n  dup2\n    /* \"#utility.yul\":778:791   */\n  mload\n    /* \"#utility.yul\":769:791   */\n  swap1\n  pop\n    /* \"#utility.yul\":800:833   */\n  tag_25\n    /* \"#utility.yul\":827:832   */\n  dup2\n    /* \"#utility.yul\":800:833   */\n  tag_12\n  jump\t// in\ntag_25:\n    /* \"#utility.yul\":696:839   */\n  swap3\n  swap2\n  pop\n  pop\n  jump\t// out\n    /* \"#utility.yul\":845:1196   */\ntag_3:\n    /* \"#utility.yul\":915:921   */\n  0x00\n    /* \"#utility.yul\":964:966   */\n  0x20\n    /* \"#utility.yul\":952:961   */\n  dup3\n    /* \"#utility.yul\":943:950   */\n  dup5\n    /* \"#utility.yul\":939:962   */\n  sub\n    /* \"#utility.yul\":935:967   */\n  slt\n    /* \"#utility.yul\":932:1051   */\n  iszero\n  tag_27\n  jumpi\n    /* \"#utility.yul\":970:1049   */\n  tag_28\n  tag_8\n  jump\t// in\ntag_28:\n    /* \"#utility.yul\":932:1051   */\ntag_27:\n    /* \"#utility.yul\":1090:1091   */\n  0x00\n    /* \"#utility.yul\":1115:1179   */\n  tag_29\n    /* \"#utility.yul\":1171:1178   */\n  dup5\n    /* \"#utility.yul\":1162:1168   */\n  dup3\n    /* \"#utility.yul\":1151:1160   */\n  dup6\n    /* \"#utility.yul\":1147:1169   */\n  add\n    /* \"#utility.yul\":1115:1179   */\n  tag_13\n  jump\t// in\ntag_29:\n    /* \"#utility.yul\":1105:1179   */\n  swap2\n  pop\n    /* \"#utility.yul\":1061:1189   */\n  pop\n    /* \"#utility.yul\":845:1196   */\n  swap3\n  swap2\n  pop\n  pop\n  jump\t// out\n    /* \"submissions/MeseretBirhanu/day15/GasSaver.sol\":99:1584  contract GasSaver{... */\ntag_6:\n  dataSize(sub_0)\n  dup1\n  dataOffset(sub_0)\n  0x00\n  codecopy\n  0x00\n  return\nstop\n\nsub_0: assembly {\n        /* \"submissions/MeseretBirhanu/day15/GasSaver.sol\":99:1584  contract GasSaver{... */\n      mstore(0x40, 0x80)\n      jumpi(tag_1, lt(calldatasize, 0x04))\n      shr(0xe0, calldataload(0x00))\n      dup1\n      0x21670f22\n      eq\n      tag_2\n      jumpi\n      dup1\n      0x469e9067\n      eq\n      tag_3\n      jumpi\n      dup1\n      0x55a373d6\n      eq\n      tag_4\n      jumpi\n      dup1\n      0x6aa1d2ac\n      eq\n      tag_5\n      jumpi\n      dup1\n      0x8da5cb5b\n      eq\n      tag_6\n      jumpi\n    tag_1:\n      revert(0x00, 0x00)\n        /* \"submissions/MeseretBirhanu/day15/GasSaver.sol\":1136:1581  function reward(address _addr  ,uint256 _amount) public onlyOwner payable {... */\n    tag_2:\n      tag_7\n      0x04\n      dup1\n      calldatasize\n      sub\n      dup2\n      add\n      swap1\n      tag_8\n      swap2\n      swap1\n      tag_9\n      jump\t// in\n    tag_8:\n      tag_10\n      jump\t// in\n    tag_7:\n      stop\n        /* \"submissions/MeseretBirhanu/day15/GasSaver.sol\":352:398  mapping(address => Contributor) public records */\n    tag_3:\n      callvalue\n      dup1\n      iszero\n      tag_11\n      jumpi\n      revert(0x00, 0x00)\n    tag_11:\n      pop\n      tag_12\n      0x04\n      dup1\n      calldatasize\n      sub\n      dup2\n      add\n      swap1\n      tag_13\n      swap2\n      swap1\n      tag_14\n      jump\t// in\n    tag_13:\n      tag_15\n      jump\t// in\n    tag_12:\n      mload(0x40)\n      tag_16\n      swap5\n      swap4\n      swap3\n      swap2\n      swap1\n      tag_17\n      jump\t// in\n    tag_16:\n      mload(0x40)\n      dup1\n      swap2\n      sub\n      swap1\n      return\n        /* \"submissions/MeseretBirhanu/day15/GasSaver.sol\":156:188  AthenaToken public tokenContract */\n    tag_4:\n      callvalue\n      dup1\n      iszero\n      tag_18\n      jumpi\n      revert(0x00, 0x00)\n    tag_18:\n      pop\n      tag_19\n      tag_20\n      jump\t// in\n    tag_19:\n      mload(0x40)\n      tag_21\n      swap2\n      swap1\n      tag_22\n      jump\t// in\n    tag_21:\n      mload(0x40)\n      dup1\n      swap2\n      sub\n      swap1\n      return\n        /* \"submissions/MeseretBirhanu/day15/GasSaver.sol\":734:1130  function register(address[] calldata _wallet ,string[] calldata _names, bool[] calldata _verified, uint8[] calldata _level) public {... */\n    tag_5:\n      callvalue\n      dup1\n      iszero\n      tag_23\n      jumpi\n      revert(0x00, 0x00)\n    tag_23:\n      pop\n      tag_24\n      0x04\n      dup1\n      calldatasize\n      sub\n      dup2\n      add\n      swap1\n      tag_25\n      swap2\n      swap1\n      tag_26\n      jump\t// in\n    tag_25:\n      tag_27\n      jump\t// in\n    tag_24:\n      stop\n        /* \"submissions/MeseretBirhanu/day15/GasSaver.sol\":195:215  address public owner */\n    tag_6:\n      callvalue\n      dup1\n      iszero\n      tag_28\n      jumpi\n      revert(0x00, 0x00)\n    tag_28:\n      pop\n      tag_29\n      tag_30\n      jump\t// in\n    tag_29:\n      mload(0x40)\n      tag_31\n      swap2\n      swap1\n      tag_32\n      jump\t// in\n    tag_31:\n      mload(0x40)\n      dup1\n      swap2\n      sub\n      swap1\n      return\n        /* \"submissions/MeseretBirhanu/day15/GasSaver.sol\":1136:1581  function reward(address _addr  ,uint256 _amount) public onlyOwner payable {... */\n    tag_10:\n        /* \"submissions/MeseretBirhanu/day15/GasSaver.sol\":672:677  owner */\n      0x01\n      0x00\n      swap1\n      sload\n      swap1\n      0x0100\n      exp\n      swap1\n      div\n      0xffffffffffffffffffffffffffffffffffffffff\n      and\n        /* \"submissions/MeseretBirhanu/day15/GasSaver.sol\":658:677  msg.sender == owner */\n      0xffffffffffffffffffffffffffffffffffffffff\n      and\n        /* \"submissions/MeseretBirhanu/day15/GasSaver.sol\":658:668  msg.sender */\n      caller\n        /* \"submissions/MeseretBirhanu/day15/GasSaver.sol\":658:677  msg.sender == owner */\n      0xffffffffffffffffffffffffffffffffffffffff\n      and\n      eq\n        /* \"submissions/MeseretBirhanu/day15/GasSaver.sol\":650:698  require(msg.sender == owner, \"only for owners!\") */\n      tag_34\n      jumpi\n      mload(0x40)\n      0x08c379a000000000000000000000000000000000000000000000000000000000\n      dup2\n      mstore\n      0x04\n      add\n      tag_35\n      swap1\n      tag_36\n      jump\t// in\n    tag_35:\n      mload(0x40)\n      dup1\n      swap2\n      sub\n      swap1\n      revert\n    tag_34:\n        /* \"submissions/MeseretBirhanu/day15/GasSaver.sol\":1258:1259  0 */\n      0x00\n        /* \"submissions/MeseretBirhanu/day15/GasSaver.sol\":1226:1260  records[_addr].wallet!= address(0) */\n      0xffffffffffffffffffffffffffffffffffffffff\n      and\n        /* \"submissions/MeseretBirhanu/day15/GasSaver.sol\":1226:1233  records */\n      0x02\n        /* \"submissions/MeseretBirhanu/day15/GasSaver.sol\":1226:1240  records[_addr] */\n      0x00\n        /* \"submissions/MeseretBirhanu/day15/GasSaver.sol\":1234:1239  _addr */\n      dup5\n        /* \"submissions/MeseretBirhanu/day15/GasSaver.sol\":1226:1240  records[_addr] */\n      0xffffffffffffffffffffffffffffffffffffffff\n      and\n      0xffffffffffffffffffffffffffffffffffffffff\n      and\n      dup2\n      mstore\n      0x20\n      add\n      swap1\n      dup2\n      mstore\n      0x20\n      add\n      0x00\n      keccak256\n        /* \"submissions/MeseretBirhanu/day15/GasSaver.sol\":1226:1247  records[_addr].wallet */\n      0x00\n      add\n      0x00\n      swap1\n      sload\n      swap1\n      0x0100\n      exp\n      swap1\n      div\n      0xffffffffffffffffffffffffffffffffffffffff\n      and\n        /* \"submissions/MeseretBirhanu/day15/GasSaver.sol\":1226:1260  records[_addr].wallet!= address(0) */\n      0xffffffffffffffffffffffffffffffffffffffff\n      and\n      eq\n        /* \"submissions/MeseretBirhanu/day15/GasSaver.sol\":1223:1313  if(records[_addr].wallet!= address(0)  ){... */\n      tag_38\n      jumpi\n        /* \"submissions/MeseretBirhanu/day15/GasSaver.sol\":1285:1301  NotContributor() */\n      mload(0x40)\n      0xd764187d00000000000000000000000000000000000000000000000000000000\n      dup2\n      mstore\n      0x04\n      add\n      mload(0x40)\n      dup1\n      swap2\n      sub\n      swap1\n      revert\n        /* \"submissions/MeseretBirhanu/day15/GasSaver.sol\":1223:1313  if(records[_addr].wallet!= address(0)  ){... */\n    tag_38:\n        /* \"submissions/MeseretBirhanu/day15/GasSaver.sol\":1323:1345  Contributor memory _to */\n      0x00\n        /* \"submissions/MeseretBirhanu/day15/GasSaver.sol\":1348:1355  records */\n      0x02\n        /* \"submissions/MeseretBirhanu/day15/GasSaver.sol\":1348:1362  records[_addr] */\n      0x00\n        /* \"submissions/MeseretBirhanu/day15/GasSaver.sol\":1356:1361  _addr */\n      dup5\n        /* \"submissions/MeseretBirhanu/day15/GasSaver.sol\":1348:1362  records[_addr] */\n      0xffffffffffffffffffffffffffffffffffffffff\n      and\n      0xffffffffffffffffffffffffffffffffffffffff\n      and\n      dup2\n      mstore\n      0x20\n      add\n      swap1\n      dup2\n      mstore\n      0x20\n      add\n      0x00\n      keccak256\n        /* \"submissions/MeseretBirhanu/day15/GasSaver.sol\":1323:1362  Contributor memory _to = records[_addr] */\n      mload(0x40)\n      dup1\n      0x80\n      add\n      0x40\n      mstore\n      swap1\n      dup2\n      0x00\n      dup3\n      add\n      0x00\n      swap1\n      sload\n      swap1\n      0x0100\n      exp\n      swap1\n      div\n      0xffffffffffffffffffffffffffffffffffffffff\n      and\n      0xffffffffffffffffffffffffffffffffffffffff\n      and\n      0xffffffffffffffffffffffffffffffffffffffff\n      and\n      dup2\n      mstore\n      0x20\n      add\n      0x00\n      dup3\n      add\n      0x14\n      swap1\n      sload\n      swap1\n      0x0100\n      exp\n      swap1\n      div\n      0xff\n      and\n      iszero\n      iszero\n      iszero\n      iszero\n      dup2\n      mstore\n      0x20\n      add\n      0x00\n      dup3\n      add\n      0x15\n      swap1\n      sload\n      swap1\n      0x0100\n      exp\n      swap1\n      div\n      0xff\n      and\n      0xff\n      and\n      0xff\n      and\n      dup2\n      mstore\n      0x20\n      add\n      0x01\n      dup3\n      add\n      dup1\n      sload\n      tag_39\n      swap1\n      tag_40\n      jump\t// in\n    tag_39:\n      dup1\n      0x1f\n      add\n      0x20\n      dup1\n      swap2\n      div\n      mul\n      0x20\n      add\n      mload(0x40)\n      swap1\n      dup2\n      add\n      0x40\n      mstore\n      dup1\n      swap3\n      swap2\n      swap1\n      dup2\n      dup2\n      mstore\n      0x20\n      add\n      dup3\n      dup1\n      sload\n      tag_41\n      swap1\n      tag_40\n      jump\t// in\n    tag_41:\n      dup1\n      iszero\n      tag_42\n      jumpi\n      dup1\n      0x1f\n      lt\n      tag_43\n      jumpi\n      0x0100\n      dup1\n      dup4\n      sload\n      div\n      mul\n      dup4\n      mstore\n      swap2\n      0x20\n      add\n      swap2\n      jump(tag_42)\n    tag_43:\n      dup3\n      add\n      swap2\n      swap1\n      0x00\n      mstore\n      keccak256(0x00, 0x20)\n      swap1\n    tag_44:\n      dup2\n      sload\n      dup2\n      mstore\n      swap1\n      0x01\n      add\n      swap1\n      0x20\n      add\n      dup1\n      dup4\n      gt\n      tag_44\n      jumpi\n      dup3\n      swap1\n      sub\n      0x1f\n      and\n      dup3\n      add\n      swap2\n    tag_42:\n      pop\n      pop\n      pop\n      pop\n      pop\n      dup2\n      mstore\n      pop\n      pop\n      swap1\n      pop\n        /* \"submissions/MeseretBirhanu/day15/GasSaver.sol\":1381:1384  _to */\n      dup1\n        /* \"submissions/MeseretBirhanu/day15/GasSaver.sol\":1381:1395  _to.isVerified */\n      0x20\n      add\n      mload\n        /* \"submissions/MeseretBirhanu/day15/GasSaver.sol\":1373:1414  require(_to.isVerified , \"not verified!\") */\n      tag_45\n      jumpi\n      mload(0x40)\n      0x08c379a000000000000000000000000000000000000000000000000000000000\n      dup2\n      mstore\n      0x04\n      add\n      tag_46\n      swap1\n      tag_47\n      jump\t// in\n    tag_46:\n      mload(0x40)\n      dup1\n      swap2\n      sub\n      swap1\n      revert\n    tag_45:\n        /* \"submissions/MeseretBirhanu/day15/GasSaver.sol\":1426:1438  bool success */\n      0x00\n        /* \"submissions/MeseretBirhanu/day15/GasSaver.sol\":1441:1454  tokenContract */\n      0x00\n      0x00\n      swap1\n      sload\n      swap1\n      0x0100\n      exp\n      swap1\n      div\n      0xffffffffffffffffffffffffffffffffffffffff\n      and\n        /* \"submissions/MeseretBirhanu/day15/GasSaver.sol\":1441:1463  tokenContract.transfer */\n      0xffffffffffffffffffffffffffffffffffffffff\n      and\n      0xa9059cbb\n        /* \"submissions/MeseretBirhanu/day15/GasSaver.sol\":1464:1469  _addr */\n      dup6\n        /* \"submissions/MeseretBirhanu/day15/GasSaver.sol\":1471:1478  _amount */\n      dup6\n        /* \"submissions/MeseretBirhanu/day15/GasSaver.sol\":1441:1479  tokenContract.transfer(_addr, _amount) */\n      mload(0x40)\n      dup4\n      0xffffffff\n      and\n      0xe0\n      shl\n      dup2\n      mstore\n      0x04\n      add\n      tag_48\n      swap3\n      swap2\n      swap1\n      tag_49\n      jump\t// in\n    tag_48:\n      0x20\n      mload(0x40)\n      dup1\n      dup4\n      sub\n      dup2\n      0x00\n      dup8\n      gas\n      call\n      iszero\n      dup1\n      iszero\n      tag_51\n      jumpi\n      returndatacopy(0x00, 0x00, returndatasize)\n      revert(0x00, returndatasize)\n    tag_51:\n      pop\n      pop\n      pop\n      pop\n      mload(0x40)\n      returndatasize\n      not(0x1f)\n      0x1f\n      dup3\n      add\n      and\n      dup3\n      add\n      dup1\n      0x40\n      mstore\n      pop\n      dup2\n      add\n      swap1\n      tag_52\n      swap2\n      swap1\n      tag_53\n      jump\t// in\n    tag_52:\n        /* \"submissions/MeseretBirhanu/day15/GasSaver.sol\":1426:1479  bool success = tokenContract.transfer(_addr, _amount) */\n      swap1\n      pop\n        /* \"submissions/MeseretBirhanu/day15/GasSaver.sol\":1494:1501  success */\n      dup1\n        /* \"submissions/MeseretBirhanu/day15/GasSaver.sol\":1486:1526  require(success, \"ATH transfer failed!\") */\n      tag_54\n      jumpi\n      mload(0x40)\n      0x08c379a000000000000000000000000000000000000000000000000000000000\n      dup2\n      mstore\n      0x04\n      add\n      tag_55\n      swap1\n      tag_56\n      jump\t// in\n    tag_55:\n      mload(0x40)\n      dup1\n      swap2\n      sub\n      swap1\n      revert\n    tag_54:\n        /* \"submissions/MeseretBirhanu/day15/GasSaver.sol\":1539:1571  sentReward(_to.name ,msg.value ) */\n      0xa841c12702c4cd6ea8c369f0e7e906600c667854d8c4c38a63a787d901058ff2\n        /* \"submissions/MeseretBirhanu/day15/GasSaver.sol\":1550:1553  _to */\n      dup3\n        /* \"submissions/MeseretBirhanu/day15/GasSaver.sol\":1550:1558  _to.name */\n      0x60\n      add\n      mload\n        /* \"submissions/MeseretBirhanu/day15/GasSaver.sol\":1560:1569  msg.value */\n      callvalue\n        /* \"submissions/MeseretBirhanu/day15/GasSaver.sol\":1539:1571  sentReward(_to.name ,msg.value ) */\n      mload(0x40)\n      tag_57\n      swap3\n      swap2\n      swap1\n      tag_58\n      jump\t// in\n    tag_57:\n      mload(0x40)\n      dup1\n      swap2\n      sub\n      swap1\n      log1\n        /* \"submissions/MeseretBirhanu/day15/GasSaver.sol\":1210:1581  {... */\n      pop\n      pop\n        /* \"submissions/MeseretBirhanu/day15/GasSaver.sol\":1136:1581  function reward(address _addr  ,uint256 _amount) public onlyOwner payable {... */\n      pop\n      pop\n      jump\t// out\n        /* \"submissions/MeseretBirhanu/day15/GasSaver.sol\":352:398  mapping(address => Contributor) public records */\n    tag_15:\n      mstore(0x20, 0x02)\n      dup1\n      0x00\n      mstore\n      keccak256(0x00, 0x40)\n      0x00\n      swap2\n      pop\n      swap1\n      pop\n      dup1\n      0x00\n      add\n      0x00\n      swap1\n      sload\n      swap1\n      0x0100\n      exp\n      swap1\n      div\n      0xffffffffffffffffffffffffffffffffffffffff\n      and\n      swap1\n      dup1\n      0x00\n      add\n      0x14\n      swap1\n      sload\n      swap1\n      0x0100\n      exp\n      swap1\n      div\n      0xff\n      and\n      swap1\n      dup1\n      0x00\n      add\n      0x15\n      swap1\n      sload\n      swap1\n      0x0100\n      exp\n      swap1\n      div\n      0xff\n      and\n      swap1\n      dup1\n      0x01\n      add\n      dup1\n      sload\n      tag_59\n      swap1\n      tag_40\n      jump\t// in\n    tag_59:\n      dup1\n      0x1f\n      add\n      0x20\n      dup1\n      swap2\n      div\n      mul\n      0x20\n      add\n      mload(0x40)\n      swap1\n      dup2\n      add\n      0x40\n      mstore\n      dup1\n      swap3\n      swap2\n      swap1\n      dup2\n      dup2\n      mstore\n      0x20\n      add\n      dup3\n      dup1\n      sload\n      tag_60\n      swap1\n      tag_40\n      jump\t// in\n    tag_60:\n      dup1\n      iszero\n      tag_61\n      jumpi\n      dup1\n      0x1f\n      lt\n      tag_62\n      jumpi\n      0x0100\n      dup1\n      dup4\n      sload\n      div\n      mul\n      dup4\n      mstore\n      swap2\n      0x20\n      add\n      swap2\n      jump(tag_61)\n    tag_62:\n      dup3\n      add\n      swap2\n      swap1\n      0x00\n      mstore\n      keccak256(0x00, 0x20)\n      swap1\n    tag_63:\n      dup2\n      sload\n      dup2\n      mstore\n      swap1\n      0x01\n      add\n      swap1\n      0x20\n      add\n      dup1\n      dup4\n      gt\n      tag_63\n      jumpi\n      dup3\n      swap1\n      sub\n      0x1f\n      and\n      dup3\n      add\n      swap2\n    tag_61:\n      pop\n      pop\n      pop\n      pop\n      pop\n      swap1\n      pop\n      dup5\n      jump\t// out\n        /* \"submissions/MeseretBirhanu/day15/GasSaver.sol\":156:188  AthenaToken public tokenContract */\n    tag_20:\n      0x00\n      0x00\n      swap1\n      sload\n      swap1\n      0x0100\n      exp\n      swap1\n      div\n      0xffffffffffffffffffffffffffffffffffffffff\n      and\n      dup2\n      jump\t// out\n        /* \"submissions/MeseretBirhanu/day15/GasSaver.sol\":734:1130  function register(address[] calldata _wallet ,string[] calldata _names, bool[] calldata _verified, uint8[] calldata _level) public {... */\n    tag_27:\n        /* \"submissions/MeseretBirhanu/day15/GasSaver.sol\":876:890  uint256 length */\n      0x00\n        /* \"submissions/MeseretBirhanu/day15/GasSaver.sol\":893:899  _names */\n      dup7\n      dup7\n        /* \"submissions/MeseretBirhanu/day15/GasSaver.sol\":893:906  _names.length */\n      swap1\n      pop\n        /* \"submissions/MeseretBirhanu/day15/GasSaver.sol\":876:906  uint256 length = _names.length */\n      swap1\n      pop\n        /* \"submissions/MeseretBirhanu/day15/GasSaver.sol\":921:930  uint256 i */\n      0x00\n        /* \"submissions/MeseretBirhanu/day15/GasSaver.sol\":932:933  0 */\n      0x00\n        /* \"submissions/MeseretBirhanu/day15/GasSaver.sol\":921:933  uint256 i =0 */\n      swap1\n      pop\n        /* \"submissions/MeseretBirhanu/day15/GasSaver.sol\":917:1123  for(uint256 i =0; i< length; i++){... */\n    tag_65:\n        /* \"submissions/MeseretBirhanu/day15/GasSaver.sol\":938:944  length */\n      dup2\n        /* \"submissions/MeseretBirhanu/day15/GasSaver.sol\":935:936  i */\n      dup2\n        /* \"submissions/MeseretBirhanu/day15/GasSaver.sol\":935:944  i< length */\n      lt\n        /* \"submissions/MeseretBirhanu/day15/GasSaver.sol\":917:1123  for(uint256 i =0; i< length; i++){... */\n      iszero\n      tag_66\n      jumpi\n        /* \"submissions/MeseretBirhanu/day15/GasSaver.sol\":988:1050  Contributor(_wallet[i] , _verified[i] , _level[i] ,_names[i] ) */\n      mload(0x40)\n      dup1\n      0x80\n      add\n      0x40\n      mstore\n      dup1\n        /* \"submissions/MeseretBirhanu/day15/GasSaver.sol\":1000:1007  _wallet */\n      dup12\n      dup12\n        /* \"submissions/MeseretBirhanu/day15/GasSaver.sol\":1008:1009  i */\n      dup5\n        /* \"submissions/MeseretBirhanu/day15/GasSaver.sol\":1000:1010  _wallet[i] */\n      dup2\n      dup2\n      lt\n      tag_68\n      jumpi\n      tag_69\n      tag_70\n      jump\t// in\n    tag_69:\n    tag_68:\n      swap1\n      pop\n      0x20\n      mul\n      add\n      0x20\n      dup2\n      add\n      swap1\n      tag_71\n      swap2\n      swap1\n      tag_14\n      jump\t// in\n    tag_71:\n        /* \"submissions/MeseretBirhanu/day15/GasSaver.sol\":988:1050  Contributor(_wallet[i] , _verified[i] , _level[i] ,_names[i] ) */\n      0xffffffffffffffffffffffffffffffffffffffff\n      and\n      dup2\n      mstore\n      0x20\n      add\n        /* \"submissions/MeseretBirhanu/day15/GasSaver.sol\":1013:1022  _verified */\n      dup8\n      dup8\n        /* \"submissions/MeseretBirhanu/day15/GasSaver.sol\":1023:1024  i */\n      dup5\n        /* \"submissions/MeseretBirhanu/day15/GasSaver.sol\":1013:1025  _verified[i] */\n      dup2\n      dup2\n      lt\n      tag_72\n      jumpi\n      tag_73\n      tag_70\n      jump\t// in\n    tag_73:\n    tag_72:\n      swap1\n      pop\n      0x20\n      mul\n      add\n      0x20\n      dup2\n      add\n      swap1\n      tag_74\n      swap2\n      swap1\n      tag_75\n      jump\t// in\n    tag_74:\n        /* \"submissions/MeseretBirhanu/day15/GasSaver.sol\":988:1050  Contributor(_wallet[i] , _verified[i] , _level[i] ,_names[i] ) */\n      iszero\n      iszero\n      dup2\n      mstore\n      0x20\n      add\n        /* \"submissions/MeseretBirhanu/day15/GasSaver.sol\":1028:1034  _level */\n      dup6\n      dup6\n        /* \"submissions/MeseretBirhanu/day15/GasSaver.sol\":1035:1036  i */\n      dup5\n        /* \"submissions/MeseretBirhanu/day15/GasSaver.sol\":1028:1037  _level[i] */\n      dup2\n      dup2\n      lt\n      tag_76\n      jumpi\n      tag_77\n      tag_70\n      jump\t// in\n    tag_77:\n    tag_76:\n      swap1\n      pop\n      0x20\n      mul\n      add\n      0x20\n      dup2\n      add\n      swap1\n      tag_78\n      swap2\n      swap1\n      tag_79\n      jump\t// in\n    tag_78:\n        /* \"submissions/MeseretBirhanu/day15/GasSaver.sol\":988:1050  Contributor(_wallet[i] , _verified[i] , _level[i] ,_names[i] ) */\n      0xff\n      and\n      dup2\n      mstore\n      0x20\n      add\n        /* \"submissions/MeseretBirhanu/day15/GasSaver.sol\":1039:1045  _names */\n      dup10\n      dup10\n        /* \"submissions/MeseretBirhanu/day15/GasSaver.sol\":1046:1047  i */\n      dup5\n        /* \"submissions/MeseretBirhanu/day15/GasSaver.sol\":1039:1048  _names[i] */\n      dup2\n      dup2\n      lt\n      tag_80\n      jumpi\n      tag_81\n      tag_70\n      jump\t// in\n    tag_81:\n    tag_80:\n      swap1\n      pop\n      0x20\n      mul\n      dup2\n      add\n      swap1\n      tag_82\n      swap2\n      swap1\n      tag_83\n      jump\t// in\n    tag_82:\n        /* \"submissions/MeseretBirhanu/day15/GasSaver.sol\":988:1050  Contributor(_wallet[i] , _verified[i] , _level[i] ,_names[i] ) */\n      dup1\n      dup1\n      0x1f\n      add\n      0x20\n      dup1\n      swap2\n      div\n      mul\n      0x20\n      add\n      mload(0x40)\n      swap1\n      dup2\n      add\n      0x40\n      mstore\n      dup1\n      swap4\n      swap3\n      swap2\n      swap1\n      dup2\n      dup2\n      mstore\n      0x20\n      add\n      dup4\n      dup4\n      dup1\n      dup3\n      dup5\n      calldatacopy\n      0x00\n      dup2\n      dup5\n      add\n      mstore\n      not(0x1f)\n      0x1f\n      dup3\n      add\n      and\n      swap1\n      pop\n      dup1\n      dup4\n      add\n      swap3\n      pop\n      pop\n      pop\n      pop\n      pop\n      pop\n      pop\n      dup2\n      mstore\n      pop\n        /* \"submissions/MeseretBirhanu/day15/GasSaver.sol\":966:973  records */\n      0x02\n        /* \"submissions/MeseretBirhanu/day15/GasSaver.sol\":966:985  records[_wallet[i]] */\n      0x00\n        /* \"submissions/MeseretBirhanu/day15/GasSaver.sol\":974:981  _wallet */\n      dup13\n      dup13\n        /* \"submissions/MeseretBirhanu/day15/GasSaver.sol\":982:983  i */\n      dup6\n        /* \"submissions/MeseretBirhanu/day15/GasSaver.sol\":974:984  _wallet[i] */\n      dup2\n      dup2\n      lt\n      tag_84\n      jumpi\n      tag_85\n      tag_70\n      jump\t// in\n    tag_85:\n    tag_84:\n      swap1\n      pop\n      0x20\n      mul\n      add\n      0x20\n      dup2\n      add\n      swap1\n      tag_86\n      swap2\n      swap1\n      tag_14\n      jump\t// in\n    tag_86:\n        /* \"submissions/MeseretBirhanu/day15/GasSaver.sol\":966:985  records[_wallet[i]] */\n      0xffffffffffffffffffffffffffffffffffffffff\n      and\n      0xffffffffffffffffffffffffffffffffffffffff\n      and\n      dup2\n      mstore\n      0x20\n      add\n      swap1\n      dup2\n      mstore\n      0x20\n      add\n      0x00\n      keccak256\n        /* \"submissions/MeseretBirhanu/day15/GasSaver.sol\":966:1050  records[_wallet[i]] = Contributor(_wallet[i] , _verified[i] , _level[i] ,_names[i] ) */\n      0x00\n      dup3\n      add\n      mload\n      dup2\n      0x00\n      add\n      exp(0x0100, 0x00)\n      dup2\n      sload\n      dup2\n      0xffffffffffffffffffffffffffffffffffffffff\n      mul\n      not\n      and\n      swap1\n      dup4\n      0xffffffffffffffffffffffffffffffffffffffff\n      and\n      mul\n      or\n      swap1\n      sstore\n      pop\n      0x20\n      dup3\n      add\n      mload\n      dup2\n      0x00\n      add\n      exp(0x0100, 0x14)\n      dup2\n      sload\n      dup2\n      0xff\n      mul\n      not\n      and\n      swap1\n      dup4\n      iszero\n      iszero\n      mul\n      or\n      swap1\n      sstore\n      pop\n      0x40\n      dup3\n      add\n      mload\n      dup2\n      0x00\n      add\n      exp(0x0100, 0x15)\n      dup2\n      sload\n      dup2\n      0xff\n      mul\n      not\n      and\n      swap1\n      dup4\n      0xff\n      and\n      mul\n      or\n      swap1\n      sstore\n      pop\n      0x60\n      dup3\n      add\n      mload\n      dup2\n      0x01\n      add\n      swap1\n      dup2\n      tag_87\n      swap2\n      swap1\n      tag_88\n      jump\t// in\n    tag_87:\n      pop\n      swap1\n      pop\n      pop\n        /* \"submissions/MeseretBirhanu/day15/GasSaver.sol\":1085:1092  _wallet */\n      dup10\n      dup10\n        /* \"submissions/MeseretBirhanu/day15/GasSaver.sol\":1093:1094  i */\n      dup3\n        /* \"submissions/MeseretBirhanu/day15/GasSaver.sol\":1085:1095  _wallet[i] */\n      dup2\n      dup2\n      lt\n      tag_89\n      jumpi\n      tag_90\n      tag_70\n      jump\t// in\n    tag_90:\n    tag_89:\n      swap1\n      pop\n      0x20\n      mul\n      add\n      0x20\n      dup2\n      add\n      swap1\n      tag_91\n      swap2\n      swap1\n      tag_14\n      jump\t// in\n    tag_91:\n        /* \"submissions/MeseretBirhanu/day15/GasSaver.sol\":1070:1109  addContributor(_wallet[i] , _names[i] ) */\n      0xffffffffffffffffffffffffffffffffffffffff\n      and\n      0x21f0ef8ecb39babd1f22ce5ea02510839dbcf939b6ba195a9f8bc7442aca5a0e\n        /* \"submissions/MeseretBirhanu/day15/GasSaver.sol\":1098:1104  _names */\n      dup10\n      dup10\n        /* \"submissions/MeseretBirhanu/day15/GasSaver.sol\":1105:1106  i */\n      dup5\n        /* \"submissions/MeseretBirhanu/day15/GasSaver.sol\":1098:1107  _names[i] */\n      dup2\n      dup2\n      lt\n      tag_92\n      jumpi\n      tag_93\n      tag_70\n      jump\t// in\n    tag_93:\n    tag_92:\n      swap1\n      pop\n      0x20\n      mul\n      dup2\n      add\n      swap1\n      tag_94\n      swap2\n      swap1\n      tag_83\n      jump\t// in\n    tag_94:\n        /* \"submissions/MeseretBirhanu/day15/GasSaver.sol\":1070:1109  addContributor(_wallet[i] , _names[i] ) */\n      mload(0x40)\n      tag_95\n      swap3\n      swap2\n      swap1\n      tag_96\n      jump\t// in\n    tag_95:\n      mload(0x40)\n      dup1\n      swap2\n      sub\n      swap1\n      log2\n        /* \"submissions/MeseretBirhanu/day15/GasSaver.sol\":946:949  i++ */\n      dup1\n      dup1\n      0x01\n      add\n      swap2\n      pop\n      pop\n        /* \"submissions/MeseretBirhanu/day15/GasSaver.sol\":917:1123  for(uint256 i =0; i< length; i++){... */\n      jump(tag_65)\n    tag_66:\n      pop\n        /* \"submissions/MeseretBirhanu/day15/GasSaver.sol\":865:1130  {... */\n      pop\n        /* \"submissions/MeseretBirhanu/day15/GasSaver.sol\":734:1130  function register(address[] calldata _wallet ,string[] calldata _names, bool[] calldata _verified, uint8[] calldata _level) public {... */\n      pop\n      pop\n      pop\n      pop\n      pop\n      pop\n      pop\n      pop\n      jump\t// out\n        /* \"submissions/MeseretBirhanu/day15/GasSaver.sol\":195:215  address public owner */\n    tag_30:\n      0x01\n      0x00\n      swap1\n      sload\n      swap1\n      0x0100\n      exp\n      swap1\n      div\n      0xffffffffffffffffffffffffffffffffffffffff\n      and\n      dup2\n      jump\t// out\n        /* \"#utility.yul\":88:205   */\n    tag_98:\n        /* \"#utility.yul\":197:198   */\n      0x00\n        /* \"#utility.yul\":194:195   */\n      0x00\n        /* \"#utility.yul\":187:199   */\n      revert\n        /* \"#utility.yul\":211:328   */\n    tag_99:\n        /* \"#utility.yul\":320:321   */\n      0x00\n        /* \"#utility.yul\":317:318   */\n      0x00\n        /* \"#utility.yul\":310:322   */\n      revert\n        /* \"#utility.yul\":334:460   */\n    tag_100:\n        /* \"#utility.yul\":371:378   */\n      0x00\n        /* \"#utility.yul\":411:453   */\n      0xffffffffffffffffffffffffffffffffffffffff\n        /* \"#utility.yul\":404:409   */\n      dup3\n        /* \"#utility.yul\":400:454   */\n      and\n        /* \"#utility.yul\":389:454   */\n      swap1\n      pop\n        /* \"#utility.yul\":334:460   */\n      swap2\n      swap1\n      pop\n      jump\t// out\n        /* \"#utility.yul\":466:562   */\n    tag_101:\n        /* \"#utility.yul\":503:510   */\n      0x00\n        /* \"#utility.yul\":532:556   */\n      tag_168\n        /* \"#utility.yul\":550:555   */\n      dup3\n        /* \"#utility.yul\":532:556   */\n      tag_100\n      jump\t// in\n    tag_168:\n        /* \"#utility.yul\":521:556   */\n      swap1\n      pop\n        /* \"#utility.yul\":466:562   */\n      swap2\n      swap1\n      pop\n      jump\t// out\n        /* \"#utility.yul\":568:690   */\n    tag_102:\n        /* \"#utility.yul\":641:665   */\n      tag_170\n        /* \"#utility.yul\":659:664   */\n      dup2\n        /* \"#utility.yul\":641:665   */\n      tag_101\n      jump\t// in\n    tag_170:\n        /* \"#utility.yul\":634:639   */\n      dup2\n        /* \"#utility.yul\":631:666   */\n      eq\n        /* \"#utility.yul\":621:684   */\n      tag_171\n      jumpi\n        /* \"#utility.yul\":680:681   */\n      0x00\n        /* \"#utility.yul\":677:678   */\n      0x00\n        /* \"#utility.yul\":670:682   */\n      revert\n        /* \"#utility.yul\":621:684   */\n    tag_171:\n        /* \"#utility.yul\":568:690   */\n      pop\n      jump\t// out\n        /* \"#utility.yul\":696:835   */\n    tag_103:\n        /* \"#utility.yul\":742:747   */\n      0x00\n        /* \"#utility.yul\":780:786   */\n      dup2\n        /* \"#utility.yul\":767:787   */\n      calldataload\n        /* \"#utility.yul\":758:787   */\n      swap1\n      pop\n        /* \"#utility.yul\":796:829   */\n      tag_173\n        /* \"#utility.yul\":823:828   */\n      dup2\n        /* \"#utility.yul\":796:829   */\n      tag_102\n      jump\t// in\n    tag_173:\n        /* \"#utility.yul\":696:835   */\n      swap3\n      swap2\n      pop\n      pop\n      jump\t// out\n        /* \"#utility.yul\":841:918   */\n    tag_104:\n        /* \"#utility.yul\":878:885   */\n      0x00\n        /* \"#utility.yul\":907:912   */\n      dup2\n        /* \"#utility.yul\":896:912   */\n      swap1\n      pop\n        /* \"#utility.yul\":841:918   */\n      swap2\n      swap1\n      pop\n      jump\t// out\n        /* \"#utility.yul\":924:1046   */\n    tag_105:\n        /* \"#utility.yul\":997:1021   */\n      tag_176\n        /* \"#utility.yul\":1015:1020   */\n      dup2\n        /* \"#utility.yul\":997:1021   */\n      tag_104\n      jump\t// in\n    tag_176:\n        /* \"#utility.yul\":990:995   */\n      dup2\n        /* \"#utility.yul\":987:1022   */\n      eq\n        /* \"#utility.yul\":977:1040   */\n      tag_177\n      jumpi\n        /* \"#utility.yul\":1036:1037   */\n      0x00\n        /* \"#utility.yul\":1033:1034   */\n      0x00\n        /* \"#utility.yul\":1026:1038   */\n      revert\n        /* \"#utility.yul\":977:1040   */\n    tag_177:\n        /* \"#utility.yul\":924:1046   */\n      pop\n      jump\t// out\n        /* \"#utility.yul\":1052:1191   */\n    tag_106:\n        /* \"#utility.yul\":1098:1103   */\n      0x00\n        /* \"#utility.yul\":1136:1142   */\n      dup2\n        /* \"#utility.yul\":1123:1143   */\n      calldataload\n        /* \"#utility.yul\":1114:1143   */\n      swap1\n      pop\n        /* \"#utility.yul\":1152:1185   */\n      tag_179\n        /* \"#utility.yul\":1179:1184   */\n      dup2\n        /* \"#utility.yul\":1152:1185   */\n      tag_105\n      jump\t// in\n    tag_179:\n        /* \"#utility.yul\":1052:1191   */\n      swap3\n      swap2\n      pop\n      pop\n      jump\t// out\n        /* \"#utility.yul\":1197:1671   */\n    tag_9:\n        /* \"#utility.yul\":1265:1271   */\n      0x00\n        /* \"#utility.yul\":1273:1279   */\n      0x00\n        /* \"#utility.yul\":1322:1324   */\n      0x40\n        /* \"#utility.yul\":1310:1319   */\n      dup4\n        /* \"#utility.yul\":1301:1308   */\n      dup6\n        /* \"#utility.yul\":1297:1320   */\n      sub\n        /* \"#utility.yul\":1293:1325   */\n      slt\n        /* \"#utility.yul\":1290:1409   */\n      iszero\n      tag_181\n      jumpi\n        /* \"#utility.yul\":1328:1407   */\n      tag_182\n      tag_98\n      jump\t// in\n    tag_182:\n        /* \"#utility.yul\":1290:1409   */\n    tag_181:\n        /* \"#utility.yul\":1448:1449   */\n      0x00\n        /* \"#utility.yul\":1473:1526   */\n      tag_183\n        /* \"#utility.yul\":1518:1525   */\n      dup6\n        /* \"#utility.yul\":1509:1515   */\n      dup3\n        /* \"#utility.yul\":1498:1507   */\n      dup7\n        /* \"#utility.yul\":1494:1516   */\n      add\n        /* \"#utility.yul\":1473:1526   */\n      tag_103\n      jump\t// in\n    tag_183:\n        /* \"#utility.yul\":1463:1526   */\n      swap3\n      pop\n        /* \"#utility.yul\":1419:1536   */\n      pop\n        /* \"#utility.yul\":1575:1577   */\n      0x20\n        /* \"#utility.yul\":1601:1654   */\n      tag_184\n        /* \"#utility.yul\":1646:1653   */\n      dup6\n        /* \"#utility.yul\":1637:1643   */\n      dup3\n        /* \"#utility.yul\":1626:1635   */\n      dup7\n        /* \"#utility.yul\":1622:1644   */\n      add\n        /* \"#utility.yul\":1601:1654   */\n      tag_106\n      jump\t// in\n    tag_184:\n        /* \"#utility.yul\":1591:1654   */\n      swap2\n      pop\n        /* \"#utility.yul\":1546:1664   */\n      pop\n        /* \"#utility.yul\":1197:1671   */\n      swap3\n      pop\n      swap3\n      swap1\n      pop\n      jump\t// out\n        /* \"#utility.yul\":1677:2006   */\n    tag_14:\n        /* \"#utility.yul\":1736:1742   */\n      0x00\n        /* \"#utility.yul\":1785:1787   */\n      0x20\n        /* \"#utility.yul\":1773:1782   */\n      dup3\n        /* \"#utility.yul\":1764:1771   */\n      dup5\n        /* \"#utility.yul\":1760:1783   */\n      sub\n        /* \"#utility.yul\":1756:1788   */\n      slt\n        /* \"#utility.yul\":1753:1872   */\n      iszero\n      tag_186\n      jumpi\n        /* \"#utility.yul\":1791:1870   */\n      tag_187\n      tag_98\n      jump\t// in\n    tag_187:\n        /* \"#utility.yul\":1753:1872   */\n    tag_186:\n        /* \"#utility.yul\":1911:1912   */\n      0x00\n        /* \"#utility.yul\":1936:1989   */\n      tag_188\n        /* \"#utility.yul\":1981:1988   */\n      dup5\n        /* \"#utility.yul\":1972:1978   */\n      dup3\n        /* \"#utility.yul\":1961:1970   */\n      dup6\n        /* \"#utility.yul\":1957:1979   */\n      add\n        /* \"#utility.yul\":1936:1989   */\n      tag_103\n      jump\t// in\n    tag_188:\n        /* \"#utility.yul\":1926:1989   */\n      swap2\n      pop\n        /* \"#utility.yul\":1882:1999   */\n      pop\n        /* \"#utility.yul\":1677:2006   */\n      swap3\n      swap2\n      pop\n      pop\n      jump\t// out\n        /* \"#utility.yul\":2012:2130   */\n    tag_107:\n        /* \"#utility.yul\":2099:2123   */\n      tag_190\n        /* \"#utility.yul\":2117:2122   */\n      dup2\n        /* \"#utility.yul\":2099:2123   */\n      tag_101\n      jump\t// in\n    tag_190:\n        /* \"#utility.yul\":2094:2097   */\n      dup3\n        /* \"#utility.yul\":2087:2124   */\n      mstore\n        /* \"#utility.yul\":2012:2130   */\n      pop\n      pop\n      jump\t// out\n        /* \"#utility.yul\":2136:2226   */\n    tag_108:\n        /* \"#utility.yul\":2170:2177   */\n      0x00\n        /* \"#utility.yul\":2213:2218   */\n      dup2\n        /* \"#utility.yul\":2206:2219   */\n      iszero\n        /* \"#utility.yul\":2199:2220   */\n      iszero\n        /* \"#utility.yul\":2188:2220   */\n      swap1\n      pop\n        /* \"#utility.yul\":2136:2226   */\n      swap2\n      swap1\n      pop\n      jump\t// out\n        /* \"#utility.yul\":2232:2341   */\n    tag_109:\n        /* \"#utility.yul\":2313:2334   */\n      tag_193\n        /* \"#utility.yul\":2328:2333   */\n      dup2\n        /* \"#utility.yul\":2313:2334   */\n      tag_108\n      jump\t// in\n    tag_193:\n        /* \"#utility.yul\":2308:2311   */\n      dup3\n        /* \"#utility.yul\":2301:2335   */\n      mstore\n        /* \"#utility.yul\":2232:2341   */\n      pop\n      pop\n      jump\t// out\n        /* \"#utility.yul\":2347:2433   */\n    tag_110:\n        /* \"#utility.yul\":2382:2389   */\n      0x00\n        /* \"#utility.yul\":2422:2426   */\n      0xff\n        /* \"#utility.yul\":2415:2420   */\n      dup3\n        /* \"#utility.yul\":2411:2427   */\n      and\n        /* \"#utility.yul\":2400:2427   */\n      swap1\n      pop\n        /* \"#utility.yul\":2347:2433   */\n      swap2\n      swap1\n      pop\n      jump\t// out\n        /* \"#utility.yul\":2439:2551   */\n    tag_111:\n        /* \"#utility.yul\":2522:2544   */\n      tag_196\n        /* \"#utility.yul\":2538:2543   */\n      dup2\n        /* \"#utility.yul\":2522:2544   */\n      tag_110\n      jump\t// in\n    tag_196:\n        /* \"#utility.yul\":2517:2520   */\n      dup3\n        /* \"#utility.yul\":2510:2545   */\n      mstore\n        /* \"#utility.yul\":2439:2551   */\n      pop\n      pop\n      jump\t// out\n        /* \"#utility.yul\":2557:2656   */\n    tag_112:\n        /* \"#utility.yul\":2609:2615   */\n      0x00\n        /* \"#utility.yul\":2643:2648   */\n      dup2\n        /* \"#utility.yul\":2637:2649   */\n      mload\n        /* \"#utility.yul\":2627:2649   */\n      swap1\n      pop\n        /* \"#utility.yul\":2557:2656   */\n      swap2\n      swap1\n      pop\n      jump\t// out\n        /* \"#utility.yul\":2662:2831   */\n    tag_113:\n        /* \"#utility.yul\":2746:2757   */\n      0x00\n        /* \"#utility.yul\":2780:2786   */\n      dup3\n        /* \"#utility.yul\":2775:2778   */\n      dup3\n        /* \"#utility.yul\":2768:2787   */\n      mstore\n        /* \"#utility.yul\":2820:2824   */\n      0x20\n        /* \"#utility.yul\":2815:2818   */\n      dup3\n        /* \"#utility.yul\":2811:2825   */\n      add\n        /* \"#utility.yul\":2796:2825   */\n      swap1\n      pop\n        /* \"#utility.yul\":2662:2831   */\n      swap3\n      swap2\n      pop\n      pop\n      jump\t// out\n        /* \"#utility.yul\":2837:2976   */\n    tag_114:\n        /* \"#utility.yul\":2926:2932   */\n      dup3\n        /* \"#utility.yul\":2921:2924   */\n      dup2\n        /* \"#utility.yul\":2916:2919   */\n      dup4\n        /* \"#utility.yul\":2910:2933   */\n      mcopy\n        /* \"#utility.yul\":2967:2968   */\n      0x00\n        /* \"#utility.yul\":2958:2964   */\n      dup4\n        /* \"#utility.yul\":2953:2956   */\n      dup4\n        /* \"#utility.yul\":2949:2965   */\n      add\n        /* \"#utility.yul\":2942:2969   */\n      mstore\n        /* \"#utility.yul\":2837:2976   */\n      pop\n      pop\n      pop\n      jump\t// out\n        /* \"#utility.yul\":2982:3084   */\n    tag_115:\n        /* \"#utility.yul\":3023:3029   */\n      0x00\n        /* \"#utility.yul\":3074:3076   */\n      0x1f\n        /* \"#utility.yul\":3070:3077   */\n      not\n        /* \"#utility.yul\":3065:3067   */\n      0x1f\n        /* \"#utility.yul\":3058:3063   */\n      dup4\n        /* \"#utility.yul\":3054:3068   */\n      add\n        /* \"#utility.yul\":3050:3078   */\n      and\n        /* \"#utility.yul\":3040:3078   */\n      swap1\n      pop\n        /* \"#utility.yul\":2982:3084   */\n      swap2\n      swap1\n      pop\n      jump\t// out\n        /* \"#utility.yul\":3090:3467   */\n    tag_116:\n        /* \"#utility.yul\":3178:3181   */\n      0x00\n        /* \"#utility.yul\":3206:3245   */\n      tag_202\n        /* \"#utility.yul\":3239:3244   */\n      dup3\n        /* \"#utility.yul\":3206:3245   */\n      tag_112\n      jump\t// in\n    tag_202:\n        /* \"#utility.yul\":3261:3332   */\n      tag_203\n        /* \"#utility.yul\":3325:3331   */\n      dup2\n        /* \"#utility.yul\":3320:3323   */\n      dup6\n        /* \"#utility.yul\":3261:3332   */\n      tag_113\n      jump\t// in\n    tag_203:\n        /* \"#utility.yul\":3254:3332   */\n      swap4\n      pop\n        /* \"#utility.yul\":3341:3406   */\n      tag_204\n        /* \"#utility.yul\":3399:3405   */\n      dup2\n        /* \"#utility.yul\":3394:3397   */\n      dup6\n        /* \"#utility.yul\":3387:3391   */\n      0x20\n        /* \"#utility.yul\":3380:3385   */\n      dup7\n        /* \"#utility.yul\":3376:3392   */\n      add\n        /* \"#utility.yul\":3341:3406   */\n      tag_114\n      jump\t// in\n    tag_204:\n        /* \"#utility.yul\":3431:3460   */\n      tag_205\n        /* \"#utility.yul\":3453:3459   */\n      dup2\n        /* \"#utility.yul\":3431:3460   */\n      tag_115\n      jump\t// in\n    tag_205:\n        /* \"#utility.yul\":3426:3429   */\n      dup5\n        /* \"#utility.yul\":3422:3461   */\n      add\n        /* \"#utility.yul\":3415:3461   */\n      swap2\n      pop\n        /* \"#utility.yul\":3182:3467   */\n      pop\n        /* \"#utility.yul\":3090:3467   */\n      swap3\n      swap2\n      pop\n      pop\n      jump\t// out\n        /* \"#utility.yul\":3473:4097   */\n    tag_17:\n        /* \"#utility.yul\":3660:3664   */\n      0x00\n        /* \"#utility.yul\":3698:3701   */\n      0x80\n        /* \"#utility.yul\":3687:3696   */\n      dup3\n        /* \"#utility.yul\":3683:3702   */\n      add\n        /* \"#utility.yul\":3675:3702   */\n      swap1\n      pop\n        /* \"#utility.yul\":3712:3783   */\n      tag_207\n        /* \"#utility.yul\":3780:3781   */\n      0x00\n        /* \"#utility.yul\":3769:3778   */\n      dup4\n        /* \"#utility.yul\":3765:3782   */\n      add\n        /* \"#utility.yul\":3756:3762   */\n      dup8\n        /* \"#utility.yul\":3712:3783   */\n      tag_107\n      jump\t// in\n    tag_207:\n        /* \"#utility.yul\":3793:3859   */\n      tag_208\n        /* \"#utility.yul\":3855:3857   */\n      0x20\n        /* \"#utility.yul\":3844:3853   */\n      dup4\n        /* \"#utility.yul\":3840:3858   */\n      add\n        /* \"#utility.yul\":3831:3837   */\n      dup7\n        /* \"#utility.yul\":3793:3859   */\n      tag_109\n      jump\t// in\n    tag_208:\n        /* \"#utility.yul\":3869:3937   */\n      tag_209\n        /* \"#utility.yul\":3933:3935   */\n      0x40\n        /* \"#utility.yul\":3922:3931   */\n      dup4\n        /* \"#utility.yul\":3918:3936   */\n      add\n        /* \"#utility.yul\":3909:3915   */\n      dup6\n        /* \"#utility.yul\":3869:3937   */\n      tag_111\n      jump\t// in\n    tag_209:\n        /* \"#utility.yul\":3984:3993   */\n      dup2\n        /* \"#utility.yul\":3978:3982   */\n      dup2\n        /* \"#utility.yul\":3974:3994   */\n      sub\n        /* \"#utility.yul\":3969:3971   */\n      0x60\n        /* \"#utility.yul\":3958:3967   */\n      dup4\n        /* \"#utility.yul\":3954:3972   */\n      add\n        /* \"#utility.yul\":3947:3995   */\n      mstore\n        /* \"#utility.yul\":4012:4090   */\n      tag_210\n        /* \"#utility.yul\":4085:4089   */\n      dup2\n        /* \"#utility.yul\":4076:4082   */\n      dup5\n        /* \"#utility.yul\":4012:4090   */\n      tag_116\n      jump\t// in\n    tag_210:\n        /* \"#utility.yul\":4004:4090   */\n      swap1\n      pop\n        /* \"#utility.yul\":3473:4097   */\n      swap6\n      swap5\n      pop\n      pop\n      pop\n      pop\n      pop\n      jump\t// out\n        /* \"#utility.yul\":4103:4163   */\n    tag_117:\n        /* \"#utility.yul\":4131:4134   */\n      0x00\n        /* \"#utility.yul\":4152:4157   */\n      dup2\n        /* \"#utility.yul\":4145:4157   */\n      swap1\n      pop\n        /* \"#utility.yul\":4103:4163   */\n      swap2\n      swap1\n      pop\n      jump\t// out\n        /* \"#utility.yul\":4169:4311   */\n    tag_118:\n        /* \"#utility.yul\":4219:4228   */\n      0x00\n        /* \"#utility.yul\":4252:4305   */\n      tag_213\n        /* \"#utility.yul\":4270:4304   */\n      tag_214\n        /* \"#utility.yul\":4279:4303   */\n      tag_215\n        /* \"#utility.yul\":4297:4302   */\n      dup5\n        /* \"#utility.yul\":4279:4303   */\n      tag_100\n      jump\t// in\n    tag_215:\n        /* \"#utility.yul\":4270:4304   */\n      tag_117\n      jump\t// in\n    tag_214:\n        /* \"#utility.yul\":4252:4305   */\n      tag_100\n      jump\t// in\n    tag_213:\n        /* \"#utility.yul\":4239:4305   */\n      swap1\n      pop\n        /* \"#utility.yul\":4169:4311   */\n      swap2\n      swap1\n      pop\n      jump\t// out\n        /* \"#utility.yul\":4317:4443   */\n    tag_119:\n        /* \"#utility.yul\":4367:4376   */\n      0x00\n        /* \"#utility.yul\":4400:4437   */\n      tag_217\n        /* \"#utility.yul\":4431:4436   */\n      dup3\n        /* \"#utility.yul\":4400:4437   */\n      tag_118\n      jump\t// in\n    tag_217:\n        /* \"#utility.yul\":4387:4437   */\n      swap1\n      pop\n        /* \"#utility.yul\":4317:4443   */\n      swap2\n      swap1\n      pop\n      jump\t// out\n        /* \"#utility.yul\":4449:4594   */\n    tag_120:\n        /* \"#utility.yul\":4518:4527   */\n      0x00\n        /* \"#utility.yul\":4551:4588   */\n      tag_219\n        /* \"#utility.yul\":4582:4587   */\n      dup3\n        /* \"#utility.yul\":4551:4588   */\n      tag_119\n      jump\t// in\n    tag_219:\n        /* \"#utility.yul\":4538:4588   */\n      swap1\n      pop\n        /* \"#utility.yul\":4449:4594   */\n      swap2\n      swap1\n      pop\n      jump\t// out\n        /* \"#utility.yul\":4600:4769   */\n    tag_121:\n        /* \"#utility.yul\":4706:4762   */\n      tag_221\n        /* \"#utility.yul\":4756:4761   */\n      dup2\n        /* \"#utility.yul\":4706:4762   */\n      tag_120\n      jump\t// in\n    tag_221:\n        /* \"#utility.yul\":4701:4704   */\n      dup3\n        /* \"#utility.yul\":4694:4763   */\n      mstore\n        /* \"#utility.yul\":4600:4769   */\n      pop\n      pop\n      jump\t// out\n        /* \"#utility.yul\":4775:5035   */\n    tag_22:\n        /* \"#utility.yul\":4887:4891   */\n      0x00\n        /* \"#utility.yul\":4925:4927   */\n      0x20\n        /* \"#utility.yul\":4914:4923   */\n      dup3\n        /* \"#utility.yul\":4910:4928   */\n      add\n        /* \"#utility.yul\":4902:4928   */\n      swap1\n      pop\n        /* \"#utility.yul\":4938:5028   */\n      tag_223\n        /* \"#utility.yul\":5025:5026   */\n      0x00\n        /* \"#utility.yul\":5014:5023   */\n      dup4\n        /* \"#utility.yul\":5010:5027   */\n      add\n        /* \"#utility.yul\":5001:5007   */\n      dup5\n        /* \"#utility.yul\":4938:5028   */\n      tag_121\n      jump\t// in\n    tag_223:\n        /* \"#utility.yul\":4775:5035   */\n      swap3\n      swap2\n      pop\n      pop\n      jump\t// out\n        /* \"#utility.yul\":5041:5158   */\n    tag_122:\n        /* \"#utility.yul\":5150:5151   */\n      0x00\n        /* \"#utility.yul\":5147:5148   */\n      0x00\n        /* \"#utility.yul\":5140:5152   */\n      revert\n        /* \"#utility.yul\":5164:5281   */\n    tag_123:\n        /* \"#utility.yul\":5273:5274   */\n      0x00\n        /* \"#utility.yul\":5270:5271   */\n      0x00\n        /* \"#utility.yul\":5263:5275   */\n      revert\n        /* \"#utility.yul\":5287:5404   */\n    tag_124:\n        /* \"#utility.yul\":5396:5397   */\n      0x00\n        /* \"#utility.yul\":5393:5394   */\n      0x00\n        /* \"#utility.yul\":5386:5398   */\n      revert\n        /* \"#utility.yul\":5427:5995   */\n    tag_125:\n        /* \"#utility.yul\":5500:5508   */\n      0x00\n        /* \"#utility.yul\":5510:5516   */\n      0x00\n        /* \"#utility.yul\":5560:5563   */\n      dup4\n        /* \"#utility.yul\":5553:5557   */\n      0x1f\n        /* \"#utility.yul\":5545:5551   */\n      dup5\n        /* \"#utility.yul\":5541:5558   */\n      add\n        /* \"#utility.yul\":5537:5564   */\n      slt\n        /* \"#utility.yul\":5527:5649   */\n      tag_228\n      jumpi\n        /* \"#utility.yul\":5568:5647   */\n      tag_229\n      tag_122\n      jump\t// in\n    tag_229:\n        /* \"#utility.yul\":5527:5649   */\n    tag_228:\n        /* \"#utility.yul\":5681:5687   */\n      dup3\n        /* \"#utility.yul\":5668:5688   */\n      calldataload\n        /* \"#utility.yul\":5658:5688   */\n      swap1\n      pop\n        /* \"#utility.yul\":5711:5729   */\n      0xffffffffffffffff\n        /* \"#utility.yul\":5703:5709   */\n      dup2\n        /* \"#utility.yul\":5700:5730   */\n      gt\n        /* \"#utility.yul\":5697:5814   */\n      iszero\n      tag_230\n      jumpi\n        /* \"#utility.yul\":5733:5812   */\n      tag_231\n      tag_123\n      jump\t// in\n    tag_231:\n        /* \"#utility.yul\":5697:5814   */\n    tag_230:\n        /* \"#utility.yul\":5847:5851   */\n      0x20\n        /* \"#utility.yul\":5839:5845   */\n      dup4\n        /* \"#utility.yul\":5835:5852   */\n      add\n        /* \"#utility.yul\":5823:5852   */\n      swap2\n      pop\n        /* \"#utility.yul\":5901:5904   */\n      dup4\n        /* \"#utility.yul\":5893:5897   */\n      0x20\n        /* \"#utility.yul\":5885:5891   */\n      dup3\n        /* \"#utility.yul\":5881:5898   */\n      mul\n        /* \"#utility.yul\":5871:5879   */\n      dup4\n        /* \"#utility.yul\":5867:5899   */\n      add\n        /* \"#utility.yul\":5864:5905   */\n      gt\n        /* \"#utility.yul\":5861:5989   */\n      iszero\n      tag_232\n      jumpi\n        /* \"#utility.yul\":5908:5987   */\n      tag_233\n      tag_124\n      jump\t// in\n    tag_233:\n        /* \"#utility.yul\":5861:5989   */\n    tag_232:\n        /* \"#utility.yul\":5427:5995   */\n      swap3\n      pop\n      swap3\n      swap1\n      pop\n      jump\t// out\n        /* \"#utility.yul\":6017:6597   */\n    tag_126:\n        /* \"#utility.yul\":6102:6110   */\n      0x00\n        /* \"#utility.yul\":6112:6118   */\n      0x00\n        /* \"#utility.yul\":6162:6165   */\n      dup4\n        /* \"#utility.yul\":6155:6159   */\n      0x1f\n        /* \"#utility.yul\":6147:6153   */\n      dup5\n        /* \"#utility.yul\":6143:6160   */\n      add\n        /* \"#utility.yul\":6139:6166   */\n      slt\n        /* \"#utility.yul\":6129:6251   */\n      tag_235\n      jumpi\n        /* \"#utility.yul\":6170:6249   */\n      tag_236\n      tag_122\n      jump\t// in\n    tag_236:\n        /* \"#utility.yul\":6129:6251   */\n    tag_235:\n        /* \"#utility.yul\":6283:6289   */\n      dup3\n        /* \"#utility.yul\":6270:6290   */\n      calldataload\n        /* \"#utility.yul\":6260:6290   */\n      swap1\n      pop\n        /* \"#utility.yul\":6313:6331   */\n      0xffffffffffffffff\n        /* \"#utility.yul\":6305:6311   */\n      dup2\n        /* \"#utility.yul\":6302:6332   */\n      gt\n        /* \"#utility.yul\":6299:6416   */\n      iszero\n      tag_237\n      jumpi\n        /* \"#utility.yul\":6335:6414   */\n      tag_238\n      tag_123\n      jump\t// in\n    tag_238:\n        /* \"#utility.yul\":6299:6416   */\n    tag_237:\n        /* \"#utility.yul\":6449:6453   */\n      0x20\n        /* \"#utility.yul\":6441:6447   */\n      dup4\n        /* \"#utility.yul\":6437:6454   */\n      add\n        /* \"#utility.yul\":6425:6454   */\n      swap2\n      pop\n        /* \"#utility.yul\":6503:6506   */\n      dup4\n        /* \"#utility.yul\":6495:6499   */\n      0x20\n        /* \"#utility.yul\":6487:6493   */\n      dup3\n        /* \"#utility.yul\":6483:6500   */\n      mul\n        /* \"#utility.yul\":6473:6481   */\n      dup4\n        /* \"#utility.yul\":6469:6501   */\n      add\n        /* \"#utility.yul\":6466:6507   */\n      gt\n        /* \"#utility.yul\":6463:6591   */\n      iszero\n      tag_239\n      jumpi\n        /* \"#utility.yul\":6510:6589   */\n      tag_240\n      tag_124\n      jump\t// in\n    tag_240:\n        /* \"#utility.yul\":6463:6591   */\n    tag_239:\n        /* \"#utility.yul\":6017:6597   */\n      swap3\n      pop\n      swap3\n      swap1\n      pop\n      jump\t// out\n        /* \"#utility.yul\":6617:7182   */\n    tag_127:\n        /* \"#utility.yul\":6687:6695   */\n      0x00\n        /* \"#utility.yul\":6697:6703   */\n      0x00\n        /* \"#utility.yul\":6747:6750   */\n      dup4\n        /* \"#utility.yul\":6740:6744   */\n      0x1f\n        /* \"#utility.yul\":6732:6738   */\n      dup5\n        /* \"#utility.yul\":6728:6745   */\n      add\n        /* \"#utility.yul\":6724:6751   */\n      slt\n        /* \"#utility.yul\":6714:6836   */\n      tag_242\n      jumpi\n        /* \"#utility.yul\":6755:6834   */\n      tag_243\n      tag_122\n      jump\t// in\n    tag_243:\n        /* \"#utility.yul\":6714:6836   */\n    tag_242:\n        /* \"#utility.yul\":6868:6874   */\n      dup3\n        /* \"#utility.yul\":6855:6875   */\n      calldataload\n        /* \"#utility.yul\":6845:6875   */\n      swap1\n      pop\n        /* \"#utility.yul\":6898:6916   */\n      0xffffffffffffffff\n        /* \"#utility.yul\":6890:6896   */\n      dup2\n        /* \"#utility.yul\":6887:6917   */\n      gt\n        /* \"#utility.yul\":6884:7001   */\n      iszero\n      tag_244\n      jumpi\n        /* \"#utility.yul\":6920:6999   */\n      tag_245\n      tag_123\n      jump\t// in\n    tag_245:\n        /* \"#utility.yul\":6884:7001   */\n    tag_244:\n        /* \"#utility.yul\":7034:7038   */\n      0x20\n        /* \"#utility.yul\":7026:7032   */\n      dup4\n        /* \"#utility.yul\":7022:7039   */\n      add\n        /* \"#utility.yul\":7010:7039   */\n      swap2\n      pop\n        /* \"#utility.yul\":7088:7091   */\n      dup4\n        /* \"#utility.yul\":7080:7084   */\n      0x20\n        /* \"#utility.yul\":7072:7078   */\n      dup3\n        /* \"#utility.yul\":7068:7085   */\n      mul\n        /* \"#utility.yul\":7058:7066   */\n      dup4\n        /* \"#utility.yul\":7054:7086   */\n      add\n        /* \"#utility.yul\":7051:7092   */\n      gt\n        /* \"#utility.yul\":7048:7176   */\n      iszero\n      tag_246\n      jumpi\n        /* \"#utility.yul\":7095:7174   */\n      tag_247\n      tag_124\n      jump\t// in\n    tag_247:\n        /* \"#utility.yul\":7048:7176   */\n    tag_246:\n        /* \"#utility.yul\":6617:7182   */\n      swap3\n      pop\n      swap3\n      swap1\n      pop\n      jump\t// out\n        /* \"#utility.yul\":7203:7769   */\n    tag_128:\n        /* \"#utility.yul\":7274:7282   */\n      0x00\n        /* \"#utility.yul\":7284:7290   */\n      0x00\n        /* \"#utility.yul\":7334:7337   */\n      dup4\n        /* \"#utility.yul\":7327:7331   */\n      0x1f\n        /* \"#utility.yul\":7319:7325   */\n      dup5\n        /* \"#utility.yul\":7315:7332   */\n      add\n        /* \"#utility.yul\":7311:7338   */\n      slt\n        /* \"#utility.yul\":7301:7423   */\n      tag_249\n      jumpi\n        /* \"#utility.yul\":7342:7421   */\n      tag_250\n      tag_122\n      jump\t// in\n    tag_250:\n        /* \"#utility.yul\":7301:7423   */\n    tag_249:\n        /* \"#utility.yul\":7455:7461   */\n      dup3\n        /* \"#utility.yul\":7442:7462   */\n      calldataload\n        /* \"#utility.yul\":7432:7462   */\n      swap1\n      pop\n        /* \"#utility.yul\":7485:7503   */\n      0xffffffffffffffff\n        /* \"#utility.yul\":7477:7483   */\n      dup2\n        /* \"#utility.yul\":7474:7504   */\n      gt\n        /* \"#utility.yul\":7471:7588   */\n      iszero\n      tag_251\n      jumpi\n        /* \"#utility.yul\":7507:7586   */\n      tag_252\n      tag_123\n      jump\t// in\n    tag_252:\n        /* \"#utility.yul\":7471:7588   */\n    tag_251:\n        /* \"#utility.yul\":7621:7625   */\n      0x20\n        /* \"#utility.yul\":7613:7619   */\n      dup4\n        /* \"#utility.yul\":7609:7626   */\n      add\n        /* \"#utility.yul\":7597:7626   */\n      swap2\n      pop\n        /* \"#utility.yul\":7675:7678   */\n      dup4\n        /* \"#utility.yul\":7667:7671   */\n      0x20\n        /* \"#utility.yul\":7659:7665   */\n      dup3\n        /* \"#utility.yul\":7655:7672   */\n      mul\n        /* \"#utility.yul\":7645:7653   */\n      dup4\n        /* \"#utility.yul\":7641:7673   */\n      add\n        /* \"#utility.yul\":7638:7679   */\n      gt\n        /* \"#utility.yul\":7635:7763   */\n      iszero\n      tag_253\n      jumpi\n        /* \"#utility.yul\":7682:7761   */\n      tag_254\n      tag_124\n      jump\t// in\n    tag_254:\n        /* \"#utility.yul\":7635:7763   */\n    tag_253:\n        /* \"#utility.yul\":7203:7769   */\n      swap3\n      pop\n      swap3\n      swap1\n      pop\n      jump\t// out\n        /* \"#utility.yul\":7775:9474   */\n    tag_26:\n        /* \"#utility.yul\":7976:7982   */\n      0x00\n        /* \"#utility.yul\":7984:7990   */\n      0x00\n        /* \"#utility.yul\":7992:7998   */\n      0x00\n        /* \"#utility.yul\":8000:8006   */\n      0x00\n        /* \"#utility.yul\":8008:8014   */\n      0x00\n        /* \"#utility.yul\":8016:8022   */\n      0x00\n        /* \"#utility.yul\":8024:8030   */\n      0x00\n        /* \"#utility.yul\":8032:8038   */\n      0x00\n        /* \"#utility.yul\":8081:8084   */\n      0x80\n        /* \"#utility.yul\":8069:8078   */\n      dup10\n        /* \"#utility.yul\":8060:8067   */\n      dup12\n        /* \"#utility.yul\":8056:8079   */\n      sub\n        /* \"#utility.yul\":8052:8085   */\n      slt\n        /* \"#utility.yul\":8049:8169   */\n      iszero\n      tag_256\n      jumpi\n        /* \"#utility.yul\":8088:8167   */\n      tag_257\n      tag_98\n      jump\t// in\n    tag_257:\n        /* \"#utility.yul\":8049:8169   */\n    tag_256:\n        /* \"#utility.yul\":8236:8237   */\n      0x00\n        /* \"#utility.yul\":8225:8234   */\n      dup10\n        /* \"#utility.yul\":8221:8238   */\n      add\n        /* \"#utility.yul\":8208:8239   */\n      calldataload\n        /* \"#utility.yul\":8266:8284   */\n      0xffffffffffffffff\n        /* \"#utility.yul\":8258:8264   */\n      dup2\n        /* \"#utility.yul\":8255:8285   */\n      gt\n        /* \"#utility.yul\":8252:8369   */\n      iszero\n      tag_258\n      jumpi\n        /* \"#utility.yul\":8288:8367   */\n      tag_259\n      tag_99\n      jump\t// in\n    tag_259:\n        /* \"#utility.yul\":8252:8369   */\n    tag_258:\n        /* \"#utility.yul\":8401:8481   */\n      tag_260\n        /* \"#utility.yul\":8473:8480   */\n      dup12\n        /* \"#utility.yul\":8464:8470   */\n      dup3\n        /* \"#utility.yul\":8453:8462   */\n      dup13\n        /* \"#utility.yul\":8449:8471   */\n      add\n        /* \"#utility.yul\":8401:8481   */\n      tag_125\n      jump\t// in\n    tag_260:\n        /* \"#utility.yul\":8383:8481   */\n      swap9\n      pop\n      swap9\n      pop\n        /* \"#utility.yul\":8179:8491   */\n      pop\n        /* \"#utility.yul\":8558:8560   */\n      0x20\n        /* \"#utility.yul\":8547:8556   */\n      dup10\n        /* \"#utility.yul\":8543:8561   */\n      add\n        /* \"#utility.yul\":8530:8562   */\n      calldataload\n        /* \"#utility.yul\":8589:8607   */\n      0xffffffffffffffff\n        /* \"#utility.yul\":8581:8587   */\n      dup2\n        /* \"#utility.yul\":8578:8608   */\n      gt\n        /* \"#utility.yul\":8575:8692   */\n      iszero\n      tag_261\n      jumpi\n        /* \"#utility.yul\":8611:8690   */\n      tag_262\n      tag_99\n      jump\t// in\n    tag_262:\n        /* \"#utility.yul\":8575:8692   */\n    tag_261:\n        /* \"#utility.yul\":8724:8816   */\n      tag_263\n        /* \"#utility.yul\":8808:8815   */\n      dup12\n        /* \"#utility.yul\":8799:8805   */\n      dup3\n        /* \"#utility.yul\":8788:8797   */\n      dup13\n        /* \"#utility.yul\":8784:8806   */\n      add\n        /* \"#utility.yul\":8724:8816   */\n      tag_126\n      jump\t// in\n    tag_263:\n        /* \"#utility.yul\":8706:8816   */\n      swap7\n      pop\n      swap7\n      pop\n        /* \"#utility.yul\":8501:8826   */\n      pop\n        /* \"#utility.yul\":8893:8895   */\n      0x40\n        /* \"#utility.yul\":8882:8891   */\n      dup10\n        /* \"#utility.yul\":8878:8896   */\n      add\n        /* \"#utility.yul\":8865:8897   */\n      calldataload\n        /* \"#utility.yul\":8924:8942   */\n      0xffffffffffffffff\n        /* \"#utility.yul\":8916:8922   */\n      dup2\n        /* \"#utility.yul\":8913:8943   */\n      gt\n        /* \"#utility.yul\":8910:9027   */\n      iszero\n      tag_264\n      jumpi\n        /* \"#utility.yul\":8946:9025   */\n      tag_265\n      tag_99\n      jump\t// in\n    tag_265:\n        /* \"#utility.yul\":8910:9027   */\n    tag_264:\n        /* \"#utility.yul\":9059:9136   */\n      tag_266\n        /* \"#utility.yul\":9128:9135   */\n      dup12\n        /* \"#utility.yul\":9119:9125   */\n      dup3\n        /* \"#utility.yul\":9108:9117   */\n      dup13\n        /* \"#utility.yul\":9104:9126   */\n      add\n        /* \"#utility.yul\":9059:9136   */\n      tag_127\n      jump\t// in\n    tag_266:\n        /* \"#utility.yul\":9041:9136   */\n      swap5\n      pop\n      swap5\n      pop\n        /* \"#utility.yul\":8836:9146   */\n      pop\n        /* \"#utility.yul\":9213:9215   */\n      0x60\n        /* \"#utility.yul\":9202:9211   */\n      dup10\n        /* \"#utility.yul\":9198:9216   */\n      add\n        /* \"#utility.yul\":9185:9217   */\n      calldataload\n        /* \"#utility.yul\":9244:9262   */\n      0xffffffffffffffff\n        /* \"#utility.yul\":9236:9242   */\n      dup2\n        /* \"#utility.yul\":9233:9263   */\n      gt\n        /* \"#utility.yul\":9230:9347   */\n      iszero\n      tag_267\n      jumpi\n        /* \"#utility.yul\":9266:9345   */\n      tag_268\n      tag_99\n      jump\t// in\n    tag_268:\n        /* \"#utility.yul\":9230:9347   */\n    tag_267:\n        /* \"#utility.yul\":9379:9457   */\n      tag_269\n        /* \"#utility.yul\":9449:9456   */\n      dup12\n        /* \"#utility.yul\":9440:9446   */\n      dup3\n        /* \"#utility.yul\":9429:9438   */\n      dup13\n        /* \"#utility.yul\":9425:9447   */\n      add\n        /* \"#utility.yul\":9379:9457   */\n      tag_128\n      jump\t// in\n    tag_269:\n        /* \"#utility.yul\":9361:9457   */\n      swap3\n      pop\n      swap3\n      pop\n        /* \"#utility.yul\":9156:9467   */\n      pop\n        /* \"#utility.yul\":7775:9474   */\n      swap3\n      swap6\n      swap9\n      pop\n      swap3\n      swap6\n      swap9\n      swap1\n      swap4\n      swap7\n      pop\n      jump\t// out\n        /* \"#utility.yul\":9480:9702   */\n    tag_32:\n        /* \"#utility.yul\":9573:9577   */\n      0x00\n        /* \"#utility.yul\":9611:9613   */\n      0x20\n        /* \"#utility.yul\":9600:9609   */\n      dup3\n        /* \"#utility.yul\":9596:9614   */\n      add\n        /* \"#utility.yul\":9588:9614   */\n      swap1\n      pop\n        /* \"#utility.yul\":9624:9695   */\n      tag_271\n        /* \"#utility.yul\":9692:9693   */\n      0x00\n        /* \"#utility.yul\":9681:9690   */\n      dup4\n        /* \"#utility.yul\":9677:9694   */\n      add\n        /* \"#utility.yul\":9668:9674   */\n      dup5\n        /* \"#utility.yul\":9624:9695   */\n      tag_107\n      jump\t// in\n    tag_271:\n        /* \"#utility.yul\":9480:9702   */\n      swap3\n      swap2\n      pop\n      pop\n      jump\t// out\n        /* \"#utility.yul\":9708:9874   */\n    tag_129:\n        /* \"#utility.yul\":9848:9866   */\n      0x6f6e6c7920666f72206f776e6572732100000000000000000000000000000000\n        /* \"#utility.yul\":9844:9845   */\n      0x00\n        /* \"#utility.yul\":9836:9842   */\n      dup3\n        /* \"#utility.yul\":9832:9846   */\n      add\n        /* \"#utility.yul\":9825:9867   */\n      mstore\n        /* \"#utility.yul\":9708:9874   */\n      pop\n      jump\t// out\n        /* \"#utility.yul\":9880:10246   */\n    tag_130:\n        /* \"#utility.yul\":10022:10025   */\n      0x00\n        /* \"#utility.yul\":10043:10110   */\n      tag_274\n        /* \"#utility.yul\":10107:10109   */\n      0x10\n        /* \"#utility.yul\":10102:10105   */\n      dup4\n        /* \"#utility.yul\":10043:10110   */\n      tag_113\n      jump\t// in\n    tag_274:\n        /* \"#utility.yul\":10036:10110   */\n      swap2\n      pop\n        /* \"#utility.yul\":10119:10212   */\n      tag_275\n        /* \"#utility.yul\":10208:10211   */\n      dup3\n        /* \"#utility.yul\":10119:10212   */\n      tag_129\n      jump\t// in\n    tag_275:\n        /* \"#utility.yul\":10237:10239   */\n      0x20\n        /* \"#utility.yul\":10232:10235   */\n      dup3\n        /* \"#utility.yul\":10228:10240   */\n      add\n        /* \"#utility.yul\":10221:10240   */\n      swap1\n      pop\n        /* \"#utility.yul\":9880:10246   */\n      swap2\n      swap1\n      pop\n      jump\t// out\n        /* \"#utility.yul\":10252:10671   */\n    tag_36:\n        /* \"#utility.yul\":10418:10422   */\n      0x00\n        /* \"#utility.yul\":10456:10458   */\n      0x20\n        /* \"#utility.yul\":10445:10454   */\n      dup3\n        /* \"#utility.yul\":10441:10459   */\n      add\n        /* \"#utility.yul\":10433:10459   */\n      swap1\n      pop\n        /* \"#utility.yul\":10505:10514   */\n      dup2\n        /* \"#utility.yul\":10499:10503   */\n      dup2\n        /* \"#utility.yul\":10495:10515   */\n      sub\n        /* \"#utility.yul\":10491:10492   */\n      0x00\n        /* \"#utility.yul\":10480:10489   */\n      dup4\n        /* \"#utility.yul\":10476:10493   */\n      add\n        /* \"#utility.yul\":10469:10516   */\n      mstore\n        /* \"#utility.yul\":10533:10664   */\n      tag_277\n        /* \"#utility.yul\":10659:10663   */\n      dup2\n        /* \"#utility.yul\":10533:10664   */\n      tag_130\n      jump\t// in\n    tag_277:\n        /* \"#utility.yul\":10525:10664   */\n      swap1\n      pop\n        /* \"#utility.yul\":10252:10671   */\n      swap2\n      swap1\n      pop\n      jump\t// out\n        /* \"#utility.yul\":10677:10857   */\n    tag_131:\n        /* \"#utility.yul\":10725:10802   */\n      0x4e487b7100000000000000000000000000000000000000000000000000000000\n        /* \"#utility.yul\":10722:10723   */\n      0x00\n        /* \"#utility.yul\":10715:10803   */\n      mstore\n        /* \"#utility.yul\":10822:10826   */\n      0x22\n        /* \"#utility.yul\":10819:10820   */\n      0x04\n        /* \"#utility.yul\":10812:10827   */\n      mstore\n        /* \"#utility.yul\":10846:10850   */\n      0x24\n        /* \"#utility.yul\":10843:10844   */\n      0x00\n        /* \"#utility.yul\":10836:10851   */\n      revert\n        /* \"#utility.yul\":10863:11183   */\n    tag_40:\n        /* \"#utility.yul\":10907:10913   */\n      0x00\n        /* \"#utility.yul\":10944:10945   */\n      0x02\n        /* \"#utility.yul\":10938:10942   */\n      dup3\n        /* \"#utility.yul\":10934:10946   */\n      div\n        /* \"#utility.yul\":10924:10946   */\n      swap1\n      pop\n        /* \"#utility.yul\":10991:10992   */\n      0x01\n        /* \"#utility.yul\":10985:10989   */\n      dup3\n        /* \"#utility.yul\":10981:10993   */\n      and\n        /* \"#utility.yul\":11012:11030   */\n      dup1\n        /* \"#utility.yul\":11002:11083   */\n      tag_280\n      jumpi\n        /* \"#utility.yul\":11068:11072   */\n      0x7f\n        /* \"#utility.yul\":11060:11066   */\n      dup3\n        /* \"#utility.yul\":11056:11073   */\n      and\n        /* \"#utility.yul\":11046:11073   */\n      swap2\n      pop\n        /* \"#utility.yul\":11002:11083   */\n    tag_280:\n        /* \"#utility.yul\":11130:11132   */\n      0x20\n        /* \"#utility.yul\":11122:11128   */\n      dup3\n        /* \"#utility.yul\":11119:11133   */\n      lt\n        /* \"#utility.yul\":11099:11117   */\n      dup2\n        /* \"#utility.yul\":11096:11134   */\n      sub\n        /* \"#utility.yul\":11093:11177   */\n      tag_281\n      jumpi\n        /* \"#utility.yul\":11149:11167   */\n      tag_282\n      tag_131\n      jump\t// in\n    tag_282:\n        /* \"#utility.yul\":11093:11177   */\n    tag_281:\n        /* \"#utility.yul\":10914:11183   */\n      pop\n        /* \"#utility.yul\":10863:11183   */\n      swap2\n      swap1\n      pop\n      jump\t// out\n        /* \"#utility.yul\":11189:11352   */\n    tag_132:\n        /* \"#utility.yul\":11329:11344   */\n      0x6e6f742076657269666965642100000000000000000000000000000000000000\n        /* \"#utility.yul\":11325:11326   */\n      0x00\n        /* \"#utility.yul\":11317:11323   */\n      dup3\n        /* \"#utility.yul\":11313:11327   */\n      add\n        /* \"#utility.yul\":11306:11345   */\n      mstore\n        /* \"#utility.yul\":11189:11352   */\n      pop\n      jump\t// out\n        /* \"#utility.yul\":11358:11724   */\n    tag_133:\n        /* \"#utility.yul\":11500:11503   */\n      0x00\n        /* \"#utility.yul\":11521:11588   */\n      tag_285\n        /* \"#utility.yul\":11585:11587   */\n      0x0d\n        /* \"#utility.yul\":11580:11583   */\n      dup4\n        /* \"#utility.yul\":11521:11588   */\n      tag_113\n      jump\t// in\n    tag_285:\n        /* \"#utility.yul\":11514:11588   */\n      swap2\n      pop\n        /* \"#utility.yul\":11597:11690   */\n      tag_286\n        /* \"#utility.yul\":11686:11689   */\n      dup3\n        /* \"#utility.yul\":11597:11690   */\n      tag_132\n      jump\t// in\n    tag_286:\n        /* \"#utility.yul\":11715:11717   */\n      0x20\n        /* \"#utility.yul\":11710:11713   */\n      dup3\n        /* \"#utility.yul\":11706:11718   */\n      add\n        /* \"#utility.yul\":11699:11718   */\n      swap1\n      pop\n        /* \"#utility.yul\":11358:11724   */\n      swap2\n      swap1\n      pop\n      jump\t// out\n        /* \"#utility.yul\":11730:12149   */\n    tag_47:\n        /* \"#utility.yul\":11896:11900   */\n      0x00\n        /* \"#utility.yul\":11934:11936   */\n      0x20\n        /* \"#utility.yul\":11923:11932   */\n      dup3\n        /* \"#utility.yul\":11919:11937   */\n      add\n        /* \"#utility.yul\":11911:11937   */\n      swap1\n      pop\n        /* \"#utility.yul\":11983:11992   */\n      dup2\n        /* \"#utility.yul\":11977:11981   */\n      dup2\n        /* \"#utility.yul\":11973:11993   */\n      sub\n        /* \"#utility.yul\":11969:11970   */\n      0x00\n        /* \"#utility.yul\":11958:11967   */\n      dup4\n        /* \"#utility.yul\":11954:11971   */\n      add\n        /* \"#utility.yul\":11947:11994   */\n      mstore\n        /* \"#utility.yul\":12011:12142   */\n      tag_288\n        /* \"#utility.yul\":12137:12141   */\n      dup2\n        /* \"#utility.yul\":12011:12142   */\n      tag_133\n      jump\t// in\n    tag_288:\n        /* \"#utility.yul\":12003:12142   */\n      swap1\n      pop\n        /* \"#utility.yul\":11730:12149   */\n      swap2\n      swap1\n      pop\n      jump\t// out\n        /* \"#utility.yul\":12155:12273   */\n    tag_134:\n        /* \"#utility.yul\":12242:12266   */\n      tag_290\n        /* \"#utility.yul\":12260:12265   */\n      dup2\n        /* \"#utility.yul\":12242:12266   */\n      tag_104\n      jump\t// in\n    tag_290:\n        /* \"#utility.yul\":12237:12240   */\n      dup3\n        /* \"#utility.yul\":12230:12267   */\n      mstore\n        /* \"#utility.yul\":12155:12273   */\n      pop\n      pop\n      jump\t// out\n        /* \"#utility.yul\":12279:12611   */\n    tag_49:\n        /* \"#utility.yul\":12400:12404   */\n      0x00\n        /* \"#utility.yul\":12438:12440   */\n      0x40\n        /* \"#utility.yul\":12427:12436   */\n      dup3\n        /* \"#utility.yul\":12423:12441   */\n      add\n        /* \"#utility.yul\":12415:12441   */\n      swap1\n      pop\n        /* \"#utility.yul\":12451:12522   */\n      tag_292\n        /* \"#utility.yul\":12519:12520   */\n      0x00\n        /* \"#utility.yul\":12508:12517   */\n      dup4\n        /* \"#utility.yul\":12504:12521   */\n      add\n        /* \"#utility.yul\":12495:12501   */\n      dup6\n        /* \"#utility.yul\":12451:12522   */\n      tag_107\n      jump\t// in\n    tag_292:\n        /* \"#utility.yul\":12532:12604   */\n      tag_293\n        /* \"#utility.yul\":12600:12602   */\n      0x20\n        /* \"#utility.yul\":12589:12598   */\n      dup4\n        /* \"#utility.yul\":12585:12603   */\n      add\n        /* \"#utility.yul\":12576:12582   */\n      dup5\n        /* \"#utility.yul\":12532:12604   */\n      tag_134\n      jump\t// in\n    tag_293:\n        /* \"#utility.yul\":12279:12611   */\n      swap4\n      swap3\n      pop\n      pop\n      pop\n      jump\t// out\n        /* \"#utility.yul\":12617:12733   */\n    tag_135:\n        /* \"#utility.yul\":12687:12708   */\n      tag_295\n        /* \"#utility.yul\":12702:12707   */\n      dup2\n        /* \"#utility.yul\":12687:12708   */\n      tag_108\n      jump\t// in\n    tag_295:\n        /* \"#utility.yul\":12680:12685   */\n      dup2\n        /* \"#utility.yul\":12677:12709   */\n      eq\n        /* \"#utility.yul\":12667:12727   */\n      tag_296\n      jumpi\n        /* \"#utility.yul\":12723:12724   */\n      0x00\n        /* \"#utility.yul\":12720:12721   */\n      0x00\n        /* \"#utility.yul\":12713:12725   */\n      revert\n        /* \"#utility.yul\":12667:12727   */\n    tag_296:\n        /* \"#utility.yul\":12617:12733   */\n      pop\n      jump\t// out\n        /* \"#utility.yul\":12739:12876   */\n    tag_136:\n        /* \"#utility.yul\":12793:12798   */\n      0x00\n        /* \"#utility.yul\":12824:12830   */\n      dup2\n        /* \"#utility.yul\":12818:12831   */\n      mload\n        /* \"#utility.yul\":12809:12831   */\n      swap1\n      pop\n        /* \"#utility.yul\":12840:12870   */\n      tag_298\n        /* \"#utility.yul\":12864:12869   */\n      dup2\n        /* \"#utility.yul\":12840:12870   */\n      tag_135\n      jump\t// in\n    tag_298:\n        /* \"#utility.yul\":12739:12876   */\n      swap3\n      swap2\n      pop\n      pop\n      jump\t// out\n        /* \"#utility.yul\":12882:13227   */\n    tag_53:\n        /* \"#utility.yul\":12949:12955   */\n      0x00\n        /* \"#utility.yul\":12998:13000   */\n      0x20\n        /* \"#utility.yul\":12986:12995   */\n      dup3\n        /* \"#utility.yul\":12977:12984   */\n      dup5\n        /* \"#utility.yul\":12973:12996   */\n      sub\n        /* \"#utility.yul\":12969:13001   */\n      slt\n        /* \"#utility.yul\":12966:13085   */\n      iszero\n      tag_300\n      jumpi\n        /* \"#utility.yul\":13004:13083   */\n      tag_301\n      tag_98\n      jump\t// in\n    tag_301:\n        /* \"#utility.yul\":12966:13085   */\n    tag_300:\n        /* \"#utility.yul\":13124:13125   */\n      0x00\n        /* \"#utility.yul\":13149:13210   */\n      tag_302\n        /* \"#utility.yul\":13202:13209   */\n      dup5\n        /* \"#utility.yul\":13193:13199   */\n      dup3\n        /* \"#utility.yul\":13182:13191   */\n      dup6\n        /* \"#utility.yul\":13178:13200   */\n      add\n        /* \"#utility.yul\":13149:13210   */\n      tag_136\n      jump\t// in\n    tag_302:\n        /* \"#utility.yul\":13139:13210   */\n      swap2\n      pop\n        /* \"#utility.yul\":13095:13220   */\n      pop\n        /* \"#utility.yul\":12882:13227   */\n      swap3\n      swap2\n      pop\n      pop\n      jump\t// out\n        /* \"#utility.yul\":13233:13403   */\n    tag_137:\n        /* \"#utility.yul\":13373:13395   */\n      0x415448207472616e73666572206661696c656421000000000000000000000000\n        /* \"#utility.yul\":13369:13370   */\n      0x00\n        /* \"#utility.yul\":13361:13367   */\n      dup3\n        /* \"#utility.yul\":13357:13371   */\n      add\n        /* \"#utility.yul\":13350:13396   */\n      mstore\n        /* \"#utility.yul\":13233:13403   */\n      pop\n      jump\t// out\n        /* \"#utility.yul\":13409:13775   */\n    tag_138:\n        /* \"#utility.yul\":13551:13554   */\n      0x00\n        /* \"#utility.yul\":13572:13639   */\n      tag_305\n        /* \"#utility.yul\":13636:13638   */\n      0x14\n        /* \"#utility.yul\":13631:13634   */\n      dup4\n        /* \"#utility.yul\":13572:13639   */\n      tag_113\n      jump\t// in\n    tag_305:\n        /* \"#utility.yul\":13565:13639   */\n      swap2\n      pop\n        /* \"#utility.yul\":13648:13741   */\n      tag_306\n        /* \"#utility.yul\":13737:13740   */\n      dup3\n        /* \"#utility.yul\":13648:13741   */\n      tag_137\n      jump\t// in\n    tag_306:\n        /* \"#utility.yul\":13766:13768   */\n      0x20\n        /* \"#utility.yul\":13761:13764   */\n      dup3\n        /* \"#utility.yul\":13757:13769   */\n      add\n        /* \"#utility.yul\":13750:13769   */\n      swap1\n      pop\n        /* \"#utility.yul\":13409:13775   */\n      swap2\n      swap1\n      pop\n      jump\t// out\n        /* \"#utility.yul\":13781:14200   */\n    tag_56:\n        /* \"#utility.yul\":13947:13951   */\n      0x00\n        /* \"#utility.yul\":13985:13987   */\n      0x20\n        /* \"#utility.yul\":13974:13983   */\n      dup3\n        /* \"#utility.yul\":13970:13988   */\n      add\n        /* \"#utility.yul\":13962:13988   */\n      swap1\n      pop\n        /* \"#utility.yul\":14034:14043   */\n      dup2\n        /* \"#utility.yul\":14028:14032   */\n      dup2\n        /* \"#utility.yul\":14024:14044   */\n      sub\n        /* \"#utility.yul\":14020:14021   */\n      0x00\n        /* \"#utility.yul\":14009:14018   */\n      dup4\n        /* \"#utility.yul\":14005:14022   */\n      add\n        /* \"#utility.yul\":13998:14045   */\n      mstore\n        /* \"#utility.yul\":14062:14193   */\n      tag_308\n        /* \"#utility.yul\":14188:14192   */\n      dup2\n        /* \"#utility.yul\":14062:14193   */\n      tag_138\n      jump\t// in\n    tag_308:\n        /* \"#utility.yul\":14054:14193   */\n      swap1\n      pop\n        /* \"#utility.yul\":13781:14200   */\n      swap2\n      swap1\n      pop\n      jump\t// out\n        /* \"#utility.yul\":14206:14629   */\n    tag_58:\n        /* \"#utility.yul\":14347:14351   */\n      0x00\n        /* \"#utility.yul\":14385:14387   */\n      0x40\n        /* \"#utility.yul\":14374:14383   */\n      dup3\n        /* \"#utility.yul\":14370:14388   */\n      add\n        /* \"#utility.yul\":14362:14388   */\n      swap1\n      pop\n        /* \"#utility.yul\":14434:14443   */\n      dup2\n        /* \"#utility.yul\":14428:14432   */\n      dup2\n        /* \"#utility.yul\":14424:14444   */\n      sub\n        /* \"#utility.yul\":14420:14421   */\n      0x00\n        /* \"#utility.yul\":14409:14418   */\n      dup4\n        /* \"#utility.yul\":14405:14422   */\n      add\n        /* \"#utility.yul\":14398:14445   */\n      mstore\n        /* \"#utility.yul\":14462:14540   */\n      tag_310\n        /* \"#utility.yul\":14535:14539   */\n      dup2\n        /* \"#utility.yul\":14526:14532   */\n      dup6\n        /* \"#utility.yul\":14462:14540   */\n      tag_116\n      jump\t// in\n    tag_310:\n        /* \"#utility.yul\":14454:14540   */\n      swap1\n      pop\n        /* \"#utility.yul\":14550:14622   */\n      tag_311\n        /* \"#utility.yul\":14618:14620   */\n      0x20\n        /* \"#utility.yul\":14607:14616   */\n      dup4\n        /* \"#utility.yul\":14603:14621   */\n      add\n        /* \"#utility.yul\":14594:14600   */\n      dup5\n        /* \"#utility.yul\":14550:14622   */\n      tag_134\n      jump\t// in\n    tag_311:\n        /* \"#utility.yul\":14206:14629   */\n      swap4\n      swap3\n      pop\n      pop\n      pop\n      jump\t// out\n        /* \"#utility.yul\":14635:14815   */\n    tag_70:\n        /* \"#utility.yul\":14683:14760   */\n      0x4e487b7100000000000000000000000000000000000000000000000000000000\n        /* \"#utility.yul\":14680:14681   */\n      0x00\n        /* \"#utility.yul\":14673:14761   */\n      mstore\n        /* \"#utility.yul\":14780:14784   */\n      0x32\n        /* \"#utility.yul\":14777:14778   */\n      0x04\n        /* \"#utility.yul\":14770:14785   */\n      mstore\n        /* \"#utility.yul\":14804:14808   */\n      0x24\n        /* \"#utility.yul\":14801:14802   */\n      0x00\n        /* \"#utility.yul\":14794:14809   */\n      revert\n        /* \"#utility.yul\":14821:14954   */\n    tag_139:\n        /* \"#utility.yul\":14864:14869   */\n      0x00\n        /* \"#utility.yul\":14902:14908   */\n      dup2\n        /* \"#utility.yul\":14889:14909   */\n      calldataload\n        /* \"#utility.yul\":14880:14909   */\n      swap1\n      pop\n        /* \"#utility.yul\":14918:14948   */\n      tag_314\n        /* \"#utility.yul\":14942:14947   */\n      dup2\n        /* \"#utility.yul\":14918:14948   */\n      tag_135\n      jump\t// in\n    tag_314:\n        /* \"#utility.yul\":14821:14954   */\n      swap3\n      swap2\n      pop\n      pop\n      jump\t// out\n        /* \"#utility.yul\":14960:15283   */\n    tag_75:\n        /* \"#utility.yul\":15016:15022   */\n      0x00\n        /* \"#utility.yul\":15065:15067   */\n      0x20\n        /* \"#utility.yul\":15053:15062   */\n      dup3\n        /* \"#utility.yul\":15044:15051   */\n      dup5\n        /* \"#utility.yul\":15040:15063   */\n      sub\n        /* \"#utility.yul\":15036:15068   */\n      slt\n        /* \"#utility.yul\":15033:15152   */\n      iszero\n      tag_316\n      jumpi\n        /* \"#utility.yul\":15071:15150   */\n      tag_317\n      tag_98\n      jump\t// in\n    tag_317:\n        /* \"#utility.yul\":15033:15152   */\n    tag_316:\n        /* \"#utility.yul\":15191:15192   */\n      0x00\n        /* \"#utility.yul\":15216:15266   */\n      tag_318\n        /* \"#utility.yul\":15258:15265   */\n      dup5\n        /* \"#utility.yul\":15249:15255   */\n      dup3\n        /* \"#utility.yul\":15238:15247   */\n      dup6\n        /* \"#utility.yul\":15234:15256   */\n      add\n        /* \"#utility.yul\":15216:15266   */\n      tag_139\n      jump\t// in\n    tag_318:\n        /* \"#utility.yul\":15206:15266   */\n      swap2\n      pop\n        /* \"#utility.yul\":15162:15276   */\n      pop\n        /* \"#utility.yul\":14960:15283   */\n      swap3\n      swap2\n      pop\n      pop\n      jump\t// out\n        /* \"#utility.yul\":15289:15407   */\n    tag_140:\n        /* \"#utility.yul\":15360:15382   */\n      tag_320\n        /* \"#utility.yul\":15376:15381   */\n      dup2\n        /* \"#utility.yul\":15360:15382   */\n      tag_110\n      jump\t// in\n    tag_320:\n        /* \"#utility.yul\":15353:15358   */\n      dup2\n        /* \"#utility.yul\":15350:15383   */\n      eq\n        /* \"#utility.yul\":15340:15401   */\n      tag_321\n      jumpi\n        /* \"#utility.yul\":15397:15398   */\n      0x00\n        /* \"#utility.yul\":15394:15395   */\n      0x00\n        /* \"#utility.yul\":15387:15399   */\n      revert\n        /* \"#utility.yul\":15340:15401   */\n    tag_321:\n        /* \"#utility.yul\":15289:15407   */\n      pop\n      jump\t// out\n        /* \"#utility.yul\":15413:15548   */\n    tag_141:\n        /* \"#utility.yul\":15457:15462   */\n      0x00\n        /* \"#utility.yul\":15495:15501   */\n      dup2\n        /* \"#utility.yul\":15482:15502   */\n      calldataload\n        /* \"#utility.yul\":15473:15502   */\n      swap1\n      pop\n        /* \"#utility.yul\":15511:15542   */\n      tag_323\n        /* \"#utility.yul\":15536:15541   */\n      dup2\n        /* \"#utility.yul\":15511:15542   */\n      tag_140\n      jump\t// in\n    tag_323:\n        /* \"#utility.yul\":15413:15548   */\n      swap3\n      swap2\n      pop\n      pop\n      jump\t// out\n        /* \"#utility.yul\":15554:15879   */\n    tag_79:\n        /* \"#utility.yul\":15611:15617   */\n      0x00\n        /* \"#utility.yul\":15660:15662   */\n      0x20\n        /* \"#utility.yul\":15648:15657   */\n      dup3\n        /* \"#utility.yul\":15639:15646   */\n      dup5\n        /* \"#utility.yul\":15635:15658   */\n      sub\n        /* \"#utility.yul\":15631:15663   */\n      slt\n        /* \"#utility.yul\":15628:15747   */\n      iszero\n      tag_325\n      jumpi\n        /* \"#utility.yul\":15666:15745   */\n      tag_326\n      tag_98\n      jump\t// in\n    tag_326:\n        /* \"#utility.yul\":15628:15747   */\n    tag_325:\n        /* \"#utility.yul\":15786:15787   */\n      0x00\n        /* \"#utility.yul\":15811:15862   */\n      tag_327\n        /* \"#utility.yul\":15854:15861   */\n      dup5\n        /* \"#utility.yul\":15845:15851   */\n      dup3\n        /* \"#utility.yul\":15834:15843   */\n      dup6\n        /* \"#utility.yul\":15830:15852   */\n      add\n        /* \"#utility.yul\":15811:15862   */\n      tag_141\n      jump\t// in\n    tag_327:\n        /* \"#utility.yul\":15801:15862   */\n      swap2\n      pop\n        /* \"#utility.yul\":15757:15872   */\n      pop\n        /* \"#utility.yul\":15554:15879   */\n      swap3\n      swap2\n      pop\n      pop\n      jump\t// out\n        /* \"#utility.yul\":15885:16002   */\n    tag_142:\n        /* \"#utility.yul\":15994:15995   */\n      0x00\n        /* \"#utility.yul\":15991:15992   */\n      0x00\n        /* \"#utility.yul\":15984:15996   */\n      revert\n        /* \"#utility.yul\":16008:16125   */\n    tag_143:\n        /* \"#utility.yul\":16117:16118   */\n      0x00\n        /* \"#utility.yul\":16114:16115   */\n      0x00\n        /* \"#utility.yul\":16107:16119   */\n      revert\n        /* \"#utility.yul\":16131:16248   */\n    tag_144:\n        /* \"#utility.yul\":16240:16241   */\n      0x00\n        /* \"#utility.yul\":16237:16238   */\n      0x00\n        /* \"#utility.yul\":16230:16242   */\n      revert\n        /* \"#utility.yul\":16254:16979   */\n    tag_83:\n        /* \"#utility.yul\":16332:16336   */\n      0x00\n        /* \"#utility.yul\":16338:16344   */\n      0x00\n        /* \"#utility.yul\":16394:16405   */\n      dup4\n        /* \"#utility.yul\":16381:16406   */\n      calldataload\n        /* \"#utility.yul\":16494:16495   */\n      0x01\n        /* \"#utility.yul\":16488:16492   */\n      0x20\n        /* \"#utility.yul\":16484:16496   */\n      sub\n        /* \"#utility.yul\":16473:16481   */\n      dup5\n        /* \"#utility.yul\":16457:16471   */\n      calldatasize\n        /* \"#utility.yul\":16453:16482   */\n      sub\n        /* \"#utility.yul\":16449:16497   */\n      sub\n        /* \"#utility.yul\":16429:16447   */\n      dup2\n        /* \"#utility.yul\":16425:16498   */\n      slt\n        /* \"#utility.yul\":16415:16583   */\n      tag_332\n      jumpi\n        /* \"#utility.yul\":16502:16581   */\n      tag_333\n      tag_142\n      jump\t// in\n    tag_333:\n        /* \"#utility.yul\":16415:16583   */\n    tag_332:\n        /* \"#utility.yul\":16614:16632   */\n      dup1\n        /* \"#utility.yul\":16604:16612   */\n      dup5\n        /* \"#utility.yul\":16600:16633   */\n      add\n        /* \"#utility.yul\":16592:16633   */\n      swap3\n      pop\n        /* \"#utility.yul\":16666:16670   */\n      dup3\n        /* \"#utility.yul\":16653:16671   */\n      calldataload\n        /* \"#utility.yul\":16643:16671   */\n      swap2\n      pop\n        /* \"#utility.yul\":16694:16712   */\n      0xffffffffffffffff\n        /* \"#utility.yul\":16686:16692   */\n      dup3\n        /* \"#utility.yul\":16683:16713   */\n      gt\n        /* \"#utility.yul\":16680:16797   */\n      iszero\n      tag_334\n      jumpi\n        /* \"#utility.yul\":16716:16795   */\n      tag_335\n      tag_143\n      jump\t// in\n    tag_335:\n        /* \"#utility.yul\":16680:16797   */\n    tag_334:\n        /* \"#utility.yul\":16824:16826   */\n      0x20\n        /* \"#utility.yul\":16818:16822   */\n      dup4\n        /* \"#utility.yul\":16814:16827   */\n      add\n        /* \"#utility.yul\":16806:16827   */\n      swap3\n      pop\n        /* \"#utility.yul\":16881:16885   */\n      0x01\n        /* \"#utility.yul\":16873:16879   */\n      dup3\n        /* \"#utility.yul\":16869:16886   */\n      mul\n        /* \"#utility.yul\":16853:16867   */\n      calldatasize\n        /* \"#utility.yul\":16849:16887   */\n      sub\n        /* \"#utility.yul\":16843:16847   */\n      dup4\n        /* \"#utility.yul\":16839:16888   */\n      sgt\n        /* \"#utility.yul\":16836:16972   */\n      iszero\n      tag_336\n      jumpi\n        /* \"#utility.yul\":16891:16970   */\n      tag_337\n      tag_144\n      jump\t// in\n    tag_337:\n        /* \"#utility.yul\":16836:16972   */\n    tag_336:\n        /* \"#utility.yul\":16345:16979   */\n      pop\n        /* \"#utility.yul\":16254:16979   */\n      swap3\n      pop\n      swap3\n      swap1\n      pop\n      jump\t// out\n        /* \"#utility.yul\":16985:17165   */\n    tag_145:\n        /* \"#utility.yul\":17033:17110   */\n      0x4e487b7100000000000000000000000000000000000000000000000000000000\n        /* \"#utility.yul\":17030:17031   */\n      0x00\n        /* \"#utility.yul\":17023:17111   */\n      mstore\n        /* \"#utility.yul\":17130:17134   */\n      0x41\n        /* \"#utility.yul\":17127:17128   */\n      0x04\n        /* \"#utility.yul\":17120:17135   */\n      mstore\n        /* \"#utility.yul\":17154:17158   */\n      0x24\n        /* \"#utility.yul\":17151:17152   */\n      0x00\n        /* \"#utility.yul\":17144:17159   */\n      revert\n        /* \"#utility.yul\":17171:17312   */\n    tag_146:\n        /* \"#utility.yul\":17220:17224   */\n      0x00\n        /* \"#utility.yul\":17243:17246   */\n      dup2\n        /* \"#utility.yul\":17235:17246   */\n      swap1\n      pop\n        /* \"#utility.yul\":17266:17269   */\n      dup2\n        /* \"#utility.yul\":17263:17264   */\n      0x00\n        /* \"#utility.yul\":17256:17270   */\n      mstore\n        /* \"#utility.yul\":17300:17304   */\n      0x20\n        /* \"#utility.yul\":17297:17298   */\n      0x00\n        /* \"#utility.yul\":17287:17305   */\n      keccak256\n        /* \"#utility.yul\":17279:17305   */\n      swap1\n      pop\n        /* \"#utility.yul\":17171:17312   */\n      swap2\n      swap1\n      pop\n      jump\t// out\n        /* \"#utility.yul\":17318:17411   */\n    tag_147:\n        /* \"#utility.yul\":17355:17361   */\n      0x00\n        /* \"#utility.yul\":17402:17404   */\n      0x20\n        /* \"#utility.yul\":17397:17399   */\n      0x1f\n        /* \"#utility.yul\":17390:17395   */\n      dup4\n        /* \"#utility.yul\":17386:17400   */\n      add\n        /* \"#utility.yul\":17382:17405   */\n      div\n        /* \"#utility.yul\":17372:17405   */\n      swap1\n      pop\n        /* \"#utility.yul\":17318:17411   */\n      swap2\n      swap1\n      pop\n      jump\t// out\n        /* \"#utility.yul\":17417:17524   */\n    tag_148:\n        /* \"#utility.yul\":17461:17469   */\n      0x00\n        /* \"#utility.yul\":17511:17516   */\n      dup3\n        /* \"#utility.yul\":17505:17509   */\n      dup3\n        /* \"#utility.yul\":17501:17517   */\n      shl\n        /* \"#utility.yul\":17480:17517   */\n      swap1\n      pop\n        /* \"#utility.yul\":17417:17524   */\n      swap3\n      swap2\n      pop\n      pop\n      jump\t// out\n        /* \"#utility.yul\":17530:17923   */\n    tag_149:\n        /* \"#utility.yul\":17599:17605   */\n      0x00\n        /* \"#utility.yul\":17649:17650   */\n      0x08\n        /* \"#utility.yul\":17637:17647   */\n      dup4\n        /* \"#utility.yul\":17633:17651   */\n      mul\n        /* \"#utility.yul\":17672:17769   */\n      tag_343\n        /* \"#utility.yul\":17702:17768   */\n      0xffffffffffffffffffffffffffffffffffffffffffffffffffffffffffffffff\n        /* \"#utility.yul\":17691:17700   */\n      dup3\n        /* \"#utility.yul\":17672:17769   */\n      tag_148\n      jump\t// in\n    tag_343:\n        /* \"#utility.yul\":17790:17829   */\n      tag_344\n        /* \"#utility.yul\":17820:17828   */\n      dup7\n        /* \"#utility.yul\":17809:17818   */\n      dup4\n        /* \"#utility.yul\":17790:17829   */\n      tag_148\n      jump\t// in\n    tag_344:\n        /* \"#utility.yul\":17778:17829   */\n      swap6\n      pop\n        /* \"#utility.yul\":17862:17866   */\n      dup1\n        /* \"#utility.yul\":17858:17867   */\n      not\n        /* \"#utility.yul\":17851:17856   */\n      dup5\n        /* \"#utility.yul\":17847:17868   */\n      and\n        /* \"#utility.yul\":17838:17868   */\n      swap4\n      pop\n        /* \"#utility.yul\":17911:17915   */\n      dup1\n        /* \"#utility.yul\":17901:17909   */\n      dup7\n        /* \"#utility.yul\":17897:17916   */\n      and\n        /* \"#utility.yul\":17890:17895   */\n      dup5\n        /* \"#utility.yul\":17887:17917   */\n      or\n        /* \"#utility.yul\":17877:17917   */\n      swap3\n      pop\n        /* \"#utility.yul\":17606:17923   */\n      pop\n      pop\n        /* \"#utility.yul\":17530:17923   */\n      swap4\n      swap3\n      pop\n      pop\n      pop\n      jump\t// out\n        /* \"#utility.yul\":17929:18071   */\n    tag_150:\n        /* \"#utility.yul\":17979:17988   */\n      0x00\n        /* \"#utility.yul\":18012:18065   */\n      tag_346\n        /* \"#utility.yul\":18030:18064   */\n      tag_347\n        /* \"#utility.yul\":18039:18063   */\n      tag_348\n        /* \"#utility.yul\":18057:18062   */\n      dup5\n        /* \"#utility.yul\":18039:18063   */\n      tag_104\n      jump\t// in\n    tag_348:\n        /* \"#utility.yul\":18030:18064   */\n      tag_117\n      jump\t// in\n    tag_347:\n        /* \"#utility.yul\":18012:18065   */\n      tag_104\n      jump\t// in\n    tag_346:\n        /* \"#utility.yul\":17999:18065   */\n      swap1\n      pop\n        /* \"#utility.yul\":17929:18071   */\n      swap2\n      swap1\n      pop\n      jump\t// out\n        /* \"#utility.yul\":18077:18152   */\n    tag_151:\n        /* \"#utility.yul\":18120:18123   */\n      0x00\n        /* \"#utility.yul\":18141:18146   */\n      dup2\n        /* \"#utility.yul\":18134:18146   */\n      swap1\n      pop\n        /* \"#utility.yul\":18077:18152   */\n      swap2\n      swap1\n      pop\n      jump\t// out\n        /* \"#utility.yul\":18158:18427   */\n    tag_152:\n        /* \"#utility.yul\":18268:18307   */\n      tag_351\n        /* \"#utility.yul\":18299:18306   */\n      dup4\n        /* \"#utility.yul\":18268:18307   */\n      tag_150\n      jump\t// in\n    tag_351:\n        /* \"#utility.yul\":18329:18420   */\n      tag_352\n        /* \"#utility.yul\":18378:18419   */\n      tag_353\n        /* \"#utility.yul\":18402:18418   */\n      dup3\n        /* \"#utility.yul\":18378:18419   */\n      tag_151\n      jump\t// in\n    tag_353:\n        /* \"#utility.yul\":18370:18376   */\n      dup5\n        /* \"#utility.yul\":18363:18367   */\n      dup5\n        /* \"#utility.yul\":18357:18368   */\n      sload\n        /* \"#utility.yul\":18329:18420   */\n      tag_149\n      jump\t// in\n    tag_352:\n        /* \"#utility.yul\":18323:18327   */\n      dup3\n        /* \"#utility.yul\":18316:18421   */\n      sstore\n        /* \"#utility.yul\":18234:18427   */\n      pop\n        /* \"#utility.yul\":18158:18427   */\n      pop\n      pop\n      pop\n      jump\t// out\n        /* \"#utility.yul\":18433:18506   */\n    tag_153:\n        /* \"#utility.yul\":18478:18481   */\n      0x00\n        /* \"#utility.yul\":18499:18500   */\n      0x00\n        /* \"#utility.yul\":18492:18500   */\n      swap1\n      pop\n        /* \"#utility.yul\":18433:18506   */\n      swap1\n      jump\t// out\n        /* \"#utility.yul\":18512:18701   */\n    tag_154:\n        /* \"#utility.yul\":18589:18621   */\n      tag_356\n      tag_153\n      jump\t// in\n    tag_356:\n        /* \"#utility.yul\":18630:18695   */\n      tag_357\n        /* \"#utility.yul\":18688:18694   */\n      dup2\n        /* \"#utility.yul\":18680:18686   */\n      dup5\n        /* \"#utility.yul\":18674:18678   */\n      dup5\n        /* \"#utility.yul\":18630:18695   */\n      tag_152\n      jump\t// in\n    tag_357:\n        /* \"#utility.yul\":18565:18701   */\n      pop\n        /* \"#utility.yul\":18512:18701   */\n      pop\n      pop\n      jump\t// out\n        /* \"#utility.yul\":18707:18921   */\n    tag_155:\n        /* \"#utility.yul\":18792:18793   */\n      0x00\n        /* \"#utility.yul\":18777:18915   */\n    tag_359:\n        /* \"#utility.yul\":18802:18811   */\n      dup3\n        /* \"#utility.yul\":18799:18800   */\n      dup2\n        /* \"#utility.yul\":18796:18812   */\n      lt\n        /* \"#utility.yul\":18777:18915   */\n      iszero\n      tag_361\n      jumpi\n        /* \"#utility.yul\":18854:18905   */\n      tag_362\n        /* \"#utility.yul\":18903:18904   */\n      0x00\n        /* \"#utility.yul\":18899:18900   */\n      dup3\n        /* \"#utility.yul\":18888:18897   */\n      dup5\n        /* \"#utility.yul\":18884:18901   */\n      add\n        /* \"#utility.yul\":18854:18905   */\n      tag_154\n      jump\t// in\n    tag_362:\n        /* \"#utility.yul\":18827:18828   */\n      0x01\n        /* \"#utility.yul\":18824:18825   */\n      dup2\n        /* \"#utility.yul\":18820:18829   */\n      add\n        /* \"#utility.yul\":18815:18829   */\n      swap1\n      pop\n        /* \"#utility.yul\":18777:18915   */\n      jump(tag_359)\n    tag_361:\n        /* \"#utility.yul\":18781:18795   */\n      pop\n        /* \"#utility.yul\":18707:18921   */\n      pop\n      pop\n      jump\t// out\n        /* \"#utility.yul\":18927:19673   */\n    tag_156:\n        /* \"#utility.yul\":19028:19030   */\n      0x1f\n        /* \"#utility.yul\":19023:19026   */\n      dup3\n        /* \"#utility.yul\":19020:19031   */\n      gt\n        /* \"#utility.yul\":19017:19666   */\n      iszero\n      tag_364\n      jumpi\n        /* \"#utility.yul\":19057:19067   */\n      dup3\n        /* \"#utility.yul\":19052:19055   */\n      dup3\n        /* \"#utility.yul\":19049:19068   */\n      gt\n        /* \"#utility.yul\":19046:19656   */\n      iszero\n      tag_365\n      jumpi\n        /* \"#utility.yul\":19103:19141   */\n      tag_366\n        /* \"#utility.yul\":19135:19140   */\n      dup2\n        /* \"#utility.yul\":19103:19141   */\n      tag_146\n      jump\t// in\n    tag_366:\n        /* \"#utility.yul\":19178:19200   */\n      tag_367\n        /* \"#utility.yul\":19196:19199   */\n      dup4\n        /* \"#utility.yul\":19178:19200   */\n      tag_147\n      jump\t// in\n    tag_367:\n        /* \"#utility.yul\":19237:19266   */\n      tag_368\n        /* \"#utility.yul\":19255:19265   */\n      dup6\n        /* \"#utility.yul\":19237:19266   */\n      tag_147\n      jump\t// in\n    tag_368:\n        /* \"#utility.yul\":19427:19429   */\n      0x20\n        /* \"#utility.yul\":19415:19425   */\n      dup7\n        /* \"#utility.yul\":19412:19430   */\n      lt\n        /* \"#utility.yul\":19409:19488   */\n      iszero\n      tag_369\n      jumpi\n        /* \"#utility.yul\":19469:19470   */\n      0x00\n        /* \"#utility.yul\":19453:19470   */\n      swap1\n      pop\n        /* \"#utility.yul\":19409:19488   */\n    tag_369:\n        /* \"#utility.yul\":19538:19550   */\n      dup1\n        /* \"#utility.yul\":19528:19536   */\n      dup4\n        /* \"#utility.yul\":19524:19551   */\n      add\n        /* \"#utility.yul\":19568:19642   */\n      tag_370\n        /* \"#utility.yul\":19628:19640   */\n      dup3\n        /* \"#utility.yul\":19614:19626   */\n      dup5\n        /* \"#utility.yul\":19610:19641   */\n      sub\n        /* \"#utility.yul\":19597:19608   */\n      dup3\n        /* \"#utility.yul\":19568:19642   */\n      tag_155\n      jump\t// in\n    tag_370:\n        /* \"#utility.yul\":19069:19656   */\n      pop\n      pop\n      pop\n      pop\n        /* \"#utility.yul\":19046:19656   */\n    tag_365:\n        /* \"#utility.yul\":19017:19666   */\n    tag_364:\n        /* \"#utility.yul\":18927:19673   */\n      pop\n      pop\n      pop\n      jump\t// out\n        /* \"#utility.yul\":19679:19796   */\n    tag_157:\n        /* \"#utility.yul\":19733:19741   */\n      0x00\n        /* \"#utility.yul\":19783:19788   */\n      dup3\n        /* \"#utility.yul\":19777:19781   */\n      dup3\n        /* \"#utility.yul\":19773:19789   */\n      shr\n        /* \"#utility.yul\":19752:19789   */\n      swap1\n      pop\n        /* \"#utility.yul\":19679:19796   */\n      swap3\n      swap2\n      pop\n      pop\n      jump\t// out\n        /* \"#utility.yul\":19802:19971   */\n    tag_158:\n        /* \"#utility.yul\":19846:19852   */\n      0x00\n        /* \"#utility.yul\":19879:19930   */\n      tag_373\n        /* \"#utility.yul\":19927:19928   */\n      0x00\n        /* \"#utility.yul\":19923:19929   */\n      not\n        /* \"#utility.yul\":19915:19920   */\n      dup5\n        /* \"#utility.yul\":19912:19913   */\n      0x08\n        /* \"#utility.yul\":19908:19921   */\n      mul\n        /* \"#utility.yul\":19879:19930   */\n      tag_157\n      jump\t// in\n    tag_373:\n        /* \"#utility.yul\":19875:19931   */\n      not\n        /* \"#utility.yul\":19960:19964   */\n      dup1\n        /* \"#utility.yul\":19954:19958   */\n      dup4\n        /* \"#utility.yul\":19950:19965   */\n      and\n        /* \"#utility.yul\":19940:19965   */\n      swap2\n      pop\n        /* \"#utility.yul\":19853:19971   */\n      pop\n        /* \"#utility.yul\":19802:19971   */\n      swap3\n      swap2\n      pop\n      pop\n      jump\t// out\n        /* \"#utility.yul\":19976:20271   */\n    tag_159:\n        /* \"#utility.yul\":20052:20056   */\n      0x00\n        /* \"#utility.yul\":20198:20227   */\n      tag_375\n        /* \"#utility.yul\":20223:20226   */\n      dup4\n        /* \"#utility.yul\":20217:20221   */\n      dup4\n        /* \"#utility.yul\":20198:20227   */\n      tag_158\n      jump\t// in\n    tag_375:\n        /* \"#utility.yul\":20190:20227   */\n      swap2\n      pop\n        /* \"#utility.yul\":20260:20263   */\n      dup3\n        /* \"#utility.yul\":20257:20258   */\n      0x02\n        /* \"#utility.yul\":20253:20264   */\n      mul\n        /* \"#utility.yul\":20247:20251   */\n      dup3\n        /* \"#utility.yul\":20244:20265   */\n      or\n        /* \"#utility.yul\":20236:20265   */\n      swap1\n      pop\n        /* \"#utility.yul\":19976:20271   */\n      swap3\n      swap2\n      pop\n      pop\n      jump\t// out\n        /* \"#utility.yul\":20276:21671   */\n    tag_88:\n        /* \"#utility.yul\":20393:20430   */\n      tag_377\n        /* \"#utility.yul\":20426:20429   */\n      dup3\n        /* \"#utility.yul\":20393:20430   */\n      tag_112\n      jump\t// in\n    tag_377:\n        /* \"#utility.yul\":20495:20513   */\n      0xffffffffffffffff\n        /* \"#utility.yul\":20487:20493   */\n      dup2\n        /* \"#utility.yul\":20484:20514   */\n      gt\n        /* \"#utility.yul\":20481:20537   */\n      iszero\n      tag_378\n      jumpi\n        /* \"#utility.yul\":20517:20535   */\n      tag_379\n      tag_145\n      jump\t// in\n    tag_379:\n        /* \"#utility.yul\":20481:20537   */\n    tag_378:\n        /* \"#utility.yul\":20561:20599   */\n      tag_380\n        /* \"#utility.yul\":20593:20597   */\n      dup3\n        /* \"#utility.yul\":20587:20598   */\n      sload\n        /* \"#utility.yul\":20561:20599   */\n      tag_40\n      jump\t// in\n    tag_380:\n        /* \"#utility.yul\":20646:20713   */\n      tag_381\n        /* \"#utility.yul\":20706:20712   */\n      dup3\n        /* \"#utility.yul\":20698:20704   */\n      dup3\n        /* \"#utility.yul\":20692:20696   */\n      dup6\n        /* \"#utility.yul\":20646:20713   */\n      tag_156\n      jump\t// in\n    tag_381:\n        /* \"#utility.yul\":20740:20741   */\n      0x00\n        /* \"#utility.yul\":20764:20768   */\n      0x20\n        /* \"#utility.yul\":20751:20768   */\n      swap1\n      pop\n        /* \"#utility.yul\":20796:20798   */\n      0x1f\n        /* \"#utility.yul\":20788:20794   */\n      dup4\n        /* \"#utility.yul\":20785:20799   */\n      gt\n        /* \"#utility.yul\":20813:20814   */\n      0x01\n        /* \"#utility.yul\":20808:21426   */\n      dup2\n      eq\n      tag_383\n      jumpi\n        /* \"#utility.yul\":21470:21471   */\n      0x00\n        /* \"#utility.yul\":21487:21493   */\n      dup5\n        /* \"#utility.yul\":21484:21561   */\n      iszero\n      tag_384\n      jumpi\n        /* \"#utility.yul\":21536:21545   */\n      dup3\n        /* \"#utility.yul\":21531:21534   */\n      dup8\n        /* \"#utility.yul\":21527:21546   */\n      add\n        /* \"#utility.yul\":21521:21547   */\n      mload\n        /* \"#utility.yul\":21512:21547   */\n      swap1\n      pop\n        /* \"#utility.yul\":21484:21561   */\n    tag_384:\n        /* \"#utility.yul\":21587:21654   */\n      tag_385\n        /* \"#utility.yul\":21647:21653   */\n      dup6\n        /* \"#utility.yul\":21640:21645   */\n      dup3\n        /* \"#utility.yul\":21587:21654   */\n      tag_159\n      jump\t// in\n    tag_385:\n        /* \"#utility.yul\":21581:21585   */\n      dup7\n        /* \"#utility.yul\":21574:21655   */\n      sstore\n        /* \"#utility.yul\":21443:21665   */\n      pop\n        /* \"#utility.yul\":20778:21665   */\n      jump(tag_382)\n        /* \"#utility.yul\":20808:21426   */\n    tag_383:\n        /* \"#utility.yul\":20860:20864   */\n      0x1f\n        /* \"#utility.yul\":20856:20865   */\n      not\n        /* \"#utility.yul\":20848:20854   */\n      dup5\n        /* \"#utility.yul\":20844:20866   */\n      and\n        /* \"#utility.yul\":20894:20931   */\n      tag_386\n        /* \"#utility.yul\":20926:20930   */\n      dup7\n        /* \"#utility.yul\":20894:20931   */\n      tag_146\n      jump\t// in\n    tag_386:\n        /* \"#utility.yul\":20953:20954   */\n      0x00\n        /* \"#utility.yul\":20967:21175   */\n    tag_387:\n        /* \"#utility.yul\":20981:20988   */\n      dup3\n        /* \"#utility.yul\":20978:20979   */\n      dup2\n        /* \"#utility.yul\":20975:20989   */\n      lt\n        /* \"#utility.yul\":20967:21175   */\n      iszero\n      tag_389\n      jumpi\n        /* \"#utility.yul\":21060:21069   */\n      dup5\n        /* \"#utility.yul\":21055:21058   */\n      dup10\n        /* \"#utility.yul\":21051:21070   */\n      add\n        /* \"#utility.yul\":21045:21071   */\n      mload\n        /* \"#utility.yul\":21037:21043   */\n      dup3\n        /* \"#utility.yul\":21030:21072   */\n      sstore\n        /* \"#utility.yul\":21111:21112   */\n      0x01\n        /* \"#utility.yul\":21103:21109   */\n      dup3\n        /* \"#utility.yul\":21099:21113   */\n      add\n        /* \"#utility.yul\":21089:21113   */\n      swap2\n      pop\n        /* \"#utility.yul\":21158:21160   */\n      0x20\n        /* \"#utility.yul\":21147:21156   */\n      dup6\n        /* \"#utility.yul\":21143:21161   */\n      add\n        /* \"#utility.yul\":21130:21161   */\n      swap5\n      pop\n        /* \"#utility.yul\":21004:21008   */\n      0x20\n        /* \"#utility.yul\":21001:21002   */\n      dup2\n        /* \"#utility.yul\":20997:21009   */\n      add\n        /* \"#utility.yul\":20992:21009   */\n      swap1\n      pop\n        /* \"#utility.yul\":20967:21175   */\n      jump(tag_387)\n    tag_389:\n        /* \"#utility.yul\":21203:21209   */\n      dup7\n        /* \"#utility.yul\":21194:21201   */\n      dup4\n        /* \"#utility.yul\":21191:21210   */\n      lt\n        /* \"#utility.yul\":21188:21367   */\n      iszero\n      tag_390\n      jumpi\n        /* \"#utility.yul\":21261:21270   */\n      dup5\n        /* \"#utility.yul\":21256:21259   */\n      dup10\n        /* \"#utility.yul\":21252:21271   */\n      add\n        /* \"#utility.yul\":21246:21272   */\n      mload\n        /* \"#utility.yul\":21304:21352   */\n      tag_391\n        /* \"#utility.yul\":21346:21350   */\n      0x1f\n        /* \"#utility.yul\":21338:21344   */\n      dup10\n        /* \"#utility.yul\":21334:21351   */\n      and\n        /* \"#utility.yul\":21323:21332   */\n      dup3\n        /* \"#utility.yul\":21304:21352   */\n      tag_158\n      jump\t// in\n    tag_391:\n        /* \"#utility.yul\":21296:21302   */\n      dup4\n        /* \"#utility.yul\":21289:21353   */\n      sstore\n        /* \"#utility.yul\":21211:21367   */\n      pop\n        /* \"#utility.yul\":21188:21367   */\n    tag_390:\n        /* \"#utility.yul\":21413:21414   */\n      0x01\n        /* \"#utility.yul\":21409:21410   */\n      0x02\n        /* \"#utility.yul\":21401:21407   */\n      dup9\n        /* \"#utility.yul\":21397:21411   */\n      mul\n        /* \"#utility.yul\":21393:21415   */\n      add\n        /* \"#utility.yul\":21387:21391   */\n      dup9\n        /* \"#utility.yul\":21380:21416   */\n      sstore\n        /* \"#utility.yul\":20815:21426   */\n      pop\n      pop\n      pop\n        /* \"#utility.yul\":20778:21665   */\n    tag_382:\n      pop\n        /* \"#utility.yul\":20368:21671   */\n      pop\n      pop\n      pop\n        /* \"#utility.yul\":20276:21671   */\n      pop\n      pop\n      jump\t// out\n        /* \"#utility.yul\":21677:21825   */\n    tag_160:\n        /* \"#utility.yul\":21775:21781   */\n      dup3\n        /* \"#utility.yul\":21770:21773   */\n      dup2\n        /* \"#utility.yul\":21765:21768   */\n      dup4\n        /* \"#utility.yul\":21752:21782   */\n      calldatacopy\n        /* \"#utility.yul\":21816:21817   */\n      0x00\n        /* \"#utility.yul\":21807:21813   */\n      dup4\n        /* \"#utility.yul\":21802:21805   */\n      dup4\n        /* \"#utility.yul\":21798:21814   */\n      add\n        /* \"#utility.yul\":21791:21818   */\n      mstore\n        /* \"#utility.yul\":21677:21825   */\n      pop\n      pop\n      pop\n      jump\t// out\n        /* \"#utility.yul\":21855:22172   */\n    tag_161:\n        /* \"#utility.yul\":21953:21956   */\n      0x00\n        /* \"#utility.yul\":21974:22045   */\n      tag_394\n        /* \"#utility.yul\":22038:22044   */\n      dup4\n        /* \"#utility.yul\":22033:22036   */\n      dup6\n        /* \"#utility.yul\":21974:22045   */\n      tag_113\n      jump\t// in\n    tag_394:\n        /* \"#utility.yul\":21967:22045   */\n      swap4\n      pop\n        /* \"#utility.yul\":22055:22111   */\n      tag_395\n        /* \"#utility.yul\":22104:22110   */\n      dup4\n        /* \"#utility.yul\":22099:22102   */\n      dup6\n        /* \"#utility.yul\":22092:22097   */\n      dup5\n        /* \"#utility.yul\":22055:22111   */\n      tag_160\n      jump\t// in\n    tag_395:\n        /* \"#utility.yul\":22136:22165   */\n      tag_396\n        /* \"#utility.yul\":22158:22164   */\n      dup4\n        /* \"#utility.yul\":22136:22165   */\n      tag_115\n      jump\t// in\n    tag_396:\n        /* \"#utility.yul\":22131:22134   */\n      dup5\n        /* \"#utility.yul\":22127:22166   */\n      add\n        /* \"#utility.yul\":22120:22166   */\n      swap1\n      pop\n        /* \"#utility.yul\":21855:22172   */\n      swap4\n      swap3\n      pop\n      pop\n      pop\n      jump\t// out\n        /* \"#utility.yul\":22178:22511   */\n    tag_96:\n        /* \"#utility.yul\":22301:22305   */\n      0x00\n        /* \"#utility.yul\":22339:22341   */\n      0x20\n        /* \"#utility.yul\":22328:22337   */\n      dup3\n        /* \"#utility.yul\":22324:22342   */\n      add\n        /* \"#utility.yul\":22316:22342   */\n      swap1\n      pop\n        /* \"#utility.yul\":22388:22397   */\n      dup2\n        /* \"#utility.yul\":22382:22386   */\n      dup2\n        /* \"#utility.yul\":22378:22398   */\n      sub\n        /* \"#utility.yul\":22374:22375   */\n      0x00\n        /* \"#utility.yul\":22363:22372   */\n      dup4\n        /* \"#utility.yul\":22359:22376   */\n      add\n        /* \"#utility.yul\":22352:22399   */\n      mstore\n        /* \"#utility.yul\":22416:22504   */\n      tag_398\n        /* \"#utility.yul\":22499:22503   */\n      dup2\n        /* \"#utility.yul\":22490:22496   */\n      dup5\n        /* \"#utility.yul\":22482:22488   */\n      dup7\n        /* \"#utility.yul\":22416:22504   */\n      tag_161\n      jump\t// in\n    tag_398:\n        /* \"#utility.yul\":22408:22504   */\n      swap1\n      pop\n        /* \"#utility.yul\":22178:22511   */\n      swap4\n      swap3\n      pop\n      pop\n      pop\n      jump\t// out\n\n    auxdata: 0xa2646970667358221220ae6c61f589743f02872e8ce2d49c1b375484875a9ba6bdef5a28a333c7b6511864736f6c63430008220033\n}\n",
				"bytecode": {
					"linkReferences": {},
					"object": "608060405234801561000f575f5ffd5b5060405161161c38038061161c83398181016040528101906100319190610114565b3360015f6101000a81548173ffffffffffffffffffffffffffffffffffffffff021916908373ffffffffffffffffffffffffffffffffffffffff160217905550805f5f6101000a81548173ffffffffffffffffffffffffffffffffffffffff021916908373ffffffffffffffffffffffffffffffffffffffff1602179055505061013f565b5f5ffd5b5f73ffffffffffffffffffffffffffffffffffffffff82169050919050565b5f6100e3826100ba565b9050919050565b6100f3816100d9565b81146100fd575f5ffd5b50565b5f8151905061010e816100ea565b92915050565b5f60208284031215610129576101286100b6565b5b5f61013684828501610100565b91505092915050565b6114d08061014c5f395ff3fe608060405260043610610049575f3560e01c806321670f221461004d578063469e90671461006957806355a373d6146100a85780636aa1d2ac146100d25780638da5cb5b146100fa575b5f5ffd5b610067600480360381019061006291906109e5565b610124565b005b348015610074575f5ffd5b5061008f600480360381019061008a9190610a23565b610540565b60405161009f9493929190610b02565b60405180910390f35b3480156100b3575f5ffd5b506100bc610629565b6040516100c99190610ba7565b60405180910390f35b3480156100dd575f5ffd5b506100f860048036038101906100f39190610d20565b61064d565b005b348015610105575f5ffd5b5061010e61092b565b60405161011b9190610e04565b60405180910390f35b60015f9054906101000a900473ffffffffffffffffffffffffffffffffffffffff1673ffffffffffffffffffffffffffffffffffffffff163373ffffffffffffffffffffffffffffffffffffffff16146101b3576040517f08c379a00000000000000000000000000000000000000000000000000000000081526004016101aa90610e67565b60405180910390fd5b5f73ffffffffffffffffffffffffffffffffffffffff1660025f8473ffffffffffffffffffffffffffffffffffffffff1673ffffffffffffffffffffffffffffffffffffffff1681526020019081526020015f205f015f9054906101000a900473ffffffffffffffffffffffffffffffffffffffff1673ffffffffffffffffffffffffffffffffffffffff1614610276576040517fd764187d00000000000000000000000000000000000000000000000000000000815260040160405180910390fd5b5f60025f8473ffffffffffffffffffffffffffffffffffffffff1673ffffffffffffffffffffffffffffffffffffffff1681526020019081526020015f206040518060800160405290815f82015f9054906101000a900473ffffffffffffffffffffffffffffffffffffffff1673ffffffffffffffffffffffffffffffffffffffff1673ffffffffffffffffffffffffffffffffffffffff1681526020015f820160149054906101000a900460ff161515151581526020015f820160159054906101000a900460ff1660ff1660ff16815260200160018201805461035990610eb2565b80601f016020809104026020016040519081016040528092919081815260200182805461038590610eb2565b80156103d05780601f106103a7576101008083540402835291602001916103d0565b820191905f5260205f20905b8154815290600101906020018083116103b357829003601f168201915b5050505050815250509050806020015161041f576040517f08c379a000000000000000000000000000000000000000000000000000000000815260040161041690610f2c565b60405180910390fd5b5f5f5f9054906101000a900473ffffffffffffffffffffffffffffffffffffffff1673ffffffffffffffffffffffffffffffffffffffff1663a9059cbb85856040518363ffffffff1660e01b815260040161047b929190610f59565b6020604051808303815f875af1158015610497573d5f5f3e3d5ffd5b505050506040513d601f19601f820116820180604052508101906104bb9190610faa565b9050806104fd576040517f08c379a00000000000000000000000000000000000000000000000000000000081526004016104f49061101f565b60405180910390fd5b7fa841c12702c4cd6ea8c369f0e7e906600c667854d8c4c38a63a787d901058ff282606001513460405161053292919061103d565b60405180910390a150505050565b6002602052805f5260405f205f91509050805f015f9054906101000a900473ffffffffffffffffffffffffffffffffffffffff1690805f0160149054906101000a900460ff1690805f0160159054906101000a900460ff16908060010180546105a890610eb2565b80601f01602080910402602001604051908101604052809291908181526020018280546105d490610eb2565b801561061f5780601f106105f65761010080835404028352916020019161061f565b820191905f5260205f20905b81548152906001019060200180831161060257829003601f168201915b5050505050905084565b5f5f9054906101000a900473ffffffffffffffffffffffffffffffffffffffff1681565b5f8686905090505f5f90505b8181101561091f5760405180608001604052808b8b8481811061067f5761067e61106b565b5b90506020020160208101906106949190610a23565b73ffffffffffffffffffffffffffffffffffffffff1681526020018787848181106106c2576106c161106b565b5b90506020020160208101906106d791906110ac565b151581526020018585848181106106f1576106f061106b565b5b90506020020160208101906107069190611101565b60ff1681526020018989848181106107215761072061106b565b5b90506020028101906107339190611138565b8080601f0160208091040260200160405190810160405280939291908181526020018383808284375f81840152601f19601f8201169050808301925050505050505081525060025f8c8c8581811061078e5761078d61106b565b5b90506020020160208101906107a39190610a23565b73ffffffffffffffffffffffffffffffffffffffff1673ffffffffffffffffffffffffffffffffffffffff1681526020019081526020015f205f820151815f015f6101000a81548173ffffffffffffffffffffffffffffffffffffffff021916908373ffffffffffffffffffffffffffffffffffffffff1602179055506020820151815f0160146101000a81548160ff0219169083151502179055506040820151815f0160156101000a81548160ff021916908360ff1602179055506060820151816001019081610874919061136f565b5090505089898281811061088b5761088a61106b565b5b90506020020160208101906108a09190610a23565b73ffffffffffffffffffffffffffffffffffffffff167f21f0ef8ecb39babd1f22ce5ea02510839dbcf939b6ba195a9f8bc7442aca5a0e8989848181106108ea576108e961106b565b5b90506020028101906108fc9190611138565b60405161090a929190611478565b60405180910390a28080600101915050610659565b50505050505050505050565b60015f9054906101000a900473ffffffffffffffffffffffffffffffffffffffff1681565b5f5ffd5b5f5ffd5b5f73ffffffffffffffffffffffffffffffffffffffff82169050919050565b5f61098182610958565b9050919050565b61099181610977565b811461099b575f5ffd5b50565b5f813590506109ac81610988565b92915050565b5f819050919050565b6109c4816109b2565b81146109ce575f5ffd5b50565b5f813590506109df816109bb565b92915050565b5f5f604083850312156109fb576109fa610950565b5b5f610a088582860161099e565b9250506020610a19858286016109d1565b9150509250929050565b5f60208284031215610a3857610a37610950565b5b5f610a458482850161099e565b91505092915050565b610a5781610977565b82525050565b5f8115159050919050565b610a7181610a5d565b82525050565b5f60ff82169050919050565b610a8c81610a77565b82525050565b5f81519050919050565b5f82825260208201905092915050565b8281835e5f83830152505050565b5f601f19601f8301169050919050565b5f610ad482610a92565b610ade8185610a9c565b9350610aee818560208601610aac565b610af781610aba565b840191505092915050565b5f608082019050610b155f830187610a4e565b610b226020830186610a68565b610b2f6040830185610a83565b8181036060830152610b418184610aca565b905095945050505050565b5f819050919050565b5f610b6f610b6a610b6584610958565b610b4c565b610958565b9050919050565b5f610b8082610b55565b9050919050565b5f610b9182610b76565b9050919050565b610ba181610b87565b82525050565b5f602082019050610bba5f830184610b98565b92915050565b5f5ffd5b5f5ffd5b5f5ffd5b5f5f83601f840112610be157610be0610bc0565b5b8235905067ffffffffffffffff811115610bfe57610bfd610bc4565b5b602083019150836020820283011115610c1a57610c19610bc8565b5b9250929050565b5f5f83601f840112610c3657610c35610bc0565b5b8235905067ffffffffffffffff811115610c5357610c52610bc4565b5b602083019150836020820283011115610c6f57610c6e610bc8565b5b9250929050565b5f5f83601f840112610c8b57610c8a610bc0565b5b8235905067ffffffffffffffff811115610ca857610ca7610bc4565b5b602083019150836020820283011115610cc457610cc3610bc8565b5b9250929050565b5f5f83601f840112610ce057610cdf610bc0565b5b8235905067ffffffffffffffff811115610cfd57610cfc610bc4565b5b602083019150836020820283011115610d1957610d18610bc8565b5b9250929050565b5f5f5f5f5f5f5f5f6080898b031215610d3c57610d3b610950565b5b5f89013567ffffffffffffffff811115610d5957610d58610954565b5b610d658b828c01610bcc565b9850985050602089013567ffffffffffffffff811115610d8857610d87610954565b5b610d948b828c01610c21565b9650965050604089013567ffffffffffffffff811115610db757610db6610954565b5b610dc38b828c01610c76565b9450945050606089013567ffffffffffffffff811115610de657610de5610954565b5b610df28b828c01610ccb565b92509250509295985092959890939650565b5f602082019050610e175f830184610a4e565b92915050565b7f6f6e6c7920666f72206f776e65727321000000000000000000000000000000005f82015250565b5f610e51601083610a9c565b9150610e5c82610e1d565b602082019050919050565b5f6020820190508181035f830152610e7e81610e45565b9050919050565b7f4e487b71000000000000000000000000000000000000000000000000000000005f52602260045260245ffd5b5f6002820490506001821680610ec957607f821691505b602082108103610edc57610edb610e85565b5b50919050565b7f6e6f7420766572696669656421000000000000000000000000000000000000005f82015250565b5f610f16600d83610a9c565b9150610f2182610ee2565b602082019050919050565b5f6020820190508181035f830152610f4381610f0a565b9050919050565b610f53816109b2565b82525050565b5f604082019050610f6c5f830185610a4e565b610f796020830184610f4a565b9392505050565b610f8981610a5d565b8114610f93575f5ffd5b50565b5f81519050610fa481610f80565b92915050565b5f60208284031215610fbf57610fbe610950565b5b5f610fcc84828501610f96565b91505092915050565b7f415448207472616e73666572206661696c6564210000000000000000000000005f82015250565b5f611009601483610a9c565b915061101482610fd5565b602082019050919050565b5f6020820190508181035f83015261103681610ffd565b9050919050565b5f6040820190508181035f8301526110558185610aca565b90506110646020830184610f4a565b9392505050565b7f4e487b71000000000000000000000000000000000000000000000000000000005f52603260045260245ffd5b5f813590506110a681610f80565b92915050565b5f602082840312156110c1576110c0610950565b5b5f6110ce84828501611098565b91505092915050565b6110e081610a77565b81146110ea575f5ffd5b50565b5f813590506110fb816110d7565b92915050565b5f6020828403121561111657611115610950565b5b5f611123848285016110ed565b91505092915050565b5f5ffd5b5f5ffd5b5f5ffd5b5f5f833560016020038436030381126111545761115361112c565b5b80840192508235915067ffffffffffffffff82111561117657611175611130565b5b60208301925060018202360383131561119257611191611134565b5b509250929050565b7f4e487b71000000000000000000000000000000000000000000000000000000005f52604160045260245ffd5b5f819050815f5260205f209050919050565b5f6020601f8301049050919050565b5f82821b905092915050565b5f600883026112237fffffffffffffffffffffffffffffffffffffffffffffffffffffffffffffffff826111e8565b61122d86836111e8565b95508019841693508086168417925050509392505050565b5f61125f61125a611255846109b2565b610b4c565b6109b2565b9050919050565b5f819050919050565b61127883611245565b61128c61128482611266565b8484546111f4565b825550505050565b5f5f905090565b6112a3611294565b6112ae81848461126f565b505050565b5f5b828110156112d4576112c95f82840161129b565b6001810190506112b5565b505050565b601f8211156113275782821115611326576112f3816111c7565b6112fc836111d9565b611305856111d9565b6020861015611312575f90505b808301611321828403826112b3565b505050505b5b505050565b5f82821c905092915050565b5f6113475f198460080261132c565b1980831691505092915050565b5f61135f8383611338565b9150826002028217905092915050565b61137882610a92565b67ffffffffffffffff8111156113915761139061119a565b5b61139b8254610eb2565b6113a68282856112d9565b5f60209050601f8311600181146113d7575f84156113c5578287015190505b6113cf8582611354565b865550611436565b601f1984166113e5866111c7565b5f5b8281101561140c578489015182556001820191506020850194506020810190506113e7565b868310156114295784890151611425601f891682611338565b8355505b6001600288020188555050505b505050505050565b828183375f83830152505050565b5f6114578385610a9c565b935061146483858461143e565b61146d83610aba565b840190509392505050565b5f6020820190508181035f83015261149181848661144c565b9050939250505056fea2646970667358221220ae6c61f589743f02872e8ce2d49c1b375484875a9ba6bdef5a28a333c7b6511864736f6c63430008220033",
					"opcodes": "PUSH1 0x80 PUSH1 0x40 MSTORE CALLVALUE DUP1 ISZERO PUSH2 0xF JUMPI PUSH0 PUSH0 REVERT JUMPDEST POP PUSH1 0x40 MLOAD PUSH2 0x161C CODESIZE SUB DUP1 PUSH2 0x161C DUP4 CODECOPY DUP2 DUP2 ADD PUSH1 0x40 MSTORE DUP2 ADD SWAP1 PUSH2 0x31 SWAP2 SWAP1 PUSH2 0x114 JUMP JUMPDEST CALLER PUSH1 0x1 PUSH0 PUSH2 0x100 EXP DUP2 SLOAD DUP2 PUSH20 0xFFFFFFFFFFFFFFFFFFFFFFFFFFFFFFFFFFFFFFFF MUL NOT AND SWAP1 DUP4 PUSH20 0xFFFFFFFFFFFFFFFFFFFFFFFFFFFFFFFFFFFFFFFF AND MUL OR SWAP1 SSTORE POP DUP1 PUSH0 PUSH0 PUSH2 0x100 EXP DUP2 SLOAD DUP2 PUSH20 0xFFFFFFFFFFFFFFFFFFFFFFFFFFFFFFFFFFFFFFFF MUL NOT AND SWAP1 DUP4 PUSH20 0xFFFFFFFFFFFFFFFFFFFFFFFFFFFFFFFFFFFFFFFF AND MUL OR SWAP1 SSTORE POP POP PUSH2 0x13F JUMP JUMPDEST PUSH0 PUSH0 REVERT JUMPDEST PUSH0 PUSH20 0xFFFFFFFFFFFFFFFFFFFFFFFFFFFFFFFFFFFFFFFF DUP3 AND SWAP1 POP SWAP2 SWAP1 POP JUMP JUMPDEST PUSH0 PUSH2 0xE3 DUP3 PUSH2 0xBA JUMP JUMPDEST SWAP1 POP SWAP2 SWAP1 POP JUMP JUMPDEST PUSH2 0xF3 DUP2 PUSH2 0xD9 JUMP JUMPDEST DUP2 EQ PUSH2 0xFD JUMPI PUSH0 PUSH0 REVERT JUMPDEST POP JUMP JUMPDEST PUSH0 DUP2 MLOAD SWAP1 POP PUSH2 0x10E DUP2 PUSH2 0xEA JUMP JUMPDEST SWAP3 SWAP2 POP POP JUMP JUMPDEST PUSH0 PUSH1 0x20 DUP3 DUP5 SUB SLT ISZERO PUSH2 0x129 JUMPI PUSH2 0x128 PUSH2 0xB6 JUMP JUMPDEST JUMPDEST PUSH0 PUSH2 0x136 DUP5 DUP3 DUP6 ADD PUSH2 0x100 JUMP JUMPDEST SWAP2 POP POP SWAP3 SWAP2 POP POP JUMP JUMPDEST PUSH2 0x14D0 DUP1 PUSH2 0x14C PUSH0 CODECOPY PUSH0 RETURN INVALID PUSH1 0x80 PUSH1 0x40 MSTORE PUSH1 0x4 CALLDATASIZE LT PUSH2 0x49 JUMPI PUSH0 CALLDATALOAD PUSH1 0xE0 SHR DUP1 PUSH4 0x21670F22 EQ PUSH2 0x4D JUMPI DUP1 PUSH4 0x469E9067 EQ PUSH2 0x69 JUMPI DUP1 PUSH4 0x55A373D6 EQ PUSH2 0xA8 JUMPI DUP1 PUSH4 0x6AA1D2AC EQ PUSH2 0xD2 JUMPI DUP1 PUSH4 0x8DA5CB5B EQ PUSH2 0xFA JUMPI JUMPDEST PUSH0 PUSH0 REVERT JUMPDEST PUSH2 0x67 PUSH1 0x4 DUP1 CALLDATASIZE SUB DUP2 ADD SWAP1 PUSH2 0x62 SWAP2 SWAP1 PUSH2 0x9E5 JUMP JUMPDEST PUSH2 0x124 JUMP JUMPDEST STOP JUMPDEST CALLVALUE DUP1 ISZERO PUSH2 0x74 JUMPI PUSH0 PUSH0 REVERT JUMPDEST POP PUSH2 0x8F PUSH1 0x4 DUP1 CALLDATASIZE SUB DUP2 ADD SWAP1 PUSH2 0x8A SWAP2 SWAP1 PUSH2 0xA23 JUMP JUMPDEST PUSH2 0x540 JUMP JUMPDEST PUSH1 0x40 MLOAD PUSH2 0x9F SWAP5 SWAP4 SWAP3 SWAP2 SWAP1 PUSH2 0xB02 JUMP JUMPDEST PUSH1 0x40 MLOAD DUP1 SWAP2 SUB SWAP1 RETURN JUMPDEST CALLVALUE DUP1 ISZERO PUSH2 0xB3 JUMPI PUSH0 PUSH0 REVERT JUMPDEST POP PUSH2 0xBC PUSH2 0x629 JUMP JUMPDEST PUSH1 0x40 MLOAD PUSH2 0xC9 SWAP2 SWAP1 PUSH2 0xBA7 JUMP JUMPDEST PUSH1 0x40 MLOAD DUP1 SWAP2 SUB SWAP1 RETURN JUMPDEST CALLVALUE DUP1 ISZERO PUSH2 0xDD JUMPI PUSH0 PUSH0 REVERT JUMPDEST POP PUSH2 0xF8 PUSH1 0x4 DUP1 CALLDATASIZE SUB DUP2 ADD SWAP1 PUSH2 0xF3 SWAP2 SWAP1 PUSH2 0xD20 JUMP JUMPDEST PUSH2 0x64D JUMP JUMPDEST STOP JUMPDEST CALLVALUE DUP1 ISZERO PUSH2 0x105 JUMPI PUSH0 PUSH0 REVERT JUMPDEST POP PUSH2 0x10E PUSH2 0x92B JUMP JUMPDEST PUSH1 0x40 MLOAD PUSH2 0x11B SWAP2 SWAP1 PUSH2 0xE04 JUMP JUMPDEST PUSH1 0x40 MLOAD DUP1 SWAP2 SUB SWAP1 RETURN JUMPDEST PUSH1 0x1 PUSH0 SWAP1 SLOAD SWAP1 PUSH2 0x100 EXP SWAP1 DIV PUSH20 0xFFFFFFFFFFFFFFFFFFFFFFFFFFFFFFFFFFFFFFFF AND PUSH20 0xFFFFFFFFFFFFFFFFFFFFFFFFFFFFFFFFFFFFFFFF AND CALLER PUSH20 0xFFFFFFFFFFFFFFFFFFFFFFFFFFFFFFFFFFFFFFFF AND EQ PUSH2 0x1B3 JUMPI PUSH1 0x40 MLOAD PUSH32 0x8C379A000000000000000000000000000000000000000000000000000000000 DUP2 MSTORE PUSH1 0x4 ADD PUSH2 0x1AA SWAP1 PUSH2 0xE67 JUMP JUMPDEST PUSH1 0x40 MLOAD DUP1 SWAP2 SUB SWAP1 REVERT JUMPDEST PUSH0 PUSH20 0xFFFFFFFFFFFFFFFFFFFFFFFFFFFFFFFFFFFFFFFF AND PUSH1 0x2 PUSH0 DUP5 PUSH20 0xFFFFFFFFFFFFFFFFFFFFFFFFFFFFFFFFFFFFFFFF AND PUSH20 0xFFFFFFFFFFFFFFFFFFFFFFFFFFFFFFFFFFFFFFFF AND DUP2 MSTORE PUSH1 0x20 ADD SWAP1 DUP2 MSTORE PUSH1 0x20 ADD PUSH0 KECCAK256 PUSH0 ADD PUSH0 SWAP1 SLOAD SWAP1 PUSH2 0x100 EXP SWAP1 DIV PUSH20 0xFFFFFFFFFFFFFFFFFFFFFFFFFFFFFFFFFFFFFFFF AND PUSH20 0xFFFFFFFFFFFFFFFFFFFFFFFFFFFFFFFFFFFFFFFF AND EQ PUSH2 0x276 JUMPI PUSH1 0x40 MLOAD PUSH32 0xD764187D00000000000000000000000000000000000000000000000000000000 DUP2 MSTORE PUSH1 0x4 ADD PUSH1 0x40 MLOAD DUP1 SWAP2 SUB SWAP1 REVERT JUMPDEST PUSH0 PUSH1 0x2 PUSH0 DUP5 PUSH20 0xFFFFFFFFFFFFFFFFFFFFFFFFFFFFFFFFFFFFFFFF AND PUSH20 0xFFFFFFFFFFFFFFFFFFFFFFFFFFFFFFFFFFFFFFFF AND DUP2 MSTORE PUSH1 0x20 ADD SWAP1 DUP2 MSTORE PUSH1 0x20 ADD PUSH0 KECCAK256 PUSH1 0x40 MLOAD DUP1 PUSH1 0x80 ADD PUSH1 0x40 MSTORE SWAP1 DUP2 PUSH0 DUP3 ADD PUSH0 SWAP1 SLOAD SWAP1 PUSH2 0x100 EXP SWAP1 DIV PUSH20 0xFFFFFFFFFFFFFFFFFFFFFFFFFFFFFFFFFFFFFFFF AND PUSH20 0xFFFFFFFFFFFFFFFFFFFFFFFFFFFFFFFFFFFFFFFF AND PUSH20 0xFFFFFFFFFFFFFFFFFFFFFFFFFFFFFFFFFFFFFFFF AND DUP2 MSTORE PUSH1 0x20 ADD PUSH0 DUP3 ADD PUSH1 0x14 SWAP1 SLOAD SWAP1 PUSH2 0x100 EXP SWAP1 DIV PUSH1 0xFF AND ISZERO ISZERO ISZERO ISZERO DUP2 MSTORE PUSH1 0x20 ADD PUSH0 DUP3 ADD PUSH1 0x15 SWAP1 SLOAD SWAP1 PUSH2 0x100 EXP SWAP1 DIV PUSH1 0xFF AND PUSH1 0xFF AND PUSH1 0xFF AND DUP2 MSTORE PUSH1 0x20 ADD PUSH1 0x1 DUP3 ADD DUP1 SLOAD PUSH2 0x359 SWAP1 PUSH2 0xEB2 JUMP JUMPDEST DUP1 PUSH1 0x1F ADD PUSH1 0x20 DUP1 SWAP2 DIV MUL PUSH1 0x20 ADD PUSH1 0x40 MLOAD SWAP1 DUP2 ADD PUSH1 0x40 MSTORE DUP1 SWAP3 SWAP2 SWAP1 DUP2 DUP2 MSTORE PUSH1 0x20 ADD DUP3 DUP1 SLOAD PUSH2 0x385 SWAP1 PUSH2 0xEB2 JUMP JUMPDEST DUP1 ISZERO PUSH2 0x3D0 JUMPI DUP1 PUSH1 0x1F LT PUSH2 0x3A7 JUMPI PUSH2 0x100 DUP1 DUP4 SLOAD DIV MUL DUP4 MSTORE SWAP2 PUSH1 0x20 ADD SWAP2 PUSH2 0x3D0 JUMP JUMPDEST DUP3 ADD SWAP2 SWAP1 PUSH0 MSTORE PUSH1 0x20 PUSH0 KECCAK256 SWAP1 JUMPDEST DUP2 SLOAD DUP2 MSTORE SWAP1 PUSH1 0x1 ADD SWAP1 PUSH1 0x20 ADD DUP1 DUP4 GT PUSH2 0x3B3 JUMPI DUP3 SWAP1 SUB PUSH1 0x1F AND DUP3 ADD SWAP2 JUMPDEST POP POP POP POP POP DUP2 MSTORE POP POP SWAP1 POP DUP1 PUSH1 0x20 ADD MLOAD PUSH2 0x41F JUMPI PUSH1 0x40 MLOAD PUSH32 0x8C379A000000000000000000000000000000000000000000000000000000000 DUP2 MSTORE PUSH1 0x4 ADD PUSH2 0x416 SWAP1 PUSH2 0xF2C JUMP JUMPDEST PUSH1 0x40 MLOAD DUP1 SWAP2 SUB SWAP1 REVERT JUMPDEST PUSH0 PUSH0 PUSH0 SWAP1 SLOAD SWAP1 PUSH2 0x100 EXP SWAP1 DIV PUSH20 0xFFFFFFFFFFFFFFFFFFFFFFFFFFFFFFFFFFFFFFFF AND PUSH20 0xFFFFFFFFFFFFFFFFFFFFFFFFFFFFFFFFFFFFFFFF AND PUSH4 0xA9059CBB DUP6 DUP6 PUSH1 0x40 MLOAD DUP4 PUSH4 0xFFFFFFFF AND PUSH1 0xE0 SHL DUP2 MSTORE PUSH1 0x4 ADD PUSH2 0x47B SWAP3 SWAP2 SWAP1 PUSH2 0xF59 JUMP JUMPDEST PUSH1 0x20 PUSH1 0x40 MLOAD DUP1 DUP4 SUB DUP2 PUSH0 DUP8 GAS CALL ISZERO DUP1 ISZERO PUSH2 0x497 JUMPI RETURNDATASIZE PUSH0 PUSH0 RETURNDATACOPY RETURNDATASIZE PUSH0 REVERT JUMPDEST POP POP POP POP PUSH1 0x40 MLOAD RETURNDATASIZE PUSH1 0x1F NOT PUSH1 0x1F DUP3 ADD AND DUP3 ADD DUP1 PUSH1 0x40 MSTORE POP DUP2 ADD SWAP1 PUSH2 0x4BB SWAP2 SWAP1 PUSH2 0xFAA JUMP JUMPDEST SWAP1 POP DUP1 PUSH2 0x4FD JUMPI PUSH1 0x40 MLOAD PUSH32 0x8C379A000000000000000000000000000000000000000000000000000000000 DUP2 MSTORE PUSH1 0x4 ADD PUSH2 0x4F4 SWAP1 PUSH2 0x101F JUMP JUMPDEST PUSH1 0x40 MLOAD DUP1 SWAP2 SUB SWAP1 REVERT JUMPDEST PUSH32 0xA841C12702C4CD6EA8C369F0E7E906600C667854D8C4C38A63A787D901058FF2 DUP3 PUSH1 0x60 ADD MLOAD CALLVALUE PUSH1 0x40 MLOAD PUSH2 0x532 SWAP3 SWAP2 SWAP1 PUSH2 0x103D JUMP JUMPDEST PUSH1 0x40 MLOAD DUP1 SWAP2 SUB SWAP1 LOG1 POP POP POP POP JUMP JUMPDEST PUSH1 0x2 PUSH1 0x20 MSTORE DUP1 PUSH0 MSTORE PUSH1 0x40 PUSH0 KECCAK256 PUSH0 SWAP2 POP SWAP1 POP DUP1 PUSH0 ADD PUSH0 SWAP1 SLOAD SWAP1 PUSH2 0x100 EXP SWAP1 DIV PUSH20 0xFFFFFFFFFFFFFFFFFFFFFFFFFFFFFFFFFFFFFFFF AND SWAP1 DUP1 PUSH0 ADD PUSH1 0x14 SWAP1 SLOAD SWAP1 PUSH2 0x100 EXP SWAP1 DIV PUSH1 0xFF AND SWAP1 DUP1 PUSH0 ADD PUSH1 0x15 SWAP1 SLOAD SWAP1 PUSH2 0x100 EXP SWAP1 DIV PUSH1 0xFF AND SWAP1 DUP1 PUSH1 0x1 ADD DUP1 SLOAD PUSH2 0x5A8 SWAP1 PUSH2 0xEB2 JUMP JUMPDEST DUP1 PUSH1 0x1F ADD PUSH1 0x20 DUP1 SWAP2 DIV MUL PUSH1 0x20 ADD PUSH1 0x40 MLOAD SWAP1 DUP2 ADD PUSH1 0x40 MSTORE DUP1 SWAP3 SWAP2 SWAP1 DUP2 DUP2 MSTORE PUSH1 0x20 ADD DUP3 DUP1 SLOAD PUSH2 0x5D4 SWAP1 PUSH2 0xEB2 JUMP JUMPDEST DUP1 ISZERO PUSH2 0x61F JUMPI DUP1 PUSH1 0x1F LT PUSH2 0x5F6 JUMPI PUSH2 0x100 DUP1 DUP4 SLOAD DIV MUL DUP4 MSTORE SWAP2 PUSH1 0x20 ADD SWAP2 PUSH2 0x61F JUMP JUMPDEST DUP3 ADD SWAP2 SWAP1 PUSH0 MSTORE PUSH1 0x20 PUSH0 KECCAK256 SWAP1 JUMPDEST DUP2 SLOAD DUP2 MSTORE SWAP1 PUSH1 0x1 ADD SWAP1 PUSH1 0x20 ADD DUP1 DUP4 GT PUSH2 0x602 JUMPI DUP3 SWAP1 SUB PUSH1 0x1F AND DUP3 ADD SWAP2 JUMPDEST POP POP POP POP POP SWAP1 POP DUP5 JUMP JUMPDEST PUSH0 PUSH0 SWAP1 SLOAD SWAP1 PUSH2 0x100 EXP SWAP1 DIV PUSH20 0xFFFFFFFFFFFFFFFFFFFFFFFFFFFFFFFFFFFFFFFF AND DUP2 JUMP JUMPDEST PUSH0 DUP7 DUP7 SWAP1 POP SWAP1 POP PUSH0 PUSH0 SWAP1 POP JUMPDEST DUP2 DUP2 LT ISZERO PUSH2 0x91F JUMPI PUSH1 0x40 MLOAD DUP1 PUSH1 0x80 ADD PUSH1 0x40 MSTORE DUP1 DUP12 DUP12 DUP5 DUP2 DUP2 LT PUSH2 0x67F JUMPI PUSH2 0x67E PUSH2 0x106B JUMP JUMPDEST JUMPDEST SWAP1 POP PUSH1 0x20 MUL ADD PUSH1 0x20 DUP2 ADD SWAP1 PUSH2 0x694 SWAP2 SWAP1 PUSH2 0xA23 JUMP JUMPDEST PUSH20 0xFFFFFFFFFFFFFFFFFFFFFFFFFFFFFFFFFFFFFFFF AND DUP2 MSTORE PUSH1 0x20 ADD DUP8 DUP8 DUP5 DUP2 DUP2 LT PUSH2 0x6C2 JUMPI PUSH2 0x6C1 PUSH2 0x106B JUMP JUMPDEST JUMPDEST SWAP1 POP PUSH1 0x20 MUL ADD PUSH1 0x20 DUP2 ADD SWAP1 PUSH2 0x6D7 SWAP2 SWAP1 PUSH2 0x10AC JUMP JUMPDEST ISZERO ISZERO DUP2 MSTORE PUSH1 0x20 ADD DUP6 DUP6 DUP5 DUP2 DUP2 LT PUSH2 0x6F1 JUMPI PUSH2 0x6F0 PUSH2 0x106B JUMP JUMPDEST JUMPDEST SWAP1 POP PUSH1 0x20 MUL ADD PUSH1 0x20 DUP2 ADD SWAP1 PUSH2 0x706 SWAP2 SWAP1 PUSH2 0x1101 JUMP JUMPDEST PUSH1 0xFF AND DUP2 MSTORE PUSH1 0x20 ADD DUP10 DUP10 DUP5 DUP2 DUP2 LT PUSH2 0x721 JUMPI PUSH2 0x720 PUSH2 0x106B JUMP JUMPDEST JUMPDEST SWAP1 POP PUSH1 0x20 MUL DUP2 ADD SWAP1 PUSH2 0x733 SWAP2 SWAP1 PUSH2 0x1138 JUMP JUMPDEST DUP1 DUP1 PUSH1 0x1F ADD PUSH1 0x20 DUP1 SWAP2 DIV MUL PUSH1 0x20 ADD PUSH1 0x40 MLOAD SWAP1 DUP2 ADD PUSH1 0x40 MSTORE DUP1 SWAP4 SWAP3 SWAP2 SWAP1 DUP2 DUP2 MSTORE PUSH1 0x20 ADD DUP4 DUP4 DUP1 DUP3 DUP5 CALLDATACOPY PUSH0 DUP2 DUP5 ADD MSTORE PUSH1 0x1F NOT PUSH1 0x1F DUP3 ADD AND SWAP1 POP DUP1 DUP4 ADD SWAP3 POP POP POP POP POP POP POP DUP2 MSTORE POP PUSH1 0x2 PUSH0 DUP13 DUP13 DUP6 DUP2 DUP2 LT PUSH2 0x78E JUMPI PUSH2 0x78D PUSH2 0x106B JUMP JUMPDEST JUMPDEST SWAP1 POP PUSH1 0x20 MUL ADD PUSH1 0x20 DUP2 ADD SWAP1 PUSH2 0x7A3 SWAP2 SWAP1 PUSH2 0xA23 JUMP JUMPDEST PUSH20 0xFFFFFFFFFFFFFFFFFFFFFFFFFFFFFFFFFFFFFFFF AND PUSH20 0xFFFFFFFFFFFFFFFFFFFFFFFFFFFFFFFFFFFFFFFF AND DUP2 MSTORE PUSH1 0x20 ADD SWAP1 DUP2 MSTORE PUSH1 0x20 ADD PUSH0 KECCAK256 PUSH0 DUP3 ADD MLOAD DUP2 PUSH0 ADD PUSH0 PUSH2 0x100 EXP DUP2 SLOAD DUP2 PUSH20 0xFFFFFFFFFFFFFFFFFFFFFFFFFFFFFFFFFFFFFFFF MUL NOT AND SWAP1 DUP4 PUSH20 0xFFFFFFFFFFFFFFFFFFFFFFFFFFFFFFFFFFFFFFFF AND MUL OR SWAP1 SSTORE POP PUSH1 0x20 DUP3 ADD MLOAD DUP2 PUSH0 ADD PUSH1 0x14 PUSH2 0x100 EXP DUP2 SLOAD DUP2 PUSH1 0xFF MUL NOT AND SWAP1 DUP4 ISZERO ISZERO MUL OR SWAP1 SSTORE POP PUSH1 0x40 DUP3 ADD MLOAD DUP2 PUSH0 ADD PUSH1 0x15 PUSH2 0x100 EXP DUP2 SLOAD DUP2 PUSH1 0xFF MUL NOT AND SWAP1 DUP4 PUSH1 0xFF AND MUL OR SWAP1 SSTORE POP PUSH1 0x60 DUP3 ADD MLOAD DUP2 PUSH1 0x1 ADD SWAP1 DUP2 PUSH2 0x874 SWAP2 SWAP1 PUSH2 0x136F JUMP JUMPDEST POP SWAP1 POP POP DUP10 DUP10 DUP3 DUP2 DUP2 LT PUSH2 0x88B JUMPI PUSH2 0x88A PUSH2 0x106B JUMP JUMPDEST JUMPDEST SWAP1 POP PUSH1 0x20 MUL ADD PUSH1 0x20 DUP2 ADD SWAP1 PUSH2 0x8A0 SWAP2 SWAP1 PUSH2 0xA23 JUMP JUMPDEST PUSH20 0xFFFFFFFFFFFFFFFFFFFFFFFFFFFFFFFFFFFFFFFF AND PUSH32 0x21F0EF8ECB39BABD1F22CE5EA02510839DBCF939B6BA195A9F8BC7442ACA5A0E DUP10 DUP10 DUP5 DUP2 DUP2 LT PUSH2 0x8EA JUMPI PUSH2 0x8E9 PUSH2 0x106B JUMP JUMPDEST JUMPDEST SWAP1 POP PUSH1 0x20 MUL DUP2 ADD SWAP1 PUSH2 0x8FC SWAP2 SWAP1 PUSH2 0x1138 JUMP JUMPDEST PUSH1 0x40 MLOAD PUSH2 0x90A SWAP3 SWAP2 SWAP1 PUSH2 0x1478 JUMP JUMPDEST PUSH1 0x40 MLOAD DUP1 SWAP2 SUB SWAP1 LOG2 DUP1 DUP1 PUSH1 0x1 ADD SWAP2 POP POP PUSH2 0x659 JUMP JUMPDEST POP POP POP POP POP POP POP POP POP POP JUMP JUMPDEST PUSH1 0x1 PUSH0 SWAP1 SLOAD SWAP1 PUSH2 0x100 EXP SWAP1 DIV PUSH20 0xFFFFFFFFFFFFFFFFFFFFFFFFFFFFFFFFFFFFFFFF AND DUP2 JUMP JUMPDEST PUSH0 PUSH0 REVERT JUMPDEST PUSH0 PUSH0 REVERT JUMPDEST PUSH0 PUSH20 0xFFFFFFFFFFFFFFFFFFFFFFFFFFFFFFFFFFFFFFFF DUP3 AND SWAP1 POP SWAP2 SWAP1 POP JUMP JUMPDEST PUSH0 PUSH2 0x981 DUP3 PUSH2 0x958 JUMP JUMPDEST SWAP1 POP SWAP2 SWAP1 POP JUMP JUMPDEST PUSH2 0x991 DUP2 PUSH2 0x977 JUMP JUMPDEST DUP2 EQ PUSH2 0x99B JUMPI PUSH0 PUSH0 REVERT JUMPDEST POP JUMP JUMPDEST PUSH0 DUP2 CALLDATALOAD SWAP1 POP PUSH2 0x9AC DUP2 PUSH2 0x988 JUMP JUMPDEST SWAP3 SWAP2 POP POP JUMP JUMPDEST PUSH0 DUP2 SWAP1 POP SWAP2 SWAP1 POP JUMP JUMPDEST PUSH2 0x9C4 DUP2 PUSH2 0x9B2 JUMP JUMPDEST DUP2 EQ PUSH2 0x9CE JUMPI PUSH0 PUSH0 REVERT JUMPDEST POP JUMP JUMPDEST PUSH0 DUP2 CALLDATALOAD SWAP1 POP PUSH2 0x9DF DUP2 PUSH2 0x9BB JUMP JUMPDEST SWAP3 SWAP2 POP POP JUMP JUMPDEST PUSH0 PUSH0 PUSH1 0x40 DUP4 DUP6 SUB SLT ISZERO PUSH2 0x9FB JUMPI PUSH2 0x9FA PUSH2 0x950 JUMP JUMPDEST JUMPDEST PUSH0 PUSH2 0xA08 DUP6 DUP3 DUP7 ADD PUSH2 0x99E JUMP JUMPDEST SWAP3 POP POP PUSH1 0x20 PUSH2 0xA19 DUP6 DUP3 DUP7 ADD PUSH2 0x9D1 JUMP JUMPDEST SWAP2 POP POP SWAP3 POP SWAP3 SWAP1 POP JUMP JUMPDEST PUSH0 PUSH1 0x20 DUP3 DUP5 SUB SLT ISZERO PUSH2 0xA38 JUMPI PUSH2 0xA37 PUSH2 0x950 JUMP JUMPDEST JUMPDEST PUSH0 PUSH2 0xA45 DUP5 DUP3 DUP6 ADD PUSH2 0x99E JUMP JUMPDEST SWAP2 POP POP SWAP3 SWAP2 POP POP JUMP JUMPDEST PUSH2 0xA57 DUP2 PUSH2 0x977 JUMP JUMPDEST DUP3 MSTORE POP POP JUMP JUMPDEST PUSH0 DUP2 ISZERO ISZERO SWAP1 POP SWAP2 SWAP1 POP JUMP JUMPDEST PUSH2 0xA71 DUP2 PUSH2 0xA5D JUMP JUMPDEST DUP3 MSTORE POP POP JUMP JUMPDEST PUSH0 PUSH1 0xFF DUP3 AND SWAP1 POP SWAP2 SWAP1 POP JUMP JUMPDEST PUSH2 0xA8C DUP2 PUSH2 0xA77 JUMP JUMPDEST DUP3 MSTORE POP POP JUMP JUMPDEST PUSH0 DUP2 MLOAD SWAP1 POP SWAP2 SWAP1 POP JUMP JUMPDEST PUSH0 DUP3 DUP3 MSTORE PUSH1 0x20 DUP3 ADD SWAP1 POP SWAP3 SWAP2 POP POP JUMP JUMPDEST DUP3 DUP2 DUP4 MCOPY PUSH0 DUP4 DUP4 ADD MSTORE POP POP POP JUMP JUMPDEST PUSH0 PUSH1 0x1F NOT PUSH1 0x1F DUP4 ADD AND SWAP1 POP SWAP2 SWAP1 POP JUMP JUMPDEST PUSH0 PUSH2 0xAD4 DUP3 PUSH2 0xA92 JUMP JUMPDEST PUSH2 0xADE DUP2 DUP6 PUSH2 0xA9C JUMP JUMPDEST SWAP4 POP PUSH2 0xAEE DUP2 DUP6 PUSH1 0x20 DUP7 ADD PUSH2 0xAAC JUMP JUMPDEST PUSH2 0xAF7 DUP2 PUSH2 0xABA JUMP JUMPDEST DUP5 ADD SWAP2 POP POP SWAP3 SWAP2 POP POP JUMP JUMPDEST PUSH0 PUSH1 0x80 DUP3 ADD SWAP1 POP PUSH2 0xB15 PUSH0 DUP4 ADD DUP8 PUSH2 0xA4E JUMP JUMPDEST PUSH2 0xB22 PUSH1 0x20 DUP4 ADD DUP7 PUSH2 0xA68 JUMP JUMPDEST PUSH2 0xB2F PUSH1 0x40 DUP4 ADD DUP6 PUSH2 0xA83 JUMP JUMPDEST DUP2 DUP2 SUB PUSH1 0x60 DUP4 ADD MSTORE PUSH2 0xB41 DUP2 DUP5 PUSH2 0xACA JUMP JUMPDEST SWAP1 POP SWAP6 SWAP5 POP POP POP POP POP JUMP JUMPDEST PUSH0 DUP2 SWAP1 POP SWAP2 SWAP1 POP JUMP JUMPDEST PUSH0 PUSH2 0xB6F PUSH2 0xB6A PUSH2 0xB65 DUP5 PUSH2 0x958 JUMP JUMPDEST PUSH2 0xB4C JUMP JUMPDEST PUSH2 0x958 JUMP JUMPDEST SWAP1 POP SWAP2 SWAP1 POP JUMP JUMPDEST PUSH0 PUSH2 0xB80 DUP3 PUSH2 0xB55 JUMP JUMPDEST SWAP1 POP SWAP2 SWAP1 POP JUMP JUMPDEST PUSH0 PUSH2 0xB91 DUP3 PUSH2 0xB76 JUMP JUMPDEST SWAP1 POP SWAP2 SWAP1 POP JUMP JUMPDEST PUSH2 0xBA1 DUP2 PUSH2 0xB87 JUMP JUMPDEST DUP3 MSTORE POP POP JUMP JUMPDEST PUSH0 PUSH1 0x20 DUP3 ADD SWAP1 POP PUSH2 0xBBA PUSH0 DUP4 ADD DUP5 PUSH2 0xB98 JUMP JUMPDEST SWAP3 SWAP2 POP POP JUMP JUMPDEST PUSH0 PUSH0 REVERT JUMPDEST PUSH0 PUSH0 REVERT JUMPDEST PUSH0 PUSH0 REVERT JUMPDEST PUSH0 PUSH0 DUP4 PUSH1 0x1F DUP5 ADD SLT PUSH2 0xBE1 JUMPI PUSH2 0xBE0 PUSH2 0xBC0 JUMP JUMPDEST JUMPDEST DUP3 CALLDATALOAD SWAP1 POP PUSH8 0xFFFFFFFFFFFFFFFF DUP2 GT ISZERO PUSH2 0xBFE JUMPI PUSH2 0xBFD PUSH2 0xBC4 JUMP JUMPDEST JUMPDEST PUSH1 0x20 DUP4 ADD SWAP2 POP DUP4 PUSH1 0x20 DUP3 MUL DUP4 ADD GT ISZERO PUSH2 0xC1A JUMPI PUSH2 0xC19 PUSH2 0xBC8 JUMP JUMPDEST JUMPDEST SWAP3 POP SWAP3 SWAP1 POP JUMP JUMPDEST PUSH0 PUSH0 DUP4 PUSH1 0x1F DUP5 ADD SLT PUSH2 0xC36 JUMPI PUSH2 0xC35 PUSH2 0xBC0 JUMP JUMPDEST JUMPDEST DUP3 CALLDATALOAD SWAP1 POP PUSH8 0xFFFFFFFFFFFFFFFF DUP2 GT ISZERO PUSH2 0xC53 JUMPI PUSH2 0xC52 PUSH2 0xBC4 JUMP JUMPDEST JUMPDEST PUSH1 0x20 DUP4 ADD SWAP2 POP DUP4 PUSH1 0x20 DUP3 MUL DUP4 ADD GT ISZERO PUSH2 0xC6F JUMPI PUSH2 0xC6E PUSH2 0xBC8 JUMP JUMPDEST JUMPDEST SWAP3 POP SWAP3 SWAP1 POP JUMP JUMPDEST PUSH0 PUSH0 DUP4 PUSH1 0x1F DUP5 ADD SLT PUSH2 0xC8B JUMPI PUSH2 0xC8A PUSH2 0xBC0 JUMP JUMPDEST JUMPDEST DUP3 CALLDATALOAD SWAP1 POP PUSH8 0xFFFFFFFFFFFFFFFF DUP2 GT ISZERO PUSH2 0xCA8 JUMPI PUSH2 0xCA7 PUSH2 0xBC4 JUMP JUMPDEST JUMPDEST PUSH1 0x20 DUP4 ADD SWAP2 POP DUP4 PUSH1 0x20 DUP3 MUL DUP4 ADD GT ISZERO PUSH2 0xCC4 JUMPI PUSH2 0xCC3 PUSH2 0xBC8 JUMP JUMPDEST JUMPDEST SWAP3 POP SWAP3 SWAP1 POP JUMP JUMPDEST PUSH0 PUSH0 DUP4 PUSH1 0x1F DUP5 ADD SLT PUSH2 0xCE0 JUMPI PUSH2 0xCDF PUSH2 0xBC0 JUMP JUMPDEST JUMPDEST DUP3 CALLDATALOAD SWAP1 POP PUSH8 0xFFFFFFFFFFFFFFFF DUP2 GT ISZERO PUSH2 0xCFD JUMPI PUSH2 0xCFC PUSH2 0xBC4 JUMP JUMPDEST JUMPDEST PUSH1 0x20 DUP4 ADD SWAP2 POP DUP4 PUSH1 0x20 DUP3 MUL DUP4 ADD GT ISZERO PUSH2 0xD19 JUMPI PUSH2 0xD18 PUSH2 0xBC8 JUMP JUMPDEST JUMPDEST SWAP3 POP SWAP3 SWAP1 POP JUMP JUMPDEST PUSH0 PUSH0 PUSH0 PUSH0 PUSH0 PUSH0 PUSH0 PUSH0 PUSH1 0x80 DUP10 DUP12 SUB SLT ISZERO PUSH2 0xD3C JUMPI PUSH2 0xD3B PUSH2 0x950 JUMP JUMPDEST JUMPDEST PUSH0 DUP10 ADD CALLDATALOAD PUSH8 0xFFFFFFFFFFFFFFFF DUP2 GT ISZERO PUSH2 0xD59 JUMPI PUSH2 0xD58 PUSH2 0x954 JUMP JUMPDEST JUMPDEST PUSH2 0xD65 DUP12 DUP3 DUP13 ADD PUSH2 0xBCC JUMP JUMPDEST SWAP9 POP SWAP9 POP POP PUSH1 0x20 DUP10 ADD CALLDATALOAD PUSH8 0xFFFFFFFFFFFFFFFF DUP2 GT ISZERO PUSH2 0xD88 JUMPI PUSH2 0xD87 PUSH2 0x954 JUMP JUMPDEST JUMPDEST PUSH2 0xD94 DUP12 DUP3 DUP13 ADD PUSH2 0xC21 JUMP JUMPDEST SWAP7 POP SWAP7 POP POP PUSH1 0x40 DUP10 ADD CALLDATALOAD PUSH8 0xFFFFFFFFFFFFFFFF DUP2 GT ISZERO PUSH2 0xDB7 JUMPI PUSH2 0xDB6 PUSH2 0x954 JUMP JUMPDEST JUMPDEST PUSH2 0xDC3 DUP12 DUP3 DUP13 ADD PUSH2 0xC76 JUMP JUMPDEST SWAP5 POP SWAP5 POP POP PUSH1 0x60 DUP10 ADD CALLDATALOAD PUSH8 0xFFFFFFFFFFFFFFFF DUP2 GT ISZERO PUSH2 0xDE6 JUMPI PUSH2 0xDE5 PUSH2 0x954 JUMP JUMPDEST JUMPDEST PUSH2 0xDF2 DUP12 DUP3 DUP13 ADD PUSH2 0xCCB JUMP JUMPDEST SWAP3 POP SWAP3 POP POP SWAP3 SWAP6 SWAP9 POP SWAP3 SWAP6 SWAP9 SWAP1 SWAP4 SWAP7 POP JUMP JUMPDEST PUSH0 PUSH1 0x20 DUP3 ADD SWAP1 POP PUSH2 0xE17 PUSH0 DUP4 ADD DUP5 PUSH2 0xA4E JUMP JUMPDEST SWAP3 SWAP2 POP POP JUMP JUMPDEST PUSH32 0x6F6E6C7920666F72206F776E6572732100000000000000000000000000000000 PUSH0 DUP3 ADD MSTORE POP JUMP JUMPDEST PUSH0 PUSH2 0xE51 PUSH1 0x10 DUP4 PUSH2 0xA9C JUMP JUMPDEST SWAP2 POP PUSH2 0xE5C DUP3 PUSH2 0xE1D JUMP JUMPDEST PUSH1 0x20 DUP3 ADD SWAP1 POP SWAP2 SWAP1 POP JUMP JUMPDEST PUSH0 PUSH1 0x20 DUP3 ADD SWAP1 POP DUP2 DUP2 SUB PUSH0 DUP4 ADD MSTORE PUSH2 0xE7E DUP2 PUSH2 0xE45 JUMP JUMPDEST SWAP1 POP SWAP2 SWAP1 POP JUMP JUMPDEST PUSH32 0x4E487B7100000000000000000000000000000000000000000000000000000000 PUSH0 MSTORE PUSH1 0x22 PUSH1 0x4 MSTORE PUSH1 0x24 PUSH0 REVERT JUMPDEST PUSH0 PUSH1 0x2 DUP3 DIV SWAP1 POP PUSH1 0x1 DUP3 AND DUP1 PUSH2 0xEC9 JUMPI PUSH1 0x7F DUP3 AND SWAP2 POP JUMPDEST PUSH1 0x20 DUP3 LT DUP2 SUB PUSH2 0xEDC JUMPI PUSH2 0xEDB PUSH2 0xE85 JUMP JUMPDEST JUMPDEST POP SWAP2 SWAP1 POP JUMP JUMPDEST PUSH32 0x6E6F742076657269666965642100000000000000000000000000000000000000 PUSH0 DUP3 ADD MSTORE POP JUMP JUMPDEST PUSH0 PUSH2 0xF16 PUSH1 0xD DUP4 PUSH2 0xA9C JUMP JUMPDEST SWAP2 POP PUSH2 0xF21 DUP3 PUSH2 0xEE2 JUMP JUMPDEST PUSH1 0x20 DUP3 ADD SWAP1 POP SWAP2 SWAP1 POP JUMP JUMPDEST PUSH0 PUSH1 0x20 DUP3 ADD SWAP1 POP DUP2 DUP2 SUB PUSH0 DUP4 ADD MSTORE PUSH2 0xF43 DUP2 PUSH2 0xF0A JUMP JUMPDEST SWAP1 POP SWAP2 SWAP1 POP JUMP JUMPDEST PUSH2 0xF53 DUP2 PUSH2 0x9B2 JUMP JUMPDEST DUP3 MSTORE POP POP JUMP JUMPDEST PUSH0 PUSH1 0x40 DUP3 ADD SWAP1 POP PUSH2 0xF6C PUSH0 DUP4 ADD DUP6 PUSH2 0xA4E JUMP JUMPDEST PUSH2 0xF79 PUSH1 0x20 DUP4 ADD DUP5 PUSH2 0xF4A JUMP JUMPDEST SWAP4 SWAP3 POP POP POP JUMP JUMPDEST PUSH2 0xF89 DUP2 PUSH2 0xA5D JUMP JUMPDEST DUP2 EQ PUSH2 0xF93 JUMPI PUSH0 PUSH0 REVERT JUMPDEST POP JUMP JUMPDEST PUSH0 DUP2 MLOAD SWAP1 POP PUSH2 0xFA4 DUP2 PUSH2 0xF80 JUMP JUMPDEST SWAP3 SWAP2 POP POP JUMP JUMPDEST PUSH0 PUSH1 0x20 DUP3 DUP5 SUB SLT ISZERO PUSH2 0xFBF JUMPI PUSH2 0xFBE PUSH2 0x950 JUMP JUMPDEST JUMPDEST PUSH0 PUSH2 0xFCC DUP5 DUP3 DUP6 ADD PUSH2 0xF96 JUMP JUMPDEST SWAP2 POP POP SWAP3 SWAP2 POP POP JUMP JUMPDEST PUSH32 0x415448207472616E73666572206661696C656421000000000000000000000000 PUSH0 DUP3 ADD MSTORE POP JUMP JUMPDEST PUSH0 PUSH2 0x1009 PUSH1 0x14 DUP4 PUSH2 0xA9C JUMP JUMPDEST SWAP2 POP PUSH2 0x1014 DUP3 PUSH2 0xFD5 JUMP JUMPDEST PUSH1 0x20 DUP3 ADD SWAP1 POP SWAP2 SWAP1 POP JUMP JUMPDEST PUSH0 PUSH1 0x20 DUP3 ADD SWAP1 POP DUP2 DUP2 SUB PUSH0 DUP4 ADD MSTORE PUSH2 0x1036 DUP2 PUSH2 0xFFD JUMP JUMPDEST SWAP1 POP SWAP2 SWAP1 POP JUMP JUMPDEST PUSH0 PUSH1 0x40 DUP3 ADD SWAP1 POP DUP2 DUP2 SUB PUSH0 DUP4 ADD MSTORE PUSH2 0x1055 DUP2 DUP6 PUSH2 0xACA JUMP JUMPDEST SWAP1 POP PUSH2 0x1064 PUSH1 0x20 DUP4 ADD DUP5 PUSH2 0xF4A JUMP JUMPDEST SWAP4 SWAP3 POP POP POP JUMP JUMPDEST PUSH32 0x4E487B7100000000000000000000000000000000000000000000000000000000 PUSH0 MSTORE PUSH1 0x32 PUSH1 0x4 MSTORE PUSH1 0x24 PUSH0 REVERT JUMPDEST PUSH0 DUP2 CALLDATALOAD SWAP1 POP PUSH2 0x10A6 DUP2 PUSH2 0xF80 JUMP JUMPDEST SWAP3 SWAP2 POP POP JUMP JUMPDEST PUSH0 PUSH1 0x20 DUP3 DUP5 SUB SLT ISZERO PUSH2 0x10C1 JUMPI PUSH2 0x10C0 PUSH2 0x950 JUMP JUMPDEST JUMPDEST PUSH0 PUSH2 0x10CE DUP5 DUP3 DUP6 ADD PUSH2 0x1098 JUMP JUMPDEST SWAP2 POP POP SWAP3 SWAP2 POP POP JUMP JUMPDEST PUSH2 0x10E0 DUP2 PUSH2 0xA77 JUMP JUMPDEST DUP2 EQ PUSH2 0x10EA JUMPI PUSH0 PUSH0 REVERT JUMPDEST POP JUMP JUMPDEST PUSH0 DUP2 CALLDATALOAD SWAP1 POP PUSH2 0x10FB DUP2 PUSH2 0x10D7 JUMP JUMPDEST SWAP3 SWAP2 POP POP JUMP JUMPDEST PUSH0 PUSH1 0x20 DUP3 DUP5 SUB SLT ISZERO PUSH2 0x1116 JUMPI PUSH2 0x1115 PUSH2 0x950 JUMP JUMPDEST JUMPDEST PUSH0 PUSH2 0x1123 DUP5 DUP3 DUP6 ADD PUSH2 0x10ED JUMP JUMPDEST SWAP2 POP POP SWAP3 SWAP2 POP POP JUMP JUMPDEST PUSH0 PUSH0 REVERT JUMPDEST PUSH0 PUSH0 REVERT JUMPDEST PUSH0 PUSH0 REVERT JUMPDEST PUSH0 PUSH0 DUP4 CALLDATALOAD PUSH1 0x1 PUSH1 0x20 SUB DUP5 CALLDATASIZE SUB SUB DUP2 SLT PUSH2 0x1154 JUMPI PUSH2 0x1153 PUSH2 0x112C JUMP JUMPDEST JUMPDEST DUP1 DUP5 ADD SWAP3 POP DUP3 CALLDATALOAD SWAP2 POP PUSH8 0xFFFFFFFFFFFFFFFF DUP3 GT ISZERO PUSH2 0x1176 JUMPI PUSH2 0x1175 PUSH2 0x1130 JUMP JUMPDEST JUMPDEST PUSH1 0x20 DUP4 ADD SWAP3 POP PUSH1 0x1 DUP3 MUL CALLDATASIZE SUB DUP4 SGT ISZERO PUSH2 0x1192 JUMPI PUSH2 0x1191 PUSH2 0x1134 JUMP JUMPDEST JUMPDEST POP SWAP3 POP SWAP3 SWAP1 POP JUMP JUMPDEST PUSH32 0x4E487B7100000000000000000000000000000000000000000000000000000000 PUSH0 MSTORE PUSH1 0x41 PUSH1 0x4 MSTORE PUSH1 0x24 PUSH0 REVERT JUMPDEST PUSH0 DUP2 SWAP1 POP DUP2 PUSH0 MSTORE PUSH1 0x20 PUSH0 KECCAK256 SWAP1 POP SWAP2 SWAP1 POP JUMP JUMPDEST PUSH0 PUSH1 0x20 PUSH1 0x1F DUP4 ADD DIV SWAP1 POP SWAP2 SWAP1 POP JUMP JUMPDEST PUSH0 DUP3 DUP3 SHL SWAP1 POP SWAP3 SWAP2 POP POP JUMP JUMPDEST PUSH0 PUSH1 0x8 DUP4 MUL PUSH2 0x1223 PUSH32 0xFFFFFFFFFFFFFFFFFFFFFFFFFFFFFFFFFFFFFFFFFFFFFFFFFFFFFFFFFFFFFFFF DUP3 PUSH2 0x11E8 JUMP JUMPDEST PUSH2 0x122D DUP7 DUP4 PUSH2 0x11E8 JUMP JUMPDEST SWAP6 POP DUP1 NOT DUP5 AND SWAP4 POP DUP1 DUP7 AND DUP5 OR SWAP3 POP POP POP SWAP4 SWAP3 POP POP POP JUMP JUMPDEST PUSH0 PUSH2 0x125F PUSH2 0x125A PUSH2 0x1255 DUP5 PUSH2 0x9B2 JUMP JUMPDEST PUSH2 0xB4C JUMP JUMPDEST PUSH2 0x9B2 JUMP JUMPDEST SWAP1 POP SWAP2 SWAP1 POP JUMP JUMPDEST PUSH0 DUP2 SWAP1 POP SWAP2 SWAP1 POP JUMP JUMPDEST PUSH2 0x1278 DUP4 PUSH2 0x1245 JUMP JUMPDEST PUSH2 0x128C PUSH2 0x1284 DUP3 PUSH2 0x1266 JUMP JUMPDEST DUP5 DUP5 SLOAD PUSH2 0x11F4 JUMP JUMPDEST DUP3 SSTORE POP POP POP POP JUMP JUMPDEST PUSH0 PUSH0 SWAP1 POP SWAP1 JUMP JUMPDEST PUSH2 0x12A3 PUSH2 0x1294 JUMP JUMPDEST PUSH2 0x12AE DUP2 DUP5 DUP5 PUSH2 0x126F JUMP JUMPDEST POP POP POP JUMP JUMPDEST PUSH0 JUMPDEST DUP3 DUP2 LT ISZERO PUSH2 0x12D4 JUMPI PUSH2 0x12C9 PUSH0 DUP3 DUP5 ADD PUSH2 0x129B JUMP JUMPDEST PUSH1 0x1 DUP2 ADD SWAP1 POP PUSH2 0x12B5 JUMP JUMPDEST POP POP POP JUMP JUMPDEST PUSH1 0x1F DUP3 GT ISZERO PUSH2 0x1327 JUMPI DUP3 DUP3 GT ISZERO PUSH2 0x1326 JUMPI PUSH2 0x12F3 DUP2 PUSH2 0x11C7 JUMP JUMPDEST PUSH2 0x12FC DUP4 PUSH2 0x11D9 JUMP JUMPDEST PUSH2 0x1305 DUP6 PUSH2 0x11D9 JUMP JUMPDEST PUSH1 0x20 DUP7 LT ISZERO PUSH2 0x1312 JUMPI PUSH0 SWAP1 POP JUMPDEST DUP1 DUP4 ADD PUSH2 0x1321 DUP3 DUP5 SUB DUP3 PUSH2 0x12B3 JUMP JUMPDEST POP POP POP POP JUMPDEST JUMPDEST POP POP POP JUMP JUMPDEST PUSH0 DUP3 DUP3 SHR SWAP1 POP SWAP3 SWAP2 POP POP JUMP JUMPDEST PUSH0 PUSH2 0x1347 PUSH0 NOT DUP5 PUSH1 0x8 MUL PUSH2 0x132C JUMP JUMPDEST NOT DUP1 DUP4 AND SWAP2 POP POP SWAP3 SWAP2 POP POP JUMP JUMPDEST PUSH0 PUSH2 0x135F DUP4 DUP4 PUSH2 0x1338 JUMP JUMPDEST SWAP2 POP DUP3 PUSH1 0x2 MUL DUP3 OR SWAP1 POP SWAP3 SWAP2 POP POP JUMP JUMPDEST PUSH2 0x1378 DUP3 PUSH2 0xA92 JUMP JUMPDEST PUSH8 0xFFFFFFFFFFFFFFFF DUP2 GT ISZERO PUSH2 0x1391 JUMPI PUSH2 0x1390 PUSH2 0x119A JUMP JUMPDEST JUMPDEST PUSH2 0x139B DUP3 SLOAD PUSH2 0xEB2 JUMP JUMPDEST PUSH2 0x13A6 DUP3 DUP3 DUP6 PUSH2 0x12D9 JUMP JUMPDEST PUSH0 PUSH1 0x20 SWAP1 POP PUSH1 0x1F DUP4 GT PUSH1 0x1 DUP2 EQ PUSH2 0x13D7 JUMPI PUSH0 DUP5 ISZERO PUSH2 0x13C5 JUMPI DUP3 DUP8 ADD MLOAD SWAP1 POP JUMPDEST PUSH2 0x13CF DUP6 DUP3 PUSH2 0x1354 JUMP JUMPDEST DUP7 SSTORE POP PUSH2 0x1436 JUMP JUMPDEST PUSH1 0x1F NOT DUP5 AND PUSH2 0x13E5 DUP7 PUSH2 0x11C7 JUMP JUMPDEST PUSH0 JUMPDEST DUP3 DUP2 LT ISZERO PUSH2 0x140C JUMPI DUP5 DUP10 ADD MLOAD DUP3 SSTORE PUSH1 0x1 DUP3 ADD SWAP2 POP PUSH1 0x20 DUP6 ADD SWAP5 POP PUSH1 0x20 DUP2 ADD SWAP1 POP PUSH2 0x13E7 JUMP JUMPDEST DUP7 DUP4 LT ISZERO PUSH2 0x1429 JUMPI DUP5 DUP10 ADD MLOAD PUSH2 0x1425 PUSH1 0x1F DUP10 AND DUP3 PUSH2 0x1338 JUMP JUMPDEST DUP4 SSTORE POP JUMPDEST PUSH1 0x1 PUSH1 0x2 DUP9 MUL ADD DUP9 SSTORE POP POP POP JUMPDEST POP POP POP POP POP POP JUMP JUMPDEST DUP3 DUP2 DUP4 CALLDATACOPY PUSH0 DUP4 DUP4 ADD MSTORE POP POP POP JUMP JUMPDEST PUSH0 PUSH2 0x1457 DUP4 DUP6 PUSH2 0xA9C JUMP JUMPDEST SWAP4 POP PUSH2 0x1464 DUP4 DUP6 DUP5 PUSH2 0x143E JUMP JUMPDEST PUSH2 0x146D DUP4 PUSH2 0xABA JUMP JUMPDEST DUP5 ADD SWAP1 POP SWAP4 SWAP3 POP POP POP JUMP JUMPDEST PUSH0 PUSH1 0x20 DUP3 ADD SWAP1 POP DUP2 DUP2 SUB PUSH0 DUP4 ADD MSTORE PUSH2 0x1491 DUP2 DUP5 DUP7 PUSH2 0x144C JUMP JUMPDEST SWAP1 POP SWAP4 SWAP3 POP POP POP JUMP INVALID LOG2 PUSH5 0x6970667358 0x22 SLT KECCAK256 0xAE PUSH13 0x61F589743F02872E8CE2D49C1B CALLDATACOPY SLOAD DUP5 DUP8 GAS SWAP12 0xA6 0xBD 0xEF GAS 0x28 LOG3 CALLER 0xC7 0xB6 MLOAD XOR PUSH5 0x736F6C6343 STOP ADDMOD 0x22 STOP CALLER "
				},
				"gasEstimates": {
					"creation": {
						"codeDepositCost": "1065600",
						"executionCost": "infinite",
						"totalCost": "infinite"
					},
					"external": {
						"owner()": "2574",
						"records(address)": "infinite",
						"register(address[],string[],bool[],uint8[])": "infinite",
						"reward(address,uint256)": "infinite",
						"tokenContract()": "infinite"
					}
				},
				"methodIdentifiers": {
					"owner()": "8da5cb5b",
					"records(address)": "469e9067",
					"register(address[],string[],bool[],uint8[])": "6aa1d2ac",
					"reward(address,uint256)": "21670f22",
					"tokenContract()": "55a373d6"
				}
			},
			"storageLayout": {
				"storage": [
					{
						"astId": 242,
						"contract": "submissions/MeseretBirhanu/day15/GasSaver.sol:GasSaver",
						"label": "tokenContract",
						"offset": 0,
						"slot": "0",
						"type": "t_contract(AthenaToken)234"
					},
					{
						"astId": 244,
						"contract": "submissions/MeseretBirhanu/day15/GasSaver.sol:GasSaver",
						"label": "owner",
						"offset": 0,
						"slot": "1",
						"type": "t_address"
					},
					{
						"astId": 258,
						"contract": "submissions/MeseretBirhanu/day15/GasSaver.sol:GasSaver",
						"label": "records",
						"offset": 0,
						"slot": "2",
						"type": "t_mapping(t_address,t_struct(Contributor)253_storage)"
					}
				],
				"types": {
					"t_address": {
						"encoding": "inplace",
						"label": "address",
						"numberOfBytes": "20"
					},
					"t_bool": {
						"encoding": "inplace",
						"label": "bool",
						"numberOfBytes": "1"
					},
					"t_contract(AthenaToken)234": {
						"encoding": "inplace",
						"label": "contract AthenaToken",
						"numberOfBytes": "20"
					},
					"t_mapping(t_address,t_struct(Contributor)253_storage)": {
						"encoding": "mapping",
						"key": "t_address",
						"label": "mapping(address => struct GasSaver.Contributor)",
						"numberOfBytes": "32",
						"value": "t_struct(Contributor)253_storage"
					},
					"t_string_storage": {
						"encoding": "bytes",
						"label": "string",
						"numberOfBytes": "32"
					},
					"t_struct(Contributor)253_storage": {
						"encoding": "inplace",
						"label": "struct GasSaver.Contributor",
						"members": [
							{
								"astId": 246,
								"contract": "submissions/MeseretBirhanu/day15/GasSaver.sol:GasSaver",
								"label": "wallet",
								"offset": 0,
								"slot": "0",
								"type": "t_address"
							},
							{
								"astId": 248,
								"contract": "submissions/MeseretBirhanu/day15/GasSaver.sol:GasSaver",
								"label": "isVerified",
								"offset": 20,
								"slot": "0",
								"type": "t_bool"
							},
							{
								"astId": 250,
								"contract": "submissions/MeseretBirhanu/day15/GasSaver.sol:GasSaver",
								"label": "level",
								"offset": 21,
								"slot": "0",
								"type": "t_uint8"
							},
							{
								"astId": 252,
								"contract": "submissions/MeseretBirhanu/day15/GasSaver.sol:GasSaver",
								"label": "name",
								"offset": 0,
								"slot": "1",
								"type": "t_string_storage"
							}
						],
						"numberOfBytes": "64"
					},
					"t_uint8": {
						"encoding": "inplace",
						"label": "uint8",
						"numberOfBytes": "1"
					}
				}
			},
			"userdoc": {
				"kind": "user",
				"methods": {},
				"version": 1
			}
		}
	}
}