{
	"submissions/MeseretBirhanu/day14/SafeDepositBox.sol": {
		"SafeDepositBox": {
			"abi": [
				{
					"inputs": [
						{
							"internalType": "string",
							"name": "_name",
							"type": "string"
						},
						{
							"internalType": "uint8",
							"name": "_code",
							"type": "uint8"
						},
						{
							"internalType": "uint8",
							"name": "_mark",
							"type": "uint8"
						}
					],
					"name": "addMarks",
					"outputs": [],
					"stateMutability": "nonpayable",
					"type": "function"
				},
				{
					"inputs": [
						{
							"internalType": "string",
							"name": "_name",
							"type": "string"
						},
						{
							"internalType": "uint8",
							"name": "_grade",
							"type": "uint8"
						},
						{
							"internalType": "uint8",
							"name": "_age",
							"type": "uint8"
						},
						{
							"internalType": "bool",
							"name": "_female",
							"type": "bool"
						}
					],
					"name": "addRecord",
					"outputs": [],
					"stateMutability": "nonpayable",
					"type": "function"
				},
				{
					"inputs": [
						{
							"internalType": "address",
							"name": "",
							"type": "address"
						},
						{
							"internalType": "uint256",
							"name": "",
							"type": "uint256"
						}
					],
					"name": "records",
					"outputs": [
						{
							"internalType": "string",
							"name": "name",
							"type": "string"
						},
						{
							"internalType": "uint8",
							"name": "courseCode",
							"type": "uint8"
						},
						{
							"internalType": "uint8",
							"name": "grade",
							"type": "uint8"
						}
					],
					"stateMutability": "view",
					"type": "function"
				},
				{
					"inputs": [
						{
							"internalType": "address",
							"name": "",
							"type": "address"
						}
					],
					"name": "students",
					"outputs": [
						{
							"internalType": "string",
							"name": "name",
							"type": "string"
						},
						{
							"internalType": "uint8",
							"name": "grade",
							"type": "uint8"
						},
						{
							"internalType": "uint8",
							"name": "age",
							"type": "uint8"
						},
						{
							"internalType": "uint8",
							"name": "gender",
							"type": "uint8"
						}
					],
					"stateMutability": "view",
					"type": "function"
				}
			],
			"devdoc": {
				"kind": "dev",
				"methods": {},
				"version": 1
			},
			"evm": {
				"assembly": "    /* \"submissions/MeseretBirhanu/day14/SafeDepositBox.sol\":61:973  contract SafeDepositBox{... */\n  mstore(0x40, 0x80)\n  callvalue\n  dup1\n  iszero\n  tag_1\n  jumpi\n  revert(0x00, 0x00)\ntag_1:\n  pop\n  dataSize(sub_0)\n  dup1\n  dataOffset(sub_0)\n  0x00\n  codecopy\n  0x00\n  return\nstop\n\nsub_0: assembly {\n        /* \"submissions/MeseretBirhanu/day14/SafeDepositBox.sol\":61:973  contract SafeDepositBox{... */\n      mstore(0x40, 0x80)\n      callvalue\n      dup1\n      iszero\n      tag_1\n      jumpi\n      revert(0x00, 0x00)\n    tag_1:\n      pop\n      jumpi(tag_2, lt(calldatasize, 0x04))\n      shr(0xe0, calldataload(0x00))\n      dup1\n      0x82a6c0ac\n      eq\n      tag_3\n      jumpi\n      dup1\n      0x96494f01\n      eq\n      tag_4\n      jumpi\n      dup1\n      0xa6c807a9\n      eq\n      tag_5\n      jumpi\n      dup1\n      0xde0acd8e\n      eq\n      tag_6\n      jumpi\n    tag_2:\n      revert(0x00, 0x00)\n        /* \"submissions/MeseretBirhanu/day14/SafeDepositBox.sol\":357:402  mapping(address =>  Courses[]) public records */\n    tag_3:\n      tag_7\n      0x04\n      dup1\n      calldatasize\n      sub\n      dup2\n      add\n      swap1\n      tag_8\n      swap2\n      swap1\n      tag_9\n      jump\t// in\n    tag_8:\n      tag_10\n      jump\t// in\n    tag_7:\n      mload(0x40)\n      tag_11\n      swap4\n      swap3\n      swap2\n      swap1\n      tag_12\n      jump\t// in\n    tag_11:\n      mload(0x40)\n      dup1\n      swap2\n      sub\n      swap1\n      return\n        /* \"submissions/MeseretBirhanu/day14/SafeDepositBox.sol\":786:968  function addMarks(string calldata _name ,uint8 _code, uint8 _mark)public {... */\n    tag_4:\n      tag_13\n      0x04\n      dup1\n      calldatasize\n      sub\n      dup2\n      add\n      swap1\n      tag_14\n      swap2\n      swap1\n      tag_15\n      jump\t// in\n    tag_14:\n      tag_16\n      jump\t// in\n    tag_13:\n      stop\n        /* \"submissions/MeseretBirhanu/day14/SafeDepositBox.sol\":409:452  mapping(address => Student) public students */\n    tag_5:\n      tag_17\n      0x04\n      dup1\n      calldatasize\n      sub\n      dup2\n      add\n      swap1\n      tag_18\n      swap2\n      swap1\n      tag_19\n      jump\t// in\n    tag_18:\n      tag_20\n      jump\t// in\n    tag_17:\n      mload(0x40)\n      tag_21\n      swap5\n      swap4\n      swap3\n      swap2\n      swap1\n      tag_22\n      jump\t// in\n    tag_21:\n      mload(0x40)\n      dup1\n      swap2\n      sub\n      swap1\n      return\n        /* \"submissions/MeseretBirhanu/day14/SafeDepositBox.sol\":461:780  function addRecord(string calldata _name , uint8 _grade ,uint8 _age , bool _female ) public {... */\n    tag_6:\n      tag_23\n      0x04\n      dup1\n      calldatasize\n      sub\n      dup2\n      add\n      swap1\n      tag_24\n      swap2\n      swap1\n      tag_25\n      jump\t// in\n    tag_24:\n      tag_26\n      jump\t// in\n    tag_23:\n      stop\n        /* \"submissions/MeseretBirhanu/day14/SafeDepositBox.sol\":357:402  mapping(address =>  Courses[]) public records */\n    tag_10:\n      mstore(0x20, 0x00)\n      dup2\n      0x00\n      mstore\n      keccak256(0x00, 0x40)\n      dup2\n      dup2\n      sload\n      dup2\n      lt\n      tag_27\n      jumpi\n      0x00\n      dup1\n      revert\n    tag_27:\n      swap1\n      0x00\n      mstore\n      keccak256(0x00, 0x20)\n      swap1\n      0x02\n      mul\n      add\n      0x00\n      swap2\n      pop\n      swap2\n      pop\n      pop\n      dup1\n      0x00\n      add\n      dup1\n      sload\n      tag_29\n      swap1\n      tag_30\n      jump\t// in\n    tag_29:\n      dup1\n      0x1f\n      add\n      0x20\n      dup1\n      swap2\n      div\n      mul\n      0x20\n      add\n      mload(0x40)\n      swap1\n      dup2\n      add\n      0x40\n      mstore\n      dup1\n      swap3\n      swap2\n      swap1\n      dup2\n      dup2\n      mstore\n      0x20\n      add\n      dup3\n      dup1\n      sload\n      tag_31\n      swap1\n      tag_30\n      jump\t// in\n    tag_31:\n      dup1\n      iszero\n      tag_32\n      jumpi\n      dup1\n      0x1f\n      lt\n      tag_33\n      jumpi\n      0x0100\n      dup1\n      dup4\n      sload\n      div\n      mul\n      dup4\n      mstore\n      swap2\n      0x20\n      add\n      swap2\n      jump(tag_32)\n    tag_33:\n      dup3\n      add\n      swap2\n      swap1\n      0x00\n      mstore\n      keccak256(0x00, 0x20)\n      swap1\n    tag_34:\n      dup2\n      sload\n      dup2\n      mstore\n      swap1\n      0x01\n      add\n      swap1\n      0x20\n      add\n      dup1\n      dup4\n      gt\n      tag_34\n      jumpi\n      dup3\n      swap1\n      sub\n      0x1f\n      and\n      dup3\n      add\n      swap2\n    tag_32:\n      pop\n      pop\n      pop\n      pop\n      pop\n      swap1\n      dup1\n      0x01\n      add\n      0x00\n      swap1\n      sload\n      swap1\n      0x0100\n      exp\n      swap1\n      div\n      0xff\n      and\n      swap1\n      dup1\n      0x01\n      add\n      0x01\n      swap1\n      sload\n      swap1\n      0x0100\n      exp\n      swap1\n      div\n      0xff\n      and\n      swap1\n      pop\n      dup4\n      jump\t// out\n        /* \"submissions/MeseretBirhanu/day14/SafeDepositBox.sol\":786:968  function addMarks(string calldata _name ,uint8 _code, uint8 _mark)public {... */\n    tag_16:\n        /* \"submissions/MeseretBirhanu/day14/SafeDepositBox.sol\":866:888  Courses memory course1 */\n      0x00\n        /* \"submissions/MeseretBirhanu/day14/SafeDepositBox.sol\":891:920  Courses(_name , _code ,_mark) */\n      mload(0x40)\n      dup1\n      0x60\n      add\n      0x40\n      mstore\n      dup1\n        /* \"submissions/MeseretBirhanu/day14/SafeDepositBox.sol\":899:904  _name */\n      dup7\n      dup7\n        /* \"submissions/MeseretBirhanu/day14/SafeDepositBox.sol\":891:920  Courses(_name , _code ,_mark) */\n      dup1\n      dup1\n      0x1f\n      add\n      0x20\n      dup1\n      swap2\n      div\n      mul\n      0x20\n      add\n      mload(0x40)\n      swap1\n      dup2\n      add\n      0x40\n      mstore\n      dup1\n      swap4\n      swap3\n      swap2\n      swap1\n      dup2\n      dup2\n      mstore\n      0x20\n      add\n      dup4\n      dup4\n      dup1\n      dup3\n      dup5\n      calldatacopy\n      0x00\n      dup2\n      dup5\n      add\n      mstore\n      not(0x1f)\n      0x1f\n      dup3\n      add\n      and\n      swap1\n      pop\n      dup1\n      dup4\n      add\n      swap3\n      pop\n      pop\n      pop\n      pop\n      pop\n      pop\n      pop\n      dup2\n      mstore\n      0x20\n      add\n        /* \"submissions/MeseretBirhanu/day14/SafeDepositBox.sol\":907:912  _code */\n      dup5\n        /* \"submissions/MeseretBirhanu/day14/SafeDepositBox.sol\":891:920  Courses(_name , _code ,_mark) */\n      0xff\n      and\n      dup2\n      mstore\n      0x20\n      add\n        /* \"submissions/MeseretBirhanu/day14/SafeDepositBox.sol\":914:919  _mark */\n      dup4\n        /* \"submissions/MeseretBirhanu/day14/SafeDepositBox.sol\":891:920  Courses(_name , _code ,_mark) */\n      0xff\n      and\n      dup2\n      mstore\n      pop\n        /* \"submissions/MeseretBirhanu/day14/SafeDepositBox.sol\":866:920  Courses memory course1 = Courses(_name , _code ,_mark) */\n      swap1\n      pop\n        /* \"submissions/MeseretBirhanu/day14/SafeDepositBox.sol\":927:934  records */\n      0x00\n        /* \"submissions/MeseretBirhanu/day14/SafeDepositBox.sol\":927:946  records[msg.sender] */\n      0x00\n        /* \"submissions/MeseretBirhanu/day14/SafeDepositBox.sol\":935:945  msg.sender */\n      caller\n        /* \"submissions/MeseretBirhanu/day14/SafeDepositBox.sol\":927:946  records[msg.sender] */\n      0xffffffffffffffffffffffffffffffffffffffff\n      and\n      0xffffffffffffffffffffffffffffffffffffffff\n      and\n      dup2\n      mstore\n      0x20\n      add\n      swap1\n      dup2\n      mstore\n      0x20\n      add\n      0x00\n      keccak256\n        /* \"submissions/MeseretBirhanu/day14/SafeDepositBox.sol\":952:959  course1 */\n      dup2\n        /* \"submissions/MeseretBirhanu/day14/SafeDepositBox.sol\":927:960  records[msg.sender].push(course1) */\n      swap1\n      dup1\n      0x01\n      dup2\n      sload\n      add\n      dup1\n      dup3\n      sstore\n      dup1\n      swap2\n      pop\n      pop\n      0x01\n      swap1\n      sub\n      swap1\n      0x00\n      mstore\n      keccak256(0x00, 0x20)\n      swap1\n      0x02\n      mul\n      add\n      0x00\n      swap1\n      swap2\n      swap1\n      swap2\n      swap1\n      swap2\n      pop\n      0x00\n      dup3\n      add\n      mload\n      dup2\n      0x00\n      add\n      swap1\n      dup2\n      tag_37\n      swap2\n      swap1\n      tag_38\n      jump\t// in\n    tag_37:\n      pop\n      0x20\n      dup3\n      add\n      mload\n      dup2\n      0x01\n      add\n      exp(0x0100, 0x00)\n      dup2\n      sload\n      dup2\n      0xff\n      mul\n      not\n      and\n      swap1\n      dup4\n      0xff\n      and\n      mul\n      or\n      swap1\n      sstore\n      pop\n      0x40\n      dup3\n      add\n      mload\n      dup2\n      0x01\n      add\n      exp(0x0100, 0x01)\n      dup2\n      sload\n      dup2\n      0xff\n      mul\n      not\n      and\n      swap1\n      dup4\n      0xff\n      and\n      mul\n      or\n      swap1\n      sstore\n      pop\n      pop\n      pop\n        /* \"submissions/MeseretBirhanu/day14/SafeDepositBox.sol\":859:968  {... */\n      pop\n        /* \"submissions/MeseretBirhanu/day14/SafeDepositBox.sol\":786:968  function addMarks(string calldata _name ,uint8 _code, uint8 _mark)public {... */\n      pop\n      pop\n      pop\n      pop\n      jump\t// out\n        /* \"submissions/MeseretBirhanu/day14/SafeDepositBox.sol\":409:452  mapping(address => Student) public students */\n    tag_20:\n      mstore(0x20, 0x01)\n      dup1\n      0x00\n      mstore\n      keccak256(0x00, 0x40)\n      0x00\n      swap2\n      pop\n      swap1\n      pop\n      dup1\n      0x00\n      add\n      dup1\n      sload\n      tag_39\n      swap1\n      tag_30\n      jump\t// in\n    tag_39:\n      dup1\n      0x1f\n      add\n      0x20\n      dup1\n      swap2\n      div\n      mul\n      0x20\n      add\n      mload(0x40)\n      swap1\n      dup2\n      add\n      0x40\n      mstore\n      dup1\n      swap3\n      swap2\n      swap1\n      dup2\n      dup2\n      mstore\n      0x20\n      add\n      dup3\n      dup1\n      sload\n      tag_40\n      swap1\n      tag_30\n      jump\t// in\n    tag_40:\n      dup1\n      iszero\n      tag_41\n      jumpi\n      dup1\n      0x1f\n      lt\n      tag_42\n      jumpi\n      0x0100\n      dup1\n      dup4\n      sload\n      div\n      mul\n      dup4\n      mstore\n      swap2\n      0x20\n      add\n      swap2\n      jump(tag_41)\n    tag_42:\n      dup3\n      add\n      swap2\n      swap1\n      0x00\n      mstore\n      keccak256(0x00, 0x20)\n      swap1\n    tag_43:\n      dup2\n      sload\n      dup2\n      mstore\n      swap1\n      0x01\n      add\n      swap1\n      0x20\n      add\n      dup1\n      dup4\n      gt\n      tag_43\n      jumpi\n      dup3\n      swap1\n      sub\n      0x1f\n      and\n      dup3\n      add\n      swap2\n    tag_41:\n      pop\n      pop\n      pop\n      pop\n      pop\n      swap1\n      dup1\n      0x01\n      add\n      0x00\n      swap1\n      sload\n      swap1\n      0x0100\n      exp\n      swap1\n      div\n      0xff\n      and\n      swap1\n      dup1\n      0x01\n      add\n      0x01\n      swap1\n      sload\n      swap1\n      0x0100\n      exp\n      swap1\n      div\n      0xff\n      and\n      swap1\n      dup1\n      0x01\n      add\n      0x02\n      swap1\n      sload\n      swap1\n      0x0100\n      exp\n      swap1\n      div\n      0xff\n      and\n      swap1\n      pop\n      dup5\n      jump\t// out\n        /* \"submissions/MeseretBirhanu/day14/SafeDepositBox.sol\":461:780  function addRecord(string calldata _name , uint8 _grade ,uint8 _age , bool _female ) public {... */\n    tag_26:\n        /* \"submissions/MeseretBirhanu/day14/SafeDepositBox.sol\":564:573  uint8 sex */\n      0x00\n        /* \"submissions/MeseretBirhanu/day14/SafeDepositBox.sol\":587:594  _female */\n      dup2\n        /* \"submissions/MeseretBirhanu/day14/SafeDepositBox.sol\":584:667  if(_female){... */\n      iszero\n      tag_45\n      jumpi\n        /* \"submissions/MeseretBirhanu/day14/SafeDepositBox.sol\":616:617  1 */\n      0x01\n        /* \"submissions/MeseretBirhanu/day14/SafeDepositBox.sol\":610:617  sex = 1 */\n      swap1\n      pop\n        /* \"submissions/MeseretBirhanu/day14/SafeDepositBox.sol\":584:667  if(_female){... */\n      jump(tag_46)\n    tag_45:\n        /* \"submissions/MeseretBirhanu/day14/SafeDepositBox.sol\":654:655  2 */\n      0x02\n        /* \"submissions/MeseretBirhanu/day14/SafeDepositBox.sol\":648:655  sex = 2 */\n      swap1\n      pop\n        /* \"submissions/MeseretBirhanu/day14/SafeDepositBox.sol\":584:667  if(_female){... */\n    tag_46:\n        /* \"submissions/MeseretBirhanu/day14/SafeDepositBox.sol\":677:696  Student memory stu1 */\n      0x00\n        /* \"submissions/MeseretBirhanu/day14/SafeDepositBox.sol\":699:734  Student(_name , _grade , _age, sex) */\n      mload(0x40)\n      dup1\n      0x80\n      add\n      0x40\n      mstore\n      dup1\n        /* \"submissions/MeseretBirhanu/day14/SafeDepositBox.sol\":707:712  _name */\n      dup9\n      dup9\n        /* \"submissions/MeseretBirhanu/day14/SafeDepositBox.sol\":699:734  Student(_name , _grade , _age, sex) */\n      dup1\n      dup1\n      0x1f\n      add\n      0x20\n      dup1\n      swap2\n      div\n      mul\n      0x20\n      add\n      mload(0x40)\n      swap1\n      dup2\n      add\n      0x40\n      mstore\n      dup1\n      swap4\n      swap3\n      swap2\n      swap1\n      dup2\n      dup2\n      mstore\n      0x20\n      add\n      dup4\n      dup4\n      dup1\n      dup3\n      dup5\n      calldatacopy\n      0x00\n      dup2\n      dup5\n      add\n      mstore\n      not(0x1f)\n      0x1f\n      dup3\n      add\n      and\n      swap1\n      pop\n      dup1\n      dup4\n      add\n      swap3\n      pop\n      pop\n      pop\n      pop\n      pop\n      pop\n      pop\n      dup2\n      mstore\n      0x20\n      add\n        /* \"submissions/MeseretBirhanu/day14/SafeDepositBox.sol\":715:721  _grade */\n      dup7\n        /* \"submissions/MeseretBirhanu/day14/SafeDepositBox.sol\":699:734  Student(_name , _grade , _age, sex) */\n      0xff\n      and\n      dup2\n      mstore\n      0x20\n      add\n        /* \"submissions/MeseretBirhanu/day14/SafeDepositBox.sol\":724:728  _age */\n      dup6\n        /* \"submissions/MeseretBirhanu/day14/SafeDepositBox.sol\":699:734  Student(_name , _grade , _age, sex) */\n      0xff\n      and\n      dup2\n      mstore\n      0x20\n      add\n        /* \"submissions/MeseretBirhanu/day14/SafeDepositBox.sol\":730:733  sex */\n      dup4\n        /* \"submissions/MeseretBirhanu/day14/SafeDepositBox.sol\":699:734  Student(_name , _grade , _age, sex) */\n      0xff\n      and\n      dup2\n      mstore\n      pop\n        /* \"submissions/MeseretBirhanu/day14/SafeDepositBox.sol\":677:734  Student memory stu1 = Student(_name , _grade , _age, sex) */\n      swap1\n      pop\n        /* \"submissions/MeseretBirhanu/day14/SafeDepositBox.sol\":768:772  stu1 */\n      dup1\n        /* \"submissions/MeseretBirhanu/day14/SafeDepositBox.sol\":745:753  students */\n      0x01\n        /* \"submissions/MeseretBirhanu/day14/SafeDepositBox.sol\":745:765  students[msg.sender] */\n      0x00\n        /* \"submissions/MeseretBirhanu/day14/SafeDepositBox.sol\":754:764  msg.sender */\n      caller\n        /* \"submissions/MeseretBirhanu/day14/SafeDepositBox.sol\":745:765  students[msg.sender] */\n      0xffffffffffffffffffffffffffffffffffffffff\n      and\n      0xffffffffffffffffffffffffffffffffffffffff\n      and\n      dup2\n      mstore\n      0x20\n      add\n      swap1\n      dup2\n      mstore\n      0x20\n      add\n      0x00\n      keccak256\n        /* \"submissions/MeseretBirhanu/day14/SafeDepositBox.sol\":745:772  students[msg.sender] = stu1 */\n      0x00\n      dup3\n      add\n      mload\n      dup2\n      0x00\n      add\n      swap1\n      dup2\n      tag_47\n      swap2\n      swap1\n      tag_38\n      jump\t// in\n    tag_47:\n      pop\n      0x20\n      dup3\n      add\n      mload\n      dup2\n      0x01\n      add\n      exp(0x0100, 0x00)\n      dup2\n      sload\n      dup2\n      0xff\n      mul\n      not\n      and\n      swap1\n      dup4\n      0xff\n      and\n      mul\n      or\n      swap1\n      sstore\n      pop\n      0x40\n      dup3\n      add\n      mload\n      dup2\n      0x01\n      add\n      exp(0x0100, 0x01)\n      dup2\n      sload\n      dup2\n      0xff\n      mul\n      not\n      and\n      swap1\n      dup4\n      0xff\n      and\n      mul\n      or\n      swap1\n      sstore\n      pop\n      0x60\n      dup3\n      add\n      mload\n      dup2\n      0x01\n      add\n      exp(0x0100, 0x02)\n      dup2\n      sload\n      dup2\n      0xff\n      mul\n      not\n      and\n      swap1\n      dup4\n      0xff\n      and\n      mul\n      or\n      swap1\n      sstore\n      pop\n      swap1\n      pop\n      pop\n        /* \"submissions/MeseretBirhanu/day14/SafeDepositBox.sol\":553:780  {... */\n      pop\n      pop\n        /* \"submissions/MeseretBirhanu/day14/SafeDepositBox.sol\":461:780  function addRecord(string calldata _name , uint8 _grade ,uint8 _age , bool _female ) public {... */\n      pop\n      pop\n      pop\n      pop\n      pop\n      jump\t// out\n        /* \"#utility.yul\":88:205   */\n    tag_49:\n        /* \"#utility.yul\":197:198   */\n      0x00\n        /* \"#utility.yul\":194:195   */\n      0x00\n        /* \"#utility.yul\":187:199   */\n      revert\n        /* \"#utility.yul\":211:328   */\n    tag_50:\n        /* \"#utility.yul\":320:321   */\n      0x00\n        /* \"#utility.yul\":317:318   */\n      0x00\n        /* \"#utility.yul\":310:322   */\n      revert\n        /* \"#utility.yul\":334:460   */\n    tag_51:\n        /* \"#utility.yul\":371:378   */\n      0x00\n        /* \"#utility.yul\":411:453   */\n      0xffffffffffffffffffffffffffffffffffffffff\n        /* \"#utility.yul\":404:409   */\n      dup3\n        /* \"#utility.yul\":400:454   */\n      and\n        /* \"#utility.yul\":389:454   */\n      swap1\n      pop\n        /* \"#utility.yul\":334:460   */\n      swap2\n      swap1\n      pop\n      jump\t// out\n        /* \"#utility.yul\":466:562   */\n    tag_52:\n        /* \"#utility.yul\":503:510   */\n      0x00\n        /* \"#utility.yul\":532:556   */\n      tag_97\n        /* \"#utility.yul\":550:555   */\n      dup3\n        /* \"#utility.yul\":532:556   */\n      tag_51\n      jump\t// in\n    tag_97:\n        /* \"#utility.yul\":521:556   */\n      swap1\n      pop\n        /* \"#utility.yul\":466:562   */\n      swap2\n      swap1\n      pop\n      jump\t// out\n        /* \"#utility.yul\":568:690   */\n    tag_53:\n        /* \"#utility.yul\":641:665   */\n      tag_99\n        /* \"#utility.yul\":659:664   */\n      dup2\n        /* \"#utility.yul\":641:665   */\n      tag_52\n      jump\t// in\n    tag_99:\n        /* \"#utility.yul\":634:639   */\n      dup2\n        /* \"#utility.yul\":631:666   */\n      eq\n        /* \"#utility.yul\":621:684   */\n      tag_100\n      jumpi\n        /* \"#utility.yul\":680:681   */\n      0x00\n        /* \"#utility.yul\":677:678   */\n      0x00\n        /* \"#utility.yul\":670:682   */\n      revert\n        /* \"#utility.yul\":621:684   */\n    tag_100:\n        /* \"#utility.yul\":568:690   */\n      pop\n      jump\t// out\n        /* \"#utility.yul\":696:835   */\n    tag_54:\n        /* \"#utility.yul\":742:747   */\n      0x00\n        /* \"#utility.yul\":780:786   */\n      dup2\n        /* \"#utility.yul\":767:787   */\n      calldataload\n        /* \"#utility.yul\":758:787   */\n      swap1\n      pop\n        /* \"#utility.yul\":796:829   */\n      tag_102\n        /* \"#utility.yul\":823:828   */\n      dup2\n        /* \"#utility.yul\":796:829   */\n      tag_53\n      jump\t// in\n    tag_102:\n        /* \"#utility.yul\":696:835   */\n      swap3\n      swap2\n      pop\n      pop\n      jump\t// out\n        /* \"#utility.yul\":841:918   */\n    tag_55:\n        /* \"#utility.yul\":878:885   */\n      0x00\n        /* \"#utility.yul\":907:912   */\n      dup2\n        /* \"#utility.yul\":896:912   */\n      swap1\n      pop\n        /* \"#utility.yul\":841:918   */\n      swap2\n      swap1\n      pop\n      jump\t// out\n        /* \"#utility.yul\":924:1046   */\n    tag_56:\n        /* \"#utility.yul\":997:1021   */\n      tag_105\n        /* \"#utility.yul\":1015:1020   */\n      dup2\n        /* \"#utility.yul\":997:1021   */\n      tag_55\n      jump\t// in\n    tag_105:\n        /* \"#utility.yul\":990:995   */\n      dup2\n        /* \"#utility.yul\":987:1022   */\n      eq\n        /* \"#utility.yul\":977:1040   */\n      tag_106\n      jumpi\n        /* \"#utility.yul\":1036:1037   */\n      0x00\n        /* \"#utility.yul\":1033:1034   */\n      0x00\n        /* \"#utility.yul\":1026:1038   */\n      revert\n        /* \"#utility.yul\":977:1040   */\n    tag_106:\n        /* \"#utility.yul\":924:1046   */\n      pop\n      jump\t// out\n        /* \"#utility.yul\":1052:1191   */\n    tag_57:\n        /* \"#utility.yul\":1098:1103   */\n      0x00\n        /* \"#utility.yul\":1136:1142   */\n      dup2\n        /* \"#utility.yul\":1123:1143   */\n      calldataload\n        /* \"#utility.yul\":1114:1143   */\n      swap1\n      pop\n        /* \"#utility.yul\":1152:1185   */\n      tag_108\n        /* \"#utility.yul\":1179:1184   */\n      dup2\n        /* \"#utility.yul\":1152:1185   */\n      tag_56\n      jump\t// in\n    tag_108:\n        /* \"#utility.yul\":1052:1191   */\n      swap3\n      swap2\n      pop\n      pop\n      jump\t// out\n        /* \"#utility.yul\":1197:1671   */\n    tag_9:\n        /* \"#utility.yul\":1265:1271   */\n      0x00\n        /* \"#utility.yul\":1273:1279   */\n      0x00\n        /* \"#utility.yul\":1322:1324   */\n      0x40\n        /* \"#utility.yul\":1310:1319   */\n      dup4\n        /* \"#utility.yul\":1301:1308   */\n      dup6\n        /* \"#utility.yul\":1297:1320   */\n      sub\n        /* \"#utility.yul\":1293:1325   */\n      slt\n        /* \"#utility.yul\":1290:1409   */\n      iszero\n      tag_110\n      jumpi\n        /* \"#utility.yul\":1328:1407   */\n      tag_111\n      tag_49\n      jump\t// in\n    tag_111:\n        /* \"#utility.yul\":1290:1409   */\n    tag_110:\n        /* \"#utility.yul\":1448:1449   */\n      0x00\n        /* \"#utility.yul\":1473:1526   */\n      tag_112\n        /* \"#utility.yul\":1518:1525   */\n      dup6\n        /* \"#utility.yul\":1509:1515   */\n      dup3\n        /* \"#utility.yul\":1498:1507   */\n      dup7\n        /* \"#utility.yul\":1494:1516   */\n      add\n        /* \"#utility.yul\":1473:1526   */\n      tag_54\n      jump\t// in\n    tag_112:\n        /* \"#utility.yul\":1463:1526   */\n      swap3\n      pop\n        /* \"#utility.yul\":1419:1536   */\n      pop\n        /* \"#utility.yul\":1575:1577   */\n      0x20\n        /* \"#utility.yul\":1601:1654   */\n      tag_113\n        /* \"#utility.yul\":1646:1653   */\n      dup6\n        /* \"#utility.yul\":1637:1643   */\n      dup3\n        /* \"#utility.yul\":1626:1635   */\n      dup7\n        /* \"#utility.yul\":1622:1644   */\n      add\n        /* \"#utility.yul\":1601:1654   */\n      tag_57\n      jump\t// in\n    tag_113:\n        /* \"#utility.yul\":1591:1654   */\n      swap2\n      pop\n        /* \"#utility.yul\":1546:1664   */\n      pop\n        /* \"#utility.yul\":1197:1671   */\n      swap3\n      pop\n      swap3\n      swap1\n      pop\n      jump\t// out\n        /* \"#utility.yul\":1677:1776   */\n    tag_58:\n        /* \"#utility.yul\":1729:1735   */\n      0x00\n        /* \"#utility.yul\":1763:1768   */\n      dup2\n        /* \"#utility.yul\":1757:1769   */\n      mload\n        /* \"#utility.yul\":1747:1769   */\n      swap1\n      pop\n        /* \"#utility.yul\":1677:1776   */\n      swap2\n      swap1\n      pop\n      jump\t// out\n        /* \"#utility.yul\":1782:1951   */\n    tag_59:\n        /* \"#utility.yul\":1866:1877   */\n      0x00\n        /* \"#utility.yul\":1900:1906   */\n      dup3\n        /* \"#utility.yul\":1895:1898   */\n      dup3\n        /* \"#utility.yul\":1888:1907   */\n      mstore\n        /* \"#utility.yul\":1940:1944   */\n      0x20\n        /* \"#utility.yul\":1935:1938   */\n      dup3\n        /* \"#utility.yul\":1931:1945   */\n      add\n        /* \"#utility.yul\":1916:1945   */\n      swap1\n      pop\n        /* \"#utility.yul\":1782:1951   */\n      swap3\n      swap2\n      pop\n      pop\n      jump\t// out\n        /* \"#utility.yul\":1957:2096   */\n    tag_60:\n        /* \"#utility.yul\":2046:2052   */\n      dup3\n        /* \"#utility.yul\":2041:2044   */\n      dup2\n        /* \"#utility.yul\":2036:2039   */\n      dup4\n        /* \"#utility.yul\":2030:2053   */\n      mcopy\n        /* \"#utility.yul\":2087:2088   */\n      0x00\n        /* \"#utility.yul\":2078:2084   */\n      dup4\n        /* \"#utility.yul\":2073:2076   */\n      dup4\n        /* \"#utility.yul\":2069:2085   */\n      add\n        /* \"#utility.yul\":2062:2089   */\n      mstore\n        /* \"#utility.yul\":1957:2096   */\n      pop\n      pop\n      pop\n      jump\t// out\n        /* \"#utility.yul\":2102:2204   */\n    tag_61:\n        /* \"#utility.yul\":2143:2149   */\n      0x00\n        /* \"#utility.yul\":2194:2196   */\n      0x1f\n        /* \"#utility.yul\":2190:2197   */\n      not\n        /* \"#utility.yul\":2185:2187   */\n      0x1f\n        /* \"#utility.yul\":2178:2183   */\n      dup4\n        /* \"#utility.yul\":2174:2188   */\n      add\n        /* \"#utility.yul\":2170:2198   */\n      and\n        /* \"#utility.yul\":2160:2198   */\n      swap1\n      pop\n        /* \"#utility.yul\":2102:2204   */\n      swap2\n      swap1\n      pop\n      jump\t// out\n        /* \"#utility.yul\":2210:2587   */\n    tag_62:\n        /* \"#utility.yul\":2298:2301   */\n      0x00\n        /* \"#utility.yul\":2326:2365   */\n      tag_119\n        /* \"#utility.yul\":2359:2364   */\n      dup3\n        /* \"#utility.yul\":2326:2365   */\n      tag_58\n      jump\t// in\n    tag_119:\n        /* \"#utility.yul\":2381:2452   */\n      tag_120\n        /* \"#utility.yul\":2445:2451   */\n      dup2\n        /* \"#utility.yul\":2440:2443   */\n      dup6\n        /* \"#utility.yul\":2381:2452   */\n      tag_59\n      jump\t// in\n    tag_120:\n        /* \"#utility.yul\":2374:2452   */\n      swap4\n      pop\n        /* \"#utility.yul\":2461:2526   */\n      tag_121\n        /* \"#utility.yul\":2519:2525   */\n      dup2\n        /* \"#utility.yul\":2514:2517   */\n      dup6\n        /* \"#utility.yul\":2507:2511   */\n      0x20\n        /* \"#utility.yul\":2500:2505   */\n      dup7\n        /* \"#utility.yul\":2496:2512   */\n      add\n        /* \"#utility.yul\":2461:2526   */\n      tag_60\n      jump\t// in\n    tag_121:\n        /* \"#utility.yul\":2551:2580   */\n      tag_122\n        /* \"#utility.yul\":2573:2579   */\n      dup2\n        /* \"#utility.yul\":2551:2580   */\n      tag_61\n      jump\t// in\n    tag_122:\n        /* \"#utility.yul\":2546:2549   */\n      dup5\n        /* \"#utility.yul\":2542:2581   */\n      add\n        /* \"#utility.yul\":2535:2581   */\n      swap2\n      pop\n        /* \"#utility.yul\":2302:2587   */\n      pop\n        /* \"#utility.yul\":2210:2587   */\n      swap3\n      swap2\n      pop\n      pop\n      jump\t// out\n        /* \"#utility.yul\":2593:2679   */\n    tag_63:\n        /* \"#utility.yul\":2628:2635   */\n      0x00\n        /* \"#utility.yul\":2668:2672   */\n      0xff\n        /* \"#utility.yul\":2661:2666   */\n      dup3\n        /* \"#utility.yul\":2657:2673   */\n      and\n        /* \"#utility.yul\":2646:2673   */\n      swap1\n      pop\n        /* \"#utility.yul\":2593:2679   */\n      swap2\n      swap1\n      pop\n      jump\t// out\n        /* \"#utility.yul\":2685:2797   */\n    tag_64:\n        /* \"#utility.yul\":2768:2790   */\n      tag_125\n        /* \"#utility.yul\":2784:2789   */\n      dup2\n        /* \"#utility.yul\":2768:2790   */\n      tag_63\n      jump\t// in\n    tag_125:\n        /* \"#utility.yul\":2763:2766   */\n      dup3\n        /* \"#utility.yul\":2756:2791   */\n      mstore\n        /* \"#utility.yul\":2685:2797   */\n      pop\n      pop\n      jump\t// out\n        /* \"#utility.yul\":2803:3320   */\n    tag_12:\n        /* \"#utility.yul\":2964:2968   */\n      0x00\n        /* \"#utility.yul\":3002:3004   */\n      0x60\n        /* \"#utility.yul\":2991:3000   */\n      dup3\n        /* \"#utility.yul\":2987:3005   */\n      add\n        /* \"#utility.yul\":2979:3005   */\n      swap1\n      pop\n        /* \"#utility.yul\":3051:3060   */\n      dup2\n        /* \"#utility.yul\":3045:3049   */\n      dup2\n        /* \"#utility.yul\":3041:3061   */\n      sub\n        /* \"#utility.yul\":3037:3038   */\n      0x00\n        /* \"#utility.yul\":3026:3035   */\n      dup4\n        /* \"#utility.yul\":3022:3039   */\n      add\n        /* \"#utility.yul\":3015:3062   */\n      mstore\n        /* \"#utility.yul\":3079:3157   */\n      tag_127\n        /* \"#utility.yul\":3152:3156   */\n      dup2\n        /* \"#utility.yul\":3143:3149   */\n      dup7\n        /* \"#utility.yul\":3079:3157   */\n      tag_62\n      jump\t// in\n    tag_127:\n        /* \"#utility.yul\":3071:3157   */\n      swap1\n      pop\n        /* \"#utility.yul\":3167:3235   */\n      tag_128\n        /* \"#utility.yul\":3231:3233   */\n      0x20\n        /* \"#utility.yul\":3220:3229   */\n      dup4\n        /* \"#utility.yul\":3216:3234   */\n      add\n        /* \"#utility.yul\":3207:3213   */\n      dup6\n        /* \"#utility.yul\":3167:3235   */\n      tag_64\n      jump\t// in\n    tag_128:\n        /* \"#utility.yul\":3245:3313   */\n      tag_129\n        /* \"#utility.yul\":3309:3311   */\n      0x40\n        /* \"#utility.yul\":3298:3307   */\n      dup4\n        /* \"#utility.yul\":3294:3312   */\n      add\n        /* \"#utility.yul\":3285:3291   */\n      dup5\n        /* \"#utility.yul\":3245:3313   */\n      tag_64\n      jump\t// in\n    tag_129:\n        /* \"#utility.yul\":2803:3320   */\n      swap5\n      swap4\n      pop\n      pop\n      pop\n      pop\n      jump\t// out\n        /* \"#utility.yul\":3326:3443   */\n    tag_65:\n        /* \"#utility.yul\":3435:3436   */\n      0x00\n        /* \"#utility.yul\":3432:3433   */\n      0x00\n        /* \"#utility.yul\":3425:3437   */\n      revert\n        /* \"#utility.yul\":3449:3566   */\n    tag_66:\n        /* \"#utility.yul\":3558:3559   */\n      0x00\n        /* \"#utility.yul\":3555:3556   */\n      0x00\n        /* \"#utility.yul\":3548:3560   */\n      revert\n        /* \"#utility.yul\":3572:3689   */\n    tag_67:\n        /* \"#utility.yul\":3681:3682   */\n      0x00\n        /* \"#utility.yul\":3678:3679   */\n      0x00\n        /* \"#utility.yul\":3671:3683   */\n      revert\n        /* \"#utility.yul\":3709:4262   */\n    tag_68:\n        /* \"#utility.yul\":3767:3775   */\n      0x00\n        /* \"#utility.yul\":3777:3783   */\n      0x00\n        /* \"#utility.yul\":3827:3830   */\n      dup4\n        /* \"#utility.yul\":3820:3824   */\n      0x1f\n        /* \"#utility.yul\":3812:3818   */\n      dup5\n        /* \"#utility.yul\":3808:3825   */\n      add\n        /* \"#utility.yul\":3804:3831   */\n      slt\n        /* \"#utility.yul\":3794:3916   */\n      tag_134\n      jumpi\n        /* \"#utility.yul\":3835:3914   */\n      tag_135\n      tag_65\n      jump\t// in\n    tag_135:\n        /* \"#utility.yul\":3794:3916   */\n    tag_134:\n        /* \"#utility.yul\":3948:3954   */\n      dup3\n        /* \"#utility.yul\":3935:3955   */\n      calldataload\n        /* \"#utility.yul\":3925:3955   */\n      swap1\n      pop\n        /* \"#utility.yul\":3978:3996   */\n      0xffffffffffffffff\n        /* \"#utility.yul\":3970:3976   */\n      dup2\n        /* \"#utility.yul\":3967:3997   */\n      gt\n        /* \"#utility.yul\":3964:4081   */\n      iszero\n      tag_136\n      jumpi\n        /* \"#utility.yul\":4000:4079   */\n      tag_137\n      tag_66\n      jump\t// in\n    tag_137:\n        /* \"#utility.yul\":3964:4081   */\n    tag_136:\n        /* \"#utility.yul\":4114:4118   */\n      0x20\n        /* \"#utility.yul\":4106:4112   */\n      dup4\n        /* \"#utility.yul\":4102:4119   */\n      add\n        /* \"#utility.yul\":4090:4119   */\n      swap2\n      pop\n        /* \"#utility.yul\":4168:4171   */\n      dup4\n        /* \"#utility.yul\":4160:4164   */\n      0x01\n        /* \"#utility.yul\":4152:4158   */\n      dup3\n        /* \"#utility.yul\":4148:4165   */\n      mul\n        /* \"#utility.yul\":4138:4146   */\n      dup4\n        /* \"#utility.yul\":4134:4166   */\n      add\n        /* \"#utility.yul\":4131:4172   */\n      gt\n        /* \"#utility.yul\":4128:4256   */\n      iszero\n      tag_138\n      jumpi\n        /* \"#utility.yul\":4175:4254   */\n      tag_139\n      tag_67\n      jump\t// in\n    tag_139:\n        /* \"#utility.yul\":4128:4256   */\n    tag_138:\n        /* \"#utility.yul\":3709:4262   */\n      swap3\n      pop\n      swap3\n      swap1\n      pop\n      jump\t// out\n        /* \"#utility.yul\":4268:4386   */\n    tag_69:\n        /* \"#utility.yul\":4339:4361   */\n      tag_141\n        /* \"#utility.yul\":4355:4360   */\n      dup2\n        /* \"#utility.yul\":4339:4361   */\n      tag_63\n      jump\t// in\n    tag_141:\n        /* \"#utility.yul\":4332:4337   */\n      dup2\n        /* \"#utility.yul\":4329:4362   */\n      eq\n        /* \"#utility.yul\":4319:4380   */\n      tag_142\n      jumpi\n        /* \"#utility.yul\":4376:4377   */\n      0x00\n        /* \"#utility.yul\":4373:4374   */\n      0x00\n        /* \"#utility.yul\":4366:4378   */\n      revert\n        /* \"#utility.yul\":4319:4380   */\n    tag_142:\n        /* \"#utility.yul\":4268:4386   */\n      pop\n      jump\t// out\n        /* \"#utility.yul\":4392:4527   */\n    tag_70:\n        /* \"#utility.yul\":4436:4441   */\n      0x00\n        /* \"#utility.yul\":4474:4480   */\n      dup2\n        /* \"#utility.yul\":4461:4481   */\n      calldataload\n        /* \"#utility.yul\":4452:4481   */\n      swap1\n      pop\n        /* \"#utility.yul\":4490:4521   */\n      tag_144\n        /* \"#utility.yul\":4515:4520   */\n      dup2\n        /* \"#utility.yul\":4490:4521   */\n      tag_69\n      jump\t// in\n    tag_144:\n        /* \"#utility.yul\":4392:4527   */\n      swap3\n      swap2\n      pop\n      pop\n      jump\t// out\n        /* \"#utility.yul\":4533:5344   */\n    tag_15:\n        /* \"#utility.yul\":4618:4624   */\n      0x00\n        /* \"#utility.yul\":4626:4632   */\n      0x00\n        /* \"#utility.yul\":4634:4640   */\n      0x00\n        /* \"#utility.yul\":4642:4648   */\n      0x00\n        /* \"#utility.yul\":4691:4693   */\n      0x60\n        /* \"#utility.yul\":4679:4688   */\n      dup6\n        /* \"#utility.yul\":4670:4677   */\n      dup8\n        /* \"#utility.yul\":4666:4689   */\n      sub\n        /* \"#utility.yul\":4662:4694   */\n      slt\n        /* \"#utility.yul\":4659:4778   */\n      iszero\n      tag_146\n      jumpi\n        /* \"#utility.yul\":4697:4776   */\n      tag_147\n      tag_49\n      jump\t// in\n    tag_147:\n        /* \"#utility.yul\":4659:4778   */\n    tag_146:\n        /* \"#utility.yul\":4845:4846   */\n      0x00\n        /* \"#utility.yul\":4834:4843   */\n      dup6\n        /* \"#utility.yul\":4830:4847   */\n      add\n        /* \"#utility.yul\":4817:4848   */\n      calldataload\n        /* \"#utility.yul\":4875:4893   */\n      0xffffffffffffffff\n        /* \"#utility.yul\":4867:4873   */\n      dup2\n        /* \"#utility.yul\":4864:4894   */\n      gt\n        /* \"#utility.yul\":4861:4978   */\n      iszero\n      tag_148\n      jumpi\n        /* \"#utility.yul\":4897:4976   */\n      tag_149\n      tag_50\n      jump\t// in\n    tag_149:\n        /* \"#utility.yul\":4861:4978   */\n    tag_148:\n        /* \"#utility.yul\":5010:5075   */\n      tag_150\n        /* \"#utility.yul\":5067:5074   */\n      dup8\n        /* \"#utility.yul\":5058:5064   */\n      dup3\n        /* \"#utility.yul\":5047:5056   */\n      dup9\n        /* \"#utility.yul\":5043:5065   */\n      add\n        /* \"#utility.yul\":5010:5075   */\n      tag_68\n      jump\t// in\n    tag_150:\n        /* \"#utility.yul\":4992:5075   */\n      swap5\n      pop\n      swap5\n      pop\n        /* \"#utility.yul\":4788:5085   */\n      pop\n        /* \"#utility.yul\":5124:5126   */\n      0x20\n        /* \"#utility.yul\":5150:5201   */\n      tag_151\n        /* \"#utility.yul\":5193:5200   */\n      dup8\n        /* \"#utility.yul\":5184:5190   */\n      dup3\n        /* \"#utility.yul\":5173:5182   */\n      dup9\n        /* \"#utility.yul\":5169:5191   */\n      add\n        /* \"#utility.yul\":5150:5201   */\n      tag_70\n      jump\t// in\n    tag_151:\n        /* \"#utility.yul\":5140:5201   */\n      swap3\n      pop\n        /* \"#utility.yul\":5095:5211   */\n      pop\n        /* \"#utility.yul\":5250:5252   */\n      0x40\n        /* \"#utility.yul\":5276:5327   */\n      tag_152\n        /* \"#utility.yul\":5319:5326   */\n      dup8\n        /* \"#utility.yul\":5310:5316   */\n      dup3\n        /* \"#utility.yul\":5299:5308   */\n      dup9\n        /* \"#utility.yul\":5295:5317   */\n      add\n        /* \"#utility.yul\":5276:5327   */\n      tag_70\n      jump\t// in\n    tag_152:\n        /* \"#utility.yul\":5266:5327   */\n      swap2\n      pop\n        /* \"#utility.yul\":5221:5337   */\n      pop\n        /* \"#utility.yul\":4533:5344   */\n      swap3\n      swap6\n      swap2\n      swap5\n      pop\n      swap3\n      pop\n      jump\t// out\n        /* \"#utility.yul\":5350:5679   */\n    tag_19:\n        /* \"#utility.yul\":5409:5415   */\n      0x00\n        /* \"#utility.yul\":5458:5460   */\n      0x20\n        /* \"#utility.yul\":5446:5455   */\n      dup3\n        /* \"#utility.yul\":5437:5444   */\n      dup5\n        /* \"#utility.yul\":5433:5456   */\n      sub\n        /* \"#utility.yul\":5429:5461   */\n      slt\n        /* \"#utility.yul\":5426:5545   */\n      iszero\n      tag_154\n      jumpi\n        /* \"#utility.yul\":5464:5543   */\n      tag_155\n      tag_49\n      jump\t// in\n    tag_155:\n        /* \"#utility.yul\":5426:5545   */\n    tag_154:\n        /* \"#utility.yul\":5584:5585   */\n      0x00\n        /* \"#utility.yul\":5609:5662   */\n      tag_156\n        /* \"#utility.yul\":5654:5661   */\n      dup5\n        /* \"#utility.yul\":5645:5651   */\n      dup3\n        /* \"#utility.yul\":5634:5643   */\n      dup6\n        /* \"#utility.yul\":5630:5652   */\n      add\n        /* \"#utility.yul\":5609:5662   */\n      tag_54\n      jump\t// in\n    tag_156:\n        /* \"#utility.yul\":5599:5662   */\n      swap2\n      pop\n        /* \"#utility.yul\":5555:5672   */\n      pop\n        /* \"#utility.yul\":5350:5679   */\n      swap3\n      swap2\n      pop\n      pop\n      jump\t// out\n        /* \"#utility.yul\":5685:6305   */\n    tag_22:\n        /* \"#utility.yul\":5870:5874   */\n      0x00\n        /* \"#utility.yul\":5908:5911   */\n      0x80\n        /* \"#utility.yul\":5897:5906   */\n      dup3\n        /* \"#utility.yul\":5893:5912   */\n      add\n        /* \"#utility.yul\":5885:5912   */\n      swap1\n      pop\n        /* \"#utility.yul\":5958:5967   */\n      dup2\n        /* \"#utility.yul\":5952:5956   */\n      dup2\n        /* \"#utility.yul\":5948:5968   */\n      sub\n        /* \"#utility.yul\":5944:5945   */\n      0x00\n        /* \"#utility.yul\":5933:5942   */\n      dup4\n        /* \"#utility.yul\":5929:5946   */\n      add\n        /* \"#utility.yul\":5922:5969   */\n      mstore\n        /* \"#utility.yul\":5986:6064   */\n      tag_158\n        /* \"#utility.yul\":6059:6063   */\n      dup2\n        /* \"#utility.yul\":6050:6056   */\n      dup8\n        /* \"#utility.yul\":5986:6064   */\n      tag_62\n      jump\t// in\n    tag_158:\n        /* \"#utility.yul\":5978:6064   */\n      swap1\n      pop\n        /* \"#utility.yul\":6074:6142   */\n      tag_159\n        /* \"#utility.yul\":6138:6140   */\n      0x20\n        /* \"#utility.yul\":6127:6136   */\n      dup4\n        /* \"#utility.yul\":6123:6141   */\n      add\n        /* \"#utility.yul\":6114:6120   */\n      dup7\n        /* \"#utility.yul\":6074:6142   */\n      tag_64\n      jump\t// in\n    tag_159:\n        /* \"#utility.yul\":6152:6220   */\n      tag_160\n        /* \"#utility.yul\":6216:6218   */\n      0x40\n        /* \"#utility.yul\":6205:6214   */\n      dup4\n        /* \"#utility.yul\":6201:6219   */\n      add\n        /* \"#utility.yul\":6192:6198   */\n      dup6\n        /* \"#utility.yul\":6152:6220   */\n      tag_64\n      jump\t// in\n    tag_160:\n        /* \"#utility.yul\":6230:6298   */\n      tag_161\n        /* \"#utility.yul\":6294:6296   */\n      0x60\n        /* \"#utility.yul\":6283:6292   */\n      dup4\n        /* \"#utility.yul\":6279:6297   */\n      add\n        /* \"#utility.yul\":6270:6276   */\n      dup5\n        /* \"#utility.yul\":6230:6298   */\n      tag_64\n      jump\t// in\n    tag_161:\n        /* \"#utility.yul\":5685:6305   */\n      swap6\n      swap5\n      pop\n      pop\n      pop\n      pop\n      pop\n      jump\t// out\n        /* \"#utility.yul\":6311:6401   */\n    tag_71:\n        /* \"#utility.yul\":6345:6352   */\n      0x00\n        /* \"#utility.yul\":6388:6393   */\n      dup2\n        /* \"#utility.yul\":6381:6394   */\n      iszero\n        /* \"#utility.yul\":6374:6395   */\n      iszero\n        /* \"#utility.yul\":6363:6395   */\n      swap1\n      pop\n        /* \"#utility.yul\":6311:6401   */\n      swap2\n      swap1\n      pop\n      jump\t// out\n        /* \"#utility.yul\":6407:6523   */\n    tag_72:\n        /* \"#utility.yul\":6477:6498   */\n      tag_164\n        /* \"#utility.yul\":6492:6497   */\n      dup2\n        /* \"#utility.yul\":6477:6498   */\n      tag_71\n      jump\t// in\n    tag_164:\n        /* \"#utility.yul\":6470:6475   */\n      dup2\n        /* \"#utility.yul\":6467:6499   */\n      eq\n        /* \"#utility.yul\":6457:6517   */\n      tag_165\n      jumpi\n        /* \"#utility.yul\":6513:6514   */\n      0x00\n        /* \"#utility.yul\":6510:6511   */\n      0x00\n        /* \"#utility.yul\":6503:6515   */\n      revert\n        /* \"#utility.yul\":6457:6517   */\n    tag_165:\n        /* \"#utility.yul\":6407:6523   */\n      pop\n      jump\t// out\n        /* \"#utility.yul\":6529:6662   */\n    tag_73:\n        /* \"#utility.yul\":6572:6577   */\n      0x00\n        /* \"#utility.yul\":6610:6616   */\n      dup2\n        /* \"#utility.yul\":6597:6617   */\n      calldataload\n        /* \"#utility.yul\":6588:6617   */\n      swap1\n      pop\n        /* \"#utility.yul\":6626:6656   */\n      tag_167\n        /* \"#utility.yul\":6650:6655   */\n      dup2\n        /* \"#utility.yul\":6626:6656   */\n      tag_72\n      jump\t// in\n    tag_167:\n        /* \"#utility.yul\":6529:6662   */\n      swap3\n      swap2\n      pop\n      pop\n      jump\t// out\n        /* \"#utility.yul\":6668:7619   */\n    tag_25:\n        /* \"#utility.yul\":6759:6765   */\n      0x00\n        /* \"#utility.yul\":6767:6773   */\n      0x00\n        /* \"#utility.yul\":6775:6781   */\n      0x00\n        /* \"#utility.yul\":6783:6789   */\n      0x00\n        /* \"#utility.yul\":6791:6797   */\n      0x00\n        /* \"#utility.yul\":6840:6843   */\n      0x80\n        /* \"#utility.yul\":6828:6837   */\n      dup7\n        /* \"#utility.yul\":6819:6826   */\n      dup9\n        /* \"#utility.yul\":6815:6838   */\n      sub\n        /* \"#utility.yul\":6811:6844   */\n      slt\n        /* \"#utility.yul\":6808:6928   */\n      iszero\n      tag_169\n      jumpi\n        /* \"#utility.yul\":6847:6926   */\n      tag_170\n      tag_49\n      jump\t// in\n    tag_170:\n        /* \"#utility.yul\":6808:6928   */\n    tag_169:\n        /* \"#utility.yul\":6995:6996   */\n      0x00\n        /* \"#utility.yul\":6984:6993   */\n      dup7\n        /* \"#utility.yul\":6980:6997   */\n      add\n        /* \"#utility.yul\":6967:6998   */\n      calldataload\n        /* \"#utility.yul\":7025:7043   */\n      0xffffffffffffffff\n        /* \"#utility.yul\":7017:7023   */\n      dup2\n        /* \"#utility.yul\":7014:7044   */\n      gt\n        /* \"#utility.yul\":7011:7128   */\n      iszero\n      tag_171\n      jumpi\n        /* \"#utility.yul\":7047:7126   */\n      tag_172\n      tag_50\n      jump\t// in\n    tag_172:\n        /* \"#utility.yul\":7011:7128   */\n    tag_171:\n        /* \"#utility.yul\":7160:7225   */\n      tag_173\n        /* \"#utility.yul\":7217:7224   */\n      dup9\n        /* \"#utility.yul\":7208:7214   */\n      dup3\n        /* \"#utility.yul\":7197:7206   */\n      dup10\n        /* \"#utility.yul\":7193:7215   */\n      add\n        /* \"#utility.yul\":7160:7225   */\n      tag_68\n      jump\t// in\n    tag_173:\n        /* \"#utility.yul\":7142:7225   */\n      swap6\n      pop\n      swap6\n      pop\n        /* \"#utility.yul\":6938:7235   */\n      pop\n        /* \"#utility.yul\":7274:7276   */\n      0x20\n        /* \"#utility.yul\":7300:7351   */\n      tag_174\n        /* \"#utility.yul\":7343:7350   */\n      dup9\n        /* \"#utility.yul\":7334:7340   */\n      dup3\n        /* \"#utility.yul\":7323:7332   */\n      dup10\n        /* \"#utility.yul\":7319:7341   */\n      add\n        /* \"#utility.yul\":7300:7351   */\n      tag_70\n      jump\t// in\n    tag_174:\n        /* \"#utility.yul\":7290:7351   */\n      swap4\n      pop\n        /* \"#utility.yul\":7245:7361   */\n      pop\n        /* \"#utility.yul\":7400:7402   */\n      0x40\n        /* \"#utility.yul\":7426:7477   */\n      tag_175\n        /* \"#utility.yul\":7469:7476   */\n      dup9\n        /* \"#utility.yul\":7460:7466   */\n      dup3\n        /* \"#utility.yul\":7449:7458   */\n      dup10\n        /* \"#utility.yul\":7445:7467   */\n      add\n        /* \"#utility.yul\":7426:7477   */\n      tag_70\n      jump\t// in\n    tag_175:\n        /* \"#utility.yul\":7416:7477   */\n      swap3\n      pop\n        /* \"#utility.yul\":7371:7487   */\n      pop\n        /* \"#utility.yul\":7526:7528   */\n      0x60\n        /* \"#utility.yul\":7552:7602   */\n      tag_176\n        /* \"#utility.yul\":7594:7601   */\n      dup9\n        /* \"#utility.yul\":7585:7591   */\n      dup3\n        /* \"#utility.yul\":7574:7583   */\n      dup10\n        /* \"#utility.yul\":7570:7592   */\n      add\n        /* \"#utility.yul\":7552:7602   */\n      tag_73\n      jump\t// in\n    tag_176:\n        /* \"#utility.yul\":7542:7602   */\n      swap2\n      pop\n        /* \"#utility.yul\":7497:7612   */\n      pop\n        /* \"#utility.yul\":6668:7619   */\n      swap3\n      swap6\n      pop\n      swap3\n      swap6\n      swap1\n      swap4\n      pop\n      jump\t// out\n        /* \"#utility.yul\":7625:7805   */\n    tag_74:\n        /* \"#utility.yul\":7673:7750   */\n      0x4e487b7100000000000000000000000000000000000000000000000000000000\n        /* \"#utility.yul\":7670:7671   */\n      0x00\n        /* \"#utility.yul\":7663:7751   */\n      mstore\n        /* \"#utility.yul\":7770:7774   */\n      0x22\n        /* \"#utility.yul\":7767:7768   */\n      0x04\n        /* \"#utility.yul\":7760:7775   */\n      mstore\n        /* \"#utility.yul\":7794:7798   */\n      0x24\n        /* \"#utility.yul\":7791:7792   */\n      0x00\n        /* \"#utility.yul\":7784:7799   */\n      revert\n        /* \"#utility.yul\":7811:8131   */\n    tag_30:\n        /* \"#utility.yul\":7855:7861   */\n      0x00\n        /* \"#utility.yul\":7892:7893   */\n      0x02\n        /* \"#utility.yul\":7886:7890   */\n      dup3\n        /* \"#utility.yul\":7882:7894   */\n      div\n        /* \"#utility.yul\":7872:7894   */\n      swap1\n      pop\n        /* \"#utility.yul\":7939:7940   */\n      0x01\n        /* \"#utility.yul\":7933:7937   */\n      dup3\n        /* \"#utility.yul\":7929:7941   */\n      and\n        /* \"#utility.yul\":7960:7978   */\n      dup1\n        /* \"#utility.yul\":7950:8031   */\n      tag_179\n      jumpi\n        /* \"#utility.yul\":8016:8020   */\n      0x7f\n        /* \"#utility.yul\":8008:8014   */\n      dup3\n        /* \"#utility.yul\":8004:8021   */\n      and\n        /* \"#utility.yul\":7994:8021   */\n      swap2\n      pop\n        /* \"#utility.yul\":7950:8031   */\n    tag_179:\n        /* \"#utility.yul\":8078:8080   */\n      0x20\n        /* \"#utility.yul\":8070:8076   */\n      dup3\n        /* \"#utility.yul\":8067:8081   */\n      lt\n        /* \"#utility.yul\":8047:8065   */\n      dup2\n        /* \"#utility.yul\":8044:8082   */\n      sub\n        /* \"#utility.yul\":8041:8125   */\n      tag_180\n      jumpi\n        /* \"#utility.yul\":8097:8115   */\n      tag_181\n      tag_74\n      jump\t// in\n    tag_181:\n        /* \"#utility.yul\":8041:8125   */\n    tag_180:\n        /* \"#utility.yul\":7862:8131   */\n      pop\n        /* \"#utility.yul\":7811:8131   */\n      swap2\n      swap1\n      pop\n      jump\t// out\n        /* \"#utility.yul\":8137:8317   */\n    tag_75:\n        /* \"#utility.yul\":8185:8262   */\n      0x4e487b7100000000000000000000000000000000000000000000000000000000\n        /* \"#utility.yul\":8182:8183   */\n      0x00\n        /* \"#utility.yul\":8175:8263   */\n      mstore\n        /* \"#utility.yul\":8282:8286   */\n      0x41\n        /* \"#utility.yul\":8279:8280   */\n      0x04\n        /* \"#utility.yul\":8272:8287   */\n      mstore\n        /* \"#utility.yul\":8306:8310   */\n      0x24\n        /* \"#utility.yul\":8303:8304   */\n      0x00\n        /* \"#utility.yul\":8296:8311   */\n      revert\n        /* \"#utility.yul\":8323:8464   */\n    tag_76:\n        /* \"#utility.yul\":8372:8376   */\n      0x00\n        /* \"#utility.yul\":8395:8398   */\n      dup2\n        /* \"#utility.yul\":8387:8398   */\n      swap1\n      pop\n        /* \"#utility.yul\":8418:8421   */\n      dup2\n        /* \"#utility.yul\":8415:8416   */\n      0x00\n        /* \"#utility.yul\":8408:8422   */\n      mstore\n        /* \"#utility.yul\":8452:8456   */\n      0x20\n        /* \"#utility.yul\":8449:8450   */\n      0x00\n        /* \"#utility.yul\":8439:8457   */\n      keccak256\n        /* \"#utility.yul\":8431:8457   */\n      swap1\n      pop\n        /* \"#utility.yul\":8323:8464   */\n      swap2\n      swap1\n      pop\n      jump\t// out\n        /* \"#utility.yul\":8470:8563   */\n    tag_77:\n        /* \"#utility.yul\":8507:8513   */\n      0x00\n        /* \"#utility.yul\":8554:8556   */\n      0x20\n        /* \"#utility.yul\":8549:8551   */\n      0x1f\n        /* \"#utility.yul\":8542:8547   */\n      dup4\n        /* \"#utility.yul\":8538:8552   */\n      add\n        /* \"#utility.yul\":8534:8557   */\n      div\n        /* \"#utility.yul\":8524:8557   */\n      swap1\n      pop\n        /* \"#utility.yul\":8470:8563   */\n      swap2\n      swap1\n      pop\n      jump\t// out\n        /* \"#utility.yul\":8569:8676   */\n    tag_78:\n        /* \"#utility.yul\":8613:8621   */\n      0x00\n        /* \"#utility.yul\":8663:8668   */\n      dup3\n        /* \"#utility.yul\":8657:8661   */\n      dup3\n        /* \"#utility.yul\":8653:8669   */\n      shl\n        /* \"#utility.yul\":8632:8669   */\n      swap1\n      pop\n        /* \"#utility.yul\":8569:8676   */\n      swap3\n      swap2\n      pop\n      pop\n      jump\t// out\n        /* \"#utility.yul\":8682:9075   */\n    tag_79:\n        /* \"#utility.yul\":8751:8757   */\n      0x00\n        /* \"#utility.yul\":8801:8802   */\n      0x08\n        /* \"#utility.yul\":8789:8799   */\n      dup4\n        /* \"#utility.yul\":8785:8803   */\n      mul\n        /* \"#utility.yul\":8824:8921   */\n      tag_187\n        /* \"#utility.yul\":8854:8920   */\n      0xffffffffffffffffffffffffffffffffffffffffffffffffffffffffffffffff\n        /* \"#utility.yul\":8843:8852   */\n      dup3\n        /* \"#utility.yul\":8824:8921   */\n      tag_78\n      jump\t// in\n    tag_187:\n        /* \"#utility.yul\":8942:8981   */\n      tag_188\n        /* \"#utility.yul\":8972:8980   */\n      dup7\n        /* \"#utility.yul\":8961:8970   */\n      dup4\n        /* \"#utility.yul\":8942:8981   */\n      tag_78\n      jump\t// in\n    tag_188:\n        /* \"#utility.yul\":8930:8981   */\n      swap6\n      pop\n        /* \"#utility.yul\":9014:9018   */\n      dup1\n        /* \"#utility.yul\":9010:9019   */\n      not\n        /* \"#utility.yul\":9003:9008   */\n      dup5\n        /* \"#utility.yul\":8999:9020   */\n      and\n        /* \"#utility.yul\":8990:9020   */\n      swap4\n      pop\n        /* \"#utility.yul\":9063:9067   */\n      dup1\n        /* \"#utility.yul\":9053:9061   */\n      dup7\n        /* \"#utility.yul\":9049:9068   */\n      and\n        /* \"#utility.yul\":9042:9047   */\n      dup5\n        /* \"#utility.yul\":9039:9069   */\n      or\n        /* \"#utility.yul\":9029:9069   */\n      swap3\n      pop\n        /* \"#utility.yul\":8758:9075   */\n      pop\n      pop\n        /* \"#utility.yul\":8682:9075   */\n      swap4\n      swap3\n      pop\n      pop\n      pop\n      jump\t// out\n        /* \"#utility.yul\":9081:9141   */\n    tag_80:\n        /* \"#utility.yul\":9109:9112   */\n      0x00\n        /* \"#utility.yul\":9130:9135   */\n      dup2\n        /* \"#utility.yul\":9123:9135   */\n      swap1\n      pop\n        /* \"#utility.yul\":9081:9141   */\n      swap2\n      swap1\n      pop\n      jump\t// out\n        /* \"#utility.yul\":9147:9289   */\n    tag_81:\n        /* \"#utility.yul\":9197:9206   */\n      0x00\n        /* \"#utility.yul\":9230:9283   */\n      tag_191\n        /* \"#utility.yul\":9248:9282   */\n      tag_192\n        /* \"#utility.yul\":9257:9281   */\n      tag_193\n        /* \"#utility.yul\":9275:9280   */\n      dup5\n        /* \"#utility.yul\":9257:9281   */\n      tag_55\n      jump\t// in\n    tag_193:\n        /* \"#utility.yul\":9248:9282   */\n      tag_80\n      jump\t// in\n    tag_192:\n        /* \"#utility.yul\":9230:9283   */\n      tag_55\n      jump\t// in\n    tag_191:\n        /* \"#utility.yul\":9217:9283   */\n      swap1\n      pop\n        /* \"#utility.yul\":9147:9289   */\n      swap2\n      swap1\n      pop\n      jump\t// out\n        /* \"#utility.yul\":9295:9370   */\n    tag_82:\n        /* \"#utility.yul\":9338:9341   */\n      0x00\n        /* \"#utility.yul\":9359:9364   */\n      dup2\n        /* \"#utility.yul\":9352:9364   */\n      swap1\n      pop\n        /* \"#utility.yul\":9295:9370   */\n      swap2\n      swap1\n      pop\n      jump\t// out\n        /* \"#utility.yul\":9376:9645   */\n    tag_83:\n        /* \"#utility.yul\":9486:9525   */\n      tag_196\n        /* \"#utility.yul\":9517:9524   */\n      dup4\n        /* \"#utility.yul\":9486:9525   */\n      tag_81\n      jump\t// in\n    tag_196:\n        /* \"#utility.yul\":9547:9638   */\n      tag_197\n        /* \"#utility.yul\":9596:9637   */\n      tag_198\n        /* \"#utility.yul\":9620:9636   */\n      dup3\n        /* \"#utility.yul\":9596:9637   */\n      tag_82\n      jump\t// in\n    tag_198:\n        /* \"#utility.yul\":9588:9594   */\n      dup5\n        /* \"#utility.yul\":9581:9585   */\n      dup5\n        /* \"#utility.yul\":9575:9586   */\n      sload\n        /* \"#utility.yul\":9547:9638   */\n      tag_79\n      jump\t// in\n    tag_197:\n        /* \"#utility.yul\":9541:9545   */\n      dup3\n        /* \"#utility.yul\":9534:9639   */\n      sstore\n        /* \"#utility.yul\":9452:9645   */\n      pop\n        /* \"#utility.yul\":9376:9645   */\n      pop\n      pop\n      pop\n      jump\t// out\n        /* \"#utility.yul\":9651:9724   */\n    tag_84:\n        /* \"#utility.yul\":9696:9699   */\n      0x00\n        /* \"#utility.yul\":9717:9718   */\n      0x00\n        /* \"#utility.yul\":9710:9718   */\n      swap1\n      pop\n        /* \"#utility.yul\":9651:9724   */\n      swap1\n      jump\t// out\n        /* \"#utility.yul\":9730:9919   */\n    tag_85:\n        /* \"#utility.yul\":9807:9839   */\n      tag_201\n      tag_84\n      jump\t// in\n    tag_201:\n        /* \"#utility.yul\":9848:9913   */\n      tag_202\n        /* \"#utility.yul\":9906:9912   */\n      dup2\n        /* \"#utility.yul\":9898:9904   */\n      dup5\n        /* \"#utility.yul\":9892:9896   */\n      dup5\n        /* \"#utility.yul\":9848:9913   */\n      tag_83\n      jump\t// in\n    tag_202:\n        /* \"#utility.yul\":9783:9919   */\n      pop\n        /* \"#utility.yul\":9730:9919   */\n      pop\n      pop\n      jump\t// out\n        /* \"#utility.yul\":9925:10139   */\n    tag_86:\n        /* \"#utility.yul\":10010:10011   */\n      0x00\n        /* \"#utility.yul\":9995:10133   */\n    tag_204:\n        /* \"#utility.yul\":10020:10029   */\n      dup3\n        /* \"#utility.yul\":10017:10018   */\n      dup2\n        /* \"#utility.yul\":10014:10030   */\n      lt\n        /* \"#utility.yul\":9995:10133   */\n      iszero\n      tag_206\n      jumpi\n        /* \"#utility.yul\":10072:10123   */\n      tag_207\n        /* \"#utility.yul\":10121:10122   */\n      0x00\n        /* \"#utility.yul\":10117:10118   */\n      dup3\n        /* \"#utility.yul\":10106:10115   */\n      dup5\n        /* \"#utility.yul\":10102:10119   */\n      add\n        /* \"#utility.yul\":10072:10123   */\n      tag_85\n      jump\t// in\n    tag_207:\n        /* \"#utility.yul\":10045:10046   */\n      0x01\n        /* \"#utility.yul\":10042:10043   */\n      dup2\n        /* \"#utility.yul\":10038:10047   */\n      add\n        /* \"#utility.yul\":10033:10047   */\n      swap1\n      pop\n        /* \"#utility.yul\":9995:10133   */\n      jump(tag_204)\n    tag_206:\n        /* \"#utility.yul\":9999:10013   */\n      pop\n        /* \"#utility.yul\":9925:10139   */\n      pop\n      pop\n      jump\t// out\n        /* \"#utility.yul\":10145:10891   */\n    tag_87:\n        /* \"#utility.yul\":10246:10248   */\n      0x1f\n        /* \"#utility.yul\":10241:10244   */\n      dup3\n        /* \"#utility.yul\":10238:10249   */\n      gt\n        /* \"#utility.yul\":10235:10884   */\n      iszero\n      tag_209\n      jumpi\n        /* \"#utility.yul\":10275:10285   */\n      dup3\n        /* \"#utility.yul\":10270:10273   */\n      dup3\n        /* \"#utility.yul\":10267:10286   */\n      gt\n        /* \"#utility.yul\":10264:10874   */\n      iszero\n      tag_210\n      jumpi\n        /* \"#utility.yul\":10321:10359   */\n      tag_211\n        /* \"#utility.yul\":10353:10358   */\n      dup2\n        /* \"#utility.yul\":10321:10359   */\n      tag_76\n      jump\t// in\n    tag_211:\n        /* \"#utility.yul\":10396:10418   */\n      tag_212\n        /* \"#utility.yul\":10414:10417   */\n      dup4\n        /* \"#utility.yul\":10396:10418   */\n      tag_77\n      jump\t// in\n    tag_212:\n        /* \"#utility.yul\":10455:10484   */\n      tag_213\n        /* \"#utility.yul\":10473:10483   */\n      dup6\n        /* \"#utility.yul\":10455:10484   */\n      tag_77\n      jump\t// in\n    tag_213:\n        /* \"#utility.yul\":10645:10647   */\n      0x20\n        /* \"#utility.yul\":10633:10643   */\n      dup7\n        /* \"#utility.yul\":10630:10648   */\n      lt\n        /* \"#utility.yul\":10627:10706   */\n      iszero\n      tag_214\n      jumpi\n        /* \"#utility.yul\":10687:10688   */\n      0x00\n        /* \"#utility.yul\":10671:10688   */\n      swap1\n      pop\n        /* \"#utility.yul\":10627:10706   */\n    tag_214:\n        /* \"#utility.yul\":10756:10768   */\n      dup1\n        /* \"#utility.yul\":10746:10754   */\n      dup4\n        /* \"#utility.yul\":10742:10769   */\n      add\n        /* \"#utility.yul\":10786:10860   */\n      tag_215\n        /* \"#utility.yul\":10846:10858   */\n      dup3\n        /* \"#utility.yul\":10832:10844   */\n      dup5\n        /* \"#utility.yul\":10828:10859   */\n      sub\n        /* \"#utility.yul\":10815:10826   */\n      dup3\n        /* \"#utility.yul\":10786:10860   */\n      tag_86\n      jump\t// in\n    tag_215:\n        /* \"#utility.yul\":10287:10874   */\n      pop\n      pop\n      pop\n      pop\n        /* \"#utility.yul\":10264:10874   */\n    tag_210:\n        /* \"#utility.yul\":10235:10884   */\n    tag_209:\n        /* \"#utility.yul\":10145:10891   */\n      pop\n      pop\n      pop\n      jump\t// out\n        /* \"#utility.yul\":10897:11014   */\n    tag_88:\n        /* \"#utility.yul\":10951:10959   */\n      0x00\n        /* \"#utility.yul\":11001:11006   */\n      dup3\n        /* \"#utility.yul\":10995:10999   */\n      dup3\n        /* \"#utility.yul\":10991:11007   */\n      shr\n        /* \"#utility.yul\":10970:11007   */\n      swap1\n      pop\n        /* \"#utility.yul\":10897:11014   */\n      swap3\n      swap2\n      pop\n      pop\n      jump\t// out\n        /* \"#utility.yul\":11020:11189   */\n    tag_89:\n        /* \"#utility.yul\":11064:11070   */\n      0x00\n        /* \"#utility.yul\":11097:11148   */\n      tag_218\n        /* \"#utility.yul\":11145:11146   */\n      0x00\n        /* \"#utility.yul\":11141:11147   */\n      not\n        /* \"#utility.yul\":11133:11138   */\n      dup5\n        /* \"#utility.yul\":11130:11131   */\n      0x08\n        /* \"#utility.yul\":11126:11139   */\n      mul\n        /* \"#utility.yul\":11097:11148   */\n      tag_88\n      jump\t// in\n    tag_218:\n        /* \"#utility.yul\":11093:11149   */\n      not\n        /* \"#utility.yul\":11178:11182   */\n      dup1\n        /* \"#utility.yul\":11172:11176   */\n      dup4\n        /* \"#utility.yul\":11168:11183   */\n      and\n        /* \"#utility.yul\":11158:11183   */\n      swap2\n      pop\n        /* \"#utility.yul\":11071:11189   */\n      pop\n        /* \"#utility.yul\":11020:11189   */\n      swap3\n      swap2\n      pop\n      pop\n      jump\t// out\n        /* \"#utility.yul\":11194:11489   */\n    tag_90:\n        /* \"#utility.yul\":11270:11274   */\n      0x00\n        /* \"#utility.yul\":11416:11445   */\n      tag_220\n        /* \"#utility.yul\":11441:11444   */\n      dup4\n        /* \"#utility.yul\":11435:11439   */\n      dup4\n        /* \"#utility.yul\":11416:11445   */\n      tag_89\n      jump\t// in\n    tag_220:\n        /* \"#utility.yul\":11408:11445   */\n      swap2\n      pop\n        /* \"#utility.yul\":11478:11481   */\n      dup3\n        /* \"#utility.yul\":11475:11476   */\n      0x02\n        /* \"#utility.yul\":11471:11482   */\n      mul\n        /* \"#utility.yul\":11465:11469   */\n      dup3\n        /* \"#utility.yul\":11462:11483   */\n      or\n        /* \"#utility.yul\":11454:11483   */\n      swap1\n      pop\n        /* \"#utility.yul\":11194:11489   */\n      swap3\n      swap2\n      pop\n      pop\n      jump\t// out\n        /* \"#utility.yul\":11494:12889   */\n    tag_38:\n        /* \"#utility.yul\":11611:11648   */\n      tag_222\n        /* \"#utility.yul\":11644:11647   */\n      dup3\n        /* \"#utility.yul\":11611:11648   */\n      tag_58\n      jump\t// in\n    tag_222:\n        /* \"#utility.yul\":11713:11731   */\n      0xffffffffffffffff\n        /* \"#utility.yul\":11705:11711   */\n      dup2\n        /* \"#utility.yul\":11702:11732   */\n      gt\n        /* \"#utility.yul\":11699:11755   */\n      iszero\n      tag_223\n      jumpi\n        /* \"#utility.yul\":11735:11753   */\n      tag_224\n      tag_75\n      jump\t// in\n    tag_224:\n        /* \"#utility.yul\":11699:11755   */\n    tag_223:\n        /* \"#utility.yul\":11779:11817   */\n      tag_225\n        /* \"#utility.yul\":11811:11815   */\n      dup3\n        /* \"#utility.yul\":11805:11816   */\n      sload\n        /* \"#utility.yul\":11779:11817   */\n      tag_30\n      jump\t// in\n    tag_225:\n        /* \"#utility.yul\":11864:11931   */\n      tag_226\n        /* \"#utility.yul\":11924:11930   */\n      dup3\n        /* \"#utility.yul\":11916:11922   */\n      dup3\n        /* \"#utility.yul\":11910:11914   */\n      dup6\n        /* \"#utility.yul\":11864:11931   */\n      tag_87\n      jump\t// in\n    tag_226:\n        /* \"#utility.yul\":11958:11959   */\n      0x00\n        /* \"#utility.yul\":11982:11986   */\n      0x20\n        /* \"#utility.yul\":11969:11986   */\n      swap1\n      pop\n        /* \"#utility.yul\":12014:12016   */\n      0x1f\n        /* \"#utility.yul\":12006:12012   */\n      dup4\n        /* \"#utility.yul\":12003:12017   */\n      gt\n        /* \"#utility.yul\":12031:12032   */\n      0x01\n        /* \"#utility.yul\":12026:12644   */\n      dup2\n      eq\n      tag_228\n      jumpi\n        /* \"#utility.yul\":12688:12689   */\n      0x00\n        /* \"#utility.yul\":12705:12711   */\n      dup5\n        /* \"#utility.yul\":12702:12779   */\n      iszero\n      tag_229\n      jumpi\n        /* \"#utility.yul\":12754:12763   */\n      dup3\n        /* \"#utility.yul\":12749:12752   */\n      dup8\n        /* \"#utility.yul\":12745:12764   */\n      add\n        /* \"#utility.yul\":12739:12765   */\n      mload\n        /* \"#utility.yul\":12730:12765   */\n      swap1\n      pop\n        /* \"#utility.yul\":12702:12779   */\n    tag_229:\n        /* \"#utility.yul\":12805:12872   */\n      tag_230\n        /* \"#utility.yul\":12865:12871   */\n      dup6\n        /* \"#utility.yul\":12858:12863   */\n      dup3\n        /* \"#utility.yul\":12805:12872   */\n      tag_90\n      jump\t// in\n    tag_230:\n        /* \"#utility.yul\":12799:12803   */\n      dup7\n        /* \"#utility.yul\":12792:12873   */\n      sstore\n        /* \"#utility.yul\":12661:12883   */\n      pop\n        /* \"#utility.yul\":11996:12883   */\n      jump(tag_227)\n        /* \"#utility.yul\":12026:12644   */\n    tag_228:\n        /* \"#utility.yul\":12078:12082   */\n      0x1f\n        /* \"#utility.yul\":12074:12083   */\n      not\n        /* \"#utility.yul\":12066:12072   */\n      dup5\n        /* \"#utility.yul\":12062:12084   */\n      and\n        /* \"#utility.yul\":12112:12149   */\n      tag_231\n        /* \"#utility.yul\":12144:12148   */\n      dup7\n        /* \"#utility.yul\":12112:12149   */\n      tag_76\n      jump\t// in\n    tag_231:\n        /* \"#utility.yul\":12171:12172   */\n      0x00\n        /* \"#utility.yul\":12185:12393   */\n    tag_232:\n        /* \"#utility.yul\":12199:12206   */\n      dup3\n        /* \"#utility.yul\":12196:12197   */\n      dup2\n        /* \"#utility.yul\":12193:12207   */\n      lt\n        /* \"#utility.yul\":12185:12393   */\n      iszero\n      tag_234\n      jumpi\n        /* \"#utility.yul\":12278:12287   */\n      dup5\n        /* \"#utility.yul\":12273:12276   */\n      dup10\n        /* \"#utility.yul\":12269:12288   */\n      add\n        /* \"#utility.yul\":12263:12289   */\n      mload\n        /* \"#utility.yul\":12255:12261   */\n      dup3\n        /* \"#utility.yul\":12248:12290   */\n      sstore\n        /* \"#utility.yul\":12329:12330   */\n      0x01\n        /* \"#utility.yul\":12321:12327   */\n      dup3\n        /* \"#utility.yul\":12317:12331   */\n      add\n        /* \"#utility.yul\":12307:12331   */\n      swap2\n      pop\n        /* \"#utility.yul\":12376:12378   */\n      0x20\n        /* \"#utility.yul\":12365:12374   */\n      dup6\n        /* \"#utility.yul\":12361:12379   */\n      add\n        /* \"#utility.yul\":12348:12379   */\n      swap5\n      pop\n        /* \"#utility.yul\":12222:12226   */\n      0x20\n        /* \"#utility.yul\":12219:12220   */\n      dup2\n        /* \"#utility.yul\":12215:12227   */\n      add\n        /* \"#utility.yul\":12210:12227   */\n      swap1\n      pop\n        /* \"#utility.yul\":12185:12393   */\n      jump(tag_232)\n    tag_234:\n        /* \"#utility.yul\":12421:12427   */\n      dup7\n        /* \"#utility.yul\":12412:12419   */\n      dup4\n        /* \"#utility.yul\":12409:12428   */\n      lt\n        /* \"#utility.yul\":12406:12585   */\n      iszero\n      tag_235\n      jumpi\n        /* \"#utility.yul\":12479:12488   */\n      dup5\n        /* \"#utility.yul\":12474:12477   */\n      dup10\n        /* \"#utility.yul\":12470:12489   */\n      add\n        /* \"#utility.yul\":12464:12490   */\n      mload\n        /* \"#utility.yul\":12522:12570   */\n      tag_236\n        /* \"#utility.yul\":12564:12568   */\n      0x1f\n        /* \"#utility.yul\":12556:12562   */\n      dup10\n        /* \"#utility.yul\":12552:12569   */\n      and\n        /* \"#utility.yul\":12541:12550   */\n      dup3\n        /* \"#utility.yul\":12522:12570   */\n      tag_89\n      jump\t// in\n    tag_236:\n        /* \"#utility.yul\":12514:12520   */\n      dup4\n        /* \"#utility.yul\":12507:12571   */\n      sstore\n        /* \"#utility.yul\":12429:12585   */\n      pop\n        /* \"#utility.yul\":12406:12585   */\n    tag_235:\n        /* \"#utility.yul\":12631:12632   */\n      0x01\n        /* \"#utility.yul\":12627:12628   */\n      0x02\n        /* \"#utility.yul\":12619:12625   */\n      dup9\n        /* \"#utility.yul\":12615:12629   */\n      mul\n        /* \"#utility.yul\":12611:12633   */\n      add\n        /* \"#utility.yul\":12605:12609   */\n      dup9\n        /* \"#utility.yul\":12598:12634   */\n      sstore\n        /* \"#utility.yul\":12033:12644   */\n      pop\n      pop\n      pop\n        /* \"#utility.yul\":11996:12883   */\n    tag_227:\n      pop\n        /* \"#utility.yul\":11586:12889   */\n      pop\n      pop\n      pop\n        /* \"#utility.yul\":11494:12889   */\n      pop\n      pop\n      jump\t// out\n\n    auxdata: 0xa26469706673582212201fb0a759d7335a0c0ed87a8b36c213fc6d040af2004a98977a37814f8dfdca3b64736f6c63430008220033\n}\n",
				"bytecode": {
					"linkReferences": {},
					"object": "6080604052348015600e575f5ffd5b50610c128061001c5f395ff3fe608060405234801561000f575f5ffd5b506004361061004a575f3560e01c806382a6c0ac1461004e57806396494f0114610080578063a6c807a91461009c578063de0acd8e146100cf575b5f5ffd5b610068600480360381019061006391906105a3565b6100eb565b6040516100779392919061066c565b60405180910390f35b61009a60048036038101906100959190610733565b6101c9565b005b6100b660048036038101906100b191906107a4565b6102f1565b6040516100c694939291906107cf565b60405180910390f35b6100e960048036038101906100e4919061084e565b6103c9565b005b5f602052815f5260405f208181548110610103575f80fd5b905f5260205f2090600202015f9150915050805f018054610123906108ff565b80601f016020809104026020016040519081016040528092919081815260200182805461014f906108ff565b801561019a5780601f106101715761010080835404028352916020019161019a565b820191905f5260205f20905b81548152906001019060200180831161017d57829003601f168201915b505050505090806001015f9054906101000a900460ff16908060010160019054906101000a900460ff16905083565b5f604051806060016040528086868080601f0160208091040260200160405190810160405280939291908181526020018383808284375f81840152601f19601f8201169050808301925050505050505081526020018460ff1681526020018360ff1681525090505f5f3373ffffffffffffffffffffffffffffffffffffffff1673ffffffffffffffffffffffffffffffffffffffff1681526020019081526020015f2081908060018154018082558091505060019003905f5260205f2090600202015f909190919091505f820151815f0190816102a69190610b0d565b506020820151816001015f6101000a81548160ff021916908360ff16021790555060408201518160010160016101000a81548160ff021916908360ff16021790555050505050505050565b6001602052805f5260405f205f91509050805f018054610310906108ff565b80601f016020809104026020016040519081016040528092919081815260200182805461033c906108ff565b80156103875780601f1061035e57610100808354040283529160200191610387565b820191905f5260205f20905b81548152906001019060200180831161036a57829003601f168201915b505050505090806001015f9054906101000a900460ff16908060010160019054906101000a900460ff16908060010160029054906101000a900460ff16905084565b5f81156103d957600190506103de565b600290505b5f604051806080016040528088888080601f0160208091040260200160405190810160405280939291908181526020018383808284375f81840152601f19601f8201169050808301925050505050505081526020018660ff1681526020018560ff1681526020018360ff1681525090508060015f3373ffffffffffffffffffffffffffffffffffffffff1673ffffffffffffffffffffffffffffffffffffffff1681526020019081526020015f205f820151815f01908161049f9190610b0d565b506020820151816001015f6101000a81548160ff021916908360ff16021790555060408201518160010160016101000a81548160ff021916908360ff16021790555060608201518160010160026101000a81548160ff021916908360ff16021790555090505050505050505050565b5f5ffd5b5f5ffd5b5f73ffffffffffffffffffffffffffffffffffffffff82169050919050565b5f61053f82610516565b9050919050565b61054f81610535565b8114610559575f5ffd5b50565b5f8135905061056a81610546565b92915050565b5f819050919050565b61058281610570565b811461058c575f5ffd5b50565b5f8135905061059d81610579565b92915050565b5f5f604083850312156105b9576105b861050e565b5b5f6105c68582860161055c565b92505060206105d78582860161058f565b9150509250929050565b5f81519050919050565b5f82825260208201905092915050565b8281835e5f83830152505050565b5f601f19601f8301169050919050565b5f610623826105e1565b61062d81856105eb565b935061063d8185602086016105fb565b61064681610609565b840191505092915050565b5f60ff82169050919050565b61066681610651565b82525050565b5f6060820190508181035f8301526106848186610619565b9050610693602083018561065d565b6106a0604083018461065d565b949350505050565b5f5ffd5b5f5ffd5b5f5ffd5b5f5f83601f8401126106c9576106c86106a8565b5b8235905067ffffffffffffffff8111156106e6576106e56106ac565b5b602083019150836001820283011115610702576107016106b0565b5b9250929050565b61071281610651565b811461071c575f5ffd5b50565b5f8135905061072d81610709565b92915050565b5f5f5f5f6060858703121561074b5761074a61050e565b5b5f85013567ffffffffffffffff81111561076857610767610512565b5b610774878288016106b4565b945094505060206107878782880161071f565b92505060406107988782880161071f565b91505092959194509250565b5f602082840312156107b9576107b861050e565b5b5f6107c68482850161055c565b91505092915050565b5f6080820190508181035f8301526107e78187610619565b90506107f6602083018661065d565b610803604083018561065d565b610810606083018461065d565b95945050505050565b5f8115159050919050565b61082d81610819565b8114610837575f5ffd5b50565b5f8135905061084881610824565b92915050565b5f5f5f5f5f608086880312156108675761086661050e565b5b5f86013567ffffffffffffffff81111561088457610883610512565b5b610890888289016106b4565b955095505060206108a38882890161071f565b93505060406108b48882890161071f565b92505060606108c58882890161083a565b9150509295509295909350565b7f4e487b71000000000000000000000000000000000000000000000000000000005f52602260045260245ffd5b5f600282049050600182168061091657607f821691505b602082108103610929576109286108d2565b5b50919050565b7f4e487b71000000000000000000000000000000000000000000000000000000005f52604160045260245ffd5b5f819050815f5260205f209050919050565b5f6020601f8301049050919050565b5f82821b905092915050565b5f600883026109b87fffffffffffffffffffffffffffffffffffffffffffffffffffffffffffffffff8261097d565b6109c2868361097d565b95508019841693508086168417925050509392505050565b5f819050919050565b5f6109fd6109f86109f384610570565b6109da565b610570565b9050919050565b5f819050919050565b610a16836109e3565b610a2a610a2282610a04565b848454610989565b825550505050565b5f5f905090565b610a41610a32565b610a4c818484610a0d565b505050565b5f5b82811015610a7257610a675f828401610a39565b600181019050610a53565b505050565b601f821115610ac55782821115610ac457610a918161095c565b610a9a8361096e565b610aa38561096e565b6020861015610ab0575f90505b808301610abf82840382610a51565b505050505b5b505050565b5f82821c905092915050565b5f610ae55f1984600802610aca565b1980831691505092915050565b5f610afd8383610ad6565b9150826002028217905092915050565b610b16826105e1565b67ffffffffffffffff811115610b2f57610b2e61092f565b5b610b3982546108ff565b610b44828285610a77565b5f60209050601f831160018114610b75575f8415610b63578287015190505b610b6d8582610af2565b865550610bd4565b601f198416610b838661095c565b5f5b82811015610baa57848901518255600182019150602085019450602081019050610b85565b86831015610bc75784890151610bc3601f891682610ad6565b8355505b6001600288020188555050505b50505050505056fea26469706673582212201fb0a759d7335a0c0ed87a8b36c213fc6d040af2004a98977a37814f8dfdca3b64736f6c63430008220033",
					"opcodes": "PUSH1 0x80 PUSH1 0x40 MSTORE CALLVALUE DUP1 ISZERO PUSH1 0xE JUMPI PUSH0 PUSH0 REVERT JUMPDEST POP PUSH2 0xC12 DUP1 PUSH2 0x1C PUSH0 CODECOPY PUSH0 RETURN INVALID PUSH1 0x80 PUSH1 0x40 MSTORE CALLVALUE DUP1 ISZERO PUSH2 0xF JUMPI PUSH0 PUSH0 REVERT JUMPDEST POP PUSH1 0x4 CALLDATASIZE LT PUSH2 0x4A JUMPI PUSH0 CALLDATALOAD PUSH1 0xE0 SHR DUP1 PUSH4 0x82A6C0AC EQ PUSH2 0x4E JUMPI DUP1 PUSH4 0x96494F01 EQ PUSH2 0x80 JUMPI DUP1 PUSH4 0xA6C807A9 EQ PUSH2 0x9C JUMPI DUP1 PUSH4 0xDE0ACD8E EQ PUSH2 0xCF JUMPI JUMPDEST PUSH0 PUSH0 REVERT JUMPDEST PUSH2 0x68 PUSH1 0x4 DUP1 CALLDATASIZE SUB DUP2 ADD SWAP1 PUSH2 0x63 SWAP2 SWAP1 PUSH2 0x5A3 JUMP JUMPDEST PUSH2 0xEB JUMP JUMPDEST PUSH1 0x40 MLOAD PUSH2 0x77 SWAP4 SWAP3 SWAP2 SWAP1 PUSH2 0x66C JUMP JUMPDEST PUSH1 0x40 MLOAD DUP1 SWAP2 SUB SWAP1 RETURN JUMPDEST PUSH2 0x9A PUSH1 0x4 DUP1 CALLDATASIZE SUB DUP2 ADD SWAP1 PUSH2 0x95 SWAP2 SWAP1 PUSH2 0x733 JUMP JUMPDEST PUSH2 0x1C9 JUMP JUMPDEST STOP JUMPDEST PUSH2 0xB6 PUSH1 0x4 DUP1 CALLDATASIZE SUB DUP2 ADD SWAP1 PUSH2 0xB1 SWAP2 SWAP1 PUSH2 0x7A4 JUMP JUMPDEST PUSH2 0x2F1 JUMP JUMPDEST PUSH1 0x40 MLOAD PUSH2 0xC6 SWAP5 SWAP4 SWAP3 SWAP2 SWAP1 PUSH2 0x7CF JUMP JUMPDEST PUSH1 0x40 MLOAD DUP1 SWAP2 SUB SWAP1 RETURN JUMPDEST PUSH2 0xE9 PUSH1 0x4 DUP1 CALLDATASIZE SUB DUP2 ADD SWAP1 PUSH2 0xE4 SWAP2 SWAP1 PUSH2 0x84E JUMP JUMPDEST PUSH2 0x3C9 JUMP JUMPDEST STOP JUMPDEST PUSH0 PUSH1 0x20 MSTORE DUP2 PUSH0 MSTORE PUSH1 0x40 PUSH0 KECCAK256 DUP2 DUP2 SLOAD DUP2 LT PUSH2 0x103 JUMPI PUSH0 DUP1 REVERT JUMPDEST SWAP1 PUSH0 MSTORE PUSH1 0x20 PUSH0 KECCAK256 SWAP1 PUSH1 0x2 MUL ADD PUSH0 SWAP2 POP SWAP2 POP POP DUP1 PUSH0 ADD DUP1 SLOAD PUSH2 0x123 SWAP1 PUSH2 0x8FF JUMP JUMPDEST DUP1 PUSH1 0x1F ADD PUSH1 0x20 DUP1 SWAP2 DIV MUL PUSH1 0x20 ADD PUSH1 0x40 MLOAD SWAP1 DUP2 ADD PUSH1 0x40 MSTORE DUP1 SWAP3 SWAP2 SWAP1 DUP2 DUP2 MSTORE PUSH1 0x20 ADD DUP3 DUP1 SLOAD PUSH2 0x14F SWAP1 PUSH2 0x8FF JUMP JUMPDEST DUP1 ISZERO PUSH2 0x19A JUMPI DUP1 PUSH1 0x1F LT PUSH2 0x171 JUMPI PUSH2 0x100 DUP1 DUP4 SLOAD DIV MUL DUP4 MSTORE SWAP2 PUSH1 0x20 ADD SWAP2 PUSH2 0x19A JUMP JUMPDEST DUP3 ADD SWAP2 SWAP1 PUSH0 MSTORE PUSH1 0x20 PUSH0 KECCAK256 SWAP1 JUMPDEST DUP2 SLOAD DUP2 MSTORE SWAP1 PUSH1 0x1 ADD SWAP1 PUSH1 0x20 ADD DUP1 DUP4 GT PUSH2 0x17D JUMPI DUP3 SWAP1 SUB PUSH1 0x1F AND DUP3 ADD SWAP2 JUMPDEST POP POP POP POP POP SWAP1 DUP1 PUSH1 0x1 ADD PUSH0 SWAP1 SLOAD SWAP1 PUSH2 0x100 EXP SWAP1 DIV PUSH1 0xFF AND SWAP1 DUP1 PUSH1 0x1 ADD PUSH1 0x1 SWAP1 SLOAD SWAP1 PUSH2 0x100 EXP SWAP1 DIV PUSH1 0xFF AND SWAP1 POP DUP4 JUMP JUMPDEST PUSH0 PUSH1 0x40 MLOAD DUP1 PUSH1 0x60 ADD PUSH1 0x40 MSTORE DUP1 DUP7 DUP7 DUP1 DUP1 PUSH1 0x1F ADD PUSH1 0x20 DUP1 SWAP2 DIV MUL PUSH1 0x20 ADD PUSH1 0x40 MLOAD SWAP1 DUP2 ADD PUSH1 0x40 MSTORE DUP1 SWAP4 SWAP3 SWAP2 SWAP1 DUP2 DUP2 MSTORE PUSH1 0x20 ADD DUP4 DUP4 DUP1 DUP3 DUP5 CALLDATACOPY PUSH0 DUP2 DUP5 ADD MSTORE PUSH1 0x1F NOT PUSH1 0x1F DUP3 ADD AND SWAP1 POP DUP1 DUP4 ADD SWAP3 POP POP POP POP POP POP POP DUP2 MSTORE PUSH1 0x20 ADD DUP5 PUSH1 0xFF AND DUP2 MSTORE PUSH1 0x20 ADD DUP4 PUSH1 0xFF AND DUP2 MSTORE POP SWAP1 POP PUSH0 PUSH0 CALLER PUSH20 0xFFFFFFFFFFFFFFFFFFFFFFFFFFFFFFFFFFFFFFFF AND PUSH20 0xFFFFFFFFFFFFFFFFFFFFFFFFFFFFFFFFFFFFFFFF AND DUP2 MSTORE PUSH1 0x20 ADD SWAP1 DUP2 MSTORE PUSH1 0x20 ADD PUSH0 KECCAK256 DUP2 SWAP1 DUP1 PUSH1 0x1 DUP2 SLOAD ADD DUP1 DUP3 SSTORE DUP1 SWAP2 POP POP PUSH1 0x1 SWAP1 SUB SWAP1 PUSH0 MSTORE PUSH1 0x20 PUSH0 KECCAK256 SWAP1 PUSH1 0x2 MUL ADD PUSH0 SWAP1 SWAP2 SWAP1 SWAP2 SWAP1 SWAP2 POP PUSH0 DUP3 ADD MLOAD DUP2 PUSH0 ADD SWAP1 DUP2 PUSH2 0x2A6 SWAP2 SWAP1 PUSH2 0xB0D JUMP JUMPDEST POP PUSH1 0x20 DUP3 ADD MLOAD DUP2 PUSH1 0x1 ADD PUSH0 PUSH2 0x100 EXP DUP2 SLOAD DUP2 PUSH1 0xFF MUL NOT AND SWAP1 DUP4 PUSH1 0xFF AND MUL OR SWAP1 SSTORE POP PUSH1 0x40 DUP3 ADD MLOAD DUP2 PUSH1 0x1 ADD PUSH1 0x1 PUSH2 0x100 EXP DUP2 SLOAD DUP2 PUSH1 0xFF MUL NOT AND SWAP1 DUP4 PUSH1 0xFF AND MUL OR SWAP1 SSTORE POP POP POP POP POP POP POP POP JUMP JUMPDEST PUSH1 0x1 PUSH1 0x20 MSTORE DUP1 PUSH0 MSTORE PUSH1 0x40 PUSH0 KECCAK256 PUSH0 SWAP2 POP SWAP1 POP DUP1 PUSH0 ADD DUP1 SLOAD PUSH2 0x310 SWAP1 PUSH2 0x8FF JUMP JUMPDEST DUP1 PUSH1 0x1F ADD PUSH1 0x20 DUP1 SWAP2 DIV MUL PUSH1 0x20 ADD PUSH1 0x40 MLOAD SWAP1 DUP2 ADD PUSH1 0x40 MSTORE DUP1 SWAP3 SWAP2 SWAP1 DUP2 DUP2 MSTORE PUSH1 0x20 ADD DUP3 DUP1 SLOAD PUSH2 0x33C SWAP1 PUSH2 0x8FF JUMP JUMPDEST DUP1 ISZERO PUSH2 0x387 JUMPI DUP1 PUSH1 0x1F LT PUSH2 0x35E JUMPI PUSH2 0x100 DUP1 DUP4 SLOAD DIV MUL DUP4 MSTORE SWAP2 PUSH1 0x20 ADD SWAP2 PUSH2 0x387 JUMP JUMPDEST DUP3 ADD SWAP2 SWAP1 PUSH0 MSTORE PUSH1 0x20 PUSH0 KECCAK256 SWAP1 JUMPDEST DUP2 SLOAD DUP2 MSTORE SWAP1 PUSH1 0x1 ADD SWAP1 PUSH1 0x20 ADD DUP1 DUP4 GT PUSH2 0x36A JUMPI DUP3 SWAP1 SUB PUSH1 0x1F AND DUP3 ADD SWAP2 JUMPDEST POP POP POP POP POP SWAP1 DUP1 PUSH1 0x1 ADD PUSH0 SWAP1 SLOAD SWAP1 PUSH2 0x100 EXP SWAP1 DIV PUSH1 0xFF AND SWAP1 DUP1 PUSH1 0x1 ADD PUSH1 0x1 SWAP1 SLOAD SWAP1 PUSH2 0x100 EXP SWAP1 DIV PUSH1 0xFF AND SWAP1 DUP1 PUSH1 0x1 ADD PUSH1 0x2 SWAP1 SLOAD SWAP1 PUSH2 0x100 EXP SWAP1 DIV PUSH1 0xFF AND SWAP1 POP DUP5 JUMP JUMPDEST PUSH0 DUP2 ISZERO PUSH2 0x3D9 JUMPI PUSH1 0x1 SWAP1 POP PUSH2 0x3DE JUMP JUMPDEST PUSH1 0x2 SWAP1 POP JUMPDEST PUSH0 PUSH1 0x40 MLOAD DUP1 PUSH1 0x80 ADD PUSH1 0x40 MSTORE DUP1 DUP9 DUP9 DUP1 DUP1 PUSH1 0x1F ADD PUSH1 0x20 DUP1 SWAP2 DIV MUL PUSH1 0x20 ADD PUSH1 0x40 MLOAD SWAP1 DUP2 ADD PUSH1 0x40 MSTORE DUP1 SWAP4 SWAP3 SWAP2 SWAP1 DUP2 DUP2 MSTORE PUSH1 0x20 ADD DUP4 DUP4 DUP1 DUP3 DUP5 CALLDATACOPY PUSH0 DUP2 DUP5 ADD MSTORE PUSH1 0x1F NOT PUSH1 0x1F DUP3 ADD AND SWAP1 POP DUP1 DUP4 ADD SWAP3 POP POP POP POP POP POP POP DUP2 MSTORE PUSH1 0x20 ADD DUP7 PUSH1 0xFF AND DUP2 MSTORE PUSH1 0x20 ADD DUP6 PUSH1 0xFF AND DUP2 MSTORE PUSH1 0x20 ADD DUP4 PUSH1 0xFF AND DUP2 MSTORE POP SWAP1 POP DUP1 PUSH1 0x1 PUSH0 CALLER PUSH20 0xFFFFFFFFFFFFFFFFFFFFFFFFFFFFFFFFFFFFFFFF AND PUSH20 0xFFFFFFFFFFFFFFFFFFFFFFFFFFFFFFFFFFFFFFFF AND DUP2 MSTORE PUSH1 0x20 ADD SWAP1 DUP2 MSTORE PUSH1 0x20 ADD PUSH0 KECCAK256 PUSH0 DUP3 ADD MLOAD DUP2 PUSH0 ADD SWAP1 DUP2 PUSH2 0x49F SWAP2 SWAP1 PUSH2 0xB0D JUMP JUMPDEST POP PUSH1 0x20 DUP3 ADD MLOAD DUP2 PUSH1 0x1 ADD PUSH0 PUSH2 0x100 EXP DUP2 SLOAD DUP2 PUSH1 0xFF MUL NOT AND SWAP1 DUP4 PUSH1 0xFF AND MUL OR SWAP1 SSTORE POP PUSH1 0x40 DUP3 ADD MLOAD DUP2 PUSH1 0x1 ADD PUSH1 0x1 PUSH2 0x100 EXP DUP2 SLOAD DUP2 PUSH1 0xFF MUL NOT AND SWAP1 DUP4 PUSH1 0xFF AND MUL OR SWAP1 SSTORE POP PUSH1 0x60 DUP3 ADD MLOAD DUP2 PUSH1 0x1 ADD PUSH1 0x2 PUSH2 0x100 EXP DUP2 SLOAD DUP2 PUSH1 0xFF MUL NOT AND SWAP1 DUP4 PUSH1 0xFF AND MUL OR SWAP1 SSTORE POP SWAP1 POP POP POP POP POP POP POP POP POP JUMP JUMPDEST PUSH0 PUSH0 REVERT JUMPDEST PUSH0 PUSH0 REVERT JUMPDEST PUSH0 PUSH20 0xFFFFFFFFFFFFFFFFFFFFFFFFFFFFFFFFFFFFFFFF DUP3 AND SWAP1 POP SWAP2 SWAP1 POP JUMP JUMPDEST PUSH0 PUSH2 0x53F DUP3 PUSH2 0x516 JUMP JUMPDEST SWAP1 POP SWAP2 SWAP1 POP JUMP JUMPDEST PUSH2 0x54F DUP2 PUSH2 0x535 JUMP JUMPDEST DUP2 EQ PUSH2 0x559 JUMPI PUSH0 PUSH0 REVERT JUMPDEST POP JUMP JUMPDEST PUSH0 DUP2 CALLDATALOAD SWAP1 POP PUSH2 0x56A DUP2 PUSH2 0x546 JUMP JUMPDEST SWAP3 SWAP2 POP POP JUMP JUMPDEST PUSH0 DUP2 SWAP1 POP SWAP2 SWAP1 POP JUMP JUMPDEST PUSH2 0x582 DUP2 PUSH2 0x570 JUMP JUMPDEST DUP2 EQ PUSH2 0x58C JUMPI PUSH0 PUSH0 REVERT JUMPDEST POP JUMP JUMPDEST PUSH0 DUP2 CALLDATALOAD SWAP1 POP PUSH2 0x59D DUP2 PUSH2 0x579 JUMP JUMPDEST SWAP3 SWAP2 POP POP JUMP JUMPDEST PUSH0 PUSH0 PUSH1 0x40 DUP4 DUP6 SUB SLT ISZERO PUSH2 0x5B9 JUMPI PUSH2 0x5B8 PUSH2 0x50E JUMP JUMPDEST JUMPDEST PUSH0 PUSH2 0x5C6 DUP6 DUP3 DUP7 ADD PUSH2 0x55C JUMP JUMPDEST SWAP3 POP POP PUSH1 0x20 PUSH2 0x5D7 DUP6 DUP3 DUP7 ADD PUSH2 0x58F JUMP JUMPDEST SWAP2 POP POP SWAP3 POP SWAP3 SWAP1 POP JUMP JUMPDEST PUSH0 DUP2 MLOAD SWAP1 POP SWAP2 SWAP1 POP JUMP JUMPDEST PUSH0 DUP3 DUP3 MSTORE PUSH1 0x20 DUP3 ADD SWAP1 POP SWAP3 SWAP2 POP POP JUMP JUMPDEST DUP3 DUP2 DUP4 MCOPY PUSH0 DUP4 DUP4 ADD MSTORE POP POP POP JUMP JUMPDEST PUSH0 PUSH1 0x1F NOT PUSH1 0x1F DUP4 ADD AND SWAP1 POP SWAP2 SWAP1 POP JUMP JUMPDEST PUSH0 PUSH2 0x623 DUP3 PUSH2 0x5E1 JUMP JUMPDEST PUSH2 0x62D DUP2 DUP6 PUSH2 0x5EB JUMP JUMPDEST SWAP4 POP PUSH2 0x63D DUP2 DUP6 PUSH1 0x20 DUP7 ADD PUSH2 0x5FB JUMP JUMPDEST PUSH2 0x646 DUP2 PUSH2 0x609 JUMP JUMPDEST DUP5 ADD SWAP2 POP POP SWAP3 SWAP2 POP POP JUMP JUMPDEST PUSH0 PUSH1 0xFF DUP3 AND SWAP1 POP SWAP2 SWAP1 POP JUMP JUMPDEST PUSH2 0x666 DUP2 PUSH2 0x651 JUMP JUMPDEST DUP3 MSTORE POP POP JUMP JUMPDEST PUSH0 PUSH1 0x60 DUP3 ADD SWAP1 POP DUP2 DUP2 SUB PUSH0 DUP4 ADD MSTORE PUSH2 0x684 DUP2 DUP7 PUSH2 0x619 JUMP JUMPDEST SWAP1 POP PUSH2 0x693 PUSH1 0x20 DUP4 ADD DUP6 PUSH2 0x65D JUMP JUMPDEST PUSH2 0x6A0 PUSH1 0x40 DUP4 ADD DUP5 PUSH2 0x65D JUMP JUMPDEST SWAP5 SWAP4 POP POP POP POP JUMP JUMPDEST PUSH0 PUSH0 REVERT JUMPDEST PUSH0 PUSH0 REVERT JUMPDEST PUSH0 PUSH0 REVERT JUMPDEST PUSH0 PUSH0 DUP4 PUSH1 0x1F DUP5 ADD SLT PUSH2 0x6C9 JUMPI PUSH2 0x6C8 PUSH2 0x6A8 JUMP JUMPDEST JUMPDEST DUP3 CALLDATALOAD SWAP1 POP PUSH8 0xFFFFFFFFFFFFFFFF DUP2 GT ISZERO PUSH2 0x6E6 JUMPI PUSH2 0x6E5 PUSH2 0x6AC JUMP JUMPDEST JUMPDEST PUSH1 0x20 DUP4 ADD SWAP2 POP DUP4 PUSH1 0x1 DUP3 MUL DUP4 ADD GT ISZERO PUSH2 0x702 JUMPI PUSH2 0x701 PUSH2 0x6B0 JUMP JUMPDEST JUMPDEST SWAP3 POP SWAP3 SWAP1 POP JUMP JUMPDEST PUSH2 0x712 DUP2 PUSH2 0x651 JUMP JUMPDEST DUP2 EQ PUSH2 0x71C JUMPI PUSH0 PUSH0 REVERT JUMPDEST POP JUMP JUMPDEST PUSH0 DUP2 CALLDATALOAD SWAP1 POP PUSH2 0x72D DUP2 PUSH2 0x709 JUMP JUMPDEST SWAP3 SWAP2 POP POP JUMP JUMPDEST PUSH0 PUSH0 PUSH0 PUSH0 PUSH1 0x60 DUP6 DUP8 SUB SLT ISZERO PUSH2 0x74B JUMPI PUSH2 0x74A PUSH2 0x50E JUMP JUMPDEST JUMPDEST PUSH0 DUP6 ADD CALLDATALOAD PUSH8 0xFFFFFFFFFFFFFFFF DUP2 GT ISZERO PUSH2 0x768 JUMPI PUSH2 0x767 PUSH2 0x512 JUMP JUMPDEST JUMPDEST PUSH2 0x774 DUP8 DUP3 DUP9 ADD PUSH2 0x6B4 JUMP JUMPDEST SWAP5 POP SWAP5 POP POP PUSH1 0x20 PUSH2 0x787 DUP8 DUP3 DUP9 ADD PUSH2 0x71F JUMP JUMPDEST SWAP3 POP POP PUSH1 0x40 PUSH2 0x798 DUP8 DUP3 DUP9 ADD PUSH2 0x71F JUMP JUMPDEST SWAP2 POP POP SWAP3 SWAP6 SWAP2 SWAP5 POP SWAP3 POP JUMP JUMPDEST PUSH0 PUSH1 0x20 DUP3 DUP5 SUB SLT ISZERO PUSH2 0x7B9 JUMPI PUSH2 0x7B8 PUSH2 0x50E JUMP JUMPDEST JUMPDEST PUSH0 PUSH2 0x7C6 DUP5 DUP3 DUP6 ADD PUSH2 0x55C JUMP JUMPDEST SWAP2 POP POP SWAP3 SWAP2 POP POP JUMP JUMPDEST PUSH0 PUSH1 0x80 DUP3 ADD SWAP1 POP DUP2 DUP2 SUB PUSH0 DUP4 ADD MSTORE PUSH2 0x7E7 DUP2 DUP8 PUSH2 0x619 JUMP JUMPDEST SWAP1 POP PUSH2 0x7F6 PUSH1 0x20 DUP4 ADD DUP7 PUSH2 0x65D JUMP JUMPDEST PUSH2 0x803 PUSH1 0x40 DUP4 ADD DUP6 PUSH2 0x65D JUMP JUMPDEST PUSH2 0x810 PUSH1 0x60 DUP4 ADD DUP5 PUSH2 0x65D JUMP JUMPDEST SWAP6 SWAP5 POP POP POP POP POP JUMP JUMPDEST PUSH0 DUP2 ISZERO ISZERO SWAP1 POP SWAP2 SWAP1 POP JUMP JUMPDEST PUSH2 0x82D DUP2 PUSH2 0x819 JUMP JUMPDEST DUP2 EQ PUSH2 0x837 JUMPI PUSH0 PUSH0 REVERT JUMPDEST POP JUMP JUMPDEST PUSH0 DUP2 CALLDATALOAD SWAP1 POP PUSH2 0x848 DUP2 PUSH2 0x824 JUMP JUMPDEST SWAP3 SWAP2 POP POP JUMP JUMPDEST PUSH0 PUSH0 PUSH0 PUSH0 PUSH0 PUSH1 0x80 DUP7 DUP9 SUB SLT ISZERO PUSH2 0x867 JUMPI PUSH2 0x866 PUSH2 0x50E JUMP JUMPDEST JUMPDEST PUSH0 DUP7 ADD CALLDATALOAD PUSH8 0xFFFFFFFFFFFFFFFF DUP2 GT ISZERO PUSH2 0x884 JUMPI PUSH2 0x883 PUSH2 0x512 JUMP JUMPDEST JUMPDEST PUSH2 0x890 DUP9 DUP3 DUP10 ADD PUSH2 0x6B4 JUMP JUMPDEST SWAP6 POP SWAP6 POP POP PUSH1 0x20 PUSH2 0x8A3 DUP9 DUP3 DUP10 ADD PUSH2 0x71F JUMP JUMPDEST SWAP4 POP POP PUSH1 0x40 PUSH2 0x8B4 DUP9 DUP3 DUP10 ADD PUSH2 0x71F JUMP JUMPDEST SWAP3 POP POP PUSH1 0x60 PUSH2 0x8C5 DUP9 DUP3 DUP10 ADD PUSH2 0x83A JUMP JUMPDEST SWAP2 POP POP SWAP3 SWAP6 POP SWAP3 SWAP6 SWAP1 SWAP4 POP JUMP JUMPDEST PUSH32 0x4E487B7100000000000000000000000000000000000000000000000000000000 PUSH0 MSTORE PUSH1 0x22 PUSH1 0x4 MSTORE PUSH1 0x24 PUSH0 REVERT JUMPDEST PUSH0 PUSH1 0x2 DUP3 DIV SWAP1 POP PUSH1 0x1 DUP3 AND DUP1 PUSH2 0x916 JUMPI PUSH1 0x7F DUP3 AND SWAP2 POP JUMPDEST PUSH1 0x20 DUP3 LT DUP2 SUB PUSH2 0x929 JUMPI PUSH2 0x928 PUSH2 0x8D2 JUMP JUMPDEST JUMPDEST POP SWAP2 SWAP1 POP JUMP JUMPDEST PUSH32 0x4E487B7100000000000000000000000000000000000000000000000000000000 PUSH0 MSTORE PUSH1 0x41 PUSH1 0x4 MSTORE PUSH1 0x24 PUSH0 REVERT JUMPDEST PUSH0 DUP2 SWAP1 POP DUP2 PUSH0 MSTORE PUSH1 0x20 PUSH0 KECCAK256 SWAP1 POP SWAP2 SWAP1 POP JUMP JUMPDEST PUSH0 PUSH1 0x20 PUSH1 0x1F DUP4 ADD DIV SWAP1 POP SWAP2 SWAP1 POP JUMP JUMPDEST PUSH0 DUP3 DUP3 SHL SWAP1 POP SWAP3 SWAP2 POP POP JUMP JUMPDEST PUSH0 PUSH1 0x8 DUP4 MUL PUSH2 0x9B8 PUSH32 0xFFFFFFFFFFFFFFFFFFFFFFFFFFFFFFFFFFFFFFFFFFFFFFFFFFFFFFFFFFFFFFFF DUP3 PUSH2 0x97D JUMP JUMPDEST PUSH2 0x9C2 DUP7 DUP4 PUSH2 0x97D JUMP JUMPDEST SWAP6 POP DUP1 NOT DUP5 AND SWAP4 POP DUP1 DUP7 AND DUP5 OR SWAP3 POP POP POP SWAP4 SWAP3 POP POP POP JUMP JUMPDEST PUSH0 DUP2 SWAP1 POP SWAP2 SWAP1 POP JUMP JUMPDEST PUSH0 PUSH2 0x9FD PUSH2 0x9F8 PUSH2 0x9F3 DUP5 PUSH2 0x570 JUMP JUMPDEST PUSH2 0x9DA JUMP JUMPDEST PUSH2 0x570 JUMP JUMPDEST SWAP1 POP SWAP2 SWAP1 POP JUMP JUMPDEST PUSH0 DUP2 SWAP1 POP SWAP2 SWAP1 POP JUMP JUMPDEST PUSH2 0xA16 DUP4 PUSH2 0x9E3 JUMP JUMPDEST PUSH2 0xA2A PUSH2 0xA22 DUP3 PUSH2 0xA04 JUMP JUMPDEST DUP5 DUP5 SLOAD PUSH2 0x989 JUMP JUMPDEST DUP3 SSTORE POP POP POP POP JUMP JUMPDEST PUSH0 PUSH0 SWAP1 POP SWAP1 JUMP JUMPDEST PUSH2 0xA41 PUSH2 0xA32 JUMP JUMPDEST PUSH2 0xA4C DUP2 DUP5 DUP5 PUSH2 0xA0D JUMP JUMPDEST POP POP POP JUMP JUMPDEST PUSH0 JUMPDEST DUP3 DUP2 LT ISZERO PUSH2 0xA72 JUMPI PUSH2 0xA67 PUSH0 DUP3 DUP5 ADD PUSH2 0xA39 JUMP JUMPDEST PUSH1 0x1 DUP2 ADD SWAP1 POP PUSH2 0xA53 JUMP JUMPDEST POP POP POP JUMP JUMPDEST PUSH1 0x1F DUP3 GT ISZERO PUSH2 0xAC5 JUMPI DUP3 DUP3 GT ISZERO PUSH2 0xAC4 JUMPI PUSH2 0xA91 DUP2 PUSH2 0x95C JUMP JUMPDEST PUSH2 0xA9A DUP4 PUSH2 0x96E JUMP JUMPDEST PUSH2 0xAA3 DUP6 PUSH2 0x96E JUMP JUMPDEST PUSH1 0x20 DUP7 LT ISZERO PUSH2 0xAB0 JUMPI PUSH0 SWAP1 POP JUMPDEST DUP1 DUP4 ADD PUSH2 0xABF DUP3 DUP5 SUB DUP3 PUSH2 0xA51 JUMP JUMPDEST POP POP POP POP JUMPDEST JUMPDEST POP POP POP JUMP JUMPDEST PUSH0 DUP3 DUP3 SHR SWAP1 POP SWAP3 SWAP2 POP POP JUMP JUMPDEST PUSH0 PUSH2 0xAE5 PUSH0 NOT DUP5 PUSH1 0x8 MUL PUSH2 0xACA JUMP JUMPDEST NOT DUP1 DUP4 AND SWAP2 POP POP SWAP3 SWAP2 POP POP JUMP JUMPDEST PUSH0 PUSH2 0xAFD DUP4 DUP4 PUSH2 0xAD6 JUMP JUMPDEST SWAP2 POP DUP3 PUSH1 0x2 MUL DUP3 OR SWAP1 POP SWAP3 SWAP2 POP POP JUMP JUMPDEST PUSH2 0xB16 DUP3 PUSH2 0x5E1 JUMP JUMPDEST PUSH8 0xFFFFFFFFFFFFFFFF DUP2 GT ISZERO PUSH2 0xB2F JUMPI PUSH2 0xB2E PUSH2 0x92F JUMP JUMPDEST JUMPDEST PUSH2 0xB39 DUP3 SLOAD PUSH2 0x8FF JUMP JUMPDEST PUSH2 0xB44 DUP3 DUP3 DUP6 PUSH2 0xA77 JUMP JUMPDEST PUSH0 PUSH1 0x20 SWAP1 POP PUSH1 0x1F DUP4 GT PUSH1 0x1 DUP2 EQ PUSH2 0xB75 JUMPI PUSH0 DUP5 ISZERO PUSH2 0xB63 JUMPI DUP3 DUP8 ADD MLOAD SWAP1 POP JUMPDEST PUSH2 0xB6D DUP6 DUP3 PUSH2 0xAF2 JUMP JUMPDEST DUP7 SSTORE POP PUSH2 0xBD4 JUMP JUMPDEST PUSH1 0x1F NOT DUP5 AND PUSH2 0xB83 DUP7 PUSH2 0x95C JUMP JUMPDEST PUSH0 JUMPDEST DUP3 DUP2 LT ISZERO PUSH2 0xBAA JUMPI DUP5 DUP10 ADD MLOAD DUP3 SSTORE PUSH1 0x1 DUP3 ADD SWAP2 POP PUSH1 0x20 DUP6 ADD SWAP5 POP PUSH1 0x20 DUP2 ADD SWAP1 POP PUSH2 0xB85 JUMP JUMPDEST DUP7 DUP4 LT ISZERO PUSH2 0xBC7 JUMPI DUP5 DUP10 ADD MLOAD PUSH2 0xBC3 PUSH1 0x1F DUP10 AND DUP3 PUSH2 0xAD6 JUMP JUMPDEST DUP4 SSTORE POP JUMPDEST PUSH1 0x1 PUSH1 0x2 DUP9 MUL ADD DUP9 SSTORE POP POP POP JUMPDEST POP POP POP POP POP POP JUMP INVALID LOG2 PUSH5 0x6970667358 0x22 SLT KECCAK256 0x1F 0xB0 0xA7 MSIZE 0xD7 CALLER GAS 0xC 0xE 0xD8 PUSH27 0x8B36C213FC6D040AF2004A98977A37814F8DFDCA3B64736F6C6343 STOP ADDMOD 0x22 STOP CALLER "
				},
				"gasEstimates": {
					"creation": {
						"codeDepositCost": "618000",
						"executionCost": "649",
						"totalCost": "618649"
					},
					"external": {
						"addMarks(string,uint8,uint8)": "infinite",
						"addRecord(string,uint8,uint8,bool)": "infinite",
						"records(address,uint256)": "infinite",
						"students(address)": "infinite"
					}
				},
				"methodIdentifiers": {
					"addMarks(string,uint8,uint8)": "96494f01",
					"addRecord(string,uint8,uint8,bool)": "de0acd8e",
					"records(address,uint256)": "82a6c0ac",
					"students(address)": "a6c807a9"
				}
			},
			"storageLayout": {
				"storage": [
					{
						"astId": 23,
						"contract": "submissions/MeseretBirhanu/day14/SafeDepositBox.sol:SafeDepositBox",
						"label": "records",
						"offset": 0,
						"slot": "0",
						"type": "t_mapping(t_address,t_array(t_struct(Courses)17_storage)dyn_storage)"
					},
					{
						"astId": 28,
						"contract": "submissions/MeseretBirhanu/day14/SafeDepositBox.sol:SafeDepositBox",
						"label": "students",
						"offset": 0,
						"slot": "1",
						"type": "t_mapping(t_address,t_struct(Student)10_storage)"
					}
				],
				"types": {
					"t_address": {
						"encoding": "inplace",
						"label": "address",
						"numberOfBytes": "20"
					},
					"t_array(t_struct(Courses)17_storage)dyn_storage": {
						"base": "t_struct(Courses)17_storage",
						"encoding": "dynamic_array",
						"label": "struct SafeDepositBox.Courses[]",
						"numberOfBytes": "32"
					},
					"t_mapping(t_address,t_array(t_struct(Courses)17_storage)dyn_storage)": {
						"encoding": "mapping",
						"key": "t_address",
						"label": "mapping(address => struct SafeDepositBox.Courses[])",
						"numberOfBytes": "32",
						"value": "t_array(t_struct(Courses)17_storage)dyn_storage"
					},
					"t_mapping(t_address,t_struct(Student)10_storage)": {
						"encoding": "mapping",
						"key": "t_address",
						"label": "mapping(address => struct SafeDepositBox.Student)",
						"numberOfBytes": "32",
						"value": "t_struct(Student)10_storage"
					},
					"t_string_storage": {
						"encoding": "bytes",
						"label": "string",
						"numberOfBytes": "32"
					},
					"t_struct(Courses)17_storage": {
						"encoding": "inplace",
						"label": "struct SafeDepositBox.Courses",
						"members": [
							{
								"astId": 12,
								"contract": "submissions/MeseretBirhanu/day14/SafeDepositBox.sol:SafeDepositBox",
								"label": "name",
								"offset": 0,
								"slot": "0",
								"type": "t_string_storage"
							},
							{
								"astId": 14,
								"contract": "submissions/MeseretBirhanu/day14/SafeDepositBox.sol:SafeDepositBox",
								"label": "courseCode",
								"offset": 0,
								"slot": "1",
								"type": "t_uint8"
							},
							{
								"astId": 16,
								"contract": "submissions/MeseretBirhanu/day14/SafeDepositBox.sol:SafeDepositBox",
								"label": "grade",
								"offset": 1,
								"slot": "1",
								"type": "t_uint8"
							}
						],
						"numberOfBytes": "64"
					},
					"t_struct(Student)10_storage": {
						"encoding": "inplace",
						"label": "struct SafeDepositBox.Student",
						"members": [
							{
								"astId": 3,
								"contract": "submissions/MeseretBirhanu/day14/SafeDepositBox.sol:SafeDepositBox",
								"label": "name",
								"offset": 0,
								"slot": "0",
								"type": "t_string_storage"
							},
							{
								"astId": 5,
								"contract": "submissions/MeseretBirhanu/day14/SafeDepositBox.sol:SafeDepositBox",
								"label": "grade",
								"offset": 0,
								"slot": "1",
								"type": "t_uint8"
							},
							{
								"astId": 7,
								"contract": "submissions/MeseretBirhanu/day14/SafeDepositBox.sol:SafeDepositBox",
								"label": "age",
								"offset": 1,
								"slot": "1",
								"type": "t_uint8"
							},
							{
								"astId": 9,
								"contract": "submissions/MeseretBirhanu/day14/SafeDepositBox.sol:SafeDepositBox",
								"label": "gender",
								"offset": 2,
								"slot": "1",
								"type": "t_uint8"
							}
						],
						"numberOfBytes": "64"
					},
					"t_uint8": {
						"encoding": "inplace",
						"label": "uint8",
						"numberOfBytes": "1"
					}
				}
			},
			"userdoc": {
				"kind": "user",
				"methods": {},
				"version": 1
			}
		}
	}
}