{
	"submissions/MeseretBirhanu/day12/AthenaToken.sol": {
		"AthenaToken": {
			"abi": [
				{
					"inputs": [
						{
							"internalType": "uint256",
							"name": "_initialSupply",
							"type": "uint256"
						}
					],
					"stateMutability": "nonpayable",
					"type": "constructor"
				},
				{
					"anonymous": false,
					"inputs": [
						{
							"indexed": true,
							"internalType": "address",
							"name": "from",
							"type": "address"
						},
						{
							"indexed": true,
							"internalType": "address",
							"name": "to",
							"type": "address"
						},
						{
							"indexed": false,
							"internalType": "uint256",
							"name": "value",
							"type": "uint256"
						}
					],
					"name": "Transfer",
					"type": "event"
				},
				{
					"inputs": [
						{
							"internalType": "address",
							"name": "",
							"type": "address"
						}
					],
					"name": "balanceOf",
					"outputs": [
						{
							"internalType": "uint256",
							"name": "",
							"type": "uint256"
						}
					],
					"stateMutability": "view",
					"type": "function"
				},
				{
					"inputs": [],
					"name": "decimals",
					"outputs": [
						{
							"internalType": "uint8",
							"name": "",
							"type": "uint8"
						}
					],
					"stateMutability": "view",
					"type": "function"
				},
				{
					"inputs": [],
					"name": "maxSupply",
					"outputs": [
						{
							"internalType": "uint256",
							"name": "",
							"type": "uint256"
						}
					],
					"stateMutability": "view",
					"type": "function"
				},
				{
					"inputs": [
						{
							"internalType": "uint256",
							"name": "_amount",
							"type": "uint256"
						}
					],
					"name": "mint",
					"outputs": [],
					"stateMutability": "nonpayable",
					"type": "function"
				},
				{
					"inputs": [],
					"name": "name",
					"outputs": [
						{
							"internalType": "string",
							"name": "",
							"type": "string"
						}
					],
					"stateMutability": "view",
					"type": "function"
				},
				{
					"inputs": [],
					"name": "owner",
					"outputs": [
						{
							"internalType": "address",
							"name": "",
							"type": "address"
						}
					],
					"stateMutability": "view",
					"type": "function"
				},
				{
					"inputs": [],
					"name": "symbol",
					"outputs": [
						{
							"internalType": "string",
							"name": "",
							"type": "string"
						}
					],
					"stateMutability": "view",
					"type": "function"
				},
				{
					"inputs": [],
					"name": "totalSupply",
					"outputs": [
						{
							"internalType": "uint256",
							"name": "",
							"type": "uint256"
						}
					],
					"stateMutability": "view",
					"type": "function"
				},
				{
					"inputs": [
						{
							"internalType": "address",
							"name": "_to",
							"type": "address"
						},
						{
							"internalType": "uint256",
							"name": "_amount",
							"type": "uint256"
						}
					],
					"name": "transfer",
					"outputs": [
						{
							"internalType": "bool",
							"name": "",
							"type": "bool"
						}
					],
					"stateMutability": "nonpayable",
					"type": "function"
				}
			],
			"devdoc": {
				"kind": "dev",
				"methods": {},
				"version": 1
			},
			"evm": {
				"assembly": "    /* \"submissions/MeseretBirhanu/day12/AthenaToken.sol\":386:2035  contract AthenaToken is IERC20 {... */\n  mstore(0x40, 0x80)\n    /* \"submissions/MeseretBirhanu/day12/AthenaToken.sol\":424:459  string public name = \"Athena Token\" */\n  mload(0x40)\n  dup1\n  0x40\n  add\n  0x40\n  mstore\n  dup1\n  0x0c\n  dup2\n  mstore\n  0x20\n  add\n  0x417468656e6120546f6b656e0000000000000000000000000000000000000000\n  dup2\n  mstore\n  pop\n  0x00\n  swap1\n  dup2\n  tag_1\n  swap2\n  swap1\n  tag_2\n  jump\t// in\ntag_1:\n  pop\n    /* \"submissions/MeseretBirhanu/day12/AthenaToken.sol\":466:494  string public symbol = \"ATH\" */\n  mload(0x40)\n  dup1\n  0x40\n  add\n  0x40\n  mstore\n  dup1\n  0x03\n  dup2\n  mstore\n  0x20\n  add\n  0x4154480000000000000000000000000000000000000000000000000000000000\n  dup2\n  mstore\n  pop\n  0x01\n  swap1\n  dup2\n  tag_3\n  swap2\n  swap1\n  tag_2\n  jump\t// in\ntag_3:\n  pop\n    /* \"submissions/MeseretBirhanu/day12/AthenaToken.sol\":525:527  18 */\n  0x12\n    /* \"submissions/MeseretBirhanu/day12/AthenaToken.sol\":501:527  uint8 public decimals = 18 */\n  0x02\n  exp(0x0100, 0x00)\n  dup2\n  sload\n  dup2\n  0xff\n  mul\n  not\n  and\n  swap1\n  dup4\n  0xff\n  and\n  mul\n  or\n  swap1\n  sstore\n  pop\n    /* \"submissions/MeseretBirhanu/day12/AthenaToken.sol\":630:638  decimals */\n  0x02\n  0x00\n  swap1\n  sload\n  swap1\n  0x0100\n  exp\n  swap1\n  div\n  0xff\n  and\n    /* \"submissions/MeseretBirhanu/day12/AthenaToken.sol\":622:639  uint256(decimals) */\n  0xff\n  and\n    /* \"submissions/MeseretBirhanu/day12/AthenaToken.sol\":618:620  10 */\n  0x0a\n    /* \"submissions/MeseretBirhanu/day12/AthenaToken.sol\":618:639  10**uint256(decimals) */\n  tag_4\n  swap2\n  swap1\n  tag_5\n  jump\t// in\ntag_4:\n    /* \"submissions/MeseretBirhanu/day12/AthenaToken.sol\":605:615  10_000_000 */\n  0x989680\n    /* \"submissions/MeseretBirhanu/day12/AthenaToken.sol\":605:639  10_000_000 * 10**uint256(decimals) */\n  tag_6\n  swap2\n  swap1\n  tag_7\n  jump\t// in\ntag_6:\n    /* \"submissions/MeseretBirhanu/day12/AthenaToken.sol\":578:639  uint256 public maxSupply = 10_000_000 * 10**uint256(decimals) */\n  0x03\n  sstore\n    /* \"submissions/MeseretBirhanu/day12/AthenaToken.sol\":884:1232  constructor(uint256 _initialSupply) {... */\n  callvalue\n  dup1\n  iszero\n  tag_8\n  jumpi\n  revert(0x00, 0x00)\ntag_8:\n  pop\n  mload(0x40)\n  sub(codesize, bytecodeSize)\n  dup1\n  bytecodeSize\n  dup4\n  codecopy\n  dup2\n  dup2\n  add\n  0x40\n  mstore\n  dup2\n  add\n  swap1\n  tag_9\n  swap2\n  swap1\n  tag_10\n  jump\t// in\ntag_9:\n    /* \"submissions/MeseretBirhanu/day12/AthenaToken.sol\":939:949  msg.sender */\n  caller\n    /* \"submissions/MeseretBirhanu/day12/AthenaToken.sol\":931:936  owner */\n  0x04\n  0x00\n    /* \"submissions/MeseretBirhanu/day12/AthenaToken.sol\":931:949  owner = msg.sender */\n  0x0100\n  exp\n  dup2\n  sload\n  dup2\n  0xffffffffffffffffffffffffffffffffffffffff\n  mul\n  not\n  and\n  swap1\n  dup4\n  0xffffffffffffffffffffffffffffffffffffffff\n  and\n  mul\n  or\n  swap1\n  sstore\n  pop\n    /* \"submissions/MeseretBirhanu/day12/AthenaToken.sol\":960:974  uint256 amount */\n  0x00\n    /* \"submissions/MeseretBirhanu/day12/AthenaToken.sol\":1006:1014  decimals */\n  0x02\n  0x00\n  swap1\n  sload\n  swap1\n  0x0100\n  exp\n  swap1\n  div\n  0xff\n  and\n    /* \"submissions/MeseretBirhanu/day12/AthenaToken.sol\":998:1015  uint256(decimals) */\n  0xff\n  and\n    /* \"submissions/MeseretBirhanu/day12/AthenaToken.sol\":994:996  10 */\n  0x0a\n    /* \"submissions/MeseretBirhanu/day12/AthenaToken.sol\":994:1015  10**uint256(decimals) */\n  tag_13\n  swap2\n  swap1\n  tag_5\n  jump\t// in\ntag_13:\n    /* \"submissions/MeseretBirhanu/day12/AthenaToken.sol\":977:991  _initialSupply */\n  dup3\n    /* \"submissions/MeseretBirhanu/day12/AthenaToken.sol\":977:1015  _initialSupply * 10**uint256(decimals) */\n  tag_14\n  swap2\n  swap1\n  tag_7\n  jump\t// in\ntag_14:\n    /* \"submissions/MeseretBirhanu/day12/AthenaToken.sol\":960:1015  uint256 amount = _initialSupply * 10**uint256(decimals) */\n  swap1\n  pop\n    /* \"submissions/MeseretBirhanu/day12/AthenaToken.sol\":1054:1063  maxSupply */\n  sload(0x03)\n    /* \"submissions/MeseretBirhanu/day12/AthenaToken.sol\":1044:1050  amount */\n  dup2\n    /* \"submissions/MeseretBirhanu/day12/AthenaToken.sol\":1044:1063  amount <= maxSupply */\n  gt\n  iszero\n    /* \"submissions/MeseretBirhanu/day12/AthenaToken.sol\":1036:1086  require(amount <= maxSupply, \"Exceeds max supply\") */\n  tag_15\n  jumpi\n  mload(0x40)\n  0x08c379a000000000000000000000000000000000000000000000000000000000\n  dup2\n  mstore\n  0x04\n  add\n  tag_16\n  swap1\n  tag_17\n  jump\t// in\ntag_16:\n  mload(0x40)\n  dup1\n  swap2\n  sub\n  swap1\n  revert\ntag_15:\n    /* \"submissions/MeseretBirhanu/day12/AthenaToken.sol\":1121:1127  amount */\n  dup1\n    /* \"submissions/MeseretBirhanu/day12/AthenaToken.sol\":1107:1118  totalSupply */\n  0x05\n    /* \"submissions/MeseretBirhanu/day12/AthenaToken.sol\":1107:1127  totalSupply = amount */\n  dup2\n  swap1\n  sstore\n  pop\n    /* \"submissions/MeseretBirhanu/day12/AthenaToken.sol\":1162:1168  amount */\n  dup1\n    /* \"submissions/MeseretBirhanu/day12/AthenaToken.sol\":1138:1147  balanceOf */\n  0x06\n    /* \"submissions/MeseretBirhanu/day12/AthenaToken.sol\":1138:1159  balanceOf[msg.sender] */\n  0x00\n    /* \"submissions/MeseretBirhanu/day12/AthenaToken.sol\":1148:1158  msg.sender */\n  caller\n    /* \"submissions/MeseretBirhanu/day12/AthenaToken.sol\":1138:1159  balanceOf[msg.sender] */\n  0xffffffffffffffffffffffffffffffffffffffff\n  and\n  0xffffffffffffffffffffffffffffffffffffffff\n  and\n  dup2\n  mstore\n  0x20\n  add\n  swap1\n  dup2\n  mstore\n  0x20\n  add\n  0x00\n  keccak256\n    /* \"submissions/MeseretBirhanu/day12/AthenaToken.sol\":1138:1168  balanceOf[msg.sender] = amount */\n  dup2\n  swap1\n  sstore\n  pop\n    /* \"submissions/MeseretBirhanu/day12/AthenaToken.sol\":1205:1215  msg.sender */\n  caller\n    /* \"submissions/MeseretBirhanu/day12/AthenaToken.sol\":1184:1224  Transfer(address(0), msg.sender, amount) */\n  0xffffffffffffffffffffffffffffffffffffffff\n  and\n    /* \"submissions/MeseretBirhanu/day12/AthenaToken.sol\":1201:1202  0 */\n  0x00\n    /* \"submissions/MeseretBirhanu/day12/AthenaToken.sol\":1184:1224  Transfer(address(0), msg.sender, amount) */\n  0xffffffffffffffffffffffffffffffffffffffff\n  and\n  0xddf252ad1be2c89b69c2b068fc378daa952ba7f163c4a11628f55a4df523b3ef\n    /* \"submissions/MeseretBirhanu/day12/AthenaToken.sol\":1217:1223  amount */\n  dup4\n    /* \"submissions/MeseretBirhanu/day12/AthenaToken.sol\":1184:1224  Transfer(address(0), msg.sender, amount) */\n  mload(0x40)\n  tag_18\n  swap2\n  swap1\n  tag_19\n  jump\t// in\ntag_18:\n  mload(0x40)\n  dup1\n  swap2\n  sub\n  swap1\n  log3\n    /* \"submissions/MeseretBirhanu/day12/AthenaToken.sol\":920:1232  {... */\n  pop\n    /* \"submissions/MeseretBirhanu/day12/AthenaToken.sol\":884:1232  constructor(uint256 _initialSupply) {... */\n  pop\n    /* \"submissions/MeseretBirhanu/day12/AthenaToken.sol\":386:2035  contract AthenaToken is IERC20 {... */\n  jump(tag_20)\n    /* \"#utility.yul\":7:106   */\ntag_21:\n    /* \"#utility.yul\":59:65   */\n  0x00\n    /* \"#utility.yul\":93:98   */\n  dup2\n    /* \"#utility.yul\":87:99   */\n  mload\n    /* \"#utility.yul\":77:99   */\n  swap1\n  pop\n    /* \"#utility.yul\":7:106   */\n  swap2\n  swap1\n  pop\n  jump\t// out\n    /* \"#utility.yul\":112:292   */\ntag_22:\n    /* \"#utility.yul\":160:237   */\n  0x4e487b7100000000000000000000000000000000000000000000000000000000\n    /* \"#utility.yul\":157:158   */\n  0x00\n    /* \"#utility.yul\":150:238   */\n  mstore\n    /* \"#utility.yul\":257:261   */\n  0x41\n    /* \"#utility.yul\":254:255   */\n  0x04\n    /* \"#utility.yul\":247:262   */\n  mstore\n    /* \"#utility.yul\":281:285   */\n  0x24\n    /* \"#utility.yul\":278:279   */\n  0x00\n    /* \"#utility.yul\":271:286   */\n  revert\n    /* \"#utility.yul\":298:478   */\ntag_23:\n    /* \"#utility.yul\":346:423   */\n  0x4e487b7100000000000000000000000000000000000000000000000000000000\n    /* \"#utility.yul\":343:344   */\n  0x00\n    /* \"#utility.yul\":336:424   */\n  mstore\n    /* \"#utility.yul\":443:447   */\n  0x22\n    /* \"#utility.yul\":440:441   */\n  0x04\n    /* \"#utility.yul\":433:448   */\n  mstore\n    /* \"#utility.yul\":467:471   */\n  0x24\n    /* \"#utility.yul\":464:465   */\n  0x00\n    /* \"#utility.yul\":457:472   */\n  revert\n    /* \"#utility.yul\":484:804   */\ntag_24:\n    /* \"#utility.yul\":528:534   */\n  0x00\n    /* \"#utility.yul\":565:566   */\n  0x02\n    /* \"#utility.yul\":559:563   */\n  dup3\n    /* \"#utility.yul\":555:567   */\n  div\n    /* \"#utility.yul\":545:567   */\n  swap1\n  pop\n    /* \"#utility.yul\":612:613   */\n  0x01\n    /* \"#utility.yul\":606:610   */\n  dup3\n    /* \"#utility.yul\":602:614   */\n  and\n    /* \"#utility.yul\":633:651   */\n  dup1\n    /* \"#utility.yul\":623:704   */\n  tag_59\n  jumpi\n    /* \"#utility.yul\":689:693   */\n  0x7f\n    /* \"#utility.yul\":681:687   */\n  dup3\n    /* \"#utility.yul\":677:694   */\n  and\n    /* \"#utility.yul\":667:694   */\n  swap2\n  pop\n    /* \"#utility.yul\":623:704   */\ntag_59:\n    /* \"#utility.yul\":751:753   */\n  0x20\n    /* \"#utility.yul\":743:749   */\n  dup3\n    /* \"#utility.yul\":740:754   */\n  lt\n    /* \"#utility.yul\":720:738   */\n  dup2\n    /* \"#utility.yul\":717:755   */\n  sub\n    /* \"#utility.yul\":714:798   */\n  tag_60\n  jumpi\n    /* \"#utility.yul\":770:788   */\n  tag_61\n  tag_23\n  jump\t// in\ntag_61:\n    /* \"#utility.yul\":714:798   */\ntag_60:\n    /* \"#utility.yul\":535:804   */\n  pop\n    /* \"#utility.yul\":484:804   */\n  swap2\n  swap1\n  pop\n  jump\t// out\n    /* \"#utility.yul\":810:951   */\ntag_25:\n    /* \"#utility.yul\":859:863   */\n  0x00\n    /* \"#utility.yul\":882:885   */\n  dup2\n    /* \"#utility.yul\":874:885   */\n  swap1\n  pop\n    /* \"#utility.yul\":905:908   */\n  dup2\n    /* \"#utility.yul\":902:903   */\n  0x00\n    /* \"#utility.yul\":895:909   */\n  mstore\n    /* \"#utility.yul\":939:943   */\n  0x20\n    /* \"#utility.yul\":936:937   */\n  0x00\n    /* \"#utility.yul\":926:944   */\n  keccak256\n    /* \"#utility.yul\":918:944   */\n  swap1\n  pop\n    /* \"#utility.yul\":810:951   */\n  swap2\n  swap1\n  pop\n  jump\t// out\n    /* \"#utility.yul\":957:1050   */\ntag_26:\n    /* \"#utility.yul\":994:1000   */\n  0x00\n    /* \"#utility.yul\":1041:1043   */\n  0x20\n    /* \"#utility.yul\":1036:1038   */\n  0x1f\n    /* \"#utility.yul\":1029:1034   */\n  dup4\n    /* \"#utility.yul\":1025:1039   */\n  add\n    /* \"#utility.yul\":1021:1044   */\n  div\n    /* \"#utility.yul\":1011:1044   */\n  swap1\n  pop\n    /* \"#utility.yul\":957:1050   */\n  swap2\n  swap1\n  pop\n  jump\t// out\n    /* \"#utility.yul\":1056:1163   */\ntag_27:\n    /* \"#utility.yul\":1100:1108   */\n  0x00\n    /* \"#utility.yul\":1150:1155   */\n  dup3\n    /* \"#utility.yul\":1144:1148   */\n  dup3\n    /* \"#utility.yul\":1140:1156   */\n  shl\n    /* \"#utility.yul\":1119:1156   */\n  swap1\n  pop\n    /* \"#utility.yul\":1056:1163   */\n  swap3\n  swap2\n  pop\n  pop\n  jump\t// out\n    /* \"#utility.yul\":1169:1562   */\ntag_28:\n    /* \"#utility.yul\":1238:1244   */\n  0x00\n    /* \"#utility.yul\":1288:1289   */\n  0x08\n    /* \"#utility.yul\":1276:1286   */\n  dup4\n    /* \"#utility.yul\":1272:1290   */\n  mul\n    /* \"#utility.yul\":1311:1408   */\n  tag_66\n    /* \"#utility.yul\":1341:1407   */\n  0xffffffffffffffffffffffffffffffffffffffffffffffffffffffffffffffff\n    /* \"#utility.yul\":1330:1339   */\n  dup3\n    /* \"#utility.yul\":1311:1408   */\n  tag_27\n  jump\t// in\ntag_66:\n    /* \"#utility.yul\":1429:1468   */\n  tag_67\n    /* \"#utility.yul\":1459:1467   */\n  dup7\n    /* \"#utility.yul\":1448:1457   */\n  dup4\n    /* \"#utility.yul\":1429:1468   */\n  tag_27\n  jump\t// in\ntag_67:\n    /* \"#utility.yul\":1417:1468   */\n  swap6\n  pop\n    /* \"#utility.yul\":1501:1505   */\n  dup1\n    /* \"#utility.yul\":1497:1506   */\n  not\n    /* \"#utility.yul\":1490:1495   */\n  dup5\n    /* \"#utility.yul\":1486:1507   */\n  and\n    /* \"#utility.yul\":1477:1507   */\n  swap4\n  pop\n    /* \"#utility.yul\":1550:1554   */\n  dup1\n    /* \"#utility.yul\":1540:1548   */\n  dup7\n    /* \"#utility.yul\":1536:1555   */\n  and\n    /* \"#utility.yul\":1529:1534   */\n  dup5\n    /* \"#utility.yul\":1526:1556   */\n  or\n    /* \"#utility.yul\":1516:1556   */\n  swap3\n  pop\n    /* \"#utility.yul\":1245:1562   */\n  pop\n  pop\n    /* \"#utility.yul\":1169:1562   */\n  swap4\n  swap3\n  pop\n  pop\n  pop\n  jump\t// out\n    /* \"#utility.yul\":1568:1645   */\ntag_29:\n    /* \"#utility.yul\":1605:1612   */\n  0x00\n    /* \"#utility.yul\":1634:1639   */\n  dup2\n    /* \"#utility.yul\":1623:1639   */\n  swap1\n  pop\n    /* \"#utility.yul\":1568:1645   */\n  swap2\n  swap1\n  pop\n  jump\t// out\n    /* \"#utility.yul\":1651:1711   */\ntag_30:\n    /* \"#utility.yul\":1679:1682   */\n  0x00\n    /* \"#utility.yul\":1700:1705   */\n  dup2\n    /* \"#utility.yul\":1693:1705   */\n  swap1\n  pop\n    /* \"#utility.yul\":1651:1711   */\n  swap2\n  swap1\n  pop\n  jump\t// out\n    /* \"#utility.yul\":1717:1859   */\ntag_31:\n    /* \"#utility.yul\":1767:1776   */\n  0x00\n    /* \"#utility.yul\":1800:1853   */\n  tag_71\n    /* \"#utility.yul\":1818:1852   */\n  tag_72\n    /* \"#utility.yul\":1827:1851   */\n  tag_73\n    /* \"#utility.yul\":1845:1850   */\n  dup5\n    /* \"#utility.yul\":1827:1851   */\n  tag_29\n  jump\t// in\ntag_73:\n    /* \"#utility.yul\":1818:1852   */\n  tag_30\n  jump\t// in\ntag_72:\n    /* \"#utility.yul\":1800:1853   */\n  tag_29\n  jump\t// in\ntag_71:\n    /* \"#utility.yul\":1787:1853   */\n  swap1\n  pop\n    /* \"#utility.yul\":1717:1859   */\n  swap2\n  swap1\n  pop\n  jump\t// out\n    /* \"#utility.yul\":1865:1940   */\ntag_32:\n    /* \"#utility.yul\":1908:1911   */\n  0x00\n    /* \"#utility.yul\":1929:1934   */\n  dup2\n    /* \"#utility.yul\":1922:1934   */\n  swap1\n  pop\n    /* \"#utility.yul\":1865:1940   */\n  swap2\n  swap1\n  pop\n  jump\t// out\n    /* \"#utility.yul\":1946:2215   */\ntag_33:\n    /* \"#utility.yul\":2056:2095   */\n  tag_76\n    /* \"#utility.yul\":2087:2094   */\n  dup4\n    /* \"#utility.yul\":2056:2095   */\n  tag_31\n  jump\t// in\ntag_76:\n    /* \"#utility.yul\":2117:2208   */\n  tag_77\n    /* \"#utility.yul\":2166:2207   */\n  tag_78\n    /* \"#utility.yul\":2190:2206   */\n  dup3\n    /* \"#utility.yul\":2166:2207   */\n  tag_32\n  jump\t// in\ntag_78:\n    /* \"#utility.yul\":2158:2164   */\n  dup5\n    /* \"#utility.yul\":2151:2155   */\n  dup5\n    /* \"#utility.yul\":2145:2156   */\n  sload\n    /* \"#utility.yul\":2117:2208   */\n  tag_28\n  jump\t// in\ntag_77:\n    /* \"#utility.yul\":2111:2115   */\n  dup3\n    /* \"#utility.yul\":2104:2209   */\n  sstore\n    /* \"#utility.yul\":2022:2215   */\n  pop\n    /* \"#utility.yul\":1946:2215   */\n  pop\n  pop\n  pop\n  jump\t// out\n    /* \"#utility.yul\":2221:2294   */\ntag_34:\n    /* \"#utility.yul\":2266:2269   */\n  0x00\n    /* \"#utility.yul\":2287:2288   */\n  0x00\n    /* \"#utility.yul\":2280:2288   */\n  swap1\n  pop\n    /* \"#utility.yul\":2221:2294   */\n  swap1\n  jump\t// out\n    /* \"#utility.yul\":2300:2489   */\ntag_35:\n    /* \"#utility.yul\":2377:2409   */\n  tag_81\n  tag_34\n  jump\t// in\ntag_81:\n    /* \"#utility.yul\":2418:2483   */\n  tag_82\n    /* \"#utility.yul\":2476:2482   */\n  dup2\n    /* \"#utility.yul\":2468:2474   */\n  dup5\n    /* \"#utility.yul\":2462:2466   */\n  dup5\n    /* \"#utility.yul\":2418:2483   */\n  tag_33\n  jump\t// in\ntag_82:\n    /* \"#utility.yul\":2353:2489   */\n  pop\n    /* \"#utility.yul\":2300:2489   */\n  pop\n  pop\n  jump\t// out\n    /* \"#utility.yul\":2495:2681   */\ntag_36:\n    /* \"#utility.yul\":2555:2675   */\ntag_84:\n    /* \"#utility.yul\":2572:2575   */\n  dup2\n    /* \"#utility.yul\":2565:2570   */\n  dup2\n    /* \"#utility.yul\":2562:2576   */\n  lt\n    /* \"#utility.yul\":2555:2675   */\n  iszero\n  tag_86\n  jumpi\n    /* \"#utility.yul\":2626:2665   */\n  tag_87\n    /* \"#utility.yul\":2663:2664   */\n  0x00\n    /* \"#utility.yul\":2656:2661   */\n  dup3\n    /* \"#utility.yul\":2626:2665   */\n  tag_35\n  jump\t// in\ntag_87:\n    /* \"#utility.yul\":2599:2600   */\n  0x01\n    /* \"#utility.yul\":2592:2597   */\n  dup2\n    /* \"#utility.yul\":2588:2601   */\n  add\n    /* \"#utility.yul\":2579:2601   */\n  swap1\n  pop\n    /* \"#utility.yul\":2555:2675   */\n  jump(tag_84)\ntag_86:\n    /* \"#utility.yul\":2495:2681   */\n  pop\n  pop\n  jump\t// out\n    /* \"#utility.yul\":2687:3230   */\ntag_37:\n    /* \"#utility.yul\":2788:2790   */\n  0x1f\n    /* \"#utility.yul\":2783:2786   */\n  dup3\n    /* \"#utility.yul\":2780:2791   */\n  gt\n    /* \"#utility.yul\":2777:3223   */\n  iszero\n  tag_89\n  jumpi\n    /* \"#utility.yul\":2822:2860   */\n  tag_90\n    /* \"#utility.yul\":2854:2859   */\n  dup2\n    /* \"#utility.yul\":2822:2860   */\n  tag_25\n  jump\t// in\ntag_90:\n    /* \"#utility.yul\":2906:2935   */\n  tag_91\n    /* \"#utility.yul\":2924:2934   */\n  dup5\n    /* \"#utility.yul\":2906:2935   */\n  tag_26\n  jump\t// in\ntag_91:\n    /* \"#utility.yul\":2896:2904   */\n  dup2\n    /* \"#utility.yul\":2892:2936   */\n  add\n    /* \"#utility.yul\":3089:3091   */\n  0x20\n    /* \"#utility.yul\":3077:3087   */\n  dup6\n    /* \"#utility.yul\":3074:3092   */\n  lt\n    /* \"#utility.yul\":3071:3120   */\n  iszero\n  tag_92\n  jumpi\n    /* \"#utility.yul\":3110:3118   */\n  dup2\n    /* \"#utility.yul\":3095:3118   */\n  swap1\n  pop\n    /* \"#utility.yul\":3071:3120   */\ntag_92:\n    /* \"#utility.yul\":3133:3213   */\n  tag_93\n    /* \"#utility.yul\":3189:3211   */\n  tag_94\n    /* \"#utility.yul\":3207:3210   */\n  dup6\n    /* \"#utility.yul\":3189:3211   */\n  tag_26\n  jump\t// in\ntag_94:\n    /* \"#utility.yul\":3179:3187   */\n  dup4\n    /* \"#utility.yul\":3175:3212   */\n  add\n    /* \"#utility.yul\":3162:3173   */\n  dup3\n    /* \"#utility.yul\":3133:3213   */\n  tag_36\n  jump\t// in\ntag_93:\n    /* \"#utility.yul\":2792:3223   */\n  pop\n  pop\n    /* \"#utility.yul\":2777:3223   */\ntag_89:\n    /* \"#utility.yul\":2687:3230   */\n  pop\n  pop\n  pop\n  jump\t// out\n    /* \"#utility.yul\":3236:3353   */\ntag_38:\n    /* \"#utility.yul\":3290:3298   */\n  0x00\n    /* \"#utility.yul\":3340:3345   */\n  dup3\n    /* \"#utility.yul\":3334:3338   */\n  dup3\n    /* \"#utility.yul\":3330:3346   */\n  shr\n    /* \"#utility.yul\":3309:3346   */\n  swap1\n  pop\n    /* \"#utility.yul\":3236:3353   */\n  swap3\n  swap2\n  pop\n  pop\n  jump\t// out\n    /* \"#utility.yul\":3359:3528   */\ntag_39:\n    /* \"#utility.yul\":3403:3409   */\n  0x00\n    /* \"#utility.yul\":3436:3487   */\n  tag_97\n    /* \"#utility.yul\":3484:3485   */\n  0x00\n    /* \"#utility.yul\":3480:3486   */\n  not\n    /* \"#utility.yul\":3472:3477   */\n  dup5\n    /* \"#utility.yul\":3469:3470   */\n  0x08\n    /* \"#utility.yul\":3465:3478   */\n  mul\n    /* \"#utility.yul\":3436:3487   */\n  tag_38\n  jump\t// in\ntag_97:\n    /* \"#utility.yul\":3432:3488   */\n  not\n    /* \"#utility.yul\":3517:3521   */\n  dup1\n    /* \"#utility.yul\":3511:3515   */\n  dup4\n    /* \"#utility.yul\":3507:3522   */\n  and\n    /* \"#utility.yul\":3497:3522   */\n  swap2\n  pop\n    /* \"#utility.yul\":3410:3528   */\n  pop\n    /* \"#utility.yul\":3359:3528   */\n  swap3\n  swap2\n  pop\n  pop\n  jump\t// out\n    /* \"#utility.yul\":3533:3828   */\ntag_40:\n    /* \"#utility.yul\":3609:3613   */\n  0x00\n    /* \"#utility.yul\":3755:3784   */\n  tag_99\n    /* \"#utility.yul\":3780:3783   */\n  dup4\n    /* \"#utility.yul\":3774:3778   */\n  dup4\n    /* \"#utility.yul\":3755:3784   */\n  tag_39\n  jump\t// in\ntag_99:\n    /* \"#utility.yul\":3747:3784   */\n  swap2\n  pop\n    /* \"#utility.yul\":3817:3820   */\n  dup3\n    /* \"#utility.yul\":3814:3815   */\n  0x02\n    /* \"#utility.yul\":3810:3821   */\n  mul\n    /* \"#utility.yul\":3804:3808   */\n  dup3\n    /* \"#utility.yul\":3801:3822   */\n  or\n    /* \"#utility.yul\":3793:3822   */\n  swap1\n  pop\n    /* \"#utility.yul\":3533:3828   */\n  swap3\n  swap2\n  pop\n  pop\n  jump\t// out\n    /* \"#utility.yul\":3833:5228   */\ntag_2:\n    /* \"#utility.yul\":3950:3987   */\n  tag_101\n    /* \"#utility.yul\":3983:3986   */\n  dup3\n    /* \"#utility.yul\":3950:3987   */\n  tag_21\n  jump\t// in\ntag_101:\n    /* \"#utility.yul\":4052:4070   */\n  0xffffffffffffffff\n    /* \"#utility.yul\":4044:4050   */\n  dup2\n    /* \"#utility.yul\":4041:4071   */\n  gt\n    /* \"#utility.yul\":4038:4094   */\n  iszero\n  tag_102\n  jumpi\n    /* \"#utility.yul\":4074:4092   */\n  tag_103\n  tag_22\n  jump\t// in\ntag_103:\n    /* \"#utility.yul\":4038:4094   */\ntag_102:\n    /* \"#utility.yul\":4118:4156   */\n  tag_104\n    /* \"#utility.yul\":4150:4154   */\n  dup3\n    /* \"#utility.yul\":4144:4155   */\n  sload\n    /* \"#utility.yul\":4118:4156   */\n  tag_24\n  jump\t// in\ntag_104:\n    /* \"#utility.yul\":4203:4270   */\n  tag_105\n    /* \"#utility.yul\":4263:4269   */\n  dup3\n    /* \"#utility.yul\":4255:4261   */\n  dup3\n    /* \"#utility.yul\":4249:4253   */\n  dup6\n    /* \"#utility.yul\":4203:4270   */\n  tag_37\n  jump\t// in\ntag_105:\n    /* \"#utility.yul\":4297:4298   */\n  0x00\n    /* \"#utility.yul\":4321:4325   */\n  0x20\n    /* \"#utility.yul\":4308:4325   */\n  swap1\n  pop\n    /* \"#utility.yul\":4353:4355   */\n  0x1f\n    /* \"#utility.yul\":4345:4351   */\n  dup4\n    /* \"#utility.yul\":4342:4356   */\n  gt\n    /* \"#utility.yul\":4370:4371   */\n  0x01\n    /* \"#utility.yul\":4365:4983   */\n  dup2\n  eq\n  tag_107\n  jumpi\n    /* \"#utility.yul\":5027:5028   */\n  0x00\n    /* \"#utility.yul\":5044:5050   */\n  dup5\n    /* \"#utility.yul\":5041:5118   */\n  iszero\n  tag_108\n  jumpi\n    /* \"#utility.yul\":5093:5102   */\n  dup3\n    /* \"#utility.yul\":5088:5091   */\n  dup8\n    /* \"#utility.yul\":5084:5103   */\n  add\n    /* \"#utility.yul\":5078:5104   */\n  mload\n    /* \"#utility.yul\":5069:5104   */\n  swap1\n  pop\n    /* \"#utility.yul\":5041:5118   */\ntag_108:\n    /* \"#utility.yul\":5144:5211   */\n  tag_109\n    /* \"#utility.yul\":5204:5210   */\n  dup6\n    /* \"#utility.yul\":5197:5202   */\n  dup3\n    /* \"#utility.yul\":5144:5211   */\n  tag_40\n  jump\t// in\ntag_109:\n    /* \"#utility.yul\":5138:5142   */\n  dup7\n    /* \"#utility.yul\":5131:5212   */\n  sstore\n    /* \"#utility.yul\":5000:5222   */\n  pop\n    /* \"#utility.yul\":4335:5222   */\n  jump(tag_106)\n    /* \"#utility.yul\":4365:4983   */\ntag_107:\n    /* \"#utility.yul\":4417:4421   */\n  0x1f\n    /* \"#utility.yul\":4413:4422   */\n  not\n    /* \"#utility.yul\":4405:4411   */\n  dup5\n    /* \"#utility.yul\":4401:4423   */\n  and\n    /* \"#utility.yul\":4451:4488   */\n  tag_110\n    /* \"#utility.yul\":4483:4487   */\n  dup7\n    /* \"#utility.yul\":4451:4488   */\n  tag_25\n  jump\t// in\ntag_110:\n    /* \"#utility.yul\":4510:4511   */\n  0x00\n    /* \"#utility.yul\":4524:4732   */\ntag_111:\n    /* \"#utility.yul\":4538:4545   */\n  dup3\n    /* \"#utility.yul\":4535:4536   */\n  dup2\n    /* \"#utility.yul\":4532:4546   */\n  lt\n    /* \"#utility.yul\":4524:4732   */\n  iszero\n  tag_113\n  jumpi\n    /* \"#utility.yul\":4617:4626   */\n  dup5\n    /* \"#utility.yul\":4612:4615   */\n  dup10\n    /* \"#utility.yul\":4608:4627   */\n  add\n    /* \"#utility.yul\":4602:4628   */\n  mload\n    /* \"#utility.yul\":4594:4600   */\n  dup3\n    /* \"#utility.yul\":4587:4629   */\n  sstore\n    /* \"#utility.yul\":4668:4669   */\n  0x01\n    /* \"#utility.yul\":4660:4666   */\n  dup3\n    /* \"#utility.yul\":4656:4670   */\n  add\n    /* \"#utility.yul\":4646:4670   */\n  swap2\n  pop\n    /* \"#utility.yul\":4715:4717   */\n  0x20\n    /* \"#utility.yul\":4704:4713   */\n  dup6\n    /* \"#utility.yul\":4700:4718   */\n  add\n    /* \"#utility.yul\":4687:4718   */\n  swap5\n  pop\n    /* \"#utility.yul\":4561:4565   */\n  0x20\n    /* \"#utility.yul\":4558:4559   */\n  dup2\n    /* \"#utility.yul\":4554:4566   */\n  add\n    /* \"#utility.yul\":4549:4566   */\n  swap1\n  pop\n    /* \"#utility.yul\":4524:4732   */\n  jump(tag_111)\ntag_113:\n    /* \"#utility.yul\":4760:4766   */\n  dup7\n    /* \"#utility.yul\":4751:4758   */\n  dup4\n    /* \"#utility.yul\":4748:4767   */\n  lt\n    /* \"#utility.yul\":4745:4924   */\n  iszero\n  tag_114\n  jumpi\n    /* \"#utility.yul\":4818:4827   */\n  dup5\n    /* \"#utility.yul\":4813:4816   */\n  dup10\n    /* \"#utility.yul\":4809:4828   */\n  add\n    /* \"#utility.yul\":4803:4829   */\n  mload\n    /* \"#utility.yul\":4861:4909   */\n  tag_115\n    /* \"#utility.yul\":4903:4907   */\n  0x1f\n    /* \"#utility.yul\":4895:4901   */\n  dup10\n    /* \"#utility.yul\":4891:4908   */\n  and\n    /* \"#utility.yul\":4880:4889   */\n  dup3\n    /* \"#utility.yul\":4861:4909   */\n  tag_39\n  jump\t// in\ntag_115:\n    /* \"#utility.yul\":4853:4859   */\n  dup4\n    /* \"#utility.yul\":4846:4910   */\n  sstore\n    /* \"#utility.yul\":4768:4924   */\n  pop\n    /* \"#utility.yul\":4745:4924   */\ntag_114:\n    /* \"#utility.yul\":4970:4971   */\n  0x01\n    /* \"#utility.yul\":4966:4967   */\n  0x02\n    /* \"#utility.yul\":4958:4964   */\n  dup9\n    /* \"#utility.yul\":4954:4968   */\n  mul\n    /* \"#utility.yul\":4950:4972   */\n  add\n    /* \"#utility.yul\":4944:4948   */\n  dup9\n    /* \"#utility.yul\":4937:4973   */\n  sstore\n    /* \"#utility.yul\":4372:4983   */\n  pop\n  pop\n  pop\n    /* \"#utility.yul\":4335:5222   */\ntag_106:\n  pop\n    /* \"#utility.yul\":3925:5228   */\n  pop\n  pop\n  pop\n    /* \"#utility.yul\":3833:5228   */\n  pop\n  pop\n  jump\t// out\n    /* \"#utility.yul\":5234:5414   */\ntag_41:\n    /* \"#utility.yul\":5282:5359   */\n  0x4e487b7100000000000000000000000000000000000000000000000000000000\n    /* \"#utility.yul\":5279:5280   */\n  0x00\n    /* \"#utility.yul\":5272:5360   */\n  mstore\n    /* \"#utility.yul\":5379:5383   */\n  0x11\n    /* \"#utility.yul\":5376:5377   */\n  0x04\n    /* \"#utility.yul\":5369:5384   */\n  mstore\n    /* \"#utility.yul\":5403:5407   */\n  0x24\n    /* \"#utility.yul\":5400:5401   */\n  0x00\n    /* \"#utility.yul\":5393:5408   */\n  revert\n    /* \"#utility.yul\":5420:5522   */\ntag_42:\n    /* \"#utility.yul\":5462:5470   */\n  0x00\n    /* \"#utility.yul\":5509:5514   */\n  dup2\n    /* \"#utility.yul\":5506:5507   */\n  0x01\n    /* \"#utility.yul\":5502:5515   */\n  shr\n    /* \"#utility.yul\":5481:5515   */\n  swap1\n  pop\n    /* \"#utility.yul\":5420:5522   */\n  swap2\n  swap1\n  pop\n  jump\t// out\n    /* \"#utility.yul\":5528:6376   */\ntag_43:\n    /* \"#utility.yul\":5589:5594   */\n  0x00\n    /* \"#utility.yul\":5596:5600   */\n  0x00\n    /* \"#utility.yul\":5620:5626   */\n  dup3\n    /* \"#utility.yul\":5611:5626   */\n  swap2\n  pop\n    /* \"#utility.yul\":5644:5649   */\n  dup4\n    /* \"#utility.yul\":5635:5649   */\n  swap1\n  pop\n    /* \"#utility.yul\":5658:6370   */\ntag_119:\n    /* \"#utility.yul\":5679:5680   */\n  0x01\n    /* \"#utility.yul\":5669:5677   */\n  dup6\n    /* \"#utility.yul\":5666:5681   */\n  gt\n    /* \"#utility.yul\":5658:6370   */\n  iszero\n  tag_121\n  jumpi\n    /* \"#utility.yul\":5774:5778   */\n  dup1\n    /* \"#utility.yul\":5769:5772   */\n  dup7\n    /* \"#utility.yul\":5765:5779   */\n  div\n    /* \"#utility.yul\":5759:5763   */\n  dup2\n    /* \"#utility.yul\":5756:5780   */\n  gt\n    /* \"#utility.yul\":5753:5803   */\n  iszero\n  tag_122\n  jumpi\n    /* \"#utility.yul\":5783:5801   */\n  tag_123\n  tag_41\n  jump\t// in\ntag_123:\n    /* \"#utility.yul\":5753:5803   */\ntag_122:\n    /* \"#utility.yul\":5833:5834   */\n  0x01\n    /* \"#utility.yul\":5823:5831   */\n  dup6\n    /* \"#utility.yul\":5819:5835   */\n  and\n    /* \"#utility.yul\":5816:6267   */\n  iszero\n  tag_124\n  jumpi\n    /* \"#utility.yul\":6248:6252   */\n  dup1\n    /* \"#utility.yul\":6241:6246   */\n  dup3\n    /* \"#utility.yul\":6237:6253   */\n  mul\n    /* \"#utility.yul\":6228:6253   */\n  swap2\n  pop\n    /* \"#utility.yul\":5816:6267   */\ntag_124:\n    /* \"#utility.yul\":6298:6302   */\n  dup1\n    /* \"#utility.yul\":6292:6296   */\n  dup2\n    /* \"#utility.yul\":6288:6303   */\n  mul\n    /* \"#utility.yul\":6280:6303   */\n  swap1\n  pop\n    /* \"#utility.yul\":6328:6360   */\n  tag_125\n    /* \"#utility.yul\":6351:6359   */\n  dup6\n    /* \"#utility.yul\":6328:6360   */\n  tag_42\n  jump\t// in\ntag_125:\n    /* \"#utility.yul\":6316:6360   */\n  swap5\n  pop\n    /* \"#utility.yul\":5658:6370   */\n  jump(tag_119)\ntag_121:\n    /* \"#utility.yul\":5528:6376   */\n  swap5\n  pop\n  swap5\n  swap3\n  pop\n  pop\n  pop\n  jump\t// out\n    /* \"#utility.yul\":6382:7455   */\ntag_44:\n    /* \"#utility.yul\":6436:6441   */\n  0x00\n    /* \"#utility.yul\":6627:6635   */\n  dup3\n    /* \"#utility.yul\":6617:6657   */\n  tag_127\n  jumpi\n    /* \"#utility.yul\":6648:6649   */\n  0x01\n    /* \"#utility.yul\":6639:6649   */\n  swap1\n  pop\n    /* \"#utility.yul\":6650:6655   */\n  jump(tag_126)\n    /* \"#utility.yul\":6617:6657   */\ntag_127:\n    /* \"#utility.yul\":6676:6680   */\n  dup2\n    /* \"#utility.yul\":6666:6702   */\n  tag_128\n  jumpi\n    /* \"#utility.yul\":6693:6694   */\n  0x00\n    /* \"#utility.yul\":6684:6694   */\n  swap1\n  pop\n    /* \"#utility.yul\":6695:6700   */\n  jump(tag_126)\n    /* \"#utility.yul\":6666:6702   */\ntag_128:\n    /* \"#utility.yul\":6762:6766   */\n  dup2\n    /* \"#utility.yul\":6810:6811   */\n  0x01\n    /* \"#utility.yul\":6805:6832   */\n  dup2\n  eq\n  tag_130\n  jumpi\n    /* \"#utility.yul\":6846:6847   */\n  0x02\n    /* \"#utility.yul\":6841:7032   */\n  dup2\n  eq\n  tag_131\n  jumpi\n    /* \"#utility.yul\":6755:7032   */\n  jump(tag_129)\n    /* \"#utility.yul\":6805:6832   */\ntag_130:\n    /* \"#utility.yul\":6823:6824   */\n  0x01\n    /* \"#utility.yul\":6814:6824   */\n  swap2\n  pop\n    /* \"#utility.yul\":6825:6830   */\n  pop\n  jump(tag_126)\n    /* \"#utility.yul\":6841:7032   */\ntag_131:\n    /* \"#utility.yul\":6886:6889   */\n  0xff\n    /* \"#utility.yul\":6876:6884   */\n  dup5\n    /* \"#utility.yul\":6873:6890   */\n  gt\n    /* \"#utility.yul\":6870:6913   */\n  iszero\n  tag_132\n  jumpi\n    /* \"#utility.yul\":6893:6911   */\n  tag_133\n  tag_41\n  jump\t// in\ntag_133:\n    /* \"#utility.yul\":6870:6913   */\ntag_132:\n    /* \"#utility.yul\":6942:6950   */\n  dup4\n    /* \"#utility.yul\":6939:6940   */\n  0x02\n    /* \"#utility.yul\":6935:6951   */\n  exp\n    /* \"#utility.yul\":6926:6951   */\n  swap2\n  pop\n    /* \"#utility.yul\":6977:6980   */\n  dup5\n    /* \"#utility.yul\":6970:6975   */\n  dup3\n    /* \"#utility.yul\":6967:6981   */\n  gt\n    /* \"#utility.yul\":6964:7004   */\n  iszero\n  tag_134\n  jumpi\n    /* \"#utility.yul\":6984:7002   */\n  tag_135\n  tag_41\n  jump\t// in\ntag_135:\n    /* \"#utility.yul\":6964:7004   */\ntag_134:\n    /* \"#utility.yul\":7017:7022   */\n  pop\n  jump(tag_126)\n    /* \"#utility.yul\":6755:7032   */\ntag_129:\n  pop\n    /* \"#utility.yul\":7141:7143   */\n  0x20\n    /* \"#utility.yul\":7131:7139   */\n  dup4\n    /* \"#utility.yul\":7128:7144   */\n  lt\n    /* \"#utility.yul\":7122:7125   */\n  0x0133\n    /* \"#utility.yul\":7116:7120   */\n  dup4\n    /* \"#utility.yul\":7113:7126   */\n  lt\n    /* \"#utility.yul\":7109:7145   */\n  and\n    /* \"#utility.yul\":7091:7093   */\n  0x4e\n    /* \"#utility.yul\":7081:7089   */\n  dup5\n    /* \"#utility.yul\":7078:7094   */\n  lt\n    /* \"#utility.yul\":7073:7075   */\n  0x0b\n    /* \"#utility.yul\":7067:7071   */\n  dup5\n    /* \"#utility.yul\":7064:7076   */\n  lt\n    /* \"#utility.yul\":7060:7095   */\n  and\n    /* \"#utility.yul\":7044:7155   */\n  or\n    /* \"#utility.yul\":7041:7287   */\n  iszero\n  tag_136\n  jumpi\n    /* \"#utility.yul\":7197:7205   */\n  dup3\n    /* \"#utility.yul\":7191:7195   */\n  dup3\n    /* \"#utility.yul\":7187:7206   */\n  exp\n    /* \"#utility.yul\":7178:7206   */\n  swap1\n  pop\n    /* \"#utility.yul\":7232:7235   */\n  dup4\n    /* \"#utility.yul\":7225:7230   */\n  dup2\n    /* \"#utility.yul\":7222:7236   */\n  gt\n    /* \"#utility.yul\":7219:7259   */\n  iszero\n  tag_137\n  jumpi\n    /* \"#utility.yul\":7239:7257   */\n  tag_138\n  tag_41\n  jump\t// in\ntag_138:\n    /* \"#utility.yul\":7219:7259   */\ntag_137:\n    /* \"#utility.yul\":7272:7277   */\n  jump(tag_126)\n    /* \"#utility.yul\":7041:7287   */\ntag_136:\n    /* \"#utility.yul\":7312:7354   */\n  tag_139\n    /* \"#utility.yul\":7350:7353   */\n  dup5\n    /* \"#utility.yul\":7340:7348   */\n  dup5\n    /* \"#utility.yul\":7334:7338   */\n  dup5\n    /* \"#utility.yul\":7331:7332   */\n  0x01\n    /* \"#utility.yul\":7312:7354   */\n  tag_43\n  jump\t// in\ntag_139:\n    /* \"#utility.yul\":7297:7354   */\n  swap3\n  pop\n  swap1\n  pop\n    /* \"#utility.yul\":7386:7390   */\n  dup2\n    /* \"#utility.yul\":7381:7384   */\n  dup5\n    /* \"#utility.yul\":7377:7391   */\n  div\n    /* \"#utility.yul\":7370:7375   */\n  dup2\n    /* \"#utility.yul\":7367:7392   */\n  gt\n    /* \"#utility.yul\":7364:7415   */\n  iszero\n  tag_140\n  jumpi\n    /* \"#utility.yul\":7395:7413   */\n  tag_141\n  tag_41\n  jump\t// in\ntag_141:\n    /* \"#utility.yul\":7364:7415   */\ntag_140:\n    /* \"#utility.yul\":7444:7448   */\n  dup2\n    /* \"#utility.yul\":7437:7442   */\n  dup2\n    /* \"#utility.yul\":7433:7449   */\n  mul\n    /* \"#utility.yul\":7424:7449   */\n  swap1\n  pop\n    /* \"#utility.yul\":6382:7455   */\ntag_126:\n  swap4\n  swap3\n  pop\n  pop\n  pop\n  jump\t// out\n    /* \"#utility.yul\":7461:7746   */\ntag_5:\n    /* \"#utility.yul\":7521:7526   */\n  0x00\n    /* \"#utility.yul\":7545:7568   */\n  tag_143\n    /* \"#utility.yul\":7563:7567   */\n  dup3\n    /* \"#utility.yul\":7545:7568   */\n  tag_29\n  jump\t// in\ntag_143:\n    /* \"#utility.yul\":7537:7568   */\n  swap2\n  pop\n    /* \"#utility.yul\":7589:7616   */\n  tag_144\n    /* \"#utility.yul\":7607:7615   */\n  dup4\n    /* \"#utility.yul\":7589:7616   */\n  tag_29\n  jump\t// in\ntag_144:\n    /* \"#utility.yul\":7577:7616   */\n  swap3\n  pop\n    /* \"#utility.yul\":7635:7739   */\n  tag_145\n    /* \"#utility.yul\":7672:7738   */\n  0xffffffffffffffffffffffffffffffffffffffffffffffffffffffffffffffff\n    /* \"#utility.yul\":7662:7670   */\n  dup5\n    /* \"#utility.yul\":7656:7660   */\n  dup5\n    /* \"#utility.yul\":7635:7739   */\n  tag_44\n  jump\t// in\ntag_145:\n    /* \"#utility.yul\":7626:7739   */\n  swap1\n  pop\n    /* \"#utility.yul\":7461:7746   */\n  swap3\n  swap2\n  pop\n  pop\n  jump\t// out\n    /* \"#utility.yul\":7752:8162   */\ntag_7:\n    /* \"#utility.yul\":7792:7799   */\n  0x00\n    /* \"#utility.yul\":7815:7835   */\n  tag_147\n    /* \"#utility.yul\":7833:7834   */\n  dup3\n    /* \"#utility.yul\":7815:7835   */\n  tag_29\n  jump\t// in\ntag_147:\n    /* \"#utility.yul\":7810:7835   */\n  swap2\n  pop\n    /* \"#utility.yul\":7849:7869   */\n  tag_148\n    /* \"#utility.yul\":7867:7868   */\n  dup4\n    /* \"#utility.yul\":7849:7869   */\n  tag_29\n  jump\t// in\ntag_148:\n    /* \"#utility.yul\":7844:7869   */\n  swap3\n  pop\n    /* \"#utility.yul\":7904:7905   */\n  dup3\n    /* \"#utility.yul\":7901:7902   */\n  dup3\n    /* \"#utility.yul\":7897:7906   */\n  mul\n    /* \"#utility.yul\":7926:7956   */\n  tag_149\n    /* \"#utility.yul\":7944:7955   */\n  dup2\n    /* \"#utility.yul\":7926:7956   */\n  tag_29\n  jump\t// in\ntag_149:\n    /* \"#utility.yul\":7915:7956   */\n  swap2\n  pop\n    /* \"#utility.yul\":8105:8106   */\n  dup3\n    /* \"#utility.yul\":8096:8103   */\n  dup3\n    /* \"#utility.yul\":8092:8107   */\n  div\n    /* \"#utility.yul\":8089:8090   */\n  dup5\n    /* \"#utility.yul\":8086:8108   */\n  eq\n    /* \"#utility.yul\":8066:8067   */\n  dup4\n    /* \"#utility.yul\":8059:8068   */\n  iszero\n    /* \"#utility.yul\":8039:8122   */\n  or\n    /* \"#utility.yul\":8016:8155   */\n  tag_150\n  jumpi\n    /* \"#utility.yul\":8135:8153   */\n  tag_151\n  tag_41\n  jump\t// in\ntag_151:\n    /* \"#utility.yul\":8016:8155   */\ntag_150:\n    /* \"#utility.yul\":7800:8162   */\n  pop\n    /* \"#utility.yul\":7752:8162   */\n  swap3\n  swap2\n  pop\n  pop\n  jump\t// out\n    /* \"#utility.yul\":8249:8366   */\ntag_46:\n    /* \"#utility.yul\":8358:8359   */\n  0x00\n    /* \"#utility.yul\":8355:8356   */\n  0x00\n    /* \"#utility.yul\":8348:8360   */\n  revert\n    /* \"#utility.yul\":8495:8617   */\ntag_48:\n    /* \"#utility.yul\":8568:8592   */\n  tag_156\n    /* \"#utility.yul\":8586:8591   */\n  dup2\n    /* \"#utility.yul\":8568:8592   */\n  tag_29\n  jump\t// in\ntag_156:\n    /* \"#utility.yul\":8561:8566   */\n  dup2\n    /* \"#utility.yul\":8558:8593   */\n  eq\n    /* \"#utility.yul\":8548:8611   */\n  tag_157\n  jumpi\n    /* \"#utility.yul\":8607:8608   */\n  0x00\n    /* \"#utility.yul\":8604:8605   */\n  0x00\n    /* \"#utility.yul\":8597:8609   */\n  revert\n    /* \"#utility.yul\":8548:8611   */\ntag_157:\n    /* \"#utility.yul\":8495:8617   */\n  pop\n  jump\t// out\n    /* \"#utility.yul\":8623:8766   */\ntag_49:\n    /* \"#utility.yul\":8680:8685   */\n  0x00\n    /* \"#utility.yul\":8711:8717   */\n  dup2\n    /* \"#utility.yul\":8705:8718   */\n  mload\n    /* \"#utility.yul\":8696:8718   */\n  swap1\n  pop\n    /* \"#utility.yul\":8727:8760   */\n  tag_159\n    /* \"#utility.yul\":8754:8759   */\n  dup2\n    /* \"#utility.yul\":8727:8760   */\n  tag_48\n  jump\t// in\ntag_159:\n    /* \"#utility.yul\":8623:8766   */\n  swap3\n  swap2\n  pop\n  pop\n  jump\t// out\n    /* \"#utility.yul\":8772:9123   */\ntag_10:\n    /* \"#utility.yul\":8842:8848   */\n  0x00\n    /* \"#utility.yul\":8891:8893   */\n  0x20\n    /* \"#utility.yul\":8879:8888   */\n  dup3\n    /* \"#utility.yul\":8870:8877   */\n  dup5\n    /* \"#utility.yul\":8866:8889   */\n  sub\n    /* \"#utility.yul\":8862:8894   */\n  slt\n    /* \"#utility.yul\":8859:8978   */\n  iszero\n  tag_161\n  jumpi\n    /* \"#utility.yul\":8897:8976   */\n  tag_162\n  tag_46\n  jump\t// in\ntag_162:\n    /* \"#utility.yul\":8859:8978   */\ntag_161:\n    /* \"#utility.yul\":9017:9018   */\n  0x00\n    /* \"#utility.yul\":9042:9106   */\n  tag_163\n    /* \"#utility.yul\":9098:9105   */\n  dup5\n    /* \"#utility.yul\":9089:9095   */\n  dup3\n    /* \"#utility.yul\":9078:9087   */\n  dup6\n    /* \"#utility.yul\":9074:9096   */\n  add\n    /* \"#utility.yul\":9042:9106   */\n  tag_49\n  jump\t// in\ntag_163:\n    /* \"#utility.yul\":9032:9106   */\n  swap2\n  pop\n    /* \"#utility.yul\":8988:9116   */\n  pop\n    /* \"#utility.yul\":8772:9123   */\n  swap3\n  swap2\n  pop\n  pop\n  jump\t// out\n    /* \"#utility.yul\":9129:9298   */\ntag_50:\n    /* \"#utility.yul\":9213:9224   */\n  0x00\n    /* \"#utility.yul\":9247:9253   */\n  dup3\n    /* \"#utility.yul\":9242:9245   */\n  dup3\n    /* \"#utility.yul\":9235:9254   */\n  mstore\n    /* \"#utility.yul\":9287:9291   */\n  0x20\n    /* \"#utility.yul\":9282:9285   */\n  dup3\n    /* \"#utility.yul\":9278:9292   */\n  add\n    /* \"#utility.yul\":9263:9292   */\n  swap1\n  pop\n    /* \"#utility.yul\":9129:9298   */\n  swap3\n  swap2\n  pop\n  pop\n  jump\t// out\n    /* \"#utility.yul\":9304:9472   */\ntag_51:\n    /* \"#utility.yul\":9444:9464   */\n  0x45786365656473206d617820737570706c790000000000000000000000000000\n    /* \"#utility.yul\":9440:9441   */\n  0x00\n    /* \"#utility.yul\":9432:9438   */\n  dup3\n    /* \"#utility.yul\":9428:9442   */\n  add\n    /* \"#utility.yul\":9421:9465   */\n  mstore\n    /* \"#utility.yul\":9304:9472   */\n  pop\n  jump\t// out\n    /* \"#utility.yul\":9478:9844   */\ntag_52:\n    /* \"#utility.yul\":9620:9623   */\n  0x00\n    /* \"#utility.yul\":9641:9708   */\n  tag_167\n    /* \"#utility.yul\":9705:9707   */\n  0x12\n    /* \"#utility.yul\":9700:9703   */\n  dup4\n    /* \"#utility.yul\":9641:9708   */\n  tag_50\n  jump\t// in\ntag_167:\n    /* \"#utility.yul\":9634:9708   */\n  swap2\n  pop\n    /* \"#utility.yul\":9717:9810   */\n  tag_168\n    /* \"#utility.yul\":9806:9809   */\n  dup3\n    /* \"#utility.yul\":9717:9810   */\n  tag_51\n  jump\t// in\ntag_168:\n    /* \"#utility.yul\":9835:9837   */\n  0x20\n    /* \"#utility.yul\":9830:9833   */\n  dup3\n    /* \"#utility.yul\":9826:9838   */\n  add\n    /* \"#utility.yul\":9819:9838   */\n  swap1\n  pop\n    /* \"#utility.yul\":9478:9844   */\n  swap2\n  swap1\n  pop\n  jump\t// out\n    /* \"#utility.yul\":9850:10269   */\ntag_17:\n    /* \"#utility.yul\":10016:10020   */\n  0x00\n    /* \"#utility.yul\":10054:10056   */\n  0x20\n    /* \"#utility.yul\":10043:10052   */\n  dup3\n    /* \"#utility.yul\":10039:10057   */\n  add\n    /* \"#utility.yul\":10031:10057   */\n  swap1\n  pop\n    /* \"#utility.yul\":10103:10112   */\n  dup2\n    /* \"#utility.yul\":10097:10101   */\n  dup2\n    /* \"#utility.yul\":10093:10113   */\n  sub\n    /* \"#utility.yul\":10089:10090   */\n  0x00\n    /* \"#utility.yul\":10078:10087   */\n  dup4\n    /* \"#utility.yul\":10074:10091   */\n  add\n    /* \"#utility.yul\":10067:10114   */\n  mstore\n    /* \"#utility.yul\":10131:10262   */\n  tag_170\n    /* \"#utility.yul\":10257:10261   */\n  dup2\n    /* \"#utility.yul\":10131:10262   */\n  tag_52\n  jump\t// in\ntag_170:\n    /* \"#utility.yul\":10123:10262   */\n  swap1\n  pop\n    /* \"#utility.yul\":9850:10269   */\n  swap2\n  swap1\n  pop\n  jump\t// out\n    /* \"#utility.yul\":10275:10393   */\ntag_53:\n    /* \"#utility.yul\":10362:10386   */\n  tag_172\n    /* \"#utility.yul\":10380:10385   */\n  dup2\n    /* \"#utility.yul\":10362:10386   */\n  tag_29\n  jump\t// in\ntag_172:\n    /* \"#utility.yul\":10357:10360   */\n  dup3\n    /* \"#utility.yul\":10350:10387   */\n  mstore\n    /* \"#utility.yul\":10275:10393   */\n  pop\n  pop\n  jump\t// out\n    /* \"#utility.yul\":10399:10621   */\ntag_19:\n    /* \"#utility.yul\":10492:10496   */\n  0x00\n    /* \"#utility.yul\":10530:10532   */\n  0x20\n    /* \"#utility.yul\":10519:10528   */\n  dup3\n    /* \"#utility.yul\":10515:10533   */\n  add\n    /* \"#utility.yul\":10507:10533   */\n  swap1\n  pop\n    /* \"#utility.yul\":10543:10614   */\n  tag_174\n    /* \"#utility.yul\":10611:10612   */\n  0x00\n    /* \"#utility.yul\":10600:10609   */\n  dup4\n    /* \"#utility.yul\":10596:10613   */\n  add\n    /* \"#utility.yul\":10587:10593   */\n  dup5\n    /* \"#utility.yul\":10543:10614   */\n  tag_53\n  jump\t// in\ntag_174:\n    /* \"#utility.yul\":10399:10621   */\n  swap3\n  swap2\n  pop\n  pop\n  jump\t// out\n    /* \"submissions/MeseretBirhanu/day12/AthenaToken.sol\":386:2035  contract AthenaToken is IERC20 {... */\ntag_20:\n  dataSize(sub_0)\n  dup1\n  dataOffset(sub_0)\n  0x00\n  codecopy\n  0x00\n  return\nstop\n\nsub_0: assembly {\n        /* \"submissions/MeseretBirhanu/day12/AthenaToken.sol\":386:2035  contract AthenaToken is IERC20 {... */\n      mstore(0x40, 0x80)\n      callvalue\n      dup1\n      iszero\n      tag_1\n      jumpi\n      revert(0x00, 0x00)\n    tag_1:\n      pop\n      jumpi(tag_2, lt(calldatasize, 0x04))\n      shr(0xe0, calldataload(0x00))\n      dup1\n      0x8da5cb5b\n      gt\n      tag_12\n      jumpi\n      dup1\n      0x8da5cb5b\n      eq\n      tag_7\n      jumpi\n      dup1\n      0x95d89b41\n      eq\n      tag_8\n      jumpi\n      dup1\n      0xa0712d68\n      eq\n      tag_9\n      jumpi\n      dup1\n      0xa9059cbb\n      eq\n      tag_10\n      jumpi\n      dup1\n      0xd5abeb01\n      eq\n      tag_11\n      jumpi\n      jump(tag_2)\n    tag_12:\n      dup1\n      0x06fdde03\n      eq\n      tag_3\n      jumpi\n      dup1\n      0x18160ddd\n      eq\n      tag_4\n      jumpi\n      dup1\n      0x313ce567\n      eq\n      tag_5\n      jumpi\n      dup1\n      0x70a08231\n      eq\n      tag_6\n      jumpi\n    tag_2:\n      revert(0x00, 0x00)\n        /* \"submissions/MeseretBirhanu/day12/AthenaToken.sol\":424:459  string public name = \"Athena Token\" */\n    tag_3:\n      tag_13\n      tag_14\n      jump\t// in\n    tag_13:\n      mload(0x40)\n      tag_15\n      swap2\n      swap1\n      tag_16\n      jump\t// in\n    tag_15:\n      mload(0x40)\n      dup1\n      swap2\n      sub\n      swap1\n      return\n        /* \"submissions/MeseretBirhanu/day12/AthenaToken.sol\":675:710  uint256 public override totalSupply */\n    tag_4:\n      tag_17\n      tag_18\n      jump\t// in\n    tag_17:\n      mload(0x40)\n      tag_19\n      swap2\n      swap1\n      tag_20\n      jump\t// in\n    tag_19:\n      mload(0x40)\n      dup1\n      swap2\n      sub\n      swap1\n      return\n        /* \"submissions/MeseretBirhanu/day12/AthenaToken.sol\":501:527  uint8 public decimals = 18 */\n    tag_5:\n      tag_21\n      tag_22\n      jump\t// in\n    tag_21:\n      mload(0x40)\n      tag_23\n      swap2\n      swap1\n      tag_24\n      jump\t// in\n    tag_23:\n      mload(0x40)\n      dup1\n      swap2\n      sub\n      swap1\n      return\n        /* \"submissions/MeseretBirhanu/day12/AthenaToken.sol\":717:770  mapping(address => uint256) public override balanceOf */\n    tag_6:\n      tag_25\n      0x04\n      dup1\n      calldatasize\n      sub\n      dup2\n      add\n      swap1\n      tag_26\n      swap2\n      swap1\n      tag_27\n      jump\t// in\n    tag_26:\n      tag_28\n      jump\t// in\n    tag_25:\n      mload(0x40)\n      tag_29\n      swap2\n      swap1\n      tag_20\n      jump\t// in\n    tag_29:\n      mload(0x40)\n      dup1\n      swap2\n      sub\n      swap1\n      return\n        /* \"submissions/MeseretBirhanu/day12/AthenaToken.sol\":646:666  address public owner */\n    tag_7:\n      tag_30\n      tag_31\n      jump\t// in\n    tag_30:\n      mload(0x40)\n      tag_32\n      swap2\n      swap1\n      tag_33\n      jump\t// in\n    tag_32:\n      mload(0x40)\n      dup1\n      swap2\n      sub\n      swap1\n      return\n        /* \"submissions/MeseretBirhanu/day12/AthenaToken.sol\":466:494  string public symbol = \"ATH\" */\n    tag_8:\n      tag_34\n      tag_35\n      jump\t// in\n    tag_34:\n      mload(0x40)\n      tag_36\n      swap2\n      swap1\n      tag_16\n      jump\t// in\n    tag_36:\n      mload(0x40)\n      dup1\n      swap2\n      sub\n      swap1\n      return\n        /* \"submissions/MeseretBirhanu/day12/AthenaToken.sol\":1240:1651  function mint(uint256 _amount) public onlyOwner {... */\n    tag_9:\n      tag_37\n      0x04\n      dup1\n      calldatasize\n      sub\n      dup2\n      add\n      swap1\n      tag_38\n      swap2\n      swap1\n      tag_39\n      jump\t// in\n    tag_38:\n      tag_40\n      jump\t// in\n    tag_37:\n      stop\n        /* \"submissions/MeseretBirhanu/day12/AthenaToken.sol\":1659:2032  function transfer(address _to, uint256 _amount) public override returns (bool) {... */\n    tag_10:\n      tag_41\n      0x04\n      dup1\n      calldatasize\n      sub\n      dup2\n      add\n      swap1\n      tag_42\n      swap2\n      swap1\n      tag_43\n      jump\t// in\n    tag_42:\n      tag_44\n      jump\t// in\n    tag_41:\n      mload(0x40)\n      tag_45\n      swap2\n      swap1\n      tag_46\n      jump\t// in\n    tag_45:\n      mload(0x40)\n      dup1\n      swap2\n      sub\n      swap1\n      return\n        /* \"submissions/MeseretBirhanu/day12/AthenaToken.sol\":578:639  uint256 public maxSupply = 10_000_000 * 10**uint256(decimals) */\n    tag_11:\n      tag_47\n      tag_48\n      jump\t// in\n    tag_47:\n      mload(0x40)\n      tag_49\n      swap2\n      swap1\n      tag_20\n      jump\t// in\n    tag_49:\n      mload(0x40)\n      dup1\n      swap2\n      sub\n      swap1\n      return\n        /* \"submissions/MeseretBirhanu/day12/AthenaToken.sol\":424:459  string public name = \"Athena Token\" */\n    tag_14:\n      0x00\n      dup1\n      sload\n      tag_50\n      swap1\n      tag_51\n      jump\t// in\n    tag_50:\n      dup1\n      0x1f\n      add\n      0x20\n      dup1\n      swap2\n      div\n      mul\n      0x20\n      add\n      mload(0x40)\n      swap1\n      dup2\n      add\n      0x40\n      mstore\n      dup1\n      swap3\n      swap2\n      swap1\n      dup2\n      dup2\n      mstore\n      0x20\n      add\n      dup3\n      dup1\n      sload\n      tag_52\n      swap1\n      tag_51\n      jump\t// in\n    tag_52:\n      dup1\n      iszero\n      tag_53\n      jumpi\n      dup1\n      0x1f\n      lt\n      tag_54\n      jumpi\n      0x0100\n      dup1\n      dup4\n      sload\n      div\n      mul\n      dup4\n      mstore\n      swap2\n      0x20\n      add\n      swap2\n      jump(tag_53)\n    tag_54:\n      dup3\n      add\n      swap2\n      swap1\n      0x00\n      mstore\n      keccak256(0x00, 0x20)\n      swap1\n    tag_55:\n      dup2\n      sload\n      dup2\n      mstore\n      swap1\n      0x01\n      add\n      swap1\n      0x20\n      add\n      dup1\n      dup4\n      gt\n      tag_55\n      jumpi\n      dup3\n      swap1\n      sub\n      0x1f\n      and\n      dup3\n      add\n      swap2\n    tag_53:\n      pop\n      pop\n      pop\n      pop\n      pop\n      dup2\n      jump\t// out\n        /* \"submissions/MeseretBirhanu/day12/AthenaToken.sol\":675:710  uint256 public override totalSupply */\n    tag_18:\n      sload(0x05)\n      dup2\n      jump\t// out\n        /* \"submissions/MeseretBirhanu/day12/AthenaToken.sol\":501:527  uint8 public decimals = 18 */\n    tag_22:\n      0x02\n      0x00\n      swap1\n      sload\n      swap1\n      0x0100\n      exp\n      swap1\n      div\n      0xff\n      and\n      dup2\n      jump\t// out\n        /* \"submissions/MeseretBirhanu/day12/AthenaToken.sol\":717:770  mapping(address => uint256) public override balanceOf */\n    tag_28:\n      mstore(0x20, 0x06)\n      dup1\n      0x00\n      mstore\n      keccak256(0x00, 0x40)\n      0x00\n      swap2\n      pop\n      swap1\n      pop\n      sload\n      dup2\n      jump\t// out\n        /* \"submissions/MeseretBirhanu/day12/AthenaToken.sol\":646:666  address public owner */\n    tag_31:\n      0x04\n      0x00\n      swap1\n      sload\n      swap1\n      0x0100\n      exp\n      swap1\n      div\n      0xffffffffffffffffffffffffffffffffffffffff\n      and\n      dup2\n      jump\t// out\n        /* \"submissions/MeseretBirhanu/day12/AthenaToken.sol\":466:494  string public symbol = \"ATH\" */\n    tag_35:\n      0x01\n      dup1\n      sload\n      tag_56\n      swap1\n      tag_51\n      jump\t// in\n    tag_56:\n      dup1\n      0x1f\n      add\n      0x20\n      dup1\n      swap2\n      div\n      mul\n      0x20\n      add\n      mload(0x40)\n      swap1\n      dup2\n      add\n      0x40\n      mstore\n      dup1\n      swap3\n      swap2\n      swap1\n      dup2\n      dup2\n      mstore\n      0x20\n      add\n      dup3\n      dup1\n      sload\n      tag_57\n      swap1\n      tag_51\n      jump\t// in\n    tag_57:\n      dup1\n      iszero\n      tag_58\n      jumpi\n      dup1\n      0x1f\n      lt\n      tag_59\n      jumpi\n      0x0100\n      dup1\n      dup4\n      sload\n      div\n      mul\n      dup4\n      mstore\n      swap2\n      0x20\n      add\n      swap2\n      jump(tag_58)\n    tag_59:\n      dup3\n      add\n      swap2\n      swap1\n      0x00\n      mstore\n      keccak256(0x00, 0x20)\n      swap1\n    tag_60:\n      dup2\n      sload\n      dup2\n      mstore\n      swap1\n      0x01\n      add\n      swap1\n      0x20\n      add\n      dup1\n      dup4\n      gt\n      tag_60\n      jumpi\n      dup3\n      swap1\n      sub\n      0x1f\n      and\n      dup3\n      add\n      swap2\n    tag_58:\n      pop\n      pop\n      pop\n      pop\n      pop\n      dup2\n      jump\t// out\n        /* \"submissions/MeseretBirhanu/day12/AthenaToken.sol\":1240:1651  function mint(uint256 _amount) public onlyOwner {... */\n    tag_40:\n        /* \"submissions/MeseretBirhanu/day12/AthenaToken.sol\":833:838  owner */\n      0x04\n      0x00\n      swap1\n      sload\n      swap1\n      0x0100\n      exp\n      swap1\n      div\n      0xffffffffffffffffffffffffffffffffffffffff\n      and\n        /* \"submissions/MeseretBirhanu/day12/AthenaToken.sol\":819:838  msg.sender == owner */\n      0xffffffffffffffffffffffffffffffffffffffff\n      and\n        /* \"submissions/MeseretBirhanu/day12/AthenaToken.sol\":819:829  msg.sender */\n      caller\n        /* \"submissions/MeseretBirhanu/day12/AthenaToken.sol\":819:838  msg.sender == owner */\n      0xffffffffffffffffffffffffffffffffffffffff\n      and\n      eq\n        /* \"submissions/MeseretBirhanu/day12/AthenaToken.sol\":811:856  require(msg.sender == owner, \"Not the owner\") */\n      tag_62\n      jumpi\n      mload(0x40)\n      0x08c379a000000000000000000000000000000000000000000000000000000000\n      dup2\n      mstore\n      0x04\n      add\n      tag_63\n      swap1\n      tag_64\n      jump\t// in\n    tag_63:\n      mload(0x40)\n      dup1\n      swap2\n      sub\n      swap1\n      revert\n    tag_62:\n        /* \"submissions/MeseretBirhanu/day12/AthenaToken.sol\":1299:1319  uint256 amountToMint */\n      0x00\n        /* \"submissions/MeseretBirhanu/day12/AthenaToken.sol\":1344:1352  decimals */\n      0x02\n      0x00\n      swap1\n      sload\n      swap1\n      0x0100\n      exp\n      swap1\n      div\n      0xff\n      and\n        /* \"submissions/MeseretBirhanu/day12/AthenaToken.sol\":1336:1353  uint256(decimals) */\n      0xff\n      and\n        /* \"submissions/MeseretBirhanu/day12/AthenaToken.sol\":1332:1334  10 */\n      0x0a\n        /* \"submissions/MeseretBirhanu/day12/AthenaToken.sol\":1332:1353  10**uint256(decimals) */\n      tag_66\n      swap2\n      swap1\n      tag_67\n      jump\t// in\n    tag_66:\n        /* \"submissions/MeseretBirhanu/day12/AthenaToken.sol\":1322:1329  _amount */\n      dup3\n        /* \"submissions/MeseretBirhanu/day12/AthenaToken.sol\":1322:1353  _amount * 10**uint256(decimals) */\n      tag_68\n      swap2\n      swap1\n      tag_69\n      jump\t// in\n    tag_68:\n        /* \"submissions/MeseretBirhanu/day12/AthenaToken.sol\":1299:1353  uint256 amountToMint = _amount * 10**uint256(decimals) */\n      swap1\n      pop\n        /* \"submissions/MeseretBirhanu/day12/AthenaToken.sol\":1405:1414  maxSupply */\n      sload(0x03)\n        /* \"submissions/MeseretBirhanu/day12/AthenaToken.sol\":1389:1401  amountToMint */\n      dup2\n        /* \"submissions/MeseretBirhanu/day12/AthenaToken.sol\":1375:1386  totalSupply */\n      sload(0x05)\n        /* \"submissions/MeseretBirhanu/day12/AthenaToken.sol\":1375:1401  totalSupply + amountToMint */\n      tag_70\n      swap2\n      swap1\n      tag_71\n      jump\t// in\n    tag_70:\n        /* \"submissions/MeseretBirhanu/day12/AthenaToken.sol\":1375:1414  totalSupply + amountToMint <= maxSupply */\n      gt\n      iszero\n        /* \"submissions/MeseretBirhanu/day12/AthenaToken.sol\":1367:1442  require(totalSupply + amountToMint <= maxSupply, \"Would exceed max supply\") */\n      tag_72\n      jumpi\n      mload(0x40)\n      0x08c379a000000000000000000000000000000000000000000000000000000000\n      dup2\n      mstore\n      0x04\n      add\n      tag_73\n      swap1\n      tag_74\n      jump\t// in\n    tag_73:\n      mload(0x40)\n      dup1\n      swap2\n      sub\n      swap1\n      revert\n    tag_72:\n        /* \"submissions/MeseretBirhanu/day12/AthenaToken.sol\":1471:1472  0 */\n      0x00\n        /* \"submissions/MeseretBirhanu/day12/AthenaToken.sol\":1461:1468  _amount */\n      dup3\n        /* \"submissions/MeseretBirhanu/day12/AthenaToken.sol\":1461:1472  _amount > 0 */\n      gt\n        /* \"submissions/MeseretBirhanu/day12/AthenaToken.sol\":1453:1491  require(_amount > 0, \"Invalid amount\") */\n      tag_75\n      jumpi\n      mload(0x40)\n      0x08c379a000000000000000000000000000000000000000000000000000000000\n      dup2\n      mstore\n      0x04\n      add\n      tag_76\n      swap1\n      tag_77\n      jump\t// in\n    tag_76:\n      mload(0x40)\n      dup1\n      swap2\n      sub\n      swap1\n      revert\n    tag_75:\n        /* \"submissions/MeseretBirhanu/day12/AthenaToken.sol\":1519:1531  amountToMint */\n      dup1\n        /* \"submissions/MeseretBirhanu/day12/AthenaToken.sol\":1504:1515  totalSupply */\n      0x05\n      0x00\n        /* \"submissions/MeseretBirhanu/day12/AthenaToken.sol\":1504:1531  totalSupply += amountToMint */\n      dup3\n      dup3\n      sload\n      tag_78\n      swap2\n      swap1\n      tag_71\n      jump\t// in\n    tag_78:\n      swap3\n      pop\n      pop\n      dup2\n      swap1\n      sstore\n      pop\n        /* \"submissions/MeseretBirhanu/day12/AthenaToken.sol\":1567:1579  amountToMint */\n      dup1\n        /* \"submissions/MeseretBirhanu/day12/AthenaToken.sol\":1542:1551  balanceOf */\n      0x06\n        /* \"submissions/MeseretBirhanu/day12/AthenaToken.sol\":1542:1563  balanceOf[msg.sender] */\n      0x00\n        /* \"submissions/MeseretBirhanu/day12/AthenaToken.sol\":1552:1562  msg.sender */\n      caller\n        /* \"submissions/MeseretBirhanu/day12/AthenaToken.sol\":1542:1563  balanceOf[msg.sender] */\n      0xffffffffffffffffffffffffffffffffffffffff\n      and\n      0xffffffffffffffffffffffffffffffffffffffff\n      and\n      dup2\n      mstore\n      0x20\n      add\n      swap1\n      dup2\n      mstore\n      0x20\n      add\n      0x00\n      keccak256\n      0x00\n        /* \"submissions/MeseretBirhanu/day12/AthenaToken.sol\":1542:1579  balanceOf[msg.sender] += amountToMint */\n      dup3\n      dup3\n      sload\n      tag_79\n      swap2\n      swap1\n      tag_71\n      jump\t// in\n    tag_79:\n      swap3\n      pop\n      pop\n      dup2\n      swap1\n      sstore\n      pop\n        /* \"submissions/MeseretBirhanu/day12/AthenaToken.sol\":1618:1628  msg.sender */\n      caller\n        /* \"submissions/MeseretBirhanu/day12/AthenaToken.sol\":1597:1643  Transfer(address(0), msg.sender, amountToMint) */\n      0xffffffffffffffffffffffffffffffffffffffff\n      and\n        /* \"submissions/MeseretBirhanu/day12/AthenaToken.sol\":1614:1615  0 */\n      0x00\n        /* \"submissions/MeseretBirhanu/day12/AthenaToken.sol\":1597:1643  Transfer(address(0), msg.sender, amountToMint) */\n      0xffffffffffffffffffffffffffffffffffffffff\n      and\n      0xddf252ad1be2c89b69c2b068fc378daa952ba7f163c4a11628f55a4df523b3ef\n        /* \"submissions/MeseretBirhanu/day12/AthenaToken.sol\":1630:1642  amountToMint */\n      dup4\n        /* \"submissions/MeseretBirhanu/day12/AthenaToken.sol\":1597:1643  Transfer(address(0), msg.sender, amountToMint) */\n      mload(0x40)\n      tag_80\n      swap2\n      swap1\n      tag_20\n      jump\t// in\n    tag_80:\n      mload(0x40)\n      dup1\n      swap2\n      sub\n      swap1\n      log3\n        /* \"submissions/MeseretBirhanu/day12/AthenaToken.sol\":1288:1651  {... */\n      pop\n        /* \"submissions/MeseretBirhanu/day12/AthenaToken.sol\":1240:1651  function mint(uint256 _amount) public onlyOwner {... */\n      pop\n      jump\t// out\n        /* \"submissions/MeseretBirhanu/day12/AthenaToken.sol\":1659:2032  function transfer(address _to, uint256 _amount) public override returns (bool) {... */\n    tag_44:\n        /* \"submissions/MeseretBirhanu/day12/AthenaToken.sol\":1732:1736  bool */\n      0x00\n        /* \"submissions/MeseretBirhanu/day12/AthenaToken.sol\":1772:1773  0 */\n      0x00\n        /* \"submissions/MeseretBirhanu/day12/AthenaToken.sol\":1757:1774  _to != address(0) */\n      0xffffffffffffffffffffffffffffffffffffffff\n      and\n        /* \"submissions/MeseretBirhanu/day12/AthenaToken.sol\":1757:1760  _to */\n      dup4\n        /* \"submissions/MeseretBirhanu/day12/AthenaToken.sol\":1757:1774  _to != address(0) */\n      0xffffffffffffffffffffffffffffffffffffffff\n      and\n      sub\n        /* \"submissions/MeseretBirhanu/day12/AthenaToken.sol\":1749:1794  require(_to != address(0), \"Invalid Address\") */\n      tag_82\n      jumpi\n      mload(0x40)\n      0x08c379a000000000000000000000000000000000000000000000000000000000\n      dup2\n      mstore\n      0x04\n      add\n      tag_83\n      swap1\n      tag_84\n      jump\t// in\n    tag_83:\n      mload(0x40)\n      dup1\n      swap2\n      sub\n      swap1\n      revert\n    tag_82:\n        /* \"submissions/MeseretBirhanu/day12/AthenaToken.sol\":1824:1833  balanceOf */\n      0x06\n        /* \"submissions/MeseretBirhanu/day12/AthenaToken.sol\":1824:1845  balanceOf[msg.sender] */\n      0x00\n        /* \"submissions/MeseretBirhanu/day12/AthenaToken.sol\":1834:1844  msg.sender */\n      caller\n        /* \"submissions/MeseretBirhanu/day12/AthenaToken.sol\":1824:1845  balanceOf[msg.sender] */\n      0xffffffffffffffffffffffffffffffffffffffff\n      and\n      0xffffffffffffffffffffffffffffffffffffffff\n      and\n      dup2\n      mstore\n      0x20\n      add\n      swap1\n      dup2\n      mstore\n      0x20\n      add\n      0x00\n      keccak256\n      sload\n        /* \"submissions/MeseretBirhanu/day12/AthenaToken.sol\":1813:1820  _amount */\n      dup3\n        /* \"submissions/MeseretBirhanu/day12/AthenaToken.sol\":1813:1845  _amount <= balanceOf[msg.sender] */\n      gt\n      iszero\n        /* \"submissions/MeseretBirhanu/day12/AthenaToken.sol\":1805:1869  require(_amount <= balanceOf[msg.sender], \"Insufficient tokens\") */\n      tag_85\n      jumpi\n      mload(0x40)\n      0x08c379a000000000000000000000000000000000000000000000000000000000\n      dup2\n      mstore\n      0x04\n      add\n      tag_86\n      swap1\n      tag_87\n      jump\t// in\n    tag_86:\n      mload(0x40)\n      dup1\n      swap2\n      sub\n      swap1\n      revert\n    tag_85:\n        /* \"submissions/MeseretBirhanu/day12/AthenaToken.sol\":1907:1914  _amount */\n      dup2\n        /* \"submissions/MeseretBirhanu/day12/AthenaToken.sol\":1882:1891  balanceOf */\n      0x06\n        /* \"submissions/MeseretBirhanu/day12/AthenaToken.sol\":1882:1903  balanceOf[msg.sender] */\n      0x00\n        /* \"submissions/MeseretBirhanu/day12/AthenaToken.sol\":1892:1902  msg.sender */\n      caller\n        /* \"submissions/MeseretBirhanu/day12/AthenaToken.sol\":1882:1903  balanceOf[msg.sender] */\n      0xffffffffffffffffffffffffffffffffffffffff\n      and\n      0xffffffffffffffffffffffffffffffffffffffff\n      and\n      dup2\n      mstore\n      0x20\n      add\n      swap1\n      dup2\n      mstore\n      0x20\n      add\n      0x00\n      keccak256\n      0x00\n        /* \"submissions/MeseretBirhanu/day12/AthenaToken.sol\":1882:1914  balanceOf[msg.sender] -= _amount */\n      dup3\n      dup3\n      sload\n      tag_88\n      swap2\n      swap1\n      tag_89\n      jump\t// in\n    tag_88:\n      swap3\n      pop\n      pop\n      dup2\n      swap1\n      sstore\n      pop\n        /* \"submissions/MeseretBirhanu/day12/AthenaToken.sol\":1943:1950  _amount */\n      dup2\n        /* \"submissions/MeseretBirhanu/day12/AthenaToken.sol\":1925:1934  balanceOf */\n      0x06\n        /* \"submissions/MeseretBirhanu/day12/AthenaToken.sol\":1925:1939  balanceOf[_to] */\n      0x00\n        /* \"submissions/MeseretBirhanu/day12/AthenaToken.sol\":1935:1938  _to */\n      dup6\n        /* \"submissions/MeseretBirhanu/day12/AthenaToken.sol\":1925:1939  balanceOf[_to] */\n      0xffffffffffffffffffffffffffffffffffffffff\n      and\n      0xffffffffffffffffffffffffffffffffffffffff\n      and\n      dup2\n      mstore\n      0x20\n      add\n      swap1\n      dup2\n      mstore\n      0x20\n      add\n      0x00\n      keccak256\n      0x00\n        /* \"submissions/MeseretBirhanu/day12/AthenaToken.sol\":1925:1950  balanceOf[_to] += _amount */\n      dup3\n      dup3\n      sload\n      tag_90\n      swap2\n      swap1\n      tag_71\n      jump\t// in\n    tag_90:\n      swap3\n      pop\n      pop\n      dup2\n      swap1\n      sstore\n      pop\n        /* \"submissions/MeseretBirhanu/day12/AthenaToken.sol\":1989:1992  _to */\n      dup3\n        /* \"submissions/MeseretBirhanu/day12/AthenaToken.sol\":1968:2002  Transfer(msg.sender, _to, _amount) */\n      0xffffffffffffffffffffffffffffffffffffffff\n      and\n        /* \"submissions/MeseretBirhanu/day12/AthenaToken.sol\":1977:1987  msg.sender */\n      caller\n        /* \"submissions/MeseretBirhanu/day12/AthenaToken.sol\":1968:2002  Transfer(msg.sender, _to, _amount) */\n      0xffffffffffffffffffffffffffffffffffffffff\n      and\n      0xddf252ad1be2c89b69c2b068fc378daa952ba7f163c4a11628f55a4df523b3ef\n        /* \"submissions/MeseretBirhanu/day12/AthenaToken.sol\":1994:2001  _amount */\n      dup5\n        /* \"submissions/MeseretBirhanu/day12/AthenaToken.sol\":1968:2002  Transfer(msg.sender, _to, _amount) */\n      mload(0x40)\n      tag_91\n      swap2\n      swap1\n      tag_20\n      jump\t// in\n    tag_91:\n      mload(0x40)\n      dup1\n      swap2\n      sub\n      swap1\n      log3\n        /* \"submissions/MeseretBirhanu/day12/AthenaToken.sol\":2020:2024  true */\n      0x01\n        /* \"submissions/MeseretBirhanu/day12/AthenaToken.sol\":2013:2024  return true */\n      swap1\n      pop\n        /* \"submissions/MeseretBirhanu/day12/AthenaToken.sol\":1659:2032  function transfer(address _to, uint256 _amount) public override returns (bool) {... */\n      swap3\n      swap2\n      pop\n      pop\n      jump\t// out\n        /* \"submissions/MeseretBirhanu/day12/AthenaToken.sol\":578:639  uint256 public maxSupply = 10_000_000 * 10**uint256(decimals) */\n    tag_48:\n      sload(0x03)\n      dup2\n      jump\t// out\n        /* \"#utility.yul\":7:106   */\n    tag_92:\n        /* \"#utility.yul\":59:65   */\n      0x00\n        /* \"#utility.yul\":93:98   */\n      dup2\n        /* \"#utility.yul\":87:99   */\n      mload\n        /* \"#utility.yul\":77:99   */\n      swap1\n      pop\n        /* \"#utility.yul\":7:106   */\n      swap2\n      swap1\n      pop\n      jump\t// out\n        /* \"#utility.yul\":112:281   */\n    tag_93:\n        /* \"#utility.yul\":196:207   */\n      0x00\n        /* \"#utility.yul\":230:236   */\n      dup3\n        /* \"#utility.yul\":225:228   */\n      dup3\n        /* \"#utility.yul\":218:237   */\n      mstore\n        /* \"#utility.yul\":270:274   */\n      0x20\n        /* \"#utility.yul\":265:268   */\n      dup3\n        /* \"#utility.yul\":261:275   */\n      add\n        /* \"#utility.yul\":246:275   */\n      swap1\n      pop\n        /* \"#utility.yul\":112:281   */\n      swap3\n      swap2\n      pop\n      pop\n      jump\t// out\n        /* \"#utility.yul\":287:426   */\n    tag_94:\n        /* \"#utility.yul\":376:382   */\n      dup3\n        /* \"#utility.yul\":371:374   */\n      dup2\n        /* \"#utility.yul\":366:369   */\n      dup4\n        /* \"#utility.yul\":360:383   */\n      mcopy\n        /* \"#utility.yul\":417:418   */\n      0x00\n        /* \"#utility.yul\":408:414   */\n      dup4\n        /* \"#utility.yul\":403:406   */\n      dup4\n        /* \"#utility.yul\":399:415   */\n      add\n        /* \"#utility.yul\":392:419   */\n      mstore\n        /* \"#utility.yul\":287:426   */\n      pop\n      pop\n      pop\n      jump\t// out\n        /* \"#utility.yul\":432:534   */\n    tag_95:\n        /* \"#utility.yul\":473:479   */\n      0x00\n        /* \"#utility.yul\":524:526   */\n      0x1f\n        /* \"#utility.yul\":520:527   */\n      not\n        /* \"#utility.yul\":515:517   */\n      0x1f\n        /* \"#utility.yul\":508:513   */\n      dup4\n        /* \"#utility.yul\":504:518   */\n      add\n        /* \"#utility.yul\":500:528   */\n      and\n        /* \"#utility.yul\":490:528   */\n      swap1\n      pop\n        /* \"#utility.yul\":432:534   */\n      swap2\n      swap1\n      pop\n      jump\t// out\n        /* \"#utility.yul\":540:917   */\n    tag_96:\n        /* \"#utility.yul\":628:631   */\n      0x00\n        /* \"#utility.yul\":656:695   */\n      tag_134\n        /* \"#utility.yul\":689:694   */\n      dup3\n        /* \"#utility.yul\":656:695   */\n      tag_92\n      jump\t// in\n    tag_134:\n        /* \"#utility.yul\":711:782   */\n      tag_135\n        /* \"#utility.yul\":775:781   */\n      dup2\n        /* \"#utility.yul\":770:773   */\n      dup6\n        /* \"#utility.yul\":711:782   */\n      tag_93\n      jump\t// in\n    tag_135:\n        /* \"#utility.yul\":704:782   */\n      swap4\n      pop\n        /* \"#utility.yul\":791:856   */\n      tag_136\n        /* \"#utility.yul\":849:855   */\n      dup2\n        /* \"#utility.yul\":844:847   */\n      dup6\n        /* \"#utility.yul\":837:841   */\n      0x20\n        /* \"#utility.yul\":830:835   */\n      dup7\n        /* \"#utility.yul\":826:842   */\n      add\n        /* \"#utility.yul\":791:856   */\n      tag_94\n      jump\t// in\n    tag_136:\n        /* \"#utility.yul\":881:910   */\n      tag_137\n        /* \"#utility.yul\":903:909   */\n      dup2\n        /* \"#utility.yul\":881:910   */\n      tag_95\n      jump\t// in\n    tag_137:\n        /* \"#utility.yul\":876:879   */\n      dup5\n        /* \"#utility.yul\":872:911   */\n      add\n        /* \"#utility.yul\":865:911   */\n      swap2\n      pop\n        /* \"#utility.yul\":632:917   */\n      pop\n        /* \"#utility.yul\":540:917   */\n      swap3\n      swap2\n      pop\n      pop\n      jump\t// out\n        /* \"#utility.yul\":923:1236   */\n    tag_16:\n        /* \"#utility.yul\":1036:1040   */\n      0x00\n        /* \"#utility.yul\":1074:1076   */\n      0x20\n        /* \"#utility.yul\":1063:1072   */\n      dup3\n        /* \"#utility.yul\":1059:1077   */\n      add\n        /* \"#utility.yul\":1051:1077   */\n      swap1\n      pop\n        /* \"#utility.yul\":1123:1132   */\n      dup2\n        /* \"#utility.yul\":1117:1121   */\n      dup2\n        /* \"#utility.yul\":1113:1133   */\n      sub\n        /* \"#utility.yul\":1109:1110   */\n      0x00\n        /* \"#utility.yul\":1098:1107   */\n      dup4\n        /* \"#utility.yul\":1094:1111   */\n      add\n        /* \"#utility.yul\":1087:1134   */\n      mstore\n        /* \"#utility.yul\":1151:1229   */\n      tag_139\n        /* \"#utility.yul\":1224:1228   */\n      dup2\n        /* \"#utility.yul\":1215:1221   */\n      dup5\n        /* \"#utility.yul\":1151:1229   */\n      tag_96\n      jump\t// in\n    tag_139:\n        /* \"#utility.yul\":1143:1229   */\n      swap1\n      pop\n        /* \"#utility.yul\":923:1236   */\n      swap3\n      swap2\n      pop\n      pop\n      jump\t// out\n        /* \"#utility.yul\":1242:1319   */\n    tag_97:\n        /* \"#utility.yul\":1279:1286   */\n      0x00\n        /* \"#utility.yul\":1308:1313   */\n      dup2\n        /* \"#utility.yul\":1297:1313   */\n      swap1\n      pop\n        /* \"#utility.yul\":1242:1319   */\n      swap2\n      swap1\n      pop\n      jump\t// out\n        /* \"#utility.yul\":1325:1443   */\n    tag_98:\n        /* \"#utility.yul\":1412:1436   */\n      tag_142\n        /* \"#utility.yul\":1430:1435   */\n      dup2\n        /* \"#utility.yul\":1412:1436   */\n      tag_97\n      jump\t// in\n    tag_142:\n        /* \"#utility.yul\":1407:1410   */\n      dup3\n        /* \"#utility.yul\":1400:1437   */\n      mstore\n        /* \"#utility.yul\":1325:1443   */\n      pop\n      pop\n      jump\t// out\n        /* \"#utility.yul\":1449:1671   */\n    tag_20:\n        /* \"#utility.yul\":1542:1546   */\n      0x00\n        /* \"#utility.yul\":1580:1582   */\n      0x20\n        /* \"#utility.yul\":1569:1578   */\n      dup3\n        /* \"#utility.yul\":1565:1583   */\n      add\n        /* \"#utility.yul\":1557:1583   */\n      swap1\n      pop\n        /* \"#utility.yul\":1593:1664   */\n      tag_144\n        /* \"#utility.yul\":1661:1662   */\n      0x00\n        /* \"#utility.yul\":1650:1659   */\n      dup4\n        /* \"#utility.yul\":1646:1663   */\n      add\n        /* \"#utility.yul\":1637:1643   */\n      dup5\n        /* \"#utility.yul\":1593:1664   */\n      tag_98\n      jump\t// in\n    tag_144:\n        /* \"#utility.yul\":1449:1671   */\n      swap3\n      swap2\n      pop\n      pop\n      jump\t// out\n        /* \"#utility.yul\":1677:1763   */\n    tag_99:\n        /* \"#utility.yul\":1712:1719   */\n      0x00\n        /* \"#utility.yul\":1752:1756   */\n      0xff\n        /* \"#utility.yul\":1745:1750   */\n      dup3\n        /* \"#utility.yul\":1741:1757   */\n      and\n        /* \"#utility.yul\":1730:1757   */\n      swap1\n      pop\n        /* \"#utility.yul\":1677:1763   */\n      swap2\n      swap1\n      pop\n      jump\t// out\n        /* \"#utility.yul\":1769:1881   */\n    tag_100:\n        /* \"#utility.yul\":1852:1874   */\n      tag_147\n        /* \"#utility.yul\":1868:1873   */\n      dup2\n        /* \"#utility.yul\":1852:1874   */\n      tag_99\n      jump\t// in\n    tag_147:\n        /* \"#utility.yul\":1847:1850   */\n      dup3\n        /* \"#utility.yul\":1840:1875   */\n      mstore\n        /* \"#utility.yul\":1769:1881   */\n      pop\n      pop\n      jump\t// out\n        /* \"#utility.yul\":1887:2101   */\n    tag_24:\n        /* \"#utility.yul\":1976:1980   */\n      0x00\n        /* \"#utility.yul\":2014:2016   */\n      0x20\n        /* \"#utility.yul\":2003:2012   */\n      dup3\n        /* \"#utility.yul\":1999:2017   */\n      add\n        /* \"#utility.yul\":1991:2017   */\n      swap1\n      pop\n        /* \"#utility.yul\":2027:2094   */\n      tag_149\n        /* \"#utility.yul\":2091:2092   */\n      0x00\n        /* \"#utility.yul\":2080:2089   */\n      dup4\n        /* \"#utility.yul\":2076:2093   */\n      add\n        /* \"#utility.yul\":2067:2073   */\n      dup5\n        /* \"#utility.yul\":2027:2094   */\n      tag_100\n      jump\t// in\n    tag_149:\n        /* \"#utility.yul\":1887:2101   */\n      swap3\n      swap2\n      pop\n      pop\n      jump\t// out\n        /* \"#utility.yul\":2188:2305   */\n    tag_102:\n        /* \"#utility.yul\":2297:2298   */\n      0x00\n        /* \"#utility.yul\":2294:2295   */\n      0x00\n        /* \"#utility.yul\":2287:2299   */\n      revert\n        /* \"#utility.yul\":2434:2560   */\n    tag_104:\n        /* \"#utility.yul\":2471:2478   */\n      0x00\n        /* \"#utility.yul\":2511:2553   */\n      0xffffffffffffffffffffffffffffffffffffffff\n        /* \"#utility.yul\":2504:2509   */\n      dup3\n        /* \"#utility.yul\":2500:2554   */\n      and\n        /* \"#utility.yul\":2489:2554   */\n      swap1\n      pop\n        /* \"#utility.yul\":2434:2560   */\n      swap2\n      swap1\n      pop\n      jump\t// out\n        /* \"#utility.yul\":2566:2662   */\n    tag_105:\n        /* \"#utility.yul\":2603:2610   */\n      0x00\n        /* \"#utility.yul\":2632:2656   */\n      tag_155\n        /* \"#utility.yul\":2650:2655   */\n      dup3\n        /* \"#utility.yul\":2632:2656   */\n      tag_104\n      jump\t// in\n    tag_155:\n        /* \"#utility.yul\":2621:2656   */\n      swap1\n      pop\n        /* \"#utility.yul\":2566:2662   */\n      swap2\n      swap1\n      pop\n      jump\t// out\n        /* \"#utility.yul\":2668:2790   */\n    tag_106:\n        /* \"#utility.yul\":2741:2765   */\n      tag_157\n        /* \"#utility.yul\":2759:2764   */\n      dup2\n        /* \"#utility.yul\":2741:2765   */\n      tag_105\n      jump\t// in\n    tag_157:\n        /* \"#utility.yul\":2734:2739   */\n      dup2\n        /* \"#utility.yul\":2731:2766   */\n      eq\n        /* \"#utility.yul\":2721:2784   */\n      tag_158\n      jumpi\n        /* \"#utility.yul\":2780:2781   */\n      0x00\n        /* \"#utility.yul\":2777:2778   */\n      0x00\n        /* \"#utility.yul\":2770:2782   */\n      revert\n        /* \"#utility.yul\":2721:2784   */\n    tag_158:\n        /* \"#utility.yul\":2668:2790   */\n      pop\n      jump\t// out\n        /* \"#utility.yul\":2796:2935   */\n    tag_107:\n        /* \"#utility.yul\":2842:2847   */\n      0x00\n        /* \"#utility.yul\":2880:2886   */\n      dup2\n        /* \"#utility.yul\":2867:2887   */\n      calldataload\n        /* \"#utility.yul\":2858:2887   */\n      swap1\n      pop\n        /* \"#utility.yul\":2896:2929   */\n      tag_160\n        /* \"#utility.yul\":2923:2928   */\n      dup2\n        /* \"#utility.yul\":2896:2929   */\n      tag_106\n      jump\t// in\n    tag_160:\n        /* \"#utility.yul\":2796:2935   */\n      swap3\n      swap2\n      pop\n      pop\n      jump\t// out\n        /* \"#utility.yul\":2941:3270   */\n    tag_27:\n        /* \"#utility.yul\":3000:3006   */\n      0x00\n        /* \"#utility.yul\":3049:3051   */\n      0x20\n        /* \"#utility.yul\":3037:3046   */\n      dup3\n        /* \"#utility.yul\":3028:3035   */\n      dup5\n        /* \"#utility.yul\":3024:3047   */\n      sub\n        /* \"#utility.yul\":3020:3052   */\n      slt\n        /* \"#utility.yul\":3017:3136   */\n      iszero\n      tag_162\n      jumpi\n        /* \"#utility.yul\":3055:3134   */\n      tag_163\n      tag_102\n      jump\t// in\n    tag_163:\n        /* \"#utility.yul\":3017:3136   */\n    tag_162:\n        /* \"#utility.yul\":3175:3176   */\n      0x00\n        /* \"#utility.yul\":3200:3253   */\n      tag_164\n        /* \"#utility.yul\":3245:3252   */\n      dup5\n        /* \"#utility.yul\":3236:3242   */\n      dup3\n        /* \"#utility.yul\":3225:3234   */\n      dup6\n        /* \"#utility.yul\":3221:3243   */\n      add\n        /* \"#utility.yul\":3200:3253   */\n      tag_107\n      jump\t// in\n    tag_164:\n        /* \"#utility.yul\":3190:3253   */\n      swap2\n      pop\n        /* \"#utility.yul\":3146:3263   */\n      pop\n        /* \"#utility.yul\":2941:3270   */\n      swap3\n      swap2\n      pop\n      pop\n      jump\t// out\n        /* \"#utility.yul\":3276:3394   */\n    tag_108:\n        /* \"#utility.yul\":3363:3387   */\n      tag_166\n        /* \"#utility.yul\":3381:3386   */\n      dup2\n        /* \"#utility.yul\":3363:3387   */\n      tag_105\n      jump\t// in\n    tag_166:\n        /* \"#utility.yul\":3358:3361   */\n      dup3\n        /* \"#utility.yul\":3351:3388   */\n      mstore\n        /* \"#utility.yul\":3276:3394   */\n      pop\n      pop\n      jump\t// out\n        /* \"#utility.yul\":3400:3622   */\n    tag_33:\n        /* \"#utility.yul\":3493:3497   */\n      0x00\n        /* \"#utility.yul\":3531:3533   */\n      0x20\n        /* \"#utility.yul\":3520:3529   */\n      dup3\n        /* \"#utility.yul\":3516:3534   */\n      add\n        /* \"#utility.yul\":3508:3534   */\n      swap1\n      pop\n        /* \"#utility.yul\":3544:3615   */\n      tag_168\n        /* \"#utility.yul\":3612:3613   */\n      0x00\n        /* \"#utility.yul\":3601:3610   */\n      dup4\n        /* \"#utility.yul\":3597:3614   */\n      add\n        /* \"#utility.yul\":3588:3594   */\n      dup5\n        /* \"#utility.yul\":3544:3615   */\n      tag_108\n      jump\t// in\n    tag_168:\n        /* \"#utility.yul\":3400:3622   */\n      swap3\n      swap2\n      pop\n      pop\n      jump\t// out\n        /* \"#utility.yul\":3628:3750   */\n    tag_109:\n        /* \"#utility.yul\":3701:3725   */\n      tag_170\n        /* \"#utility.yul\":3719:3724   */\n      dup2\n        /* \"#utility.yul\":3701:3725   */\n      tag_97\n      jump\t// in\n    tag_170:\n        /* \"#utility.yul\":3694:3699   */\n      dup2\n        /* \"#utility.yul\":3691:3726   */\n      eq\n        /* \"#utility.yul\":3681:3744   */\n      tag_171\n      jumpi\n        /* \"#utility.yul\":3740:3741   */\n      0x00\n        /* \"#utility.yul\":3737:3738   */\n      0x00\n        /* \"#utility.yul\":3730:3742   */\n      revert\n        /* \"#utility.yul\":3681:3744   */\n    tag_171:\n        /* \"#utility.yul\":3628:3750   */\n      pop\n      jump\t// out\n        /* \"#utility.yul\":3756:3895   */\n    tag_110:\n        /* \"#utility.yul\":3802:3807   */\n      0x00\n        /* \"#utility.yul\":3840:3846   */\n      dup2\n        /* \"#utility.yul\":3827:3847   */\n      calldataload\n        /* \"#utility.yul\":3818:3847   */\n      swap1\n      pop\n        /* \"#utility.yul\":3856:3889   */\n      tag_173\n        /* \"#utility.yul\":3883:3888   */\n      dup2\n        /* \"#utility.yul\":3856:3889   */\n      tag_109\n      jump\t// in\n    tag_173:\n        /* \"#utility.yul\":3756:3895   */\n      swap3\n      swap2\n      pop\n      pop\n      jump\t// out\n        /* \"#utility.yul\":3901:4230   */\n    tag_39:\n        /* \"#utility.yul\":3960:3966   */\n      0x00\n        /* \"#utility.yul\":4009:4011   */\n      0x20\n        /* \"#utility.yul\":3997:4006   */\n      dup3\n        /* \"#utility.yul\":3988:3995   */\n      dup5\n        /* \"#utility.yul\":3984:4007   */\n      sub\n        /* \"#utility.yul\":3980:4012   */\n      slt\n        /* \"#utility.yul\":3977:4096   */\n      iszero\n      tag_175\n      jumpi\n        /* \"#utility.yul\":4015:4094   */\n      tag_176\n      tag_102\n      jump\t// in\n    tag_176:\n        /* \"#utility.yul\":3977:4096   */\n    tag_175:\n        /* \"#utility.yul\":4135:4136   */\n      0x00\n        /* \"#utility.yul\":4160:4213   */\n      tag_177\n        /* \"#utility.yul\":4205:4212   */\n      dup5\n        /* \"#utility.yul\":4196:4202   */\n      dup3\n        /* \"#utility.yul\":4185:4194   */\n      dup6\n        /* \"#utility.yul\":4181:4203   */\n      add\n        /* \"#utility.yul\":4160:4213   */\n      tag_110\n      jump\t// in\n    tag_177:\n        /* \"#utility.yul\":4150:4213   */\n      swap2\n      pop\n        /* \"#utility.yul\":4106:4223   */\n      pop\n        /* \"#utility.yul\":3901:4230   */\n      swap3\n      swap2\n      pop\n      pop\n      jump\t// out\n        /* \"#utility.yul\":4236:4710   */\n    tag_43:\n        /* \"#utility.yul\":4304:4310   */\n      0x00\n        /* \"#utility.yul\":4312:4318   */\n      0x00\n        /* \"#utility.yul\":4361:4363   */\n      0x40\n        /* \"#utility.yul\":4349:4358   */\n      dup4\n        /* \"#utility.yul\":4340:4347   */\n      dup6\n        /* \"#utility.yul\":4336:4359   */\n      sub\n        /* \"#utility.yul\":4332:4364   */\n      slt\n        /* \"#utility.yul\":4329:4448   */\n      iszero\n      tag_179\n      jumpi\n        /* \"#utility.yul\":4367:4446   */\n      tag_180\n      tag_102\n      jump\t// in\n    tag_180:\n        /* \"#utility.yul\":4329:4448   */\n    tag_179:\n        /* \"#utility.yul\":4487:4488   */\n      0x00\n        /* \"#utility.yul\":4512:4565   */\n      tag_181\n        /* \"#utility.yul\":4557:4564   */\n      dup6\n        /* \"#utility.yul\":4548:4554   */\n      dup3\n        /* \"#utility.yul\":4537:4546   */\n      dup7\n        /* \"#utility.yul\":4533:4555   */\n      add\n        /* \"#utility.yul\":4512:4565   */\n      tag_107\n      jump\t// in\n    tag_181:\n        /* \"#utility.yul\":4502:4565   */\n      swap3\n      pop\n        /* \"#utility.yul\":4458:4575   */\n      pop\n        /* \"#utility.yul\":4614:4616   */\n      0x20\n        /* \"#utility.yul\":4640:4693   */\n      tag_182\n        /* \"#utility.yul\":4685:4692   */\n      dup6\n        /* \"#utility.yul\":4676:4682   */\n      dup3\n        /* \"#utility.yul\":4665:4674   */\n      dup7\n        /* \"#utility.yul\":4661:4683   */\n      add\n        /* \"#utility.yul\":4640:4693   */\n      tag_110\n      jump\t// in\n    tag_182:\n        /* \"#utility.yul\":4630:4693   */\n      swap2\n      pop\n        /* \"#utility.yul\":4585:4703   */\n      pop\n        /* \"#utility.yul\":4236:4710   */\n      swap3\n      pop\n      swap3\n      swap1\n      pop\n      jump\t// out\n        /* \"#utility.yul\":4716:4806   */\n    tag_111:\n        /* \"#utility.yul\":4750:4757   */\n      0x00\n        /* \"#utility.yul\":4793:4798   */\n      dup2\n        /* \"#utility.yul\":4786:4799   */\n      iszero\n        /* \"#utility.yul\":4779:4800   */\n      iszero\n        /* \"#utility.yul\":4768:4800   */\n      swap1\n      pop\n        /* \"#utility.yul\":4716:4806   */\n      swap2\n      swap1\n      pop\n      jump\t// out\n        /* \"#utility.yul\":4812:4921   */\n    tag_112:\n        /* \"#utility.yul\":4893:4914   */\n      tag_185\n        /* \"#utility.yul\":4908:4913   */\n      dup2\n        /* \"#utility.yul\":4893:4914   */\n      tag_111\n      jump\t// in\n    tag_185:\n        /* \"#utility.yul\":4888:4891   */\n      dup3\n        /* \"#utility.yul\":4881:4915   */\n      mstore\n        /* \"#utility.yul\":4812:4921   */\n      pop\n      pop\n      jump\t// out\n        /* \"#utility.yul\":4927:5137   */\n    tag_46:\n        /* \"#utility.yul\":5014:5018   */\n      0x00\n        /* \"#utility.yul\":5052:5054   */\n      0x20\n        /* \"#utility.yul\":5041:5050   */\n      dup3\n        /* \"#utility.yul\":5037:5055   */\n      add\n        /* \"#utility.yul\":5029:5055   */\n      swap1\n      pop\n        /* \"#utility.yul\":5065:5130   */\n      tag_187\n        /* \"#utility.yul\":5127:5128   */\n      0x00\n        /* \"#utility.yul\":5116:5125   */\n      dup4\n        /* \"#utility.yul\":5112:5129   */\n      add\n        /* \"#utility.yul\":5103:5109   */\n      dup5\n        /* \"#utility.yul\":5065:5130   */\n      tag_112\n      jump\t// in\n    tag_187:\n        /* \"#utility.yul\":4927:5137   */\n      swap3\n      swap2\n      pop\n      pop\n      jump\t// out\n        /* \"#utility.yul\":5143:5323   */\n    tag_113:\n        /* \"#utility.yul\":5191:5268   */\n      0x4e487b7100000000000000000000000000000000000000000000000000000000\n        /* \"#utility.yul\":5188:5189   */\n      0x00\n        /* \"#utility.yul\":5181:5269   */\n      mstore\n        /* \"#utility.yul\":5288:5292   */\n      0x22\n        /* \"#utility.yul\":5285:5286   */\n      0x04\n        /* \"#utility.yul\":5278:5293   */\n      mstore\n        /* \"#utility.yul\":5312:5316   */\n      0x24\n        /* \"#utility.yul\":5309:5310   */\n      0x00\n        /* \"#utility.yul\":5302:5317   */\n      revert\n        /* \"#utility.yul\":5329:5649   */\n    tag_51:\n        /* \"#utility.yul\":5373:5379   */\n      0x00\n        /* \"#utility.yul\":5410:5411   */\n      0x02\n        /* \"#utility.yul\":5404:5408   */\n      dup3\n        /* \"#utility.yul\":5400:5412   */\n      div\n        /* \"#utility.yul\":5390:5412   */\n      swap1\n      pop\n        /* \"#utility.yul\":5457:5458   */\n      0x01\n        /* \"#utility.yul\":5451:5455   */\n      dup3\n        /* \"#utility.yul\":5447:5459   */\n      and\n        /* \"#utility.yul\":5478:5496   */\n      dup1\n        /* \"#utility.yul\":5468:5549   */\n      tag_190\n      jumpi\n        /* \"#utility.yul\":5534:5538   */\n      0x7f\n        /* \"#utility.yul\":5526:5532   */\n      dup3\n        /* \"#utility.yul\":5522:5539   */\n      and\n        /* \"#utility.yul\":5512:5539   */\n      swap2\n      pop\n        /* \"#utility.yul\":5468:5549   */\n    tag_190:\n        /* \"#utility.yul\":5596:5598   */\n      0x20\n        /* \"#utility.yul\":5588:5594   */\n      dup3\n        /* \"#utility.yul\":5585:5599   */\n      lt\n        /* \"#utility.yul\":5565:5583   */\n      dup2\n        /* \"#utility.yul\":5562:5600   */\n      sub\n        /* \"#utility.yul\":5559:5643   */\n      tag_191\n      jumpi\n        /* \"#utility.yul\":5615:5633   */\n      tag_192\n      tag_113\n      jump\t// in\n    tag_192:\n        /* \"#utility.yul\":5559:5643   */\n    tag_191:\n        /* \"#utility.yul\":5380:5649   */\n      pop\n        /* \"#utility.yul\":5329:5649   */\n      swap2\n      swap1\n      pop\n      jump\t// out\n        /* \"#utility.yul\":5655:5818   */\n    tag_114:\n        /* \"#utility.yul\":5795:5810   */\n      0x4e6f7420746865206f776e657200000000000000000000000000000000000000\n        /* \"#utility.yul\":5791:5792   */\n      0x00\n        /* \"#utility.yul\":5783:5789   */\n      dup3\n        /* \"#utility.yul\":5779:5793   */\n      add\n        /* \"#utility.yul\":5772:5811   */\n      mstore\n        /* \"#utility.yul\":5655:5818   */\n      pop\n      jump\t// out\n        /* \"#utility.yul\":5824:6190   */\n    tag_115:\n        /* \"#utility.yul\":5966:5969   */\n      0x00\n        /* \"#utility.yul\":5987:6054   */\n      tag_195\n        /* \"#utility.yul\":6051:6053   */\n      0x0d\n        /* \"#utility.yul\":6046:6049   */\n      dup4\n        /* \"#utility.yul\":5987:6054   */\n      tag_93\n      jump\t// in\n    tag_195:\n        /* \"#utility.yul\":5980:6054   */\n      swap2\n      pop\n        /* \"#utility.yul\":6063:6156   */\n      tag_196\n        /* \"#utility.yul\":6152:6155   */\n      dup3\n        /* \"#utility.yul\":6063:6156   */\n      tag_114\n      jump\t// in\n    tag_196:\n        /* \"#utility.yul\":6181:6183   */\n      0x20\n        /* \"#utility.yul\":6176:6179   */\n      dup3\n        /* \"#utility.yul\":6172:6184   */\n      add\n        /* \"#utility.yul\":6165:6184   */\n      swap1\n      pop\n        /* \"#utility.yul\":5824:6190   */\n      swap2\n      swap1\n      pop\n      jump\t// out\n        /* \"#utility.yul\":6196:6615   */\n    tag_64:\n        /* \"#utility.yul\":6362:6366   */\n      0x00\n        /* \"#utility.yul\":6400:6402   */\n      0x20\n        /* \"#utility.yul\":6389:6398   */\n      dup3\n        /* \"#utility.yul\":6385:6403   */\n      add\n        /* \"#utility.yul\":6377:6403   */\n      swap1\n      pop\n        /* \"#utility.yul\":6449:6458   */\n      dup2\n        /* \"#utility.yul\":6443:6447   */\n      dup2\n        /* \"#utility.yul\":6439:6459   */\n      sub\n        /* \"#utility.yul\":6435:6436   */\n      0x00\n        /* \"#utility.yul\":6424:6433   */\n      dup4\n        /* \"#utility.yul\":6420:6437   */\n      add\n        /* \"#utility.yul\":6413:6460   */\n      mstore\n        /* \"#utility.yul\":6477:6608   */\n      tag_198\n        /* \"#utility.yul\":6603:6607   */\n      dup2\n        /* \"#utility.yul\":6477:6608   */\n      tag_115\n      jump\t// in\n    tag_198:\n        /* \"#utility.yul\":6469:6608   */\n      swap1\n      pop\n        /* \"#utility.yul\":6196:6615   */\n      swap2\n      swap1\n      pop\n      jump\t// out\n        /* \"#utility.yul\":6621:6801   */\n    tag_116:\n        /* \"#utility.yul\":6669:6746   */\n      0x4e487b7100000000000000000000000000000000000000000000000000000000\n        /* \"#utility.yul\":6666:6667   */\n      0x00\n        /* \"#utility.yul\":6659:6747   */\n      mstore\n        /* \"#utility.yul\":6766:6770   */\n      0x11\n        /* \"#utility.yul\":6763:6764   */\n      0x04\n        /* \"#utility.yul\":6756:6771   */\n      mstore\n        /* \"#utility.yul\":6790:6794   */\n      0x24\n        /* \"#utility.yul\":6787:6788   */\n      0x00\n        /* \"#utility.yul\":6780:6795   */\n      revert\n        /* \"#utility.yul\":6807:6909   */\n    tag_117:\n        /* \"#utility.yul\":6849:6857   */\n      0x00\n        /* \"#utility.yul\":6896:6901   */\n      dup2\n        /* \"#utility.yul\":6893:6894   */\n      0x01\n        /* \"#utility.yul\":6889:6902   */\n      shr\n        /* \"#utility.yul\":6868:6902   */\n      swap1\n      pop\n        /* \"#utility.yul\":6807:6909   */\n      swap2\n      swap1\n      pop\n      jump\t// out\n        /* \"#utility.yul\":6915:7763   */\n    tag_118:\n        /* \"#utility.yul\":6976:6981   */\n      0x00\n        /* \"#utility.yul\":6983:6987   */\n      0x00\n        /* \"#utility.yul\":7007:7013   */\n      dup3\n        /* \"#utility.yul\":6998:7013   */\n      swap2\n      pop\n        /* \"#utility.yul\":7031:7036   */\n      dup4\n        /* \"#utility.yul\":7022:7036   */\n      swap1\n      pop\n        /* \"#utility.yul\":7045:7757   */\n    tag_202:\n        /* \"#utility.yul\":7066:7067   */\n      0x01\n        /* \"#utility.yul\":7056:7064   */\n      dup6\n        /* \"#utility.yul\":7053:7068   */\n      gt\n        /* \"#utility.yul\":7045:7757   */\n      iszero\n      tag_204\n      jumpi\n        /* \"#utility.yul\":7161:7165   */\n      dup1\n        /* \"#utility.yul\":7156:7159   */\n      dup7\n        /* \"#utility.yul\":7152:7166   */\n      div\n        /* \"#utility.yul\":7146:7150   */\n      dup2\n        /* \"#utility.yul\":7143:7167   */\n      gt\n        /* \"#utility.yul\":7140:7190   */\n      iszero\n      tag_205\n      jumpi\n        /* \"#utility.yul\":7170:7188   */\n      tag_206\n      tag_116\n      jump\t// in\n    tag_206:\n        /* \"#utility.yul\":7140:7190   */\n    tag_205:\n        /* \"#utility.yul\":7220:7221   */\n      0x01\n        /* \"#utility.yul\":7210:7218   */\n      dup6\n        /* \"#utility.yul\":7206:7222   */\n      and\n        /* \"#utility.yul\":7203:7654   */\n      iszero\n      tag_207\n      jumpi\n        /* \"#utility.yul\":7635:7639   */\n      dup1\n        /* \"#utility.yul\":7628:7633   */\n      dup3\n        /* \"#utility.yul\":7624:7640   */\n      mul\n        /* \"#utility.yul\":7615:7640   */\n      swap2\n      pop\n        /* \"#utility.yul\":7203:7654   */\n    tag_207:\n        /* \"#utility.yul\":7685:7689   */\n      dup1\n        /* \"#utility.yul\":7679:7683   */\n      dup2\n        /* \"#utility.yul\":7675:7690   */\n      mul\n        /* \"#utility.yul\":7667:7690   */\n      swap1\n      pop\n        /* \"#utility.yul\":7715:7747   */\n      tag_208\n        /* \"#utility.yul\":7738:7746   */\n      dup6\n        /* \"#utility.yul\":7715:7747   */\n      tag_117\n      jump\t// in\n    tag_208:\n        /* \"#utility.yul\":7703:7747   */\n      swap5\n      pop\n        /* \"#utility.yul\":7045:7757   */\n      jump(tag_202)\n    tag_204:\n        /* \"#utility.yul\":6915:7763   */\n      swap5\n      pop\n      swap5\n      swap3\n      pop\n      pop\n      pop\n      jump\t// out\n        /* \"#utility.yul\":7769:8842   */\n    tag_119:\n        /* \"#utility.yul\":7823:7828   */\n      0x00\n        /* \"#utility.yul\":8014:8022   */\n      dup3\n        /* \"#utility.yul\":8004:8044   */\n      tag_210\n      jumpi\n        /* \"#utility.yul\":8035:8036   */\n      0x01\n        /* \"#utility.yul\":8026:8036   */\n      swap1\n      pop\n        /* \"#utility.yul\":8037:8042   */\n      jump(tag_209)\n        /* \"#utility.yul\":8004:8044   */\n    tag_210:\n        /* \"#utility.yul\":8063:8067   */\n      dup2\n        /* \"#utility.yul\":8053:8089   */\n      tag_211\n      jumpi\n        /* \"#utility.yul\":8080:8081   */\n      0x00\n        /* \"#utility.yul\":8071:8081   */\n      swap1\n      pop\n        /* \"#utility.yul\":8082:8087   */\n      jump(tag_209)\n        /* \"#utility.yul\":8053:8089   */\n    tag_211:\n        /* \"#utility.yul\":8149:8153   */\n      dup2\n        /* \"#utility.yul\":8197:8198   */\n      0x01\n        /* \"#utility.yul\":8192:8219   */\n      dup2\n      eq\n      tag_213\n      jumpi\n        /* \"#utility.yul\":8233:8234   */\n      0x02\n        /* \"#utility.yul\":8228:8419   */\n      dup2\n      eq\n      tag_214\n      jumpi\n        /* \"#utility.yul\":8142:8419   */\n      jump(tag_212)\n        /* \"#utility.yul\":8192:8219   */\n    tag_213:\n        /* \"#utility.yul\":8210:8211   */\n      0x01\n        /* \"#utility.yul\":8201:8211   */\n      swap2\n      pop\n        /* \"#utility.yul\":8212:8217   */\n      pop\n      jump(tag_209)\n        /* \"#utility.yul\":8228:8419   */\n    tag_214:\n        /* \"#utility.yul\":8273:8276   */\n      0xff\n        /* \"#utility.yul\":8263:8271   */\n      dup5\n        /* \"#utility.yul\":8260:8277   */\n      gt\n        /* \"#utility.yul\":8257:8300   */\n      iszero\n      tag_215\n      jumpi\n        /* \"#utility.yul\":8280:8298   */\n      tag_216\n      tag_116\n      jump\t// in\n    tag_216:\n        /* \"#utility.yul\":8257:8300   */\n    tag_215:\n        /* \"#utility.yul\":8329:8337   */\n      dup4\n        /* \"#utility.yul\":8326:8327   */\n      0x02\n        /* \"#utility.yul\":8322:8338   */\n      exp\n        /* \"#utility.yul\":8313:8338   */\n      swap2\n      pop\n        /* \"#utility.yul\":8364:8367   */\n      dup5\n        /* \"#utility.yul\":8357:8362   */\n      dup3\n        /* \"#utility.yul\":8354:8368   */\n      gt\n        /* \"#utility.yul\":8351:8391   */\n      iszero\n      tag_217\n      jumpi\n        /* \"#utility.yul\":8371:8389   */\n      tag_218\n      tag_116\n      jump\t// in\n    tag_218:\n        /* \"#utility.yul\":8351:8391   */\n    tag_217:\n        /* \"#utility.yul\":8404:8409   */\n      pop\n      jump(tag_209)\n        /* \"#utility.yul\":8142:8419   */\n    tag_212:\n      pop\n        /* \"#utility.yul\":8528:8530   */\n      0x20\n        /* \"#utility.yul\":8518:8526   */\n      dup4\n        /* \"#utility.yul\":8515:8531   */\n      lt\n        /* \"#utility.yul\":8509:8512   */\n      0x0133\n        /* \"#utility.yul\":8503:8507   */\n      dup4\n        /* \"#utility.yul\":8500:8513   */\n      lt\n        /* \"#utility.yul\":8496:8532   */\n      and\n        /* \"#utility.yul\":8478:8480   */\n      0x4e\n        /* \"#utility.yul\":8468:8476   */\n      dup5\n        /* \"#utility.yul\":8465:8481   */\n      lt\n        /* \"#utility.yul\":8460:8462   */\n      0x0b\n        /* \"#utility.yul\":8454:8458   */\n      dup5\n        /* \"#utility.yul\":8451:8463   */\n      lt\n        /* \"#utility.yul\":8447:8482   */\n      and\n        /* \"#utility.yul\":8431:8542   */\n      or\n        /* \"#utility.yul\":8428:8674   */\n      iszero\n      tag_219\n      jumpi\n        /* \"#utility.yul\":8584:8592   */\n      dup3\n        /* \"#utility.yul\":8578:8582   */\n      dup3\n        /* \"#utility.yul\":8574:8593   */\n      exp\n        /* \"#utility.yul\":8565:8593   */\n      swap1\n      pop\n        /* \"#utility.yul\":8619:8622   */\n      dup4\n        /* \"#utility.yul\":8612:8617   */\n      dup2\n        /* \"#utility.yul\":8609:8623   */\n      gt\n        /* \"#utility.yul\":8606:8646   */\n      iszero\n      tag_220\n      jumpi\n        /* \"#utility.yul\":8626:8644   */\n      tag_221\n      tag_116\n      jump\t// in\n    tag_221:\n        /* \"#utility.yul\":8606:8646   */\n    tag_220:\n        /* \"#utility.yul\":8659:8664   */\n      jump(tag_209)\n        /* \"#utility.yul\":8428:8674   */\n    tag_219:\n        /* \"#utility.yul\":8699:8741   */\n      tag_222\n        /* \"#utility.yul\":8737:8740   */\n      dup5\n        /* \"#utility.yul\":8727:8735   */\n      dup5\n        /* \"#utility.yul\":8721:8725   */\n      dup5\n        /* \"#utility.yul\":8718:8719   */\n      0x01\n        /* \"#utility.yul\":8699:8741   */\n      tag_118\n      jump\t// in\n    tag_222:\n        /* \"#utility.yul\":8684:8741   */\n      swap3\n      pop\n      swap1\n      pop\n        /* \"#utility.yul\":8773:8777   */\n      dup2\n        /* \"#utility.yul\":8768:8771   */\n      dup5\n        /* \"#utility.yul\":8764:8778   */\n      div\n        /* \"#utility.yul\":8757:8762   */\n      dup2\n        /* \"#utility.yul\":8754:8779   */\n      gt\n        /* \"#utility.yul\":8751:8802   */\n      iszero\n      tag_223\n      jumpi\n        /* \"#utility.yul\":8782:8800   */\n      tag_224\n      tag_116\n      jump\t// in\n    tag_224:\n        /* \"#utility.yul\":8751:8802   */\n    tag_223:\n        /* \"#utility.yul\":8831:8835   */\n      dup2\n        /* \"#utility.yul\":8824:8829   */\n      dup2\n        /* \"#utility.yul\":8820:8836   */\n      mul\n        /* \"#utility.yul\":8811:8836   */\n      swap1\n      pop\n        /* \"#utility.yul\":7769:8842   */\n    tag_209:\n      swap4\n      swap3\n      pop\n      pop\n      pop\n      jump\t// out\n        /* \"#utility.yul\":8848:9133   */\n    tag_67:\n        /* \"#utility.yul\":8908:8913   */\n      0x00\n        /* \"#utility.yul\":8932:8955   */\n      tag_226\n        /* \"#utility.yul\":8950:8954   */\n      dup3\n        /* \"#utility.yul\":8932:8955   */\n      tag_97\n      jump\t// in\n    tag_226:\n        /* \"#utility.yul\":8924:8955   */\n      swap2\n      pop\n        /* \"#utility.yul\":8976:9003   */\n      tag_227\n        /* \"#utility.yul\":8994:9002   */\n      dup4\n        /* \"#utility.yul\":8976:9003   */\n      tag_97\n      jump\t// in\n    tag_227:\n        /* \"#utility.yul\":8964:9003   */\n      swap3\n      pop\n        /* \"#utility.yul\":9022:9126   */\n      tag_228\n        /* \"#utility.yul\":9059:9125   */\n      0xffffffffffffffffffffffffffffffffffffffffffffffffffffffffffffffff\n        /* \"#utility.yul\":9049:9057   */\n      dup5\n        /* \"#utility.yul\":9043:9047   */\n      dup5\n        /* \"#utility.yul\":9022:9126   */\n      tag_119\n      jump\t// in\n    tag_228:\n        /* \"#utility.yul\":9013:9126   */\n      swap1\n      pop\n        /* \"#utility.yul\":8848:9133   */\n      swap3\n      swap2\n      pop\n      pop\n      jump\t// out\n        /* \"#utility.yul\":9139:9549   */\n    tag_69:\n        /* \"#utility.yul\":9179:9186   */\n      0x00\n        /* \"#utility.yul\":9202:9222   */\n      tag_230\n        /* \"#utility.yul\":9220:9221   */\n      dup3\n        /* \"#utility.yul\":9202:9222   */\n      tag_97\n      jump\t// in\n    tag_230:\n        /* \"#utility.yul\":9197:9222   */\n      swap2\n      pop\n        /* \"#utility.yul\":9236:9256   */\n      tag_231\n        /* \"#utility.yul\":9254:9255   */\n      dup4\n        /* \"#utility.yul\":9236:9256   */\n      tag_97\n      jump\t// in\n    tag_231:\n        /* \"#utility.yul\":9231:9256   */\n      swap3\n      pop\n        /* \"#utility.yul\":9291:9292   */\n      dup3\n        /* \"#utility.yul\":9288:9289   */\n      dup3\n        /* \"#utility.yul\":9284:9293   */\n      mul\n        /* \"#utility.yul\":9313:9343   */\n      tag_232\n        /* \"#utility.yul\":9331:9342   */\n      dup2\n        /* \"#utility.yul\":9313:9343   */\n      tag_97\n      jump\t// in\n    tag_232:\n        /* \"#utility.yul\":9302:9343   */\n      swap2\n      pop\n        /* \"#utility.yul\":9492:9493   */\n      dup3\n        /* \"#utility.yul\":9483:9490   */\n      dup3\n        /* \"#utility.yul\":9479:9494   */\n      div\n        /* \"#utility.yul\":9476:9477   */\n      dup5\n        /* \"#utility.yul\":9473:9495   */\n      eq\n        /* \"#utility.yul\":9453:9454   */\n      dup4\n        /* \"#utility.yul\":9446:9455   */\n      iszero\n        /* \"#utility.yul\":9426:9509   */\n      or\n        /* \"#utility.yul\":9403:9542   */\n      tag_233\n      jumpi\n        /* \"#utility.yul\":9522:9540   */\n      tag_234\n      tag_116\n      jump\t// in\n    tag_234:\n        /* \"#utility.yul\":9403:9542   */\n    tag_233:\n        /* \"#utility.yul\":9187:9549   */\n      pop\n        /* \"#utility.yul\":9139:9549   */\n      swap3\n      swap2\n      pop\n      pop\n      jump\t// out\n        /* \"#utility.yul\":9555:9746   */\n    tag_71:\n        /* \"#utility.yul\":9595:9598   */\n      0x00\n        /* \"#utility.yul\":9614:9634   */\n      tag_236\n        /* \"#utility.yul\":9632:9633   */\n      dup3\n        /* \"#utility.yul\":9614:9634   */\n      tag_97\n      jump\t// in\n    tag_236:\n        /* \"#utility.yul\":9609:9634   */\n      swap2\n      pop\n        /* \"#utility.yul\":9648:9668   */\n      tag_237\n        /* \"#utility.yul\":9666:9667   */\n      dup4\n        /* \"#utility.yul\":9648:9668   */\n      tag_97\n      jump\t// in\n    tag_237:\n        /* \"#utility.yul\":9643:9668   */\n      swap3\n      pop\n        /* \"#utility.yul\":9691:9692   */\n      dup3\n        /* \"#utility.yul\":9688:9689   */\n      dup3\n        /* \"#utility.yul\":9684:9693   */\n      add\n        /* \"#utility.yul\":9677:9693   */\n      swap1\n      pop\n        /* \"#utility.yul\":9712:9715   */\n      dup1\n        /* \"#utility.yul\":9709:9710   */\n      dup3\n        /* \"#utility.yul\":9706:9716   */\n      gt\n        /* \"#utility.yul\":9703:9739   */\n      iszero\n      tag_238\n      jumpi\n        /* \"#utility.yul\":9719:9737   */\n      tag_239\n      tag_116\n      jump\t// in\n    tag_239:\n        /* \"#utility.yul\":9703:9739   */\n    tag_238:\n        /* \"#utility.yul\":9555:9746   */\n      swap3\n      swap2\n      pop\n      pop\n      jump\t// out\n        /* \"#utility.yul\":9752:9925   */\n    tag_120:\n        /* \"#utility.yul\":9892:9917   */\n      0x576f756c6420657863656564206d617820737570706c79000000000000000000\n        /* \"#utility.yul\":9888:9889   */\n      0x00\n        /* \"#utility.yul\":9880:9886   */\n      dup3\n        /* \"#utility.yul\":9876:9890   */\n      add\n        /* \"#utility.yul\":9869:9918   */\n      mstore\n        /* \"#utility.yul\":9752:9925   */\n      pop\n      jump\t// out\n        /* \"#utility.yul\":9931:10297   */\n    tag_121:\n        /* \"#utility.yul\":10073:10076   */\n      0x00\n        /* \"#utility.yul\":10094:10161   */\n      tag_242\n        /* \"#utility.yul\":10158:10160   */\n      0x17\n        /* \"#utility.yul\":10153:10156   */\n      dup4\n        /* \"#utility.yul\":10094:10161   */\n      tag_93\n      jump\t// in\n    tag_242:\n        /* \"#utility.yul\":10087:10161   */\n      swap2\n      pop\n        /* \"#utility.yul\":10170:10263   */\n      tag_243\n        /* \"#utility.yul\":10259:10262   */\n      dup3\n        /* \"#utility.yul\":10170:10263   */\n      tag_120\n      jump\t// in\n    tag_243:\n        /* \"#utility.yul\":10288:10290   */\n      0x20\n        /* \"#utility.yul\":10283:10286   */\n      dup3\n        /* \"#utility.yul\":10279:10291   */\n      add\n        /* \"#utility.yul\":10272:10291   */\n      swap1\n      pop\n        /* \"#utility.yul\":9931:10297   */\n      swap2\n      swap1\n      pop\n      jump\t// out\n        /* \"#utility.yul\":10303:10722   */\n    tag_74:\n        /* \"#utility.yul\":10469:10473   */\n      0x00\n        /* \"#utility.yul\":10507:10509   */\n      0x20\n        /* \"#utility.yul\":10496:10505   */\n      dup3\n        /* \"#utility.yul\":10492:10510   */\n      add\n        /* \"#utility.yul\":10484:10510   */\n      swap1\n      pop\n        /* \"#utility.yul\":10556:10565   */\n      dup2\n        /* \"#utility.yul\":10550:10554   */\n      dup2\n        /* \"#utility.yul\":10546:10566   */\n      sub\n        /* \"#utility.yul\":10542:10543   */\n      0x00\n        /* \"#utility.yul\":10531:10540   */\n      dup4\n        /* \"#utility.yul\":10527:10544   */\n      add\n        /* \"#utility.yul\":10520:10567   */\n      mstore\n        /* \"#utility.yul\":10584:10715   */\n      tag_245\n        /* \"#utility.yul\":10710:10714   */\n      dup2\n        /* \"#utility.yul\":10584:10715   */\n      tag_121\n      jump\t// in\n    tag_245:\n        /* \"#utility.yul\":10576:10715   */\n      swap1\n      pop\n        /* \"#utility.yul\":10303:10722   */\n      swap2\n      swap1\n      pop\n      jump\t// out\n        /* \"#utility.yul\":10728:10892   */\n    tag_122:\n        /* \"#utility.yul\":10868:10884   */\n      0x496e76616c696420616d6f756e74000000000000000000000000000000000000\n        /* \"#utility.yul\":10864:10865   */\n      0x00\n        /* \"#utility.yul\":10856:10862   */\n      dup3\n        /* \"#utility.yul\":10852:10866   */\n      add\n        /* \"#utility.yul\":10845:10885   */\n      mstore\n        /* \"#utility.yul\":10728:10892   */\n      pop\n      jump\t// out\n        /* \"#utility.yul\":10898:11264   */\n    tag_123:\n        /* \"#utility.yul\":11040:11043   */\n      0x00\n        /* \"#utility.yul\":11061:11128   */\n      tag_248\n        /* \"#utility.yul\":11125:11127   */\n      0x0e\n        /* \"#utility.yul\":11120:11123   */\n      dup4\n        /* \"#utility.yul\":11061:11128   */\n      tag_93\n      jump\t// in\n    tag_248:\n        /* \"#utility.yul\":11054:11128   */\n      swap2\n      pop\n        /* \"#utility.yul\":11137:11230   */\n      tag_249\n        /* \"#utility.yul\":11226:11229   */\n      dup3\n        /* \"#utility.yul\":11137:11230   */\n      tag_122\n      jump\t// in\n    tag_249:\n        /* \"#utility.yul\":11255:11257   */\n      0x20\n        /* \"#utility.yul\":11250:11253   */\n      dup3\n        /* \"#utility.yul\":11246:11258   */\n      add\n        /* \"#utility.yul\":11239:11258   */\n      swap1\n      pop\n        /* \"#utility.yul\":10898:11264   */\n      swap2\n      swap1\n      pop\n      jump\t// out\n        /* \"#utility.yul\":11270:11689   */\n    tag_77:\n        /* \"#utility.yul\":11436:11440   */\n      0x00\n        /* \"#utility.yul\":11474:11476   */\n      0x20\n        /* \"#utility.yul\":11463:11472   */\n      dup3\n        /* \"#utility.yul\":11459:11477   */\n      add\n        /* \"#utility.yul\":11451:11477   */\n      swap1\n      pop\n        /* \"#utility.yul\":11523:11532   */\n      dup2\n        /* \"#utility.yul\":11517:11521   */\n      dup2\n        /* \"#utility.yul\":11513:11533   */\n      sub\n        /* \"#utility.yul\":11509:11510   */\n      0x00\n        /* \"#utility.yul\":11498:11507   */\n      dup4\n        /* \"#utility.yul\":11494:11511   */\n      add\n        /* \"#utility.yul\":11487:11534   */\n      mstore\n        /* \"#utility.yul\":11551:11682   */\n      tag_251\n        /* \"#utility.yul\":11677:11681   */\n      dup2\n        /* \"#utility.yul\":11551:11682   */\n      tag_123\n      jump\t// in\n    tag_251:\n        /* \"#utility.yul\":11543:11682   */\n      swap1\n      pop\n        /* \"#utility.yul\":11270:11689   */\n      swap2\n      swap1\n      pop\n      jump\t// out\n        /* \"#utility.yul\":11695:11860   */\n    tag_124:\n        /* \"#utility.yul\":11835:11852   */\n      0x496e76616c696420416464726573730000000000000000000000000000000000\n        /* \"#utility.yul\":11831:11832   */\n      0x00\n        /* \"#utility.yul\":11823:11829   */\n      dup3\n        /* \"#utility.yul\":11819:11833   */\n      add\n        /* \"#utility.yul\":11812:11853   */\n      mstore\n        /* \"#utility.yul\":11695:11860   */\n      pop\n      jump\t// out\n        /* \"#utility.yul\":11866:12232   */\n    tag_125:\n        /* \"#utility.yul\":12008:12011   */\n      0x00\n        /* \"#utility.yul\":12029:12096   */\n      tag_254\n        /* \"#utility.yul\":12093:12095   */\n      0x0f\n        /* \"#utility.yul\":12088:12091   */\n      dup4\n        /* \"#utility.yul\":12029:12096   */\n      tag_93\n      jump\t// in\n    tag_254:\n        /* \"#utility.yul\":12022:12096   */\n      swap2\n      pop\n        /* \"#utility.yul\":12105:12198   */\n      tag_255\n        /* \"#utility.yul\":12194:12197   */\n      dup3\n        /* \"#utility.yul\":12105:12198   */\n      tag_124\n      jump\t// in\n    tag_255:\n        /* \"#utility.yul\":12223:12225   */\n      0x20\n        /* \"#utility.yul\":12218:12221   */\n      dup3\n        /* \"#utility.yul\":12214:12226   */\n      add\n        /* \"#utility.yul\":12207:12226   */\n      swap1\n      pop\n        /* \"#utility.yul\":11866:12232   */\n      swap2\n      swap1\n      pop\n      jump\t// out\n        /* \"#utility.yul\":12238:12657   */\n    tag_84:\n        /* \"#utility.yul\":12404:12408   */\n      0x00\n        /* \"#utility.yul\":12442:12444   */\n      0x20\n        /* \"#utility.yul\":12431:12440   */\n      dup3\n        /* \"#utility.yul\":12427:12445   */\n      add\n        /* \"#utility.yul\":12419:12445   */\n      swap1\n      pop\n        /* \"#utility.yul\":12491:12500   */\n      dup2\n        /* \"#utility.yul\":12485:12489   */\n      dup2\n        /* \"#utility.yul\":12481:12501   */\n      sub\n        /* \"#utility.yul\":12477:12478   */\n      0x00\n        /* \"#utility.yul\":12466:12475   */\n      dup4\n        /* \"#utility.yul\":12462:12479   */\n      add\n        /* \"#utility.yul\":12455:12502   */\n      mstore\n        /* \"#utility.yul\":12519:12650   */\n      tag_257\n        /* \"#utility.yul\":12645:12649   */\n      dup2\n        /* \"#utility.yul\":12519:12650   */\n      tag_125\n      jump\t// in\n    tag_257:\n        /* \"#utility.yul\":12511:12650   */\n      swap1\n      pop\n        /* \"#utility.yul\":12238:12657   */\n      swap2\n      swap1\n      pop\n      jump\t// out\n        /* \"#utility.yul\":12663:12832   */\n    tag_126:\n        /* \"#utility.yul\":12803:12824   */\n      0x496e73756666696369656e7420746f6b656e7300000000000000000000000000\n        /* \"#utility.yul\":12799:12800   */\n      0x00\n        /* \"#utility.yul\":12791:12797   */\n      dup3\n        /* \"#utility.yul\":12787:12801   */\n      add\n        /* \"#utility.yul\":12780:12825   */\n      mstore\n        /* \"#utility.yul\":12663:12832   */\n      pop\n      jump\t// out\n        /* \"#utility.yul\":12838:13204   */\n    tag_127:\n        /* \"#utility.yul\":12980:12983   */\n      0x00\n        /* \"#utility.yul\":13001:13068   */\n      tag_260\n        /* \"#utility.yul\":13065:13067   */\n      0x13\n        /* \"#utility.yul\":13060:13063   */\n      dup4\n        /* \"#utility.yul\":13001:13068   */\n      tag_93\n      jump\t// in\n    tag_260:\n        /* \"#utility.yul\":12994:13068   */\n      swap2\n      pop\n        /* \"#utility.yul\":13077:13170   */\n      tag_261\n        /* \"#utility.yul\":13166:13169   */\n      dup3\n        /* \"#utility.yul\":13077:13170   */\n      tag_126\n      jump\t// in\n    tag_261:\n        /* \"#utility.yul\":13195:13197   */\n      0x20\n        /* \"#utility.yul\":13190:13193   */\n      dup3\n        /* \"#utility.yul\":13186:13198   */\n      add\n        /* \"#utility.yul\":13179:13198   */\n      swap1\n      pop\n        /* \"#utility.yul\":12838:13204   */\n      swap2\n      swap1\n      pop\n      jump\t// out\n        /* \"#utility.yul\":13210:13629   */\n    tag_87:\n        /* \"#utility.yul\":13376:13380   */\n      0x00\n        /* \"#utility.yul\":13414:13416   */\n      0x20\n        /* \"#utility.yul\":13403:13412   */\n      dup3\n        /* \"#utility.yul\":13399:13417   */\n      add\n        /* \"#utility.yul\":13391:13417   */\n      swap1\n      pop\n        /* \"#utility.yul\":13463:13472   */\n      dup2\n        /* \"#utility.yul\":13457:13461   */\n      dup2\n        /* \"#utility.yul\":13453:13473   */\n      sub\n        /* \"#utility.yul\":13449:13450   */\n      0x00\n        /* \"#utility.yul\":13438:13447   */\n      dup4\n        /* \"#utility.yul\":13434:13451   */\n      add\n        /* \"#utility.yul\":13427:13474   */\n      mstore\n        /* \"#utility.yul\":13491:13622   */\n      tag_263\n        /* \"#utility.yul\":13617:13621   */\n      dup2\n        /* \"#utility.yul\":13491:13622   */\n      tag_127\n      jump\t// in\n    tag_263:\n        /* \"#utility.yul\":13483:13622   */\n      swap1\n      pop\n        /* \"#utility.yul\":13210:13629   */\n      swap2\n      swap1\n      pop\n      jump\t// out\n        /* \"#utility.yul\":13635:13829   */\n    tag_89:\n        /* \"#utility.yul\":13675:13679   */\n      0x00\n        /* \"#utility.yul\":13695:13715   */\n      tag_265\n        /* \"#utility.yul\":13713:13714   */\n      dup3\n        /* \"#utility.yul\":13695:13715   */\n      tag_97\n      jump\t// in\n    tag_265:\n        /* \"#utility.yul\":13690:13715   */\n      swap2\n      pop\n        /* \"#utility.yul\":13729:13749   */\n      tag_266\n        /* \"#utility.yul\":13747:13748   */\n      dup4\n        /* \"#utility.yul\":13729:13749   */\n      tag_97\n      jump\t// in\n    tag_266:\n        /* \"#utility.yul\":13724:13749   */\n      swap3\n      pop\n        /* \"#utility.yul\":13773:13774   */\n      dup3\n        /* \"#utility.yul\":13770:13771   */\n      dup3\n        /* \"#utility.yul\":13766:13775   */\n      sub\n        /* \"#utility.yul\":13758:13775   */\n      swap1\n      pop\n        /* \"#utility.yul\":13797:13798   */\n      dup2\n        /* \"#utility.yul\":13791:13795   */\n      dup2\n        /* \"#utility.yul\":13788:13799   */\n      gt\n        /* \"#utility.yul\":13785:13822   */\n      iszero\n      tag_267\n      jumpi\n        /* \"#utility.yul\":13802:13820   */\n      tag_268\n      tag_116\n      jump\t// in\n    tag_268:\n        /* \"#utility.yul\":13785:13822   */\n    tag_267:\n        /* \"#utility.yul\":13635:13829   */\n      swap3\n      swap2\n      pop\n      pop\n      jump\t// out\n\n    auxdata: 0xa2646970667358221220c35743afde363d779c3606a70dfa02e06b24d8c81a60f8274ea9b055c9984af964736f6c634300081f0033\n}\n",
				"bytecode": {
					"linkReferences": {},
					"object": "60806040526040518060400160405280600c81526020017f417468656e6120546f6b656e00000000000000000000000000000000000000008152505f908161004791906104a7565b506040518060400160405280600381526020017f41544800000000000000000000000000000000000000000000000000000000008152506001908161008c91906104a7565b50601260025f6101000a81548160ff021916908360ff16021790555060025f9054906101000a900460ff1660ff16600a6100c691906106d2565b629896806100d4919061071c565b6003553480156100e2575f5ffd5b506040516117123803806117128339818101604052810190610104919061078b565b3360045f6101000a81548173ffffffffffffffffffffffffffffffffffffffff021916908373ffffffffffffffffffffffffffffffffffffffff1602179055505f60025f9054906101000a900460ff1660ff16600a61016391906106d2565b8261016e919061071c565b90506003548111156101b5576040517f08c379a00000000000000000000000000000000000000000000000000000000081526004016101ac90610810565b60405180910390fd5b806005819055508060065f3373ffffffffffffffffffffffffffffffffffffffff1673ffffffffffffffffffffffffffffffffffffffff1681526020019081526020015f20819055503373ffffffffffffffffffffffffffffffffffffffff165f73ffffffffffffffffffffffffffffffffffffffff167fddf252ad1be2c89b69c2b068fc378daa952ba7f163c4a11628f55a4df523b3ef8360405161025b919061083d565b60405180910390a35050610856565b5f81519050919050565b7f4e487b71000000000000000000000000000000000000000000000000000000005f52604160045260245ffd5b7f4e487b71000000000000000000000000000000000000000000000000000000005f52602260045260245ffd5b5f60028204905060018216806102e557607f821691505b6020821081036102f8576102f76102a1565b5b50919050565b5f819050815f5260205f209050919050565b5f6020601f8301049050919050565b5f82821b905092915050565b5f6008830261035a7fffffffffffffffffffffffffffffffffffffffffffffffffffffffffffffffff8261031f565b610364868361031f565b95508019841693508086168417925050509392505050565b5f819050919050565b5f819050919050565b5f6103a86103a361039e8461037c565b610385565b61037c565b9050919050565b5f819050919050565b6103c18361038e565b6103d56103cd826103af565b84845461032b565b825550505050565b5f5f905090565b6103ec6103dd565b6103f78184846103b8565b505050565b5b8181101561041a5761040f5f826103e4565b6001810190506103fd565b5050565b601f82111561045f57610430816102fe565b61043984610310565b81016020851015610448578190505b61045c61045485610310565b8301826103fc565b50505b505050565b5f82821c905092915050565b5f61047f5f1984600802610464565b1980831691505092915050565b5f6104978383610470565b9150826002028217905092915050565b6104b08261026a565b67ffffffffffffffff8111156104c9576104c8610274565b5b6104d382546102ce565b6104de82828561041e565b5f60209050601f83116001811461050f575f84156104fd578287015190505b610507858261048c565b86555061056e565b601f19841661051d866102fe565b5f5b828110156105445784890151825560018201915060208501945060208101905061051f565b86831015610561578489015161055d601f891682610470565b8355505b6001600288020188555050505b505050505050565b7f4e487b71000000000000000000000000000000000000000000000000000000005f52601160045260245ffd5b5f8160011c9050919050565b5f5f8291508390505b60018511156105f8578086048111156105d4576105d3610576565b5b60018516156105e35780820291505b80810290506105f1856105a3565b94506105b8565b94509492505050565b5f8261061057600190506106cb565b8161061d575f90506106cb565b8160018114610633576002811461063d5761066c565b60019150506106cb565b60ff84111561064f5761064e610576565b5b8360020a91508482111561066657610665610576565b5b506106cb565b5060208310610133831016604e8410600b84101617156106a15782820a90508381111561069c5761069b610576565b5b6106cb565b6106ae84848460016105af565b925090508184048111156106c5576106c4610576565b5b81810290505b9392505050565b5f6106dc8261037c565b91506106e78361037c565b92506107147fffffffffffffffffffffffffffffffffffffffffffffffffffffffffffffffff8484610601565b905092915050565b5f6107268261037c565b91506107318361037c565b925082820261073f8161037c565b9150828204841483151761075657610755610576565b5b5092915050565b5f5ffd5b61076a8161037c565b8114610774575f5ffd5b50565b5f8151905061078581610761565b92915050565b5f602082840312156107a05761079f61075d565b5b5f6107ad84828501610777565b91505092915050565b5f82825260208201905092915050565b7f45786365656473206d617820737570706c7900000000000000000000000000005f82015250565b5f6107fa6012836107b6565b9150610805826107c6565b602082019050919050565b5f6020820190508181035f830152610827816107ee565b9050919050565b6108378161037c565b82525050565b5f6020820190506108505f83018461082e565b92915050565b610eaf806108635f395ff3fe608060405234801561000f575f5ffd5b5060043610610091575f3560e01c80638da5cb5b116100645780638da5cb5b1461011f57806395d89b411461013d578063a0712d681461015b578063a9059cbb14610177578063d5abeb01146101a757610091565b806306fdde031461009557806318160ddd146100b3578063313ce567146100d157806370a08231146100ef575b5f5ffd5b61009d6101c5565b6040516100aa91906107cb565b60405180910390f35b6100bb610250565b6040516100c89190610803565b60405180910390f35b6100d9610256565b6040516100e69190610837565b60405180910390f35b610109600480360381019061010491906108ae565b610268565b6040516101169190610803565b60405180910390f35b61012761027d565b60405161013491906108e8565b60405180910390f35b6101456102a2565b60405161015291906107cb565b60405180910390f35b6101756004803603810190610170919061092b565b61032e565b005b610191600480360381019061018c9190610956565b610551565b60405161019e91906109ae565b60405180910390f35b6101af610755565b6040516101bc9190610803565b60405180910390f35b5f80546101d1906109f4565b80601f01602080910402602001604051908101604052809291908181526020018280546101fd906109f4565b80156102485780601f1061021f57610100808354040283529160200191610248565b820191905f5260205f20905b81548152906001019060200180831161022b57829003601f168201915b505050505081565b60055481565b60025f9054906101000a900460ff1681565b6006602052805f5260405f205f915090505481565b60045f9054906101000a900473ffffffffffffffffffffffffffffffffffffffff1681565b600180546102af906109f4565b80601f01602080910402602001604051908101604052809291908181526020018280546102db906109f4565b80156103265780601f106102fd57610100808354040283529160200191610326565b820191905f5260205f20905b81548152906001019060200180831161030957829003601f168201915b505050505081565b60045f9054906101000a900473ffffffffffffffffffffffffffffffffffffffff1673ffffffffffffffffffffffffffffffffffffffff163373ffffffffffffffffffffffffffffffffffffffff16146103bd576040517f08c379a00000000000000000000000000000000000000000000000000000000081526004016103b490610a6e565b60405180910390fd5b5f60025f9054906101000a900460ff1660ff16600a6103dc9190610be8565b826103e79190610c32565b9050600354816005546103fa9190610c73565b111561043b576040517f08c379a000000000000000000000000000000000000000000000000000000000815260040161043290610cf0565b60405180910390fd5b5f821161047d576040517f08c379a000000000000000000000000000000000000000000000000000000000815260040161047490610d58565b60405180910390fd5b8060055f82825461048e9190610c73565b925050819055508060065f3373ffffffffffffffffffffffffffffffffffffffff1673ffffffffffffffffffffffffffffffffffffffff1681526020019081526020015f205f8282546104e19190610c73565b925050819055503373ffffffffffffffffffffffffffffffffffffffff165f73ffffffffffffffffffffffffffffffffffffffff167fddf252ad1be2c89b69c2b068fc378daa952ba7f163c4a11628f55a4df523b3ef836040516105459190610803565b60405180910390a35050565b5f5f73ffffffffffffffffffffffffffffffffffffffff168373ffffffffffffffffffffffffffffffffffffffff16036105c0576040517f08c379a00000000000000000000000000000000000000000000000000000000081526004016105b790610dc0565b60405180910390fd5b60065f3373ffffffffffffffffffffffffffffffffffffffff1673ffffffffffffffffffffffffffffffffffffffff1681526020019081526020015f2054821115610640576040517f08c379a000000000000000000000000000000000000000000000000000000000815260040161063790610e28565b60405180910390fd5b8160065f3373ffffffffffffffffffffffffffffffffffffffff1673ffffffffffffffffffffffffffffffffffffffff1681526020019081526020015f205f82825461068c9190610e46565b925050819055508160065f8573ffffffffffffffffffffffffffffffffffffffff1673ffffffffffffffffffffffffffffffffffffffff1681526020019081526020015f205f8282546106df9190610c73565b925050819055508273ffffffffffffffffffffffffffffffffffffffff163373ffffffffffffffffffffffffffffffffffffffff167fddf252ad1be2c89b69c2b068fc378daa952ba7f163c4a11628f55a4df523b3ef846040516107439190610803565b60405180910390a36001905092915050565b60035481565b5f81519050919050565b5f82825260208201905092915050565b8281835e5f83830152505050565b5f601f19601f8301169050919050565b5f61079d8261075b565b6107a78185610765565b93506107b7818560208601610775565b6107c081610783565b840191505092915050565b5f6020820190508181035f8301526107e38184610793565b905092915050565b5f819050919050565b6107fd816107eb565b82525050565b5f6020820190506108165f8301846107f4565b92915050565b5f60ff82169050919050565b6108318161081c565b82525050565b5f60208201905061084a5f830184610828565b92915050565b5f5ffd5b5f73ffffffffffffffffffffffffffffffffffffffff82169050919050565b5f61087d82610854565b9050919050565b61088d81610873565b8114610897575f5ffd5b50565b5f813590506108a881610884565b92915050565b5f602082840312156108c3576108c2610850565b5b5f6108d08482850161089a565b91505092915050565b6108e281610873565b82525050565b5f6020820190506108fb5f8301846108d9565b92915050565b61090a816107eb565b8114610914575f5ffd5b50565b5f8135905061092581610901565b92915050565b5f602082840312156109405761093f610850565b5b5f61094d84828501610917565b91505092915050565b5f5f6040838503121561096c5761096b610850565b5b5f6109798582860161089a565b925050602061098a85828601610917565b9150509250929050565b5f8115159050919050565b6109a881610994565b82525050565b5f6020820190506109c15f83018461099f565b92915050565b7f4e487b71000000000000000000000000000000000000000000000000000000005f52602260045260245ffd5b5f6002820490506001821680610a0b57607f821691505b602082108103610a1e57610a1d6109c7565b5b50919050565b7f4e6f7420746865206f776e6572000000000000000000000000000000000000005f82015250565b5f610a58600d83610765565b9150610a6382610a24565b602082019050919050565b5f6020820190508181035f830152610a8581610a4c565b9050919050565b7f4e487b71000000000000000000000000000000000000000000000000000000005f52601160045260245ffd5b5f8160011c9050919050565b5f5f8291508390505b6001851115610b0e57808604811115610aea57610ae9610a8c565b5b6001851615610af95780820291505b8081029050610b0785610ab9565b9450610ace565b94509492505050565b5f82610b265760019050610be1565b81610b33575f9050610be1565b8160018114610b495760028114610b5357610b82565b6001915050610be1565b60ff841115610b6557610b64610a8c565b5b8360020a915084821115610b7c57610b7b610a8c565b5b50610be1565b5060208310610133831016604e8410600b8410161715610bb75782820a905083811115610bb257610bb1610a8c565b5b610be1565b610bc48484846001610ac5565b92509050818404811115610bdb57610bda610a8c565b5b81810290505b9392505050565b5f610bf2826107eb565b9150610bfd836107eb565b9250610c2a7fffffffffffffffffffffffffffffffffffffffffffffffffffffffffffffffff8484610b17565b905092915050565b5f610c3c826107eb565b9150610c47836107eb565b9250828202610c55816107eb565b91508282048414831517610c6c57610c6b610a8c565b5b5092915050565b5f610c7d826107eb565b9150610c88836107eb565b9250828201905080821115610ca057610c9f610a8c565b5b92915050565b7f576f756c6420657863656564206d617820737570706c790000000000000000005f82015250565b5f610cda601783610765565b9150610ce582610ca6565b602082019050919050565b5f6020820190508181035f830152610d0781610cce565b9050919050565b7f496e76616c696420616d6f756e740000000000000000000000000000000000005f82015250565b5f610d42600e83610765565b9150610d4d82610d0e565b602082019050919050565b5f6020820190508181035f830152610d6f81610d36565b9050919050565b7f496e76616c6964204164647265737300000000000000000000000000000000005f82015250565b5f610daa600f83610765565b9150610db582610d76565b602082019050919050565b5f6020820190508181035f830152610dd781610d9e565b9050919050565b7f496e73756666696369656e7420746f6b656e73000000000000000000000000005f82015250565b5f610e12601383610765565b9150610e1d82610dde565b602082019050919050565b5f6020820190508181035f830152610e3f81610e06565b9050919050565b5f610e50826107eb565b9150610e5b836107eb565b9250828203905081811115610e7357610e72610a8c565b5b9291505056fea2646970667358221220c35743afde363d779c3606a70dfa02e06b24d8c81a60f8274ea9b055c9984af964736f6c634300081f0033",
					"opcodes": "PUSH1 0x80 PUSH1 0x40 MSTORE PUSH1 0x40 MLOAD DUP1 PUSH1 0x40 ADD PUSH1 0x40 MSTORE DUP1 PUSH1 0xC DUP2 MSTORE PUSH1 0x20 ADD PUSH32 0x417468656E6120546F6B656E0000000000000000000000000000000000000000 DUP2 MSTORE POP PUSH0 SWAP1 DUP2 PUSH2 0x47 SWAP2 SWAP1 PUSH2 0x4A7 JUMP JUMPDEST POP PUSH1 0x40 MLOAD DUP1 PUSH1 0x40 ADD PUSH1 0x40 MSTORE DUP1 PUSH1 0x3 DUP2 MSTORE PUSH1 0x20 ADD PUSH32 0x4154480000000000000000000000000000000000000000000000000000000000 DUP2 MSTORE POP PUSH1 0x1 SWAP1 DUP2 PUSH2 0x8C SWAP2 SWAP1 PUSH2 0x4A7 JUMP JUMPDEST POP PUSH1 0x12 PUSH1 0x2 PUSH0 PUSH2 0x100 EXP DUP2 SLOAD DUP2 PUSH1 0xFF MUL NOT AND SWAP1 DUP4 PUSH1 0xFF AND MUL OR SWAP1 SSTORE POP PUSH1 0x2 PUSH0 SWAP1 SLOAD SWAP1 PUSH2 0x100 EXP SWAP1 DIV PUSH1 0xFF AND PUSH1 0xFF AND PUSH1 0xA PUSH2 0xC6 SWAP2 SWAP1 PUSH2 0x6D2 JUMP JUMPDEST PUSH3 0x989680 PUSH2 0xD4 SWAP2 SWAP1 PUSH2 0x71C JUMP JUMPDEST PUSH1 0x3 SSTORE CALLVALUE DUP1 ISZERO PUSH2 0xE2 JUMPI PUSH0 PUSH0 REVERT JUMPDEST POP PUSH1 0x40 MLOAD PUSH2 0x1712 CODESIZE SUB DUP1 PUSH2 0x1712 DUP4 CODECOPY DUP2 DUP2 ADD PUSH1 0x40 MSTORE DUP2 ADD SWAP1 PUSH2 0x104 SWAP2 SWAP1 PUSH2 0x78B JUMP JUMPDEST CALLER PUSH1 0x4 PUSH0 PUSH2 0x100 EXP DUP2 SLOAD DUP2 PUSH20 0xFFFFFFFFFFFFFFFFFFFFFFFFFFFFFFFFFFFFFFFF MUL NOT AND SWAP1 DUP4 PUSH20 0xFFFFFFFFFFFFFFFFFFFFFFFFFFFFFFFFFFFFFFFF AND MUL OR SWAP1 SSTORE POP PUSH0 PUSH1 0x2 PUSH0 SWAP1 SLOAD SWAP1 PUSH2 0x100 EXP SWAP1 DIV PUSH1 0xFF AND PUSH1 0xFF AND PUSH1 0xA PUSH2 0x163 SWAP2 SWAP1 PUSH2 0x6D2 JUMP JUMPDEST DUP3 PUSH2 0x16E SWAP2 SWAP1 PUSH2 0x71C JUMP JUMPDEST SWAP1 POP PUSH1 0x3 SLOAD DUP2 GT ISZERO PUSH2 0x1B5 JUMPI PUSH1 0x40 MLOAD PUSH32 0x8C379A000000000000000000000000000000000000000000000000000000000 DUP2 MSTORE PUSH1 0x4 ADD PUSH2 0x1AC SWAP1 PUSH2 0x810 JUMP JUMPDEST PUSH1 0x40 MLOAD DUP1 SWAP2 SUB SWAP1 REVERT JUMPDEST DUP1 PUSH1 0x5 DUP2 SWAP1 SSTORE POP DUP1 PUSH1 0x6 PUSH0 CALLER PUSH20 0xFFFFFFFFFFFFFFFFFFFFFFFFFFFFFFFFFFFFFFFF AND PUSH20 0xFFFFFFFFFFFFFFFFFFFFFFFFFFFFFFFFFFFFFFFF AND DUP2 MSTORE PUSH1 0x20 ADD SWAP1 DUP2 MSTORE PUSH1 0x20 ADD PUSH0 KECCAK256 DUP2 SWAP1 SSTORE POP CALLER PUSH20 0xFFFFFFFFFFFFFFFFFFFFFFFFFFFFFFFFFFFFFFFF AND PUSH0 PUSH20 0xFFFFFFFFFFFFFFFFFFFFFFFFFFFFFFFFFFFFFFFF AND PUSH32 0xDDF252AD1BE2C89B69C2B068FC378DAA952BA7F163C4A11628F55A4DF523B3EF DUP4 PUSH1 0x40 MLOAD PUSH2 0x25B SWAP2 SWAP1 PUSH2 0x83D JUMP JUMPDEST PUSH1 0x40 MLOAD DUP1 SWAP2 SUB SWAP1 LOG3 POP POP PUSH2 0x856 JUMP JUMPDEST PUSH0 DUP2 MLOAD SWAP1 POP SWAP2 SWAP1 POP JUMP JUMPDEST PUSH32 0x4E487B7100000000000000000000000000000000000000000000000000000000 PUSH0 MSTORE PUSH1 0x41 PUSH1 0x4 MSTORE PUSH1 0x24 PUSH0 REVERT JUMPDEST PUSH32 0x4E487B7100000000000000000000000000000000000000000000000000000000 PUSH0 MSTORE PUSH1 0x22 PUSH1 0x4 MSTORE PUSH1 0x24 PUSH0 REVERT JUMPDEST PUSH0 PUSH1 0x2 DUP3 DIV SWAP1 POP PUSH1 0x1 DUP3 AND DUP1 PUSH2 0x2E5 JUMPI PUSH1 0x7F DUP3 AND SWAP2 POP JUMPDEST PUSH1 0x20 DUP3 LT DUP2 SUB PUSH2 0x2F8 JUMPI PUSH2 0x2F7 PUSH2 0x2A1 JUMP JUMPDEST JUMPDEST POP SWAP2 SWAP1 POP JUMP JUMPDEST PUSH0 DUP2 SWAP1 POP DUP2 PUSH0 MSTORE PUSH1 0x20 PUSH0 KECCAK256 SWAP1 POP SWAP2 SWAP1 POP JUMP JUMPDEST PUSH0 PUSH1 0x20 PUSH1 0x1F DUP4 ADD DIV SWAP1 POP SWAP2 SWAP1 POP JUMP JUMPDEST PUSH0 DUP3 DUP3 SHL SWAP1 POP SWAP3 SWAP2 POP POP JUMP JUMPDEST PUSH0 PUSH1 0x8 DUP4 MUL PUSH2 0x35A PUSH32 0xFFFFFFFFFFFFFFFFFFFFFFFFFFFFFFFFFFFFFFFFFFFFFFFFFFFFFFFFFFFFFFFF DUP3 PUSH2 0x31F JUMP JUMPDEST PUSH2 0x364 DUP7 DUP4 PUSH2 0x31F JUMP JUMPDEST SWAP6 POP DUP1 NOT DUP5 AND SWAP4 POP DUP1 DUP7 AND DUP5 OR SWAP3 POP POP POP SWAP4 SWAP3 POP POP POP JUMP JUMPDEST PUSH0 DUP2 SWAP1 POP SWAP2 SWAP1 POP JUMP JUMPDEST PUSH0 DUP2 SWAP1 POP SWAP2 SWAP1 POP JUMP JUMPDEST PUSH0 PUSH2 0x3A8 PUSH2 0x3A3 PUSH2 0x39E DUP5 PUSH2 0x37C JUMP JUMPDEST PUSH2 0x385 JUMP JUMPDEST PUSH2 0x37C JUMP JUMPDEST SWAP1 POP SWAP2 SWAP1 POP JUMP JUMPDEST PUSH0 DUP2 SWAP1 POP SWAP2 SWAP1 POP JUMP JUMPDEST PUSH2 0x3C1 DUP4 PUSH2 0x38E JUMP JUMPDEST PUSH2 0x3D5 PUSH2 0x3CD DUP3 PUSH2 0x3AF JUMP JUMPDEST DUP5 DUP5 SLOAD PUSH2 0x32B JUMP JUMPDEST DUP3 SSTORE POP POP POP POP JUMP JUMPDEST PUSH0 PUSH0 SWAP1 POP SWAP1 JUMP JUMPDEST PUSH2 0x3EC PUSH2 0x3DD JUMP JUMPDEST PUSH2 0x3F7 DUP2 DUP5 DUP5 PUSH2 0x3B8 JUMP JUMPDEST POP POP POP JUMP JUMPDEST JUMPDEST DUP2 DUP2 LT ISZERO PUSH2 0x41A JUMPI PUSH2 0x40F PUSH0 DUP3 PUSH2 0x3E4 JUMP JUMPDEST PUSH1 0x1 DUP2 ADD SWAP1 POP PUSH2 0x3FD JUMP JUMPDEST POP POP JUMP JUMPDEST PUSH1 0x1F DUP3 GT ISZERO PUSH2 0x45F JUMPI PUSH2 0x430 DUP2 PUSH2 0x2FE JUMP JUMPDEST PUSH2 0x439 DUP5 PUSH2 0x310 JUMP JUMPDEST DUP2 ADD PUSH1 0x20 DUP6 LT ISZERO PUSH2 0x448 JUMPI DUP2 SWAP1 POP JUMPDEST PUSH2 0x45C PUSH2 0x454 DUP6 PUSH2 0x310 JUMP JUMPDEST DUP4 ADD DUP3 PUSH2 0x3FC JUMP JUMPDEST POP POP JUMPDEST POP POP POP JUMP JUMPDEST PUSH0 DUP3 DUP3 SHR SWAP1 POP SWAP3 SWAP2 POP POP JUMP JUMPDEST PUSH0 PUSH2 0x47F PUSH0 NOT DUP5 PUSH1 0x8 MUL PUSH2 0x464 JUMP JUMPDEST NOT DUP1 DUP4 AND SWAP2 POP POP SWAP3 SWAP2 POP POP JUMP JUMPDEST PUSH0 PUSH2 0x497 DUP4 DUP4 PUSH2 0x470 JUMP JUMPDEST SWAP2 POP DUP3 PUSH1 0x2 MUL DUP3 OR SWAP1 POP SWAP3 SWAP2 POP POP JUMP JUMPDEST PUSH2 0x4B0 DUP3 PUSH2 0x26A JUMP JUMPDEST PUSH8 0xFFFFFFFFFFFFFFFF DUP2 GT ISZERO PUSH2 0x4C9 JUMPI PUSH2 0x4C8 PUSH2 0x274 JUMP JUMPDEST JUMPDEST PUSH2 0x4D3 DUP3 SLOAD PUSH2 0x2CE JUMP JUMPDEST PUSH2 0x4DE DUP3 DUP3 DUP6 PUSH2 0x41E JUMP JUMPDEST PUSH0 PUSH1 0x20 SWAP1 POP PUSH1 0x1F DUP4 GT PUSH1 0x1 DUP2 EQ PUSH2 0x50F JUMPI PUSH0 DUP5 ISZERO PUSH2 0x4FD JUMPI DUP3 DUP8 ADD MLOAD SWAP1 POP JUMPDEST PUSH2 0x507 DUP6 DUP3 PUSH2 0x48C JUMP JUMPDEST DUP7 SSTORE POP PUSH2 0x56E JUMP JUMPDEST PUSH1 0x1F NOT DUP5 AND PUSH2 0x51D DUP7 PUSH2 0x2FE JUMP JUMPDEST PUSH0 JUMPDEST DUP3 DUP2 LT ISZERO PUSH2 0x544 JUMPI DUP5 DUP10 ADD MLOAD DUP3 SSTORE PUSH1 0x1 DUP3 ADD SWAP2 POP PUSH1 0x20 DUP6 ADD SWAP5 POP PUSH1 0x20 DUP2 ADD SWAP1 POP PUSH2 0x51F JUMP JUMPDEST DUP7 DUP4 LT ISZERO PUSH2 0x561 JUMPI DUP5 DUP10 ADD MLOAD PUSH2 0x55D PUSH1 0x1F DUP10 AND DUP3 PUSH2 0x470 JUMP JUMPDEST DUP4 SSTORE POP JUMPDEST PUSH1 0x1 PUSH1 0x2 DUP9 MUL ADD DUP9 SSTORE POP POP POP JUMPDEST POP POP POP POP POP POP JUMP JUMPDEST PUSH32 0x4E487B7100000000000000000000000000000000000000000000000000000000 PUSH0 MSTORE PUSH1 0x11 PUSH1 0x4 MSTORE PUSH1 0x24 PUSH0 REVERT JUMPDEST PUSH0 DUP2 PUSH1 0x1 SHR SWAP1 POP SWAP2 SWAP1 POP JUMP JUMPDEST PUSH0 PUSH0 DUP3 SWAP2 POP DUP4 SWAP1 POP JUMPDEST PUSH1 0x1 DUP6 GT ISZERO PUSH2 0x5F8 JUMPI DUP1 DUP7 DIV DUP2 GT ISZERO PUSH2 0x5D4 JUMPI PUSH2 0x5D3 PUSH2 0x576 JUMP JUMPDEST JUMPDEST PUSH1 0x1 DUP6 AND ISZERO PUSH2 0x5E3 JUMPI DUP1 DUP3 MUL SWAP2 POP JUMPDEST DUP1 DUP2 MUL SWAP1 POP PUSH2 0x5F1 DUP6 PUSH2 0x5A3 JUMP JUMPDEST SWAP5 POP PUSH2 0x5B8 JUMP JUMPDEST SWAP5 POP SWAP5 SWAP3 POP POP POP JUMP JUMPDEST PUSH0 DUP3 PUSH2 0x610 JUMPI PUSH1 0x1 SWAP1 POP PUSH2 0x6CB JUMP JUMPDEST DUP2 PUSH2 0x61D JUMPI PUSH0 SWAP1 POP PUSH2 0x6CB JUMP JUMPDEST DUP2 PUSH1 0x1 DUP2 EQ PUSH2 0x633 JUMPI PUSH1 0x2 DUP2 EQ PUSH2 0x63D JUMPI PUSH2 0x66C JUMP JUMPDEST PUSH1 0x1 SWAP2 POP POP PUSH2 0x6CB JUMP JUMPDEST PUSH1 0xFF DUP5 GT ISZERO PUSH2 0x64F JUMPI PUSH2 0x64E PUSH2 0x576 JUMP JUMPDEST JUMPDEST DUP4 PUSH1 0x2 EXP SWAP2 POP DUP5 DUP3 GT ISZERO PUSH2 0x666 JUMPI PUSH2 0x665 PUSH2 0x576 JUMP JUMPDEST JUMPDEST POP PUSH2 0x6CB JUMP JUMPDEST POP PUSH1 0x20 DUP4 LT PUSH2 0x133 DUP4 LT AND PUSH1 0x4E DUP5 LT PUSH1 0xB DUP5 LT AND OR ISZERO PUSH2 0x6A1 JUMPI DUP3 DUP3 EXP SWAP1 POP DUP4 DUP2 GT ISZERO PUSH2 0x69C JUMPI PUSH2 0x69B PUSH2 0x576 JUMP JUMPDEST JUMPDEST PUSH2 0x6CB JUMP JUMPDEST PUSH2 0x6AE DUP5 DUP5 DUP5 PUSH1 0x1 PUSH2 0x5AF JUMP JUMPDEST SWAP3 POP SWAP1 POP DUP2 DUP5 DIV DUP2 GT ISZERO PUSH2 0x6C5 JUMPI PUSH2 0x6C4 PUSH2 0x576 JUMP JUMPDEST JUMPDEST DUP2 DUP2 MUL SWAP1 POP JUMPDEST SWAP4 SWAP3 POP POP POP JUMP JUMPDEST PUSH0 PUSH2 0x6DC DUP3 PUSH2 0x37C JUMP JUMPDEST SWAP2 POP PUSH2 0x6E7 DUP4 PUSH2 0x37C JUMP JUMPDEST SWAP3 POP PUSH2 0x714 PUSH32 0xFFFFFFFFFFFFFFFFFFFFFFFFFFFFFFFFFFFFFFFFFFFFFFFFFFFFFFFFFFFFFFFF DUP5 DUP5 PUSH2 0x601 JUMP JUMPDEST SWAP1 POP SWAP3 SWAP2 POP POP JUMP JUMPDEST PUSH0 PUSH2 0x726 DUP3 PUSH2 0x37C JUMP JUMPDEST SWAP2 POP PUSH2 0x731 DUP4 PUSH2 0x37C JUMP JUMPDEST SWAP3 POP DUP3 DUP3 MUL PUSH2 0x73F DUP2 PUSH2 0x37C JUMP JUMPDEST SWAP2 POP DUP3 DUP3 DIV DUP5 EQ DUP4 ISZERO OR PUSH2 0x756 JUMPI PUSH2 0x755 PUSH2 0x576 JUMP JUMPDEST JUMPDEST POP SWAP3 SWAP2 POP POP JUMP JUMPDEST PUSH0 PUSH0 REVERT JUMPDEST PUSH2 0x76A DUP2 PUSH2 0x37C JUMP JUMPDEST DUP2 EQ PUSH2 0x774 JUMPI PUSH0 PUSH0 REVERT JUMPDEST POP JUMP JUMPDEST PUSH0 DUP2 MLOAD SWAP1 POP PUSH2 0x785 DUP2 PUSH2 0x761 JUMP JUMPDEST SWAP3 SWAP2 POP POP JUMP JUMPDEST PUSH0 PUSH1 0x20 DUP3 DUP5 SUB SLT ISZERO PUSH2 0x7A0 JUMPI PUSH2 0x79F PUSH2 0x75D JUMP JUMPDEST JUMPDEST PUSH0 PUSH2 0x7AD DUP5 DUP3 DUP6 ADD PUSH2 0x777 JUMP JUMPDEST SWAP2 POP POP SWAP3 SWAP2 POP POP JUMP JUMPDEST PUSH0 DUP3 DUP3 MSTORE PUSH1 0x20 DUP3 ADD SWAP1 POP SWAP3 SWAP2 POP POP JUMP JUMPDEST PUSH32 0x45786365656473206D617820737570706C790000000000000000000000000000 PUSH0 DUP3 ADD MSTORE POP JUMP JUMPDEST PUSH0 PUSH2 0x7FA PUSH1 0x12 DUP4 PUSH2 0x7B6 JUMP JUMPDEST SWAP2 POP PUSH2 0x805 DUP3 PUSH2 0x7C6 JUMP JUMPDEST PUSH1 0x20 DUP3 ADD SWAP1 POP SWAP2 SWAP1 POP JUMP JUMPDEST PUSH0 PUSH1 0x20 DUP3 ADD SWAP1 POP DUP2 DUP2 SUB PUSH0 DUP4 ADD MSTORE PUSH2 0x827 DUP2 PUSH2 0x7EE JUMP JUMPDEST SWAP1 POP SWAP2 SWAP1 POP JUMP JUMPDEST PUSH2 0x837 DUP2 PUSH2 0x37C JUMP JUMPDEST DUP3 MSTORE POP POP JUMP JUMPDEST PUSH0 PUSH1 0x20 DUP3 ADD SWAP1 POP PUSH2 0x850 PUSH0 DUP4 ADD DUP5 PUSH2 0x82E JUMP JUMPDEST SWAP3 SWAP2 POP POP JUMP JUMPDEST PUSH2 0xEAF DUP1 PUSH2 0x863 PUSH0 CODECOPY PUSH0 RETURN INVALID PUSH1 0x80 PUSH1 0x40 MSTORE CALLVALUE DUP1 ISZERO PUSH2 0xF JUMPI PUSH0 PUSH0 REVERT JUMPDEST POP PUSH1 0x4 CALLDATASIZE LT PUSH2 0x91 JUMPI PUSH0 CALLDATALOAD PUSH1 0xE0 SHR DUP1 PUSH4 0x8DA5CB5B GT PUSH2 0x64 JUMPI DUP1 PUSH4 0x8DA5CB5B EQ PUSH2 0x11F JUMPI DUP1 PUSH4 0x95D89B41 EQ PUSH2 0x13D JUMPI DUP1 PUSH4 0xA0712D68 EQ PUSH2 0x15B JUMPI DUP1 PUSH4 0xA9059CBB EQ PUSH2 0x177 JUMPI DUP1 PUSH4 0xD5ABEB01 EQ PUSH2 0x1A7 JUMPI PUSH2 0x91 JUMP JUMPDEST DUP1 PUSH4 0x6FDDE03 EQ PUSH2 0x95 JUMPI DUP1 PUSH4 0x18160DDD EQ PUSH2 0xB3 JUMPI DUP1 PUSH4 0x313CE567 EQ PUSH2 0xD1 JUMPI DUP1 PUSH4 0x70A08231 EQ PUSH2 0xEF JUMPI JUMPDEST PUSH0 PUSH0 REVERT JUMPDEST PUSH2 0x9D PUSH2 0x1C5 JUMP JUMPDEST PUSH1 0x40 MLOAD PUSH2 0xAA SWAP2 SWAP1 PUSH2 0x7CB JUMP JUMPDEST PUSH1 0x40 MLOAD DUP1 SWAP2 SUB SWAP1 RETURN JUMPDEST PUSH2 0xBB PUSH2 0x250 JUMP JUMPDEST PUSH1 0x40 MLOAD PUSH2 0xC8 SWAP2 SWAP1 PUSH2 0x803 JUMP JUMPDEST PUSH1 0x40 MLOAD DUP1 SWAP2 SUB SWAP1 RETURN JUMPDEST PUSH2 0xD9 PUSH2 0x256 JUMP JUMPDEST PUSH1 0x40 MLOAD PUSH2 0xE6 SWAP2 SWAP1 PUSH2 0x837 JUMP JUMPDEST PUSH1 0x40 MLOAD DUP1 SWAP2 SUB SWAP1 RETURN JUMPDEST PUSH2 0x109 PUSH1 0x4 DUP1 CALLDATASIZE SUB DUP2 ADD SWAP1 PUSH2 0x104 SWAP2 SWAP1 PUSH2 0x8AE JUMP JUMPDEST PUSH2 0x268 JUMP JUMPDEST PUSH1 0x40 MLOAD PUSH2 0x116 SWAP2 SWAP1 PUSH2 0x803 JUMP JUMPDEST PUSH1 0x40 MLOAD DUP1 SWAP2 SUB SWAP1 RETURN JUMPDEST PUSH2 0x127 PUSH2 0x27D JUMP JUMPDEST PUSH1 0x40 MLOAD PUSH2 0x134 SWAP2 SWAP1 PUSH2 0x8E8 JUMP JUMPDEST PUSH1 0x40 MLOAD DUP1 SWAP2 SUB SWAP1 RETURN JUMPDEST PUSH2 0x145 PUSH2 0x2A2 JUMP JUMPDEST PUSH1 0x40 MLOAD PUSH2 0x152 SWAP2 SWAP1 PUSH2 0x7CB JUMP JUMPDEST PUSH1 0x40 MLOAD DUP1 SWAP2 SUB SWAP1 RETURN JUMPDEST PUSH2 0x175 PUSH1 0x4 DUP1 CALLDATASIZE SUB DUP2 ADD SWAP1 PUSH2 0x170 SWAP2 SWAP1 PUSH2 0x92B JUMP JUMPDEST PUSH2 0x32E JUMP JUMPDEST STOP JUMPDEST PUSH2 0x191 PUSH1 0x4 DUP1 CALLDATASIZE SUB DUP2 ADD SWAP1 PUSH2 0x18C SWAP2 SWAP1 PUSH2 0x956 JUMP JUMPDEST PUSH2 0x551 JUMP JUMPDEST PUSH1 0x40 MLOAD PUSH2 0x19E SWAP2 SWAP1 PUSH2 0x9AE JUMP JUMPDEST PUSH1 0x40 MLOAD DUP1 SWAP2 SUB SWAP1 RETURN JUMPDEST PUSH2 0x1AF PUSH2 0x755 JUMP JUMPDEST PUSH1 0x40 MLOAD PUSH2 0x1BC SWAP2 SWAP1 PUSH2 0x803 JUMP JUMPDEST PUSH1 0x40 MLOAD DUP1 SWAP2 SUB SWAP1 RETURN JUMPDEST PUSH0 DUP1 SLOAD PUSH2 0x1D1 SWAP1 PUSH2 0x9F4 JUMP JUMPDEST DUP1 PUSH1 0x1F ADD PUSH1 0x20 DUP1 SWAP2 DIV MUL PUSH1 0x20 ADD PUSH1 0x40 MLOAD SWAP1 DUP2 ADD PUSH1 0x40 MSTORE DUP1 SWAP3 SWAP2 SWAP1 DUP2 DUP2 MSTORE PUSH1 0x20 ADD DUP3 DUP1 SLOAD PUSH2 0x1FD SWAP1 PUSH2 0x9F4 JUMP JUMPDEST DUP1 ISZERO PUSH2 0x248 JUMPI DUP1 PUSH1 0x1F LT PUSH2 0x21F JUMPI PUSH2 0x100 DUP1 DUP4 SLOAD DIV MUL DUP4 MSTORE SWAP2 PUSH1 0x20 ADD SWAP2 PUSH2 0x248 JUMP JUMPDEST DUP3 ADD SWAP2 SWAP1 PUSH0 MSTORE PUSH1 0x20 PUSH0 KECCAK256 SWAP1 JUMPDEST DUP2 SLOAD DUP2 MSTORE SWAP1 PUSH1 0x1 ADD SWAP1 PUSH1 0x20 ADD DUP1 DUP4 GT PUSH2 0x22B JUMPI DUP3 SWAP1 SUB PUSH1 0x1F AND DUP3 ADD SWAP2 JUMPDEST POP POP POP POP POP DUP2 JUMP JUMPDEST PUSH1 0x5 SLOAD DUP2 JUMP JUMPDEST PUSH1 0x2 PUSH0 SWAP1 SLOAD SWAP1 PUSH2 0x100 EXP SWAP1 DIV PUSH1 0xFF AND DUP2 JUMP JUMPDEST PUSH1 0x6 PUSH1 0x20 MSTORE DUP1 PUSH0 MSTORE PUSH1 0x40 PUSH0 KECCAK256 PUSH0 SWAP2 POP SWAP1 POP SLOAD DUP2 JUMP JUMPDEST PUSH1 0x4 PUSH0 SWAP1 SLOAD SWAP1 PUSH2 0x100 EXP SWAP1 DIV PUSH20 0xFFFFFFFFFFFFFFFFFFFFFFFFFFFFFFFFFFFFFFFF AND DUP2 JUMP JUMPDEST PUSH1 0x1 DUP1 SLOAD PUSH2 0x2AF SWAP1 PUSH2 0x9F4 JUMP JUMPDEST DUP1 PUSH1 0x1F ADD PUSH1 0x20 DUP1 SWAP2 DIV MUL PUSH1 0x20 ADD PUSH1 0x40 MLOAD SWAP1 DUP2 ADD PUSH1 0x40 MSTORE DUP1 SWAP3 SWAP2 SWAP1 DUP2 DUP2 MSTORE PUSH1 0x20 ADD DUP3 DUP1 SLOAD PUSH2 0x2DB SWAP1 PUSH2 0x9F4 JUMP JUMPDEST DUP1 ISZERO PUSH2 0x326 JUMPI DUP1 PUSH1 0x1F LT PUSH2 0x2FD JUMPI PUSH2 0x100 DUP1 DUP4 SLOAD DIV MUL DUP4 MSTORE SWAP2 PUSH1 0x20 ADD SWAP2 PUSH2 0x326 JUMP JUMPDEST DUP3 ADD SWAP2 SWAP1 PUSH0 MSTORE PUSH1 0x20 PUSH0 KECCAK256 SWAP1 JUMPDEST DUP2 SLOAD DUP2 MSTORE SWAP1 PUSH1 0x1 ADD SWAP1 PUSH1 0x20 ADD DUP1 DUP4 GT PUSH2 0x309 JUMPI DUP3 SWAP1 SUB PUSH1 0x1F AND DUP3 ADD SWAP2 JUMPDEST POP POP POP POP POP DUP2 JUMP JUMPDEST PUSH1 0x4 PUSH0 SWAP1 SLOAD SWAP1 PUSH2 0x100 EXP SWAP1 DIV PUSH20 0xFFFFFFFFFFFFFFFFFFFFFFFFFFFFFFFFFFFFFFFF AND PUSH20 0xFFFFFFFFFFFFFFFFFFFFFFFFFFFFFFFFFFFFFFFF AND CALLER PUSH20 0xFFFFFFFFFFFFFFFFFFFFFFFFFFFFFFFFFFFFFFFF AND EQ PUSH2 0x3BD JUMPI PUSH1 0x40 MLOAD PUSH32 0x8C379A000000000000000000000000000000000000000000000000000000000 DUP2 MSTORE PUSH1 0x4 ADD PUSH2 0x3B4 SWAP1 PUSH2 0xA6E JUMP JUMPDEST PUSH1 0x40 MLOAD DUP1 SWAP2 SUB SWAP1 REVERT JUMPDEST PUSH0 PUSH1 0x2 PUSH0 SWAP1 SLOAD SWAP1 PUSH2 0x100 EXP SWAP1 DIV PUSH1 0xFF AND PUSH1 0xFF AND PUSH1 0xA PUSH2 0x3DC SWAP2 SWAP1 PUSH2 0xBE8 JUMP JUMPDEST DUP3 PUSH2 0x3E7 SWAP2 SWAP1 PUSH2 0xC32 JUMP JUMPDEST SWAP1 POP PUSH1 0x3 SLOAD DUP2 PUSH1 0x5 SLOAD PUSH2 0x3FA SWAP2 SWAP1 PUSH2 0xC73 JUMP JUMPDEST GT ISZERO PUSH2 0x43B JUMPI PUSH1 0x40 MLOAD PUSH32 0x8C379A000000000000000000000000000000000000000000000000000000000 DUP2 MSTORE PUSH1 0x4 ADD PUSH2 0x432 SWAP1 PUSH2 0xCF0 JUMP JUMPDEST PUSH1 0x40 MLOAD DUP1 SWAP2 SUB SWAP1 REVERT JUMPDEST PUSH0 DUP3 GT PUSH2 0x47D JUMPI PUSH1 0x40 MLOAD PUSH32 0x8C379A000000000000000000000000000000000000000000000000000000000 DUP2 MSTORE PUSH1 0x4 ADD PUSH2 0x474 SWAP1 PUSH2 0xD58 JUMP JUMPDEST PUSH1 0x40 MLOAD DUP1 SWAP2 SUB SWAP1 REVERT JUMPDEST DUP1 PUSH1 0x5 PUSH0 DUP3 DUP3 SLOAD PUSH2 0x48E SWAP2 SWAP1 PUSH2 0xC73 JUMP JUMPDEST SWAP3 POP POP DUP2 SWAP1 SSTORE POP DUP1 PUSH1 0x6 PUSH0 CALLER PUSH20 0xFFFFFFFFFFFFFFFFFFFFFFFFFFFFFFFFFFFFFFFF AND PUSH20 0xFFFFFFFFFFFFFFFFFFFFFFFFFFFFFFFFFFFFFFFF AND DUP2 MSTORE PUSH1 0x20 ADD SWAP1 DUP2 MSTORE PUSH1 0x20 ADD PUSH0 KECCAK256 PUSH0 DUP3 DUP3 SLOAD PUSH2 0x4E1 SWAP2 SWAP1 PUSH2 0xC73 JUMP JUMPDEST SWAP3 POP POP DUP2 SWAP1 SSTORE POP CALLER PUSH20 0xFFFFFFFFFFFFFFFFFFFFFFFFFFFFFFFFFFFFFFFF AND PUSH0 PUSH20 0xFFFFFFFFFFFFFFFFFFFFFFFFFFFFFFFFFFFFFFFF AND PUSH32 0xDDF252AD1BE2C89B69C2B068FC378DAA952BA7F163C4A11628F55A4DF523B3EF DUP4 PUSH1 0x40 MLOAD PUSH2 0x545 SWAP2 SWAP1 PUSH2 0x803 JUMP JUMPDEST PUSH1 0x40 MLOAD DUP1 SWAP2 SUB SWAP1 LOG3 POP POP JUMP JUMPDEST PUSH0 PUSH0 PUSH20 0xFFFFFFFFFFFFFFFFFFFFFFFFFFFFFFFFFFFFFFFF AND DUP4 PUSH20 0xFFFFFFFFFFFFFFFFFFFFFFFFFFFFFFFFFFFFFFFF AND SUB PUSH2 0x5C0 JUMPI PUSH1 0x40 MLOAD PUSH32 0x8C379A000000000000000000000000000000000000000000000000000000000 DUP2 MSTORE PUSH1 0x4 ADD PUSH2 0x5B7 SWAP1 PUSH2 0xDC0 JUMP JUMPDEST PUSH1 0x40 MLOAD DUP1 SWAP2 SUB SWAP1 REVERT JUMPDEST PUSH1 0x6 PUSH0 CALLER PUSH20 0xFFFFFFFFFFFFFFFFFFFFFFFFFFFFFFFFFFFFFFFF AND PUSH20 0xFFFFFFFFFFFFFFFFFFFFFFFFFFFFFFFFFFFFFFFF AND DUP2 MSTORE PUSH1 0x20 ADD SWAP1 DUP2 MSTORE PUSH1 0x20 ADD PUSH0 KECCAK256 SLOAD DUP3 GT ISZERO PUSH2 0x640 JUMPI PUSH1 0x40 MLOAD PUSH32 0x8C379A000000000000000000000000000000000000000000000000000000000 DUP2 MSTORE PUSH1 0x4 ADD PUSH2 0x637 SWAP1 PUSH2 0xE28 JUMP JUMPDEST PUSH1 0x40 MLOAD DUP1 SWAP2 SUB SWAP1 REVERT JUMPDEST DUP2 PUSH1 0x6 PUSH0 CALLER PUSH20 0xFFFFFFFFFFFFFFFFFFFFFFFFFFFFFFFFFFFFFFFF AND PUSH20 0xFFFFFFFFFFFFFFFFFFFFFFFFFFFFFFFFFFFFFFFF AND DUP2 MSTORE PUSH1 0x20 ADD SWAP1 DUP2 MSTORE PUSH1 0x20 ADD PUSH0 KECCAK256 PUSH0 DUP3 DUP3 SLOAD PUSH2 0x68C SWAP2 SWAP1 PUSH2 0xE46 JUMP JUMPDEST SWAP3 POP POP DUP2 SWAP1 SSTORE POP DUP2 PUSH1 0x6 PUSH0 DUP6 PUSH20 0xFFFFFFFFFFFFFFFFFFFFFFFFFFFFFFFFFFFFFFFF AND PUSH20 0xFFFFFFFFFFFFFFFFFFFFFFFFFFFFFFFFFFFFFFFF AND DUP2 MSTORE PUSH1 0x20 ADD SWAP1 DUP2 MSTORE PUSH1 0x20 ADD PUSH0 KECCAK256 PUSH0 DUP3 DUP3 SLOAD PUSH2 0x6DF SWAP2 SWAP1 PUSH2 0xC73 JUMP JUMPDEST SWAP3 POP POP DUP2 SWAP1 SSTORE POP DUP3 PUSH20 0xFFFFFFFFFFFFFFFFFFFFFFFFFFFFFFFFFFFFFFFF AND CALLER PUSH20 0xFFFFFFFFFFFFFFFFFFFFFFFFFFFFFFFFFFFFFFFF AND PUSH32 0xDDF252AD1BE2C89B69C2B068FC378DAA952BA7F163C4A11628F55A4DF523B3EF DUP5 PUSH1 0x40 MLOAD PUSH2 0x743 SWAP2 SWAP1 PUSH2 0x803 JUMP JUMPDEST PUSH1 0x40 MLOAD DUP1 SWAP2 SUB SWAP1 LOG3 PUSH1 0x1 SWAP1 POP SWAP3 SWAP2 POP POP JUMP JUMPDEST PUSH1 0x3 SLOAD DUP2 JUMP JUMPDEST PUSH0 DUP2 MLOAD SWAP1 POP SWAP2 SWAP1 POP JUMP JUMPDEST PUSH0 DUP3 DUP3 MSTORE PUSH1 0x20 DUP3 ADD SWAP1 POP SWAP3 SWAP2 POP POP JUMP JUMPDEST DUP3 DUP2 DUP4 MCOPY PUSH0 DUP4 DUP4 ADD MSTORE POP POP POP JUMP JUMPDEST PUSH0 PUSH1 0x1F NOT PUSH1 0x1F DUP4 ADD AND SWAP1 POP SWAP2 SWAP1 POP JUMP JUMPDEST PUSH0 PUSH2 0x79D DUP3 PUSH2 0x75B JUMP JUMPDEST PUSH2 0x7A7 DUP2 DUP6 PUSH2 0x765 JUMP JUMPDEST SWAP4 POP PUSH2 0x7B7 DUP2 DUP6 PUSH1 0x20 DUP7 ADD PUSH2 0x775 JUMP JUMPDEST PUSH2 0x7C0 DUP2 PUSH2 0x783 JUMP JUMPDEST DUP5 ADD SWAP2 POP POP SWAP3 SWAP2 POP POP JUMP JUMPDEST PUSH0 PUSH1 0x20 DUP3 ADD SWAP1 POP DUP2 DUP2 SUB PUSH0 DUP4 ADD MSTORE PUSH2 0x7E3 DUP2 DUP5 PUSH2 0x793 JUMP JUMPDEST SWAP1 POP SWAP3 SWAP2 POP POP JUMP JUMPDEST PUSH0 DUP2 SWAP1 POP SWAP2 SWAP1 POP JUMP JUMPDEST PUSH2 0x7FD DUP2 PUSH2 0x7EB JUMP JUMPDEST DUP3 MSTORE POP POP JUMP JUMPDEST PUSH0 PUSH1 0x20 DUP3 ADD SWAP1 POP PUSH2 0x816 PUSH0 DUP4 ADD DUP5 PUSH2 0x7F4 JUMP JUMPDEST SWAP3 SWAP2 POP POP JUMP JUMPDEST PUSH0 PUSH1 0xFF DUP3 AND SWAP1 POP SWAP2 SWAP1 POP JUMP JUMPDEST PUSH2 0x831 DUP2 PUSH2 0x81C JUMP JUMPDEST DUP3 MSTORE POP POP JUMP JUMPDEST PUSH0 PUSH1 0x20 DUP3 ADD SWAP1 POP PUSH2 0x84A PUSH0 DUP4 ADD DUP5 PUSH2 0x828 JUMP JUMPDEST SWAP3 SWAP2 POP POP JUMP JUMPDEST PUSH0 PUSH0 REVERT JUMPDEST PUSH0 PUSH20 0xFFFFFFFFFFFFFFFFFFFFFFFFFFFFFFFFFFFFFFFF DUP3 AND SWAP1 POP SWAP2 SWAP1 POP JUMP JUMPDEST PUSH0 PUSH2 0x87D DUP3 PUSH2 0x854 JUMP JUMPDEST SWAP1 POP SWAP2 SWAP1 POP JUMP JUMPDEST PUSH2 0x88D DUP2 PUSH2 0x873 JUMP JUMPDEST DUP2 EQ PUSH2 0x897 JUMPI PUSH0 PUSH0 REVERT JUMPDEST POP JUMP JUMPDEST PUSH0 DUP2 CALLDATALOAD SWAP1 POP PUSH2 0x8A8 DUP2 PUSH2 0x884 JUMP JUMPDEST SWAP3 SWAP2 POP POP JUMP JUMPDEST PUSH0 PUSH1 0x20 DUP3 DUP5 SUB SLT ISZERO PUSH2 0x8C3 JUMPI PUSH2 0x8C2 PUSH2 0x850 JUMP JUMPDEST JUMPDEST PUSH0 PUSH2 0x8D0 DUP5 DUP3 DUP6 ADD PUSH2 0x89A JUMP JUMPDEST SWAP2 POP POP SWAP3 SWAP2 POP POP JUMP JUMPDEST PUSH2 0x8E2 DUP2 PUSH2 0x873 JUMP JUMPDEST DUP3 MSTORE POP POP JUMP JUMPDEST PUSH0 PUSH1 0x20 DUP3 ADD SWAP1 POP PUSH2 0x8FB PUSH0 DUP4 ADD DUP5 PUSH2 0x8D9 JUMP JUMPDEST SWAP3 SWAP2 POP POP JUMP JUMPDEST PUSH2 0x90A DUP2 PUSH2 0x7EB JUMP JUMPDEST DUP2 EQ PUSH2 0x914 JUMPI PUSH0 PUSH0 REVERT JUMPDEST POP JUMP JUMPDEST PUSH0 DUP2 CALLDATALOAD SWAP1 POP PUSH2 0x925 DUP2 PUSH2 0x901 JUMP JUMPDEST SWAP3 SWAP2 POP POP JUMP JUMPDEST PUSH0 PUSH1 0x20 DUP3 DUP5 SUB SLT ISZERO PUSH2 0x940 JUMPI PUSH2 0x93F PUSH2 0x850 JUMP JUMPDEST JUMPDEST PUSH0 PUSH2 0x94D DUP5 DUP3 DUP6 ADD PUSH2 0x917 JUMP JUMPDEST SWAP2 POP POP SWAP3 SWAP2 POP POP JUMP JUMPDEST PUSH0 PUSH0 PUSH1 0x40 DUP4 DUP6 SUB SLT ISZERO PUSH2 0x96C JUMPI PUSH2 0x96B PUSH2 0x850 JUMP JUMPDEST JUMPDEST PUSH0 PUSH2 0x979 DUP6 DUP3 DUP7 ADD PUSH2 0x89A JUMP JUMPDEST SWAP3 POP POP PUSH1 0x20 PUSH2 0x98A DUP6 DUP3 DUP7 ADD PUSH2 0x917 JUMP JUMPDEST SWAP2 POP POP SWAP3 POP SWAP3 SWAP1 POP JUMP JUMPDEST PUSH0 DUP2 ISZERO ISZERO SWAP1 POP SWAP2 SWAP1 POP JUMP JUMPDEST PUSH2 0x9A8 DUP2 PUSH2 0x994 JUMP JUMPDEST DUP3 MSTORE POP POP JUMP JUMPDEST PUSH0 PUSH1 0x20 DUP3 ADD SWAP1 POP PUSH2 0x9C1 PUSH0 DUP4 ADD DUP5 PUSH2 0x99F JUMP JUMPDEST SWAP3 SWAP2 POP POP JUMP JUMPDEST PUSH32 0x4E487B7100000000000000000000000000000000000000000000000000000000 PUSH0 MSTORE PUSH1 0x22 PUSH1 0x4 MSTORE PUSH1 0x24 PUSH0 REVERT JUMPDEST PUSH0 PUSH1 0x2 DUP3 DIV SWAP1 POP PUSH1 0x1 DUP3 AND DUP1 PUSH2 0xA0B JUMPI PUSH1 0x7F DUP3 AND SWAP2 POP JUMPDEST PUSH1 0x20 DUP3 LT DUP2 SUB PUSH2 0xA1E JUMPI PUSH2 0xA1D PUSH2 0x9C7 JUMP JUMPDEST JUMPDEST POP SWAP2 SWAP1 POP JUMP JUMPDEST PUSH32 0x4E6F7420746865206F776E657200000000000000000000000000000000000000 PUSH0 DUP3 ADD MSTORE POP JUMP JUMPDEST PUSH0 PUSH2 0xA58 PUSH1 0xD DUP4 PUSH2 0x765 JUMP JUMPDEST SWAP2 POP PUSH2 0xA63 DUP3 PUSH2 0xA24 JUMP JUMPDEST PUSH1 0x20 DUP3 ADD SWAP1 POP SWAP2 SWAP1 POP JUMP JUMPDEST PUSH0 PUSH1 0x20 DUP3 ADD SWAP1 POP DUP2 DUP2 SUB PUSH0 DUP4 ADD MSTORE PUSH2 0xA85 DUP2 PUSH2 0xA4C JUMP JUMPDEST SWAP1 POP SWAP2 SWAP1 POP JUMP JUMPDEST PUSH32 0x4E487B7100000000000000000000000000000000000000000000000000000000 PUSH0 MSTORE PUSH1 0x11 PUSH1 0x4 MSTORE PUSH1 0x24 PUSH0 REVERT JUMPDEST PUSH0 DUP2 PUSH1 0x1 SHR SWAP1 POP SWAP2 SWAP1 POP JUMP JUMPDEST PUSH0 PUSH0 DUP3 SWAP2 POP DUP4 SWAP1 POP JUMPDEST PUSH1 0x1 DUP6 GT ISZERO PUSH2 0xB0E JUMPI DUP1 DUP7 DIV DUP2 GT ISZERO PUSH2 0xAEA JUMPI PUSH2 0xAE9 PUSH2 0xA8C JUMP JUMPDEST JUMPDEST PUSH1 0x1 DUP6 AND ISZERO PUSH2 0xAF9 JUMPI DUP1 DUP3 MUL SWAP2 POP JUMPDEST DUP1 DUP2 MUL SWAP1 POP PUSH2 0xB07 DUP6 PUSH2 0xAB9 JUMP JUMPDEST SWAP5 POP PUSH2 0xACE JUMP JUMPDEST SWAP5 POP SWAP5 SWAP3 POP POP POP JUMP JUMPDEST PUSH0 DUP3 PUSH2 0xB26 JUMPI PUSH1 0x1 SWAP1 POP PUSH2 0xBE1 JUMP JUMPDEST DUP2 PUSH2 0xB33 JUMPI PUSH0 SWAP1 POP PUSH2 0xBE1 JUMP JUMPDEST DUP2 PUSH1 0x1 DUP2 EQ PUSH2 0xB49 JUMPI PUSH1 0x2 DUP2 EQ PUSH2 0xB53 JUMPI PUSH2 0xB82 JUMP JUMPDEST PUSH1 0x1 SWAP2 POP POP PUSH2 0xBE1 JUMP JUMPDEST PUSH1 0xFF DUP5 GT ISZERO PUSH2 0xB65 JUMPI PUSH2 0xB64 PUSH2 0xA8C JUMP JUMPDEST JUMPDEST DUP4 PUSH1 0x2 EXP SWAP2 POP DUP5 DUP3 GT ISZERO PUSH2 0xB7C JUMPI PUSH2 0xB7B PUSH2 0xA8C JUMP JUMPDEST JUMPDEST POP PUSH2 0xBE1 JUMP JUMPDEST POP PUSH1 0x20 DUP4 LT PUSH2 0x133 DUP4 LT AND PUSH1 0x4E DUP5 LT PUSH1 0xB DUP5 LT AND OR ISZERO PUSH2 0xBB7 JUMPI DUP3 DUP3 EXP SWAP1 POP DUP4 DUP2 GT ISZERO PUSH2 0xBB2 JUMPI PUSH2 0xBB1 PUSH2 0xA8C JUMP JUMPDEST JUMPDEST PUSH2 0xBE1 JUMP JUMPDEST PUSH2 0xBC4 DUP5 DUP5 DUP5 PUSH1 0x1 PUSH2 0xAC5 JUMP JUMPDEST SWAP3 POP SWAP1 POP DUP2 DUP5 DIV DUP2 GT ISZERO PUSH2 0xBDB JUMPI PUSH2 0xBDA PUSH2 0xA8C JUMP JUMPDEST JUMPDEST DUP2 DUP2 MUL SWAP1 POP JUMPDEST SWAP4 SWAP3 POP POP POP JUMP JUMPDEST PUSH0 PUSH2 0xBF2 DUP3 PUSH2 0x7EB JUMP JUMPDEST SWAP2 POP PUSH2 0xBFD DUP4 PUSH2 0x7EB JUMP JUMPDEST SWAP3 POP PUSH2 0xC2A PUSH32 0xFFFFFFFFFFFFFFFFFFFFFFFFFFFFFFFFFFFFFFFFFFFFFFFFFFFFFFFFFFFFFFFF DUP5 DUP5 PUSH2 0xB17 JUMP JUMPDEST SWAP1 POP SWAP3 SWAP2 POP POP JUMP JUMPDEST PUSH0 PUSH2 0xC3C DUP3 PUSH2 0x7EB JUMP JUMPDEST SWAP2 POP PUSH2 0xC47 DUP4 PUSH2 0x7EB JUMP JUMPDEST SWAP3 POP DUP3 DUP3 MUL PUSH2 0xC55 DUP2 PUSH2 0x7EB JUMP JUMPDEST SWAP2 POP DUP3 DUP3 DIV DUP5 EQ DUP4 ISZERO OR PUSH2 0xC6C JUMPI PUSH2 0xC6B PUSH2 0xA8C JUMP JUMPDEST JUMPDEST POP SWAP3 SWAP2 POP POP JUMP JUMPDEST PUSH0 PUSH2 0xC7D DUP3 PUSH2 0x7EB JUMP JUMPDEST SWAP2 POP PUSH2 0xC88 DUP4 PUSH2 0x7EB JUMP JUMPDEST SWAP3 POP DUP3 DUP3 ADD SWAP1 POP DUP1 DUP3 GT ISZERO PUSH2 0xCA0 JUMPI PUSH2 0xC9F PUSH2 0xA8C JUMP JUMPDEST JUMPDEST SWAP3 SWAP2 POP POP JUMP JUMPDEST PUSH32 0x576F756C6420657863656564206D617820737570706C79000000000000000000 PUSH0 DUP3 ADD MSTORE POP JUMP JUMPDEST PUSH0 PUSH2 0xCDA PUSH1 0x17 DUP4 PUSH2 0x765 JUMP JUMPDEST SWAP2 POP PUSH2 0xCE5 DUP3 PUSH2 0xCA6 JUMP JUMPDEST PUSH1 0x20 DUP3 ADD SWAP1 POP SWAP2 SWAP1 POP JUMP JUMPDEST PUSH0 PUSH1 0x20 DUP3 ADD SWAP1 POP DUP2 DUP2 SUB PUSH0 DUP4 ADD MSTORE PUSH2 0xD07 DUP2 PUSH2 0xCCE JUMP JUMPDEST SWAP1 POP SWAP2 SWAP1 POP JUMP JUMPDEST PUSH32 0x496E76616C696420616D6F756E74000000000000000000000000000000000000 PUSH0 DUP3 ADD MSTORE POP JUMP JUMPDEST PUSH0 PUSH2 0xD42 PUSH1 0xE DUP4 PUSH2 0x765 JUMP JUMPDEST SWAP2 POP PUSH2 0xD4D DUP3 PUSH2 0xD0E JUMP JUMPDEST PUSH1 0x20 DUP3 ADD SWAP1 POP SWAP2 SWAP1 POP JUMP JUMPDEST PUSH0 PUSH1 0x20 DUP3 ADD SWAP1 POP DUP2 DUP2 SUB PUSH0 DUP4 ADD MSTORE PUSH2 0xD6F DUP2 PUSH2 0xD36 JUMP JUMPDEST SWAP1 POP SWAP2 SWAP1 POP JUMP JUMPDEST PUSH32 0x496E76616C696420416464726573730000000000000000000000000000000000 PUSH0 DUP3 ADD MSTORE POP JUMP JUMPDEST PUSH0 PUSH2 0xDAA PUSH1 0xF DUP4 PUSH2 0x765 JUMP JUMPDEST SWAP2 POP PUSH2 0xDB5 DUP3 PUSH2 0xD76 JUMP JUMPDEST PUSH1 0x20 DUP3 ADD SWAP1 POP SWAP2 SWAP1 POP JUMP JUMPDEST PUSH0 PUSH1 0x20 DUP3 ADD SWAP1 POP DUP2 DUP2 SUB PUSH0 DUP4 ADD MSTORE PUSH2 0xDD7 DUP2 PUSH2 0xD9E JUMP JUMPDEST SWAP1 POP SWAP2 SWAP1 POP JUMP JUMPDEST PUSH32 0x496E73756666696369656E7420746F6B656E7300000000000000000000000000 PUSH0 DUP3 ADD MSTORE POP JUMP JUMPDEST PUSH0 PUSH2 0xE12 PUSH1 0x13 DUP4 PUSH2 0x765 JUMP JUMPDEST SWAP2 POP PUSH2 0xE1D DUP3 PUSH2 0xDDE JUMP JUMPDEST PUSH1 0x20 DUP3 ADD SWAP1 POP SWAP2 SWAP1 POP JUMP JUMPDEST PUSH0 PUSH1 0x20 DUP3 ADD SWAP1 POP DUP2 DUP2 SUB PUSH0 DUP4 ADD MSTORE PUSH2 0xE3F DUP2 PUSH2 0xE06 JUMP JUMPDEST SWAP1 POP SWAP2 SWAP1 POP JUMP JUMPDEST PUSH0 PUSH2 0xE50 DUP3 PUSH2 0x7EB JUMP JUMPDEST SWAP2 POP PUSH2 0xE5B DUP4 PUSH2 0x7EB JUMP JUMPDEST SWAP3 POP DUP3 DUP3 SUB SWAP1 POP DUP2 DUP2 GT ISZERO PUSH2 0xE73 JUMPI PUSH2 0xE72 PUSH2 0xA8C JUMP JUMPDEST JUMPDEST SWAP3 SWAP2 POP POP JUMP INVALID LOG2 PUSH5 0x6970667358 0x22 SLT KECCAK256 0xC3 JUMPI NUMBER 0xAF 0xDE CALLDATASIZE RETURNDATASIZE PUSH24 0x9C3606A70DFA02E06B24D8C81A60F8274EA9B055C9984AF9 PUSH5 0x736F6C6343 STOP ADDMOD 0x1F STOP CALLER "
				},
				"gasEstimates": {
					"creation": {
						"codeDepositCost": "751800",
						"executionCost": "infinite",
						"totalCost": "infinite"
					},
					"external": {
						"balanceOf(address)": "2869",
						"decimals()": "2511",
						"maxSupply()": "2513",
						"mint(uint256)": "infinite",
						"name()": "infinite",
						"owner()": "2508",
						"symbol()": "infinite",
						"totalSupply()": "2448",
						"transfer(address,uint256)": "infinite"
					}
				},
				"methodIdentifiers": {
					"balanceOf(address)": "70a08231",
					"decimals()": "313ce567",
					"maxSupply()": "d5abeb01",
					"mint(uint256)": "a0712d68",
					"name()": "06fdde03",
					"owner()": "8da5cb5b",
					"symbol()": "95d89b41",
					"totalSupply()": "18160ddd",
					"transfer(address,uint256)": "a9059cbb"
				}
			},
			"storageLayout": {
				"storage": [
					{
						"astId": 36,
						"contract": "submissions/MeseretBirhanu/day12/AthenaToken.sol:AthenaToken",
						"label": "name",
						"offset": 0,
						"slot": "0",
						"type": "t_string_storage"
					},
					{
						"astId": 39,
						"contract": "submissions/MeseretBirhanu/day12/AthenaToken.sol:AthenaToken",
						"label": "symbol",
						"offset": 0,
						"slot": "1",
						"type": "t_string_storage"
					},
					{
						"astId": 42,
						"contract": "submissions/MeseretBirhanu/day12/AthenaToken.sol:AthenaToken",
						"label": "decimals",
						"offset": 0,
						"slot": "2",
						"type": "t_uint8"
					},
					{
						"astId": 52,
						"contract": "submissions/MeseretBirhanu/day12/AthenaToken.sol:AthenaToken",
						"label": "maxSupply",
						"offset": 0,
						"slot": "3",
						"type": "t_uint256"
					},
					{
						"astId": 54,
						"contract": "submissions/MeseretBirhanu/day12/AthenaToken.sol:AthenaToken",
						"label": "owner",
						"offset": 0,
						"slot": "4",
						"type": "t_address"
					},
					{
						"astId": 57,
						"contract": "submissions/MeseretBirhanu/day12/AthenaToken.sol:AthenaToken",
						"label": "totalSupply",
						"offset": 0,
						"slot": "5",
						"type": "t_uint256"
					},
					{
						"astId": 62,
						"contract": "submissions/MeseretBirhanu/day12/AthenaToken.sol:AthenaToken",
						"label": "balanceOf",
						"offset": 0,
						"slot": "6",
						"type": "t_mapping(t_address,t_uint256)"
					}
				],
				"types": {
					"t_address": {
						"encoding": "inplace",
						"label": "address",
						"numberOfBytes": "20"
					},
					"t_mapping(t_address,t_uint256)": {
						"encoding": "mapping",
						"key": "t_address",
						"label": "mapping(address => uint256)",
						"numberOfBytes": "32",
						"value": "t_uint256"
					},
					"t_string_storage": {
						"encoding": "bytes",
						"label": "string",
						"numberOfBytes": "32"
					},
					"t_uint256": {
						"encoding": "inplace",
						"label": "uint256",
						"numberOfBytes": "32"
					},
					"t_uint8": {
						"encoding": "inplace",
						"label": "uint8",
						"numberOfBytes": "1"
					}
				}
			},
			"userdoc": {
				"kind": "user",
				"methods": {},
				"version": 1
			}
		}
	}
}