{
	"data": {
		"bytecode": {
			"linkReferences": {},
			"object": "6080604052348015600e575f5ffd5b50335f5f6101000a81548173ffffffffffffffffffffffffffffffffffffffff021916908373ffffffffffffffffffffffffffffffffffffffff16021790555061054a8061005b5f395ff3fe608060405234801561000f575f5ffd5b5060043610610086575f3560e01c8063a632a2e511610059578063a632a2e5146100da578063d742cb01146100f6578063d826f88f14610100578063efa4fb7f1461010a57610086565b80634a2c68ed1461008a5780634e70b1dc146100945780638da5cb5b146100b25780638fdb7189146100d0575b5f5ffd5b610092610114565b005b61009c61016e565b6040516100a99190610296565b60405180910390f35b6100ba610174565b6040516100c791906102ee565b60405180910390f35b6100d8610198565b005b6100f460048036038101906100ef9190610335565b6101af565b005b6100fe6101b9565b005b6101086101d1565b005b610112610268565b005b5f60015411610158576040517f08c379a000000000000000000000000000000000000000000000000000000000815260040161014f906103ba565b60405180910390fd5b600180546101669190610405565b600181905550565b60015481565b5f5f9054906101000a900473ffffffffffffffffffffffffffffffffffffffff1681565b60026001546101a79190610438565b600181905550565b8060018190555050565b6001546001546101c99190610438565b600181905550565b5f5f9054906101000a900473ffffffffffffffffffffffffffffffffffffffff1673ffffffffffffffffffffffffffffffffffffffff163373ffffffffffffffffffffffffffffffffffffffff161461025f576040517f08c379a0000000000000000000000000000000000000000000000000000000008152600401610256906104c3565b60405180910390fd5b5f600181905550565b6001805461027691906104e1565b600181905550565b5f819050919050565b6102908161027e565b82525050565b5f6020820190506102a95f830184610287565b92915050565b5f73ffffffffffffffffffffffffffffffffffffffff82169050919050565b5f6102d8826102af565b9050919050565b6102e8816102ce565b82525050565b5f6020820190506103015f8301846102df565b92915050565b5f5ffd5b6103148161027e565b811461031e575f5ffd5b50565b5f8135905061032f8161030b565b92915050565b5f6020828403121561034a57610349610307565b5b5f61035784828501610321565b91505092915050565b5f82825260208201905092915050565b7f436f756e7465722063616e6e6f7420676f206e656761746976650000000000005f82015250565b5f6103a4601a83610360565b91506103af82610370565b602082019050919050565b5f6020820190508181035f8301526103d181610398565b9050919050565b7f4e487b71000000000000000000000000000000000000000000000000000000005f52601160045260245ffd5b5f61040f8261027e565b915061041a8361027e565b9250828203905081811115610432576104316103d8565b5b92915050565b5f6104428261027e565b915061044d8361027e565b925082820261045b8161027e565b91508282048414831517610472576104716103d8565b5b5092915050565b7f6f6e6c79206f776e65722063616e2072657365740000000000000000000000005f82015250565b5f6104ad601483610360565b91506104b882610479565b602082019050919050565b5f6020820190508181035f8301526104da816104a1565b9050919050565b5f6104eb8261027e565b91506104f68361027e565b925082820190508082111561050e5761050d6103d8565b5b9291505056fea26469706673582212207dc41ffdd676192f13690d884e9adf744867bd1c2b8433e75e0cb75ead655c3a64736f6c634300081f0033",
			"opcodes": "PUSH1 0x80 PUSH1 0x40 MSTORE CALLVALUE DUP1 ISZERO PUSH1 0xE JUMPI PUSH0 PUSH0 REVERT JUMPDEST POP CALLER PUSH0 PUSH0 PUSH2 0x100 EXP DUP2 SLOAD DUP2 PUSH20 0xFFFFFFFFFFFFFFFFFFFFFFFFFFFFFFFFFFFFFFFF MUL NOT AND SWAP1 DUP4 PUSH20 0xFFFFFFFFFFFFFFFFFFFFFFFFFFFFFFFFFFFFFFFF AND MUL OR SWAP1 SSTORE POP PUSH2 0x54A DUP1 PUSH2 0x5B PUSH0 CODECOPY PUSH0 RETURN INVALID PUSH1 0x80 PUSH1 0x40 MSTORE CALLVALUE DUP1 ISZERO PUSH2 0xF JUMPI PUSH0 PUSH0 REVERT JUMPDEST POP PUSH1 0x4 CALLDATASIZE LT PUSH2 0x86 JUMPI PUSH0 CALLDATALOAD PUSH1 0xE0 SHR DUP1 PUSH4 0xA632A2E5 GT PUSH2 0x59 JUMPI DUP1 PUSH4 0xA632A2E5 EQ PUSH2 0xDA JUMPI DUP1 PUSH4 0xD742CB01 EQ PUSH2 0xF6 JUMPI DUP1 PUSH4 0xD826F88F EQ PUSH2 0x100 JUMPI DUP1 PUSH4 0xEFA4FB7F EQ PUSH2 0x10A JUMPI PUSH2 0x86 JUMP JUMPDEST DUP1 PUSH4 0x4A2C68ED EQ PUSH2 0x8A JUMPI DUP1 PUSH4 0x4E70B1DC EQ PUSH2 0x94 JUMPI DUP1 PUSH4 0x8DA5CB5B EQ PUSH2 0xB2 JUMPI DUP1 PUSH4 0x8FDB7189 EQ PUSH2 0xD0 JUMPI JUMPDEST PUSH0 PUSH0 REVERT JUMPDEST PUSH2 0x92 PUSH2 0x114 JUMP JUMPDEST STOP JUMPDEST PUSH2 0x9C PUSH2 0x16E JUMP JUMPDEST PUSH1 0x40 MLOAD PUSH2 0xA9 SWAP2 SWAP1 PUSH2 0x296 JUMP JUMPDEST PUSH1 0x40 MLOAD DUP1 SWAP2 SUB SWAP1 RETURN JUMPDEST PUSH2 0xBA PUSH2 0x174 JUMP JUMPDEST PUSH1 0x40 MLOAD PUSH2 0xC7 SWAP2 SWAP1 PUSH2 0x2EE JUMP JUMPDEST PUSH1 0x40 MLOAD DUP1 SWAP2 SUB SWAP1 RETURN JUMPDEST PUSH2 0xD8 PUSH2 0x198 JUMP JUMPDEST STOP JUMPDEST PUSH2 0xF4 PUSH1 0x4 DUP1 CALLDATASIZE SUB DUP2 ADD SWAP1 PUSH2 0xEF SWAP2 SWAP1 PUSH2 0x335 JUMP JUMPDEST PUSH2 0x1AF JUMP JUMPDEST STOP JUMPDEST PUSH2 0xFE PUSH2 0x1B9 JUMP JUMPDEST STOP JUMPDEST PUSH2 0x108 PUSH2 0x1D1 JUMP JUMPDEST STOP JUMPDEST PUSH2 0x112 PUSH2 0x268 JUMP JUMPDEST STOP JUMPDEST PUSH0 PUSH1 0x1 SLOAD GT PUSH2 0x158 JUMPI PUSH1 0x40 MLOAD PUSH32 0x8C379A000000000000000000000000000000000000000000000000000000000 DUP2 MSTORE PUSH1 0x4 ADD PUSH2 0x14F SWAP1 PUSH2 0x3BA JUMP JUMPDEST PUSH1 0x40 MLOAD DUP1 SWAP2 SUB SWAP1 REVERT JUMPDEST PUSH1 0x1 DUP1 SLOAD PUSH2 0x166 SWAP2 SWAP1 PUSH2 0x405 JUMP JUMPDEST PUSH1 0x1 DUP2 SWAP1 SSTORE POP JUMP JUMPDEST PUSH1 0x1 SLOAD DUP2 JUMP JUMPDEST PUSH0 PUSH0 SWAP1 SLOAD SWAP1 PUSH2 0x100 EXP SWAP1 DIV PUSH20 0xFFFFFFFFFFFFFFFFFFFFFFFFFFFFFFFFFFFFFFFF AND DUP2 JUMP JUMPDEST PUSH1 0x2 PUSH1 0x1 SLOAD PUSH2 0x1A7 SWAP2 SWAP1 PUSH2 0x438 JUMP JUMPDEST PUSH1 0x1 DUP2 SWAP1 SSTORE POP JUMP JUMPDEST DUP1 PUSH1 0x1 DUP2 SWAP1 SSTORE POP POP JUMP JUMPDEST PUSH1 0x1 SLOAD PUSH1 0x1 SLOAD PUSH2 0x1C9 SWAP2 SWAP1 PUSH2 0x438 JUMP JUMPDEST PUSH1 0x1 DUP2 SWAP1 SSTORE POP JUMP JUMPDEST PUSH0 PUSH0 SWAP1 SLOAD SWAP1 PUSH2 0x100 EXP SWAP1 DIV PUSH20 0xFFFFFFFFFFFFFFFFFFFFFFFFFFFFFFFFFFFFFFFF AND PUSH20 0xFFFFFFFFFFFFFFFFFFFFFFFFFFFFFFFFFFFFFFFF AND CALLER PUSH20 0xFFFFFFFFFFFFFFFFFFFFFFFFFFFFFFFFFFFFFFFF AND EQ PUSH2 0x25F JUMPI PUSH1 0x40 MLOAD PUSH32 0x8C379A000000000000000000000000000000000000000000000000000000000 DUP2 MSTORE PUSH1 0x4 ADD PUSH2 0x256 SWAP1 PUSH2 0x4C3 JUMP JUMPDEST PUSH1 0x40 MLOAD DUP1 SWAP2 SUB SWAP1 REVERT JUMPDEST PUSH0 PUSH1 0x1 DUP2 SWAP1 SSTORE POP JUMP JUMPDEST PUSH1 0x1 DUP1 SLOAD PUSH2 0x276 SWAP2 SWAP1 PUSH2 0x4E1 JUMP JUMPDEST PUSH1 0x1 DUP2 SWAP1 SSTORE POP JUMP JUMPDEST PUSH0 DUP2 SWAP1 POP SWAP2 SWAP1 POP JUMP JUMPDEST PUSH2 0x290 DUP2 PUSH2 0x27E JUMP JUMPDEST DUP3 MSTORE POP POP JUMP JUMPDEST PUSH0 PUSH1 0x20 DUP3 ADD SWAP1 POP PUSH2 0x2A9 PUSH0 DUP4 ADD DUP5 PUSH2 0x287 JUMP JUMPDEST SWAP3 SWAP2 POP POP JUMP JUMPDEST PUSH0 PUSH20 0xFFFFFFFFFFFFFFFFFFFFFFFFFFFFFFFFFFFFFFFF DUP3 AND SWAP1 POP SWAP2 SWAP1 POP JUMP JUMPDEST PUSH0 PUSH2 0x2D8 DUP3 PUSH2 0x2AF JUMP JUMPDEST SWAP1 POP SWAP2 SWAP1 POP JUMP JUMPDEST PUSH2 0x2E8 DUP2 PUSH2 0x2CE JUMP JUMPDEST DUP3 MSTORE POP POP JUMP JUMPDEST PUSH0 PUSH1 0x20 DUP3 ADD SWAP1 POP PUSH2 0x301 PUSH0 DUP4 ADD DUP5 PUSH2 0x2DF JUMP JUMPDEST SWAP3 SWAP2 POP POP JUMP JUMPDEST PUSH0 PUSH0 REVERT JUMPDEST PUSH2 0x314 DUP2 PUSH2 0x27E JUMP JUMPDEST DUP2 EQ PUSH2 0x31E JUMPI PUSH0 PUSH0 REVERT JUMPDEST POP JUMP JUMPDEST PUSH0 DUP2 CALLDATALOAD SWAP1 POP PUSH2 0x32F DUP2 PUSH2 0x30B JUMP JUMPDEST SWAP3 SWAP2 POP POP JUMP JUMPDEST PUSH0 PUSH1 0x20 DUP3 DUP5 SUB SLT ISZERO PUSH2 0x34A JUMPI PUSH2 0x349 PUSH2 0x307 JUMP JUMPDEST JUMPDEST PUSH0 PUSH2 0x357 DUP5 DUP3 DUP6 ADD PUSH2 0x321 JUMP JUMPDEST SWAP2 POP POP SWAP3 SWAP2 POP POP JUMP JUMPDEST PUSH0 DUP3 DUP3 MSTORE PUSH1 0x20 DUP3 ADD SWAP1 POP SWAP3 SWAP2 POP POP JUMP JUMPDEST PUSH32 0x436F756E7465722063616E6E6F7420676F206E65676174697665000000000000 PUSH0 DUP3 ADD MSTORE POP JUMP JUMPDEST PUSH0 PUSH2 0x3A4 PUSH1 0x1A DUP4 PUSH2 0x360 JUMP JUMPDEST SWAP2 POP PUSH2 0x3AF DUP3 PUSH2 0x370 JUMP JUMPDEST PUSH1 0x20 DUP3 ADD SWAP1 POP SWAP2 SWAP1 POP JUMP JUMPDEST PUSH0 PUSH1 0x20 DUP3 ADD SWAP1 POP DUP2 DUP2 SUB PUSH0 DUP4 ADD MSTORE PUSH2 0x3D1 DUP2 PUSH2 0x398 JUMP JUMPDEST SWAP1 POP SWAP2 SWAP1 POP JUMP JUMPDEST PUSH32 0x4E487B7100000000000000000000000000000000000000000000000000000000 PUSH0 MSTORE PUSH1 0x11 PUSH1 0x4 MSTORE PUSH1 0x24 PUSH0 REVERT JUMPDEST PUSH0 PUSH2 0x40F DUP3 PUSH2 0x27E JUMP JUMPDEST SWAP2 POP PUSH2 0x41A DUP4 PUSH2 0x27E JUMP JUMPDEST SWAP3 POP DUP3 DUP3 SUB SWAP1 POP DUP2 DUP2 GT ISZERO PUSH2 0x432 JUMPI PUSH2 0x431 PUSH2 0x3D8 JUMP JUMPDEST JUMPDEST SWAP3 SWAP2 POP POP JUMP JUMPDEST PUSH0 PUSH2 0x442 DUP3 PUSH2 0x27E JUMP JUMPDEST SWAP2 POP PUSH2 0x44D DUP4 PUSH2 0x27E JUMP JUMPDEST SWAP3 POP DUP3 DUP3 MUL PUSH2 0x45B DUP2 PUSH2 0x27E JUMP JUMPDEST SWAP2 POP DUP3 DUP3 DIV DUP5 EQ DUP4 ISZERO OR PUSH2 0x472 JUMPI PUSH2 0x471 PUSH2 0x3D8 JUMP JUMPDEST JUMPDEST POP SWAP3 SWAP2 POP POP JUMP JUMPDEST PUSH32 0x6F6E6C79206F776E65722063616E207265736574000000000000000000000000 PUSH0 DUP3 ADD MSTORE POP JUMP JUMPDEST PUSH0 PUSH2 0x4AD PUSH1 0x14 DUP4 PUSH2 0x360 JUMP JUMPDEST SWAP2 POP PUSH2 0x4B8 DUP3 PUSH2 0x479 JUMP JUMPDEST PUSH1 0x20 DUP3 ADD SWAP1 POP SWAP2 SWAP1 POP JUMP JUMPDEST PUSH0 PUSH1 0x20 DUP3 ADD SWAP1 POP DUP2 DUP2 SUB PUSH0 DUP4 ADD MSTORE PUSH2 0x4DA DUP2 PUSH2 0x4A1 JUMP JUMPDEST SWAP1 POP SWAP2 SWAP1 POP JUMP JUMPDEST PUSH0 PUSH2 0x4EB DUP3 PUSH2 0x27E JUMP JUMPDEST SWAP2 POP PUSH2 0x4F6 DUP4 PUSH2 0x27E JUMP JUMPDEST SWAP3 POP DUP3 DUP3 ADD SWAP1 POP DUP1 DUP3 GT ISZERO PUSH2 0x50E JUMPI PUSH2 0x50D PUSH2 0x3D8 JUMP JUMPDEST JUMPDEST SWAP3 SWAP2 POP POP JUMP INVALID LOG2 PUSH5 0x6970667358 0x22 SLT KECCAK256 PUSH30 0xC41FFDD676192F13690D884E9ADF744867BD1C2B8433E75E0CB75EAD655C GASPRICE PUSH5 0x736F6C6343 STOP ADDMOD 0x1F STOP CALLER "
		},
		"gasEstimates": {
			"creation": {
				"codeDepositCost": "270800",
				"executionCost": "24574",
				"totalCost": "295374"
			},
			"external": {
				"clickdecrease()": "infinite",
				"clickincrease()": "infinite",
				"double()": "infinite",
				"num()": "2448",
				"owner()": "2552",
				"reset()": "7368",
				"setnumber(uint256)": "22515",
				"square()": "infinite"
			}
		},
		"methodIdentifiers": {
			"clickdecrease()": "4a2c68ed",
			"clickincrease()": "efa4fb7f",
			"double()": "8fdb7189",
			"num()": "4e70b1dc",
			"owner()": "8da5cb5b",
			"reset()": "d826f88f",
			"setnumber(uint256)": "a632a2e5",
			"square()": "d742cb01"
		}
	},
	"abi": [
		{
			"inputs": [],
			"stateMutability": "nonpayable",
			"type": "constructor"
		},
		{
			"inputs": [],
			"name": "clickdecrease",
			"outputs": [],
			"stateMutability": "nonpayable",
			"type": "function"
		},
		{
			"inputs": [],
			"name": "clickincrease",
			"outputs": [],
			"stateMutability": "nonpayable",
			"type": "function"
		},
		{
			"inputs": [],
			"name": "double",
			"outputs": [],
			"stateMutability": "nonpayable",
			"type": "function"
		},
		{
			"inputs": [],
			"name": "num",
			"outputs": [
				{
					"internalType": "uint256",
					"name": "",
					"type": "uint256"
				}
			],
			"stateMutability": "view",
			"type": "function"
		},
		{
			"inputs": [],
			"name": "owner",
			"outputs": [
				{
					"internalType": "address",
					"name": "",
					"type": "address"
				}
			],
			"stateMutability": "view",
			"type": "function"
		},
		{
			"inputs": [],
			"name": "reset",
			"outputs": [],
			"stateMutability": "nonpayable",
			"type": "function"
		},
		{
			"inputs": [
				{
					"internalType": "uint256",
					"name": "number",
					"type": "uint256"
				}
			],
			"name": "setnumber",
			"outputs": [],
			"stateMutability": "nonpayable",
			"type": "function"
		},
		{
			"inputs": [],
			"name": "square",
			"outputs": [],
			"stateMutability": "nonpayable",
			"type": "function"
		}
	]
}